{
  "_format": "hh-sol-artifact-1",
  "contractName": "Aegis",
  "sourceName": "contracts/Aegis.sol",
  "abi": [
    {
      "inputs": [],
      "stateMutability": "nonpayable",
      "type": "constructor"
    },
    {
      "inputs": [],
      "name": "UnsupportedOperation",
      "type": "error"
    },
    {
      "anonymous": false,
      "inputs": [
        {
          "indexed": true,
          "internalType": "address",
          "name": "owner",
          "type": "address"
        },
        {
          "indexed": true,
          "internalType": "address",
          "name": "operator",
          "type": "address"
        },
        {
          "indexed": false,
          "internalType": "bool",
          "name": "approved",
          "type": "bool"
        }
      ],
      "name": "ApprovalForAll",
      "type": "event"
    },
    {
      "anonymous": false,
      "inputs": [
        {
          "indexed": true,
          "internalType": "address",
          "name": "issuer",
          "type": "address"
        },
        {
          "indexed": false,
          "internalType": "uint256",
          "name": "blockNumber",
          "type": "uint256"
        },
        {
          "indexed": true,
          "internalType": "uint256",
          "name": "keyId",
          "type": "uint256"
        },
        {
          "indexed": false,
          "internalType": "bytes32",
          "name": "merkleRoot",
          "type": "bytes32"
        }
      ],
      "name": "AttestationVerified",
      "type": "event"
    },
    {
      "anonymous": false,
      "inputs": [
        {
          "indexed": true,
          "internalType": "uint256",
          "name": "keyId",
          "type": "uint256"
        },
        {
          "indexed": true,
          "internalType": "address",
          "name": "claimer",
          "type": "address"
        },
        {
          "indexed": false,
          "internalType": "uint256",
          "name": "amount",
          "type": "uint256"
        }
      ],
      "name": "Claimed",
      "type": "event"
    },
    {
      "anonymous": false,
      "inputs": [
        {
          "indexed": true,
          "internalType": "uint256",
          "name": "keyId",
          "type": "uint256"
        },
        {
          "indexed": true,
          "internalType": "address",
          "name": "sender",
          "type": "address"
        },
        {
          "indexed": false,
          "internalType": "string",
          "name": "name",
          "type": "string"
        }
      ],
      "name": "Create",
      "type": "event"
    },
    {
      "anonymous": false,
      "inputs": [
        {
          "indexed": true,
          "internalType": "uint256",
          "name": "keyId",
          "type": "uint256"
        },
        {
          "indexed": true,
          "internalType": "address",
          "name": "sender",
          "type": "address"
        },
        {
          "indexed": false,
          "internalType": "bool",
          "name": "status",
          "type": "bool"
        }
      ],
      "name": "Liquidate",
      "type": "event"
    },
    {
      "anonymous": false,
      "inputs": [
        {
          "indexed": true,
          "internalType": "uint256",
          "name": "keyId",
          "type": "uint256"
        },
        {
          "indexed": false,
          "internalType": "bytes32",
          "name": "merkleRoot",
          "type": "bytes32"
        }
      ],
      "name": "MerkleRootUpdated",
      "type": "event"
    },
    {
      "anonymous": false,
      "inputs": [
        {
          "indexed": false,
          "internalType": "bool",
          "name": "status",
          "type": "bool"
        }
      ],
      "name": "SignProtocolStatusUpdated",
      "type": "event"
    },
    {
      "anonymous": false,
      "inputs": [
        {
          "indexed": true,
          "internalType": "enum Aegis.TradeType",
          "name": "tradeType",
          "type": "uint8"
        },
        {
          "indexed": true,
          "internalType": "uint256",
          "name": "keyId",
          "type": "uint256"
        },
        {
          "indexed": true,
          "internalType": "address",
          "name": "sender",
          "type": "address"
        },
        {
          "indexed": false,
          "internalType": "uint256",
          "name": "tokenAmount",
          "type": "uint256"
        },
        {
          "indexed": false,
          "internalType": "uint256",
          "name": "ethAmount",
          "type": "uint256"
        }
      ],
      "name": "Trade",
      "type": "event"
    },
    {
      "anonymous": false,
      "inputs": [
        {
          "indexed": true,
          "internalType": "address",
          "name": "operator",
          "type": "address"
        },
        {
          "indexed": true,
          "internalType": "address",
          "name": "from",
          "type": "address"
        },
        {
          "indexed": true,
          "internalType": "address",
          "name": "to",
          "type": "address"
        },
        {
          "indexed": false,
          "internalType": "uint256[]",
          "name": "ids",
          "type": "uint256[]"
        },
        {
          "indexed": false,
          "internalType": "uint256[]",
          "name": "amounts",
          "type": "uint256[]"
        }
      ],
      "name": "TransferBatch",
      "type": "event"
    },
    {
      "anonymous": false,
      "inputs": [
        {
          "indexed": true,
          "internalType": "address",
          "name": "operator",
          "type": "address"
        },
        {
          "indexed": true,
          "internalType": "address",
          "name": "from",
          "type": "address"
        },
        {
          "indexed": true,
          "internalType": "address",
          "name": "to",
          "type": "address"
        },
        {
          "indexed": false,
          "internalType": "uint256",
          "name": "id",
          "type": "uint256"
        },
        {
          "indexed": false,
          "internalType": "uint256",
          "name": "amount",
          "type": "uint256"
        }
      ],
      "name": "TransferSingle",
      "type": "event"
    },
    {
      "anonymous": false,
      "inputs": [
        {
          "indexed": false,
          "internalType": "string",
          "name": "value",
          "type": "string"
        },
        {
          "indexed": true,
          "internalType": "uint256",
          "name": "id",
          "type": "uint256"
        }
      ],
      "name": "URI",
      "type": "event"
    },
    {
      "inputs": [],
      "name": "CLAIM_DENOMINATOR",
      "outputs": [
        {
          "internalType": "uint256",
          "name": "",
          "type": "uint256"
        }
      ],
      "stateMutability": "view",
      "type": "function"
    },
    {
      "inputs": [],
      "name": "CLAIM_PERCENT",
      "outputs": [
        {
          "internalType": "uint256",
          "name": "",
          "type": "uint256"
        }
      ],
      "stateMutability": "view",
      "type": "function"
    },
    {
      "inputs": [],
      "name": "CREATOR_PREMINT",
      "outputs": [
        {
          "internalType": "uint256",
          "name": "",
          "type": "uint256"
        }
      ],
      "stateMutability": "view",
      "type": "function"
    },
    {
      "inputs": [
        {
          "internalType": "bytes32",
          "name": "merkleRoot",
          "type": "bytes32"
        },
        {
          "internalType": "address",
          "name": "account",
          "type": "address"
        },
        {
          "internalType": "uint256",
          "name": "blockNumber",
          "type": "uint256"
        },
        {
          "internalType": "uint256",
          "name": "keyId",
          "type": "uint256"
        }
      ],
      "name": "_attest",
      "outputs": [
        {
          "internalType": "uint64",
          "name": "",
          "type": "uint64"
        }
      ],
      "stateMutability": "nonpayable",
      "type": "function"
    },
    {
      "inputs": [
        {
          "internalType": "address",
          "name": "",
          "type": "address"
        },
        {
          "internalType": "uint256",
          "name": "",
          "type": "uint256"
        }
      ],
      "name": "balanceOf",
      "outputs": [
        {
          "internalType": "uint256",
          "name": "",
          "type": "uint256"
        }
      ],
      "stateMutability": "view",
      "type": "function"
    },
    {
      "inputs": [
        {
          "internalType": "address[]",
          "name": "owners",
          "type": "address[]"
        },
        {
          "internalType": "uint256[]",
          "name": "ids",
          "type": "uint256[]"
        }
      ],
      "name": "balanceOfBatch",
      "outputs": [
        {
          "internalType": "uint256[]",
          "name": "balances",
          "type": "uint256[]"
        }
      ],
      "stateMutability": "view",
      "type": "function"
    },
    {
      "inputs": [
        {
          "internalType": "uint256",
          "name": "keyId",
          "type": "uint256"
        },
        {
          "internalType": "uint256",
          "name": "amount",
          "type": "uint256"
        }
      ],
      "name": "buy",
      "outputs": [],
      "stateMutability": "payable",
      "type": "function"
    },
    {
      "inputs": [
        {
          "internalType": "uint256",
          "name": "keyId",
          "type": "uint256"
        },
        {
          "internalType": "uint256",
          "name": "amount",
          "type": "uint256"
        },
        {
          "internalType": "bytes32[]",
          "name": "merkleProof",
          "type": "bytes32[]"
        }
      ],
      "name": "claim",
      "outputs": [],
      "stateMutability": "nonpayable",
      "type": "function"
    },
    {
      "inputs": [
        {
          "internalType": "string",
          "name": "name",
          "type": "string"
        }
      ],
      "name": "create",
      "outputs": [],
      "stateMutability": "nonpayable",
      "type": "function"
    },
    {
      "inputs": [
        {
          "internalType": "address",
          "name": "attester",
          "type": "address"
        },
        {
          "internalType": "uint64",
          "name": "",
          "type": "uint64"
        },
        {
          "internalType": "uint64",
          "name": "attestationId",
          "type": "uint64"
        },
        {
          "internalType": "bytes",
          "name": "",
          "type": "bytes"
        }
      ],
      "name": "didReceiveAttestation",
      "outputs": [],
      "stateMutability": "payable",
      "type": "function"
    },
    {
      "inputs": [
        {
          "internalType": "address",
          "name": "",
          "type": "address"
        },
        {
          "internalType": "uint64",
          "name": "",
          "type": "uint64"
        },
        {
          "internalType": "uint64",
          "name": "",
          "type": "uint64"
        },
        {
          "internalType": "contract IERC20",
          "name": "",
          "type": "address"
        },
        {
          "internalType": "uint256",
          "name": "",
          "type": "uint256"
        },
        {
          "internalType": "bytes",
          "name": "",
          "type": "bytes"
        }
      ],
      "name": "didReceiveAttestation",
      "outputs": [],
      "stateMutability": "pure",
      "type": "function"
    },
    {
      "inputs": [
        {
          "internalType": "address",
          "name": "",
          "type": "address"
        },
        {
          "internalType": "uint64",
          "name": "",
          "type": "uint64"
        },
        {
          "internalType": "uint64",
          "name": "",
          "type": "uint64"
        },
        {
          "internalType": "bytes",
          "name": "",
          "type": "bytes"
        }
      ],
      "name": "didReceiveRevocation",
      "outputs": [],
      "stateMutability": "payable",
      "type": "function"
    },
    {
      "inputs": [
        {
          "internalType": "address",
          "name": "",
          "type": "address"
        },
        {
          "internalType": "uint64",
          "name": "",
          "type": "uint64"
        },
        {
          "internalType": "uint64",
          "name": "",
          "type": "uint64"
        },
        {
          "internalType": "contract IERC20",
          "name": "",
          "type": "address"
        },
        {
          "internalType": "uint256",
          "name": "",
          "type": "uint256"
        },
        {
          "internalType": "bytes",
          "name": "",
          "type": "bytes"
        }
      ],
      "name": "didReceiveRevocation",
      "outputs": [],
      "stateMutability": "pure",
      "type": "function"
    },
    {
      "inputs": [
        {
          "internalType": "uint256",
          "name": "keyId",
          "type": "uint256"
        },
        {
          "internalType": "uint256",
          "name": "amount",
          "type": "uint256"
        }
      ],
      "name": "getBuyPrice",
      "outputs": [
        {
          "internalType": "uint256",
          "name": "",
          "type": "uint256"
        }
      ],
      "stateMutability": "view",
      "type": "function"
    },
    {
      "inputs": [
        {
          "internalType": "address",
          "name": "addr",
          "type": "address"
        }
      ],
      "name": "getKeysByAddress",
      "outputs": [
        {
          "internalType": "uint256[]",
          "name": "",
          "type": "uint256[]"
        }
      ],
      "stateMutability": "view",
      "type": "function"
    },
    {
      "inputs": [
        {
          "internalType": "uint256",
          "name": "keyId",
          "type": "uint256"
        }
      ],
      "name": "getMerkleRoot",
      "outputs": [
        {
          "internalType": "bytes32",
          "name": "",
          "type": "bytes32"
        }
      ],
      "stateMutability": "view",
      "type": "function"
    },
    {
      "inputs": [
        {
          "internalType": "uint256",
          "name": "supply",
          "type": "uint256"
        },
        {
          "internalType": "uint256",
          "name": "amount",
          "type": "uint256"
        }
      ],
      "name": "getPrice",
      "outputs": [
        {
          "internalType": "uint256",
          "name": "",
          "type": "uint256"
        }
      ],
      "stateMutability": "pure",
      "type": "function"
    },
    {
      "inputs": [
        {
          "internalType": "uint256",
          "name": "keyId",
          "type": "uint256"
        },
        {
          "internalType": "uint256",
          "name": "amount",
          "type": "uint256"
        }
      ],
      "name": "getSellPrice",
      "outputs": [
        {
          "internalType": "uint256",
          "name": "",
          "type": "uint256"
        }
      ],
      "stateMutability": "view",
      "type": "function"
    },
    {
      "inputs": [
        {
          "internalType": "uint256",
          "name": "",
          "type": "uint256"
        },
        {
          "internalType": "address",
          "name": "",
          "type": "address"
        }
      ],
      "name": "hasClaimed",
      "outputs": [
        {
          "internalType": "bool",
          "name": "",
          "type": "bool"
        }
      ],
      "stateMutability": "view",
      "type": "function"
    },
    {
      "inputs": [
        {
          "internalType": "address",
          "name": "",
          "type": "address"
        },
        {
          "internalType": "address",
          "name": "",
          "type": "address"
        }
      ],
      "name": "isApprovedForAll",
      "outputs": [
        {
          "internalType": "bool",
          "name": "",
          "type": "bool"
        }
      ],
      "stateMutability": "view",
      "type": "function"
    },
    {
      "inputs": [],
      "name": "keyIndex",
      "outputs": [
        {
          "internalType": "uint256",
          "name": "",
          "type": "uint256"
        }
      ],
      "stateMutability": "view",
      "type": "function"
    },
    {
      "inputs": [
        {
          "internalType": "uint256",
          "name": "",
          "type": "uint256"
        }
      ],
      "name": "keys",
      "outputs": [
        {
          "internalType": "uint256",
          "name": "id",
          "type": "uint256"
        },
        {
          "internalType": "string",
          "name": "name",
          "type": "string"
        },
        {
          "internalType": "address",
          "name": "creator",
          "type": "address"
        },
        {
          "internalType": "bool",
          "name": "isLiquidated",
          "type": "bool"
        },
        {
          "internalType": "bytes32",
          "name": "merkleRoot",
          "type": "bytes32"
        }
      ],
      "stateMutability": "view",
      "type": "function"
    },
    {
      "inputs": [],
      "name": "owner",
      "outputs": [
        {
          "internalType": "address",
          "name": "",
          "type": "address"
        }
      ],
      "stateMutability": "view",
      "type": "function"
    },
    {
      "inputs": [
        {
          "internalType": "uint256",
          "name": "",
          "type": "uint256"
        }
      ],
      "name": "pool",
      "outputs": [
        {
          "internalType": "uint256",
          "name": "",
          "type": "uint256"
        }
      ],
      "stateMutability": "view",
      "type": "function"
    },
    {
      "inputs": [
        {
          "internalType": "address",
          "name": "l1_contract",
          "type": "address"
        },
        {
          "internalType": "uint256",
          "name": "slot",
          "type": "uint256"
        }
      ],
      "name": "readSingleSlot",
      "outputs": [
        {
          "internalType": "bytes",
          "name": "",
          "type": "bytes"
        }
      ],
      "stateMutability": "view",
      "type": "function"
    },
    {
      "inputs": [
        {
          "internalType": "address",
          "name": "from",
          "type": "address"
        },
        {
          "internalType": "address",
          "name": "to",
          "type": "address"
        },
        {
          "internalType": "uint256[]",
          "name": "ids",
          "type": "uint256[]"
        },
        {
          "internalType": "uint256[]",
          "name": "amounts",
          "type": "uint256[]"
        },
        {
          "internalType": "bytes",
          "name": "data",
          "type": "bytes"
        }
      ],
      "name": "safeBatchTransferFrom",
      "outputs": [],
      "stateMutability": "nonpayable",
      "type": "function"
    },
    {
      "inputs": [
        {
          "internalType": "address",
          "name": "from",
          "type": "address"
        },
        {
          "internalType": "address",
          "name": "to",
          "type": "address"
        },
        {
          "internalType": "uint256",
          "name": "id",
          "type": "uint256"
        },
        {
          "internalType": "uint256",
          "name": "amount",
          "type": "uint256"
        },
        {
          "internalType": "bytes",
          "name": "data",
          "type": "bytes"
        }
      ],
      "name": "safeTransferFrom",
      "outputs": [],
      "stateMutability": "nonpayable",
      "type": "function"
    },
    {
      "inputs": [],
      "name": "schemaId",
      "outputs": [
        {
          "internalType": "uint64",
          "name": "",
          "type": "uint64"
        }
      ],
      "stateMutability": "view",
      "type": "function"
    },
    {
      "inputs": [
        {
          "internalType": "uint256",
          "name": "keyId",
          "type": "uint256"
        },
        {
          "internalType": "uint256",
          "name": "amount",
          "type": "uint256"
        }
      ],
      "name": "sell",
      "outputs": [],
      "stateMutability": "nonpayable",
      "type": "function"
    },
    {
      "inputs": [
        {
          "internalType": "address",
          "name": "operator",
          "type": "address"
        },
        {
          "internalType": "bool",
          "name": "approved",
          "type": "bool"
        }
      ],
      "name": "setApprovalForAll",
      "outputs": [],
      "stateMutability": "nonpayable",
      "type": "function"
    },
    {
      "inputs": [
        {
          "internalType": "address",
          "name": "instance",
          "type": "address"
        }
      ],
      "name": "setSPInstance",
      "outputs": [],
      "stateMutability": "nonpayable",
      "type": "function"
    },
    {
      "inputs": [
        {
          "internalType": "uint64",
          "name": "schemaId_",
          "type": "uint64"
        }
      ],
      "name": "setSchemaID",
      "outputs": [],
      "stateMutability": "nonpayable",
      "type": "function"
    },
    {
      "inputs": [
        {
          "internalType": "bool",
          "name": "status",
          "type": "bool"
        }
      ],
      "name": "setSignProtocolStatus",
      "outputs": [],
      "stateMutability": "nonpayable",
      "type": "function"
    },
    {
      "inputs": [],
      "name": "signProtocolEnabled",
      "outputs": [
        {
          "internalType": "bool",
          "name": "",
          "type": "bool"
        }
      ],
      "stateMutability": "view",
      "type": "function"
    },
    {
      "inputs": [],
      "name": "spInstance",
      "outputs": [
        {
          "internalType": "contract ISP",
          "name": "",
          "type": "address"
        }
      ],
      "stateMutability": "view",
      "type": "function"
    },
    {
      "inputs": [
        {
          "internalType": "bytes4",
          "name": "interfaceId",
          "type": "bytes4"
        }
      ],
      "name": "supportsInterface",
      "outputs": [
        {
          "internalType": "bool",
          "name": "",
          "type": "bool"
        }
      ],
      "stateMutability": "view",
      "type": "function"
    },
    {
      "inputs": [
        {
          "internalType": "uint256",
          "name": "keyId",
          "type": "uint256"
        }
      ],
      "name": "toggleLiquidation",
      "outputs": [],
      "stateMutability": "nonpayable",
      "type": "function"
    },
    {
      "inputs": [
        {
          "internalType": "uint256",
          "name": "",
          "type": "uint256"
        }
      ],
      "name": "totalSupply",
      "outputs": [
        {
          "internalType": "uint256",
          "name": "",
          "type": "uint256"
        }
      ],
      "stateMutability": "view",
      "type": "function"
    },
    {
      "inputs": [
        {
          "internalType": "uint256",
          "name": "keyId",
          "type": "uint256"
        },
        {
          "internalType": "bytes32",
          "name": "merkleRoot",
          "type": "bytes32"
        }
      ],
      "name": "updateMerkleRoot",
      "outputs": [],
      "stateMutability": "nonpayable",
      "type": "function"
    },
    {
      "inputs": [
        {
          "internalType": "uint256",
          "name": "id",
          "type": "uint256"
        }
      ],
      "name": "uri",
      "outputs": [
        {
          "internalType": "string",
          "name": "",
          "type": "string"
        }
      ],
      "stateMutability": "view",
      "type": "function"
    },
    {
      "inputs": [
        {
          "internalType": "address",
          "name": "",
          "type": "address"
        },
        {
          "internalType": "uint256",
          "name": "",
          "type": "uint256"
        }
      ],
      "name": "userKeys",
      "outputs": [
        {
          "internalType": "uint256",
          "name": "",
          "type": "uint256"
        }
      ],
      "stateMutability": "view",
      "type": "function"
    },
    {
      "inputs": [
        {
          "internalType": "uint256",
          "name": "keyId",
          "type": "uint256"
        },
        {
          "internalType": "address",
          "name": "account",
          "type": "address"
        },
        {
          "internalType": "uint256",
          "name": "amount",
          "type": "uint256"
        },
        {
          "internalType": "bytes32[]",
          "name": "merkleProof",
          "type": "bytes32[]"
        }
      ],
      "name": "verifyMerkle",
      "outputs": [
        {
          "internalType": "bool",
          "name": "",
          "type": "bool"
        }
      ],
      "stateMutability": "view",
      "type": "function"
    }
  ],
  "bytecode": "0x6080604052348015600f57600080fd5b5033600360006101000a81548173ffffffffffffffffffffffffffffffffffffffff021916908373ffffffffffffffffffffffffffffffffffffffff16021790555060006009601c6101000a81548160ff02191690831515021790555061575a8061007b6000396000f3fe6080604052600436106102505760003560e01c80638da5cb5b11610139578063c23c8b03116100b6578063e830b5c71161007a578063e830b5c714610946578063e985e9c51461096f578063f1e33115146109ac578063f242432a146109d5578063fe313112146109fe578063fe6cb06414610a3b57610250565b8063c23c8b0314610891578063d6716938146108ba578063d6febde8146108e5578063d79875eb14610901578063e33361f41461092a57610250565b8063a8c5dc33116100fd578063a8c5dc331461079a578063ae0b51df146107c5578063b6a46b3b146107ee578063bd85b03914610817578063c157253d1461085457610250565b80638da5cb5b146106a35780638e9d660f146106ce57806393990f7a146106f75780639477d85d14610734578063a22cb4651461077157610250565b80632eb2c2d6116101d25780634e1273f4116101965780634e1273f4146105595780634fccfb671461059657806358074d8b146105d35780635cf4ee91146105fe5780637ffb25ac1461063b578063873f6f9e1461066657610250565b80632eb2c2d6146104835780633398b4ed146104ac5780634466507a146104c85780634d7b31d7146104f15780634d8cfcd41461051c57610250565b80630cb6aaf1116102195780630cb6aaf1146103605780630e89341c146103a1578063102b72e7146103de5780631b7a1bbe1461041b5780632741a8c51461045857610250565b8062fdd58e1461025557806301ffc9a71461029257806305ca8ee3146102cf578063075b1a09146102f85780630aab8ba514610323575b600080fd5b34801561026157600080fd5b5061027c600480360381019061027791906131f7565b610a64565b6040516102899190613246565b60405180910390f35b34801561029e57600080fd5b506102b960048036038101906102b491906132b9565b610a89565b6040516102c69190613301565b60405180910390f35b3480156102db57600080fd5b506102f660048036038101906102f1919061335c565b610b1b565b005b34801561030457600080fd5b5061030d610b47565b60405161031a9190613398565b60405180910390f35b34801561032f57600080fd5b5061034a600480360381019061034591906133b3565b610b61565b60405161035791906133f9565b60405180910390f35b34801561036c57600080fd5b50610387600480360381019061038291906133b3565b610bc5565b6040516103989594939291906134b3565b60405180910390f35b3480156103ad57600080fd5b506103c860048036038101906103c391906133b3565b610cb0565b6040516103d5919061350d565b60405180910390f35b3480156103ea57600080fd5b50610405600480360381019061040091906131f7565b610d58565b6040516104129190613584565b60405180910390f35b34801561042757600080fd5b50610442600480360381019061043d919061360b565b610e40565b60405161044f9190613301565b60405180910390f35b34801561046457600080fd5b5061046d610f37565b60405161047a9190613246565b60405180910390f35b34801561048f57600080fd5b506104aa60048036038101906104a5919061373f565b610f3d565b005b6104c660048036038101906104c1919061381b565b611399565b005b3480156104d457600080fd5b506104ef60048036038101906104ea91906138e1565b611445565b005b3480156104fd57600080fd5b50610506611477565b6040516105139190613246565b60405180910390f35b34801561052857600080fd5b50610543600480360381019061053e9190613990565b61147d565b6040516105509190613a7b565b60405180910390f35b34801561056557600080fd5b50610580600480360381019061057b9190613af3565b611514565b60405161058d9190613a7b565b60405180910390f35b3480156105a257600080fd5b506105bd60048036038101906105b89190613ba0565b61167d565b6040516105ca9190613398565b60405180910390f35b3480156105df57600080fd5b506105e861189b565b6040516105f59190613246565b60405180910390f35b34801561060a57600080fd5b5061062560048036038101906106209190613c07565b6118a1565b6040516106329190613246565b60405180910390f35b34801561064757600080fd5b506106506118d2565b60405161065d9190613246565b60405180910390f35b34801561067257600080fd5b5061068d60048036038101906106889190613c47565b6118de565b60405161069a9190613301565b60405180910390f35b3480156106af57600080fd5b506106b861190d565b6040516106c59190613c87565b60405180910390f35b3480156106da57600080fd5b506106f560048036038101906106f09190613990565b611933565b005b34801561070357600080fd5b5061071e600480360381019061071991906131f7565b611977565b60405161072b9190613246565b60405180910390f35b34801561074057600080fd5b5061075b60048036038101906107569190613c07565b6119a8565b6040516107689190613246565b60405180910390f35b34801561077d57600080fd5b5061079860048036038101906107939190613cce565b6119da565b005b3480156107a657600080fd5b506107af611ad7565b6040516107bc9190613d6d565b60405180910390f35b3480156107d157600080fd5b506107ec60048036038101906107e79190613d88565b611afd565b005b3480156107fa57600080fd5b5061081560048036038101906108109190613e52565b611e19565b005b34801561082357600080fd5b5061083e600480360381019061083991906133b3565b612170565b60405161084b9190613246565b60405180910390f35b34801561086057600080fd5b5061087b60048036038101906108769190613c07565b612188565b6040516108889190613246565b60405180910390f35b34801561089d57600080fd5b506108b860048036038101906108b391906133b3565b6121af565b005b3480156108c657600080fd5b506108cf61229c565b6040516108dc9190613301565b60405180910390f35b6108ff60048036038101906108fa9190613c07565b6122af565b005b34801561090d57600080fd5b5061092860048036038101906109239190613c07565b612481565b005b610944600480360381019061093f919061381b565b6127a6565b005b34801561095257600080fd5b5061096d600480360381019061096891906138e1565b6127d8565b005b34801561097b57600080fd5b5061099660048036038101906109919190613e9f565b61280a565b6040516109a39190613301565b60405180910390f35b3480156109b857600080fd5b506109d360048036038101906109ce9190613edf565b612839565b005b3480156109e157600080fd5b506109fc60048036038101906109f79190613f1f565b61296d565b005b348015610a0a57600080fd5b50610a256004803603810190610a2091906133b3565b612d20565b604051610a329190613246565b60405180910390f35b348015610a4757600080fd5b50610a626004803603810190610a5d9190613fb9565b612d38565b005b6000602052816000526040600020602052806000526040600020600091509150505481565b60006301ffc9a760e01b827bffffffffffffffffffffffffffffffffffffffffffffffffffffffff19161480610ae4575063d9b67a2660e01b827bffffffffffffffffffffffffffffffffffffffffffffffffffffffff1916145b80610b145750630e89341c60e01b827bffffffffffffffffffffffffffffffffffffffffffffffffffffffff1916145b9050919050565b80600960146101000a81548167ffffffffffffffff021916908367ffffffffffffffff16021790555050565b600960149054906101000a900467ffffffffffffffff1681565b60006004548210610ba7576040517f08c379a0000000000000000000000000000000000000000000000000000000008152600401610b9e90614032565b60405180910390fd5b60026000838152602001908152602001600020600301549050919050565b6002602052806000526040600020600091509050806000015490806001018054610bee90614081565b80601f0160208091040260200160405190810160405280929190818152602001828054610c1a90614081565b8015610c675780601f10610c3c57610100808354040283529160200191610c67565b820191906000526020600020905b815481529060010190602001808311610c4a57829003601f168201915b5050505050908060020160009054906101000a900473ffffffffffffffffffffffffffffffffffffffff16908060020160149054906101000a900460ff16908060030154905085565b6060600260008381526020019081526020016000206001018054610cd390614081565b80601f0160208091040260200160405190810160405280929190818152602001828054610cff90614081565b8015610d4c5780601f10610d2157610100808354040283529160200191610d4c565b820191906000526020600020905b815481529060010190602001808311610d2f57829003601f168201915b50505050509050919050565b606060008383604051602001610d6f92919061411b565b60405160208183030381529060405290506000606061010173ffffffffffffffffffffffffffffffffffffffff1683604051610dab9190614183565b600060405180830381855afa9150503d8060008114610de6576040519150601f19603f3d011682016040523d82523d6000602084013e610deb565b606091505b50809250819350505081610e34576040517f08c379a0000000000000000000000000000000000000000000000000000000008152600401610e2b906141e6565b60405180910390fd5b80935050505092915050565b6000808585604051602001610e5692919061411b565b604051602081830303815290604052805190602001209050600081905060005b85859050811015610f10576000868683818110610e9657610e95614206565b5b905060200201359050808311610ed6578281604051602001610eb9929190614256565b604051602081830303815290604052805190602001209250610f02565b8083604051602001610ee9929190614256565b6040516020818303038152906040528051906020012092505b508080600101915050610e76565b50600260008981526020019081526020016000206003015481149250505095945050505050565b6103e881565b838390508686905014610f85576040517f08c379a0000000000000000000000000000000000000000000000000000000008152600401610f7c906142ce565b60405180910390fd5b8773ffffffffffffffffffffffffffffffffffffffff163373ffffffffffffffffffffffffffffffffffffffff1614806110455750600160008973ffffffffffffffffffffffffffffffffffffffff1673ffffffffffffffffffffffffffffffffffffffff16815260200190815260200160002060003373ffffffffffffffffffffffffffffffffffffffff1673ffffffffffffffffffffffffffffffffffffffff16815260200190815260200160002060009054906101000a900460ff165b611084576040517f08c379a000000000000000000000000000000000000000000000000000000000815260040161107b9061433a565b60405180910390fd5b60008060005b888890508110156111a4578888828181106110a8576110a7614206565b5b9050602002013592508686828181106110c4576110c3614206565b5b905060200201359150816000808d73ffffffffffffffffffffffffffffffffffffffff1673ffffffffffffffffffffffffffffffffffffffff1681526020019081526020016000206000858152602001908152602001600020600082825461112c9190614389565b92505081905550816000808c73ffffffffffffffffffffffffffffffffffffffff1673ffffffffffffffffffffffffffffffffffffffff1681526020019081526020016000206000858152602001908152602001600020600082825461119291906143bd565b9250508190555080600101905061108a565b508873ffffffffffffffffffffffffffffffffffffffff168a73ffffffffffffffffffffffffffffffffffffffff163373ffffffffffffffffffffffffffffffffffffffff167f4a39dc06d4c0dbc64b70af90fd698a233a518aa5d07e595d983b8c0526c8f7fb8b8b8b8b60405161121f949392919061445b565b60405180910390a460008973ffffffffffffffffffffffffffffffffffffffff163b1461131c5763bc197c8160e01b7bffffffffffffffffffffffffffffffffffffffffffffffffffffffff19168973ffffffffffffffffffffffffffffffffffffffff1663bc197c81338d8c8c8c8c8c8c6040518963ffffffff1660e01b81526004016112b49897969594939291906144d2565b6020604051808303816000875af11580156112d3573d6000803e3d6000fd5b505050506040513d601f19601f820116820180604052508101906112f79190614555565b7bffffffffffffffffffffffffffffffffffffffffffffffffffffffff19161461134e565b600073ffffffffffffffffffffffffffffffffffffffff168973ffffffffffffffffffffffffffffffffffffffff1614155b61138d576040517f08c379a0000000000000000000000000000000000000000000000000000000008152600401611384906145ce565b60405180910390fd5b50505050505050505050565b60003373ffffffffffffffffffffffffffffffffffffffff166362252880856040518263ffffffff1660e01b81526004016113d49190613398565b600060405180830381865afa1580156113f1573d6000803e3d6000fd5b505050506040513d6000823e3d601f19601f8201168201806040525081019061141a919061498c565b905061143d81610120015180602001905181019061143891906149ea565b612d8c565b505050505050565b6040517f9ba6061b00000000000000000000000000000000000000000000000000000000815260040160405180910390fd5b6103e781565b6060600560008373ffffffffffffffffffffffffffffffffffffffff1673ffffffffffffffffffffffffffffffffffffffff16815260200190815260200160002080548060200260200160405190810160405280929190818152602001828054801561150857602002820191906000526020600020905b8154815260200190600101908083116114f4575b50505050509050919050565b606082829050858590501461155e576040517f08c379a0000000000000000000000000000000000000000000000000000000008152600401611555906142ce565b60405180910390fd5b8484905067ffffffffffffffff81111561157b5761157a6145f3565b5b6040519080825280602002602001820160405280156115a95781602001602082028036833780820191505090505b50905060005b85859050811015611674576000808787848181106115d0576115cf614206565b5b90506020020160208101906115e59190613990565b73ffffffffffffffffffffffffffffffffffffffff1673ffffffffffffffffffffffffffffffffffffffff168152602001908152602001600020600085858481811061163457611633614206565b5b9050602002013581526020019081526020016000205482828151811061165d5761165c614206565b5b6020026020010181815250508060010190506115af565b50949350505050565b600080600167ffffffffffffffff81111561169b5761169a6145f3565b5b6040519080825280602002602001820160405280156116ce57816020015b60608152602001906001900390816116b95790505b509050306040516020016116e29190613c87565b6040516020818303038152906040528160008151811061170557611704614206565b5b60200260200101819052506000604051806101400160405280600960149054906101000a900467ffffffffffffffff1667ffffffffffffffff168152602001600067ffffffffffffffff168152602001600067ffffffffffffffff168152602001600067ffffffffffffffff1681526020013073ffffffffffffffffffffffffffffffffffffffff168152602001600067ffffffffffffffff168152602001600060038111156117b8576117b7614a17565b5b8152602001600015158152602001838152602001866040516020016117dd9190613246565b6040516020818303038152906040528152509050600960009054906101000a900473ffffffffffffffffffffffffffffffffffffffff1673ffffffffffffffffffffffffffffffffffffffff1663b82916cb826040518263ffffffff1660e01b815260040161184c9190614cf1565b6020604051808303816000875af115801561186b573d6000803e3d6000fd5b505050506040513d601f19601f8201168201806040525081019061188f9190614d4c565b92505050949350505050565b60045481565b60006118ac83612dd2565b6118c083856118bb91906143bd565b612dd2565b6118ca9190614389565b905092915050565b670de0b6b3a764000081565b60086020528160005260406000206020528060005260406000206000915091509054906101000a900460ff1681565b600360009054906101000a900473ffffffffffffffffffffffffffffffffffffffff1681565b80600960006101000a81548173ffffffffffffffffffffffffffffffffffffffff021916908373ffffffffffffffffffffffffffffffffffffffff16021790555050565b6005602052816000526040600020818154811061199357600080fd5b90600052602060002001600091509150505481565b60006119d28260066000868152602001908152602001600020546119cc9190614389565b836118a1565b905092915050565b80600160003373ffffffffffffffffffffffffffffffffffffffff1673ffffffffffffffffffffffffffffffffffffffff16815260200190815260200160002060008473ffffffffffffffffffffffffffffffffffffffff1673ffffffffffffffffffffffffffffffffffffffff16815260200190815260200160002060006101000a81548160ff0219169083151502179055508173ffffffffffffffffffffffffffffffffffffffff163373ffffffffffffffffffffffffffffffffffffffff167f17307eab39ab6107e8899845ad3d59bd9653f200f220920489ca2b5937696c3183604051611acb9190613301565b60405180910390a35050565b600960009054906101000a900473ffffffffffffffffffffffffffffffffffffffff1681565b6004548410611b41576040517f08c379a0000000000000000000000000000000000000000000000000000000008152600401611b3890614032565b60405180910390fd5b6002600085815260200190815260200160002060020160149054906101000a900460ff16611ba4576040517f08c379a0000000000000000000000000000000000000000000000000000000008152600401611b9b90614dc5565b60405180910390fd5b6008600085815260200190815260200160002060003373ffffffffffffffffffffffffffffffffffffffff1673ffffffffffffffffffffffffffffffffffffffff16815260200190815260200160002060009054906101000a900460ff1615611c42576040517f08c379a0000000000000000000000000000000000000000000000000000000008152600401611c3990614e31565b60405180910390fd5b611c4f8433858585610e40565b611c8e576040517f08c379a0000000000000000000000000000000000000000000000000000000008152600401611c8590614e9d565b60405180910390fd5b60006103e86103e785611ca19190614ebd565b611cab9190614f2e565b905060016008600087815260200190815260200160002060003373ffffffffffffffffffffffffffffffffffffffff1673ffffffffffffffffffffffffffffffffffffffff16815260200190815260200160002060006101000a81548160ff02191690831515021790555060003373ffffffffffffffffffffffffffffffffffffffff1682604051611d3c90614f82565b60006040518083038185875af1925050503d8060008114611d79576040519150601f19603f3d011682016040523d82523d6000602084013e611d7e565b606091505b5050905080611dc2576040517f08c379a0000000000000000000000000000000000000000000000000000000008152600401611db990614fe3565b60405180910390fd5b3373ffffffffffffffffffffffffffffffffffffffff16867f4ec90e965519d92681267467f775ada5bd214aa92c0dc93d90a5e880ce9ed02684604051611e099190613246565b60405180910390a3505050505050565b600360009054906101000a900473ffffffffffffffffffffffffffffffffffffffff1673ffffffffffffffffffffffffffffffffffffffff163373ffffffffffffffffffffffffffffffffffffffff1614611ea9576040517f08c379a0000000000000000000000000000000000000000000000000000000008152600401611ea09061504f565b60405180910390fd5b600060045490506040518060a0016040528082815260200184848080601f016020809104026020016040519081016040528093929190818152602001838380828437600081840152601f19601f8201169050808301925050505050505081526020013373ffffffffffffffffffffffffffffffffffffffff1681526020016000151581526020016000801b81525060026000838152602001908152602001600020600082015181600001556020820151816001019081611f699190615211565b5060408201518160020160006101000a81548173ffffffffffffffffffffffffffffffffffffffff021916908373ffffffffffffffffffffffffffffffffffffffff16021790555060608201518160020160146101000a81548160ff02191690831515021790555060808201518160030155905050600560003373ffffffffffffffffffffffffffffffffffffffff1673ffffffffffffffffffffffffffffffffffffffff168152602001908152602001600020819080600181540180825580915050600190039060005260206000200160009091909190915055670de0b6b3a764000060066000838152602001908152602001600020600082825461206f91906143bd565b9250508190555060018161208391906143bd565b6004819055506120ac3382670de0b6b3a764000060405180602001604052806000815250612e19565b3373ffffffffffffffffffffffffffffffffffffffff16817fb683691564ab594b1f9e9db91abaf085736871256a4741baa41bf30cb9d4f23685856040516120f5929190615310565b60405180910390a33373ffffffffffffffffffffffffffffffffffffffff16816000600281111561212957612128614a17565b5b7fef9efaa688e86a93d98a7f0102f8f58ea72875d8578cc452a9f1623481f0bfcc670de0b6b3a7640000600060405161216392919061536f565b60405180910390a4505050565b60066020528060005260406000206000915090505481565b60006121a76006600085815260200190815260200160002054836118a1565b905092915050565b60045481106121f3576040517f08c379a00000000000000000000000000000000000000000000000000000000081526004016121ea90614032565b60405180910390fd5b60006002600083815260200190815260200160002090508060020160149054906101000a900460ff16158160020160146101000a81548160ff0219169083151502179055503373ffffffffffffffffffffffffffffffffffffffff16827fd7f9f91585e13a431090cee597fff8e7e61fbf3c332f6e5fdf25b6ce7fa99b4c8360020160149054906101000a900460ff166040516122909190613301565b60405180910390a35050565b6009601c9054906101000a900460ff1681565b60045482106122f3576040517f08c379a00000000000000000000000000000000000000000000000000000000081526004016122ea90614032565b60405180910390fd5b6002600083815260200190815260200160002060020160149054906101000a900460ff1615612357576040517f08c379a000000000000000000000000000000000000000000000000000000000815260040161234e906153e4565b60405180910390fd5b60006123638383612188565b9050803410156123a8576040517f08c379a000000000000000000000000000000000000000000000000000000000815260040161239f90615450565b60405180910390fd5b816006600085815260200190815260200160002060008282546123cb91906143bd565b92505081905550806007600085815260200190815260200160002060008282546123f591906143bd565b9250508190555061241733848460405180602001604052806000815250612e19565b3373ffffffffffffffffffffffffffffffffffffffff16836001600281111561244357612442614a17565b5b7fef9efaa688e86a93d98a7f0102f8f58ea72875d8578cc452a9f1623481f0bfcc8585604051612474929190615470565b60405180910390a4505050565b60045482106124c5576040517f08c379a00000000000000000000000000000000000000000000000000000000081526004016124bc90614032565b60405180910390fd5b6002600083815260200190815260200160002060020160149054906101000a900460ff1615612529576040517f08c379a0000000000000000000000000000000000000000000000000000000008152600401612520906153e4565b60405180910390fd5b806000803373ffffffffffffffffffffffffffffffffffffffff1673ffffffffffffffffffffffffffffffffffffffff16815260200190815260200160002060008481526020019081526020016000205410156125bb576040517f08c379a00000000000000000000000000000000000000000000000000000000081526004016125b2906154e5565b60405180910390fd5b600060066000848152602001908152602001600020549050670de0b6b3a764000082826125e89190614389565b1015612629576040517f08c379a000000000000000000000000000000000000000000000000000000000815260040161262090615577565b60405180910390fd5b600061263584846119a8565b9050612642338585613065565b828261264e9190614389565b6006600086815260200190815260200160002081905550806007600086815260200190815260200160002060008282546126889190614389565b925050819055503373ffffffffffffffffffffffffffffffffffffffff16846002808111156126ba576126b9614a17565b5b7fef9efaa688e86a93d98a7f0102f8f58ea72875d8578cc452a9f1623481f0bfcc86856040516126eb929190615470565b60405180910390a460003373ffffffffffffffffffffffffffffffffffffffff168260405161271990614f82565b60006040518083038185875af1925050503d8060008114612756576040519150601f19603f3d011682016040523d82523d6000602084013e61275b565b606091505b505090508061279f576040517f08c379a000000000000000000000000000000000000000000000000000000000815260040161279690614fe3565b60405180910390fd5b5050505050565b6040517f9ba6061b00000000000000000000000000000000000000000000000000000000815260040160405180910390fd5b6040517f9ba6061b00000000000000000000000000000000000000000000000000000000815260040160405180910390fd5b60016020528160005260406000206020528060005260406000206000915091509054906101000a900460ff1681565b600454821061287d576040517f08c379a000000000000000000000000000000000000000000000000000000000815260040161287490614032565b60405180910390fd5b8060026000848152602001908152602001600020600301819055506009601c9054906101000a900460ff1615612931573073ffffffffffffffffffffffffffffffffffffffff16634fccfb67823343866040518563ffffffff1660e01b81526004016128ec9493929190615597565b6020604051808303816000875af115801561290b573d6000803e3d6000fd5b505050506040513d601f19601f8201168201806040525081019061292f9190614d4c565b505b817f9ff79792a92b66fee090acb66e07837a2edb31ee6b9780fa551fd04b79dffcd28260405161296191906133f9565b60405180910390a25050565b8573ffffffffffffffffffffffffffffffffffffffff163373ffffffffffffffffffffffffffffffffffffffff161480612a2d5750600160008773ffffffffffffffffffffffffffffffffffffffff1673ffffffffffffffffffffffffffffffffffffffff16815260200190815260200160002060003373ffffffffffffffffffffffffffffffffffffffff1673ffffffffffffffffffffffffffffffffffffffff16815260200190815260200160002060009054906101000a900460ff165b612a6c576040517f08c379a0000000000000000000000000000000000000000000000000000000008152600401612a639061433a565b60405180910390fd5b826000808873ffffffffffffffffffffffffffffffffffffffff1673ffffffffffffffffffffffffffffffffffffffff16815260200190815260200160002060008681526020019081526020016000206000828254612acb9190614389565b92505081905550826000808773ffffffffffffffffffffffffffffffffffffffff1673ffffffffffffffffffffffffffffffffffffffff16815260200190815260200160002060008681526020019081526020016000206000828254612b3191906143bd565b925050819055508473ffffffffffffffffffffffffffffffffffffffff168673ffffffffffffffffffffffffffffffffffffffff163373ffffffffffffffffffffffffffffffffffffffff167fc3d58168c5ae7397731d063d5bbf3d657854427343f4c083240f7aacaa2d0f628787604051612bae929190615470565b60405180910390a460008573ffffffffffffffffffffffffffffffffffffffff163b14612ca75763f23a6e6160e01b7bffffffffffffffffffffffffffffffffffffffffffffffffffffffff19168573ffffffffffffffffffffffffffffffffffffffff1663f23a6e613389888888886040518763ffffffff1660e01b8152600401612c3f969594939291906155dc565b6020604051808303816000875af1158015612c5e573d6000803e3d6000fd5b505050506040513d601f19601f82011682018060405250810190612c829190614555565b7bffffffffffffffffffffffffffffffffffffffffffffffffffffffff191614612cd9565b600073ffffffffffffffffffffffffffffffffffffffff168573ffffffffffffffffffffffffffffffffffffffff1614155b612d18576040517f08c379a0000000000000000000000000000000000000000000000000000000008152600401612d0f906145ce565b60405180910390fd5b505050505050565b60076020528060005260406000206000915090505481565b806009601c6101000a81548160ff0219169083151502179055507f7c09dd8dd4787434dd8307c4c789c5cf2d9a9ee03d4bbbb574e32824281be60981604051612d819190613301565b60405180910390a150565b43811115612dcf576040517f08c379a0000000000000000000000000000000000000000000000000000000008152600401612dc6906156aa565b60405180910390fd5b50565b6000670de0b6b3a7640000821115612e0f5766038d7ea4c68000670de0b6b3a764000083612e009190614389565b612e0a9190614ebd565b612e12565b60005b9050919050565b816000808673ffffffffffffffffffffffffffffffffffffffff1673ffffffffffffffffffffffffffffffffffffffff16815260200190815260200160002060008581526020019081526020016000206000828254612e7891906143bd565b925050819055508373ffffffffffffffffffffffffffffffffffffffff16600073ffffffffffffffffffffffffffffffffffffffff163373ffffffffffffffffffffffffffffffffffffffff167fc3d58168c5ae7397731d063d5bbf3d657854427343f4c083240f7aacaa2d0f628686604051612ef6929190615470565b60405180910390a460008473ffffffffffffffffffffffffffffffffffffffff163b14612fee5763f23a6e6160e01b7bffffffffffffffffffffffffffffffffffffffffffffffffffffffff19168473ffffffffffffffffffffffffffffffffffffffff1663f23a6e613360008787876040518663ffffffff1660e01b8152600401612f869594939291906156ca565b6020604051808303816000875af1158015612fa5573d6000803e3d6000fd5b505050506040513d601f19601f82011682018060405250810190612fc99190614555565b7bffffffffffffffffffffffffffffffffffffffffffffffffffffffff191614613020565b600073ffffffffffffffffffffffffffffffffffffffff168473ffffffffffffffffffffffffffffffffffffffff1614155b61305f576040517f08c379a0000000000000000000000000000000000000000000000000000000008152600401613056906145ce565b60405180910390fd5b50505050565b806000808573ffffffffffffffffffffffffffffffffffffffff1673ffffffffffffffffffffffffffffffffffffffff168152602001908152602001600020600084815260200190815260200160002060008282546130c49190614389565b92505081905550600073ffffffffffffffffffffffffffffffffffffffff168373ffffffffffffffffffffffffffffffffffffffff163373ffffffffffffffffffffffffffffffffffffffff167fc3d58168c5ae7397731d063d5bbf3d657854427343f4c083240f7aacaa2d0f628585604051613142929190615470565b60405180910390a4505050565b6000604051905090565b600080fd5b600080fd5b600073ffffffffffffffffffffffffffffffffffffffff82169050919050565b600061318e82613163565b9050919050565b61319e81613183565b81146131a957600080fd5b50565b6000813590506131bb81613195565b92915050565b6000819050919050565b6131d4816131c1565b81146131df57600080fd5b50565b6000813590506131f1816131cb565b92915050565b6000806040838503121561320e5761320d613159565b5b600061321c858286016131ac565b925050602061322d858286016131e2565b9150509250929050565b613240816131c1565b82525050565b600060208201905061325b6000830184613237565b92915050565b60007fffffffff0000000000000000000000000000000000000000000000000000000082169050919050565b61329681613261565b81146132a157600080fd5b50565b6000813590506132b38161328d565b92915050565b6000602082840312156132cf576132ce613159565b5b60006132dd848285016132a4565b91505092915050565b60008115159050919050565b6132fb816132e6565b82525050565b600060208201905061331660008301846132f2565b92915050565b600067ffffffffffffffff82169050919050565b6133398161331c565b811461334457600080fd5b50565b60008135905061335681613330565b92915050565b60006020828403121561337257613371613159565b5b600061338084828501613347565b91505092915050565b6133928161331c565b82525050565b60006020820190506133ad6000830184613389565b92915050565b6000602082840312156133c9576133c8613159565b5b60006133d7848285016131e2565b91505092915050565b6000819050919050565b6133f3816133e0565b82525050565b600060208201905061340e60008301846133ea565b92915050565b600081519050919050565b600082825260208201905092915050565b60005b8381101561344e578082015181840152602081019050613433565b60008484015250505050565b6000601f19601f8301169050919050565b600061347682613414565b613480818561341f565b9350613490818560208601613430565b6134998161345a565b840191505092915050565b6134ad81613183565b82525050565b600060a0820190506134c86000830188613237565b81810360208301526134da818761346b565b90506134e960408301866134a4565b6134f660608301856132f2565b61350360808301846133ea565b9695505050505050565b60006020820190508181036000830152613527818461346b565b905092915050565b600081519050919050565b600082825260208201905092915050565b60006135568261352f565b613560818561353a565b9350613570818560208601613430565b6135798161345a565b840191505092915050565b6000602082019050818103600083015261359e818461354b565b905092915050565b600080fd5b600080fd5b600080fd5b60008083601f8401126135cb576135ca6135a6565b5b8235905067ffffffffffffffff8111156135e8576135e76135ab565b5b602083019150836020820283011115613604576136036135b0565b5b9250929050565b60008060008060006080868803121561362757613626613159565b5b6000613635888289016131e2565b9550506020613646888289016131ac565b9450506040613657888289016131e2565b935050606086013567ffffffffffffffff8111156136785761367761315e565b5b613684888289016135b5565b92509250509295509295909350565b60008083601f8401126136a9576136a86135a6565b5b8235905067ffffffffffffffff8111156136c6576136c56135ab565b5b6020830191508360208202830111156136e2576136e16135b0565b5b9250929050565b60008083601f8401126136ff576136fe6135a6565b5b8235905067ffffffffffffffff81111561371c5761371b6135ab565b5b602083019150836001820283011115613738576137376135b0565b5b9250929050565b60008060008060008060008060a0898b03121561375f5761375e613159565b5b600061376d8b828c016131ac565b985050602061377e8b828c016131ac565b975050604089013567ffffffffffffffff81111561379f5761379e61315e565b5b6137ab8b828c01613693565b9650965050606089013567ffffffffffffffff8111156137ce576137cd61315e565b5b6137da8b828c01613693565b9450945050608089013567ffffffffffffffff8111156137fd576137fc61315e565b5b6138098b828c016136e9565b92509250509295985092959890939650565b60008060008060006080868803121561383757613836613159565b5b6000613845888289016131ac565b955050602061385688828901613347565b945050604061386788828901613347565b935050606086013567ffffffffffffffff8111156138885761388761315e565b5b613894888289016136e9565b92509250509295509295909350565b60006138ae82613183565b9050919050565b6138be816138a3565b81146138c957600080fd5b50565b6000813590506138db816138b5565b92915050565b600080600080600080600060c0888a031215613900576138ff613159565b5b600061390e8a828b016131ac565b975050602061391f8a828b01613347565b96505060406139308a828b01613347565b95505060606139418a828b016138cc565b94505060806139528a828b016131e2565b93505060a088013567ffffffffffffffff8111156139735761397261315e565b5b61397f8a828b016136e9565b925092505092959891949750929550565b6000602082840312156139a6576139a5613159565b5b60006139b4848285016131ac565b91505092915050565b600081519050919050565b600082825260208201905092915050565b6000819050602082019050919050565b6139f2816131c1565b82525050565b6000613a0483836139e9565b60208301905092915050565b6000602082019050919050565b6000613a28826139bd565b613a3281856139c8565b9350613a3d836139d9565b8060005b83811015613a6e578151613a5588826139f8565b9750613a6083613a10565b925050600181019050613a41565b5085935050505092915050565b60006020820190508181036000830152613a958184613a1d565b905092915050565b60008083601f840112613ab357613ab26135a6565b5b8235905067ffffffffffffffff811115613ad057613acf6135ab565b5b602083019150836020820283011115613aec57613aeb6135b0565b5b9250929050565b60008060008060408587031215613b0d57613b0c613159565b5b600085013567ffffffffffffffff811115613b2b57613b2a61315e565b5b613b3787828801613a9d565b9450945050602085013567ffffffffffffffff811115613b5a57613b5961315e565b5b613b6687828801613693565b925092505092959194509250565b613b7d816133e0565b8114613b8857600080fd5b50565b600081359050613b9a81613b74565b92915050565b60008060008060808587031215613bba57613bb9613159565b5b6000613bc887828801613b8b565b9450506020613bd9878288016131ac565b9350506040613bea878288016131e2565b9250506060613bfb878288016131e2565b91505092959194509250565b60008060408385031215613c1e57613c1d613159565b5b6000613c2c858286016131e2565b9250506020613c3d858286016131e2565b9150509250929050565b60008060408385031215613c5e57613c5d613159565b5b6000613c6c858286016131e2565b9250506020613c7d858286016131ac565b9150509250929050565b6000602082019050613c9c60008301846134a4565b92915050565b613cab816132e6565b8114613cb657600080fd5b50565b600081359050613cc881613ca2565b92915050565b60008060408385031215613ce557613ce4613159565b5b6000613cf3858286016131ac565b9250506020613d0485828601613cb9565b9150509250929050565b6000819050919050565b6000613d33613d2e613d2984613163565b613d0e565b613163565b9050919050565b6000613d4582613d18565b9050919050565b6000613d5782613d3a565b9050919050565b613d6781613d4c565b82525050565b6000602082019050613d826000830184613d5e565b92915050565b60008060008060608587031215613da257613da1613159565b5b6000613db0878288016131e2565b9450506020613dc1878288016131e2565b935050604085013567ffffffffffffffff811115613de257613de161315e565b5b613dee878288016135b5565b925092505092959194509250565b60008083601f840112613e1257613e116135a6565b5b8235905067ffffffffffffffff811115613e2f57613e2e6135ab565b5b602083019150836001820283011115613e4b57613e4a6135b0565b5b9250929050565b60008060208385031215613e6957613e68613159565b5b600083013567ffffffffffffffff811115613e8757613e8661315e565b5b613e9385828601613dfc565b92509250509250929050565b60008060408385031215613eb657613eb5613159565b5b6000613ec4858286016131ac565b9250506020613ed5858286016131ac565b9150509250929050565b60008060408385031215613ef657613ef5613159565b5b6000613f04858286016131e2565b9250506020613f1585828601613b8b565b9150509250929050565b60008060008060008060a08789031215613f3c57613f3b613159565b5b6000613f4a89828a016131ac565b9650506020613f5b89828a016131ac565b9550506040613f6c89828a016131e2565b9450506060613f7d89828a016131e2565b935050608087013567ffffffffffffffff811115613f9e57613f9d61315e565b5b613faa89828a016136e9565b92509250509295509295509295565b600060208284031215613fcf57613fce613159565b5b6000613fdd84828501613cb9565b91505092915050565b7f4b657920646f6573206e6f742065786973740000000000000000000000000000600082015250565b600061401c60128361341f565b915061402782613fe6565b602082019050919050565b6000602082019050818103600083015261404b8161400f565b9050919050565b7f4e487b7100000000000000000000000000000000000000000000000000000000600052602260045260246000fd5b6000600282049050600182168061409957607f821691505b6020821081036140ac576140ab614052565b5b50919050565b60008160601b9050919050565b60006140ca826140b2565b9050919050565b60006140dc826140bf565b9050919050565b6140f46140ef82613183565b6140d1565b82525050565b6000819050919050565b614115614110826131c1565b6140fa565b82525050565b600061412782856140e3565b6014820191506141378284614104565b6020820191508190509392505050565b600081905092915050565b600061415d8261352f565b6141678185614147565b9350614177818560208601613430565b80840191505092915050565b600061418f8284614152565b915081905092915050565b7f4c31534c4f4144206661696c6564000000000000000000000000000000000000600082015250565b60006141d0600e8361341f565b91506141db8261419a565b602082019050919050565b600060208201905081810360008301526141ff816141c3565b9050919050565b7f4e487b7100000000000000000000000000000000000000000000000000000000600052603260045260246000fd5b6000819050919050565b61425061424b826133e0565b614235565b82525050565b6000614262828561423f565b602082019150614272828461423f565b6020820191508190509392505050565b7f4c454e4754485f4d49534d415443480000000000000000000000000000000000600082015250565b60006142b8600f8361341f565b91506142c382614282565b602082019050919050565b600060208201905081810360008301526142e7816142ab565b9050919050565b7f4e4f545f415554484f52495a4544000000000000000000000000000000000000600082015250565b6000614324600e8361341f565b915061432f826142ee565b602082019050919050565b6000602082019050818103600083015261435381614317565b9050919050565b7f4e487b7100000000000000000000000000000000000000000000000000000000600052601160045260246000fd5b6000614394826131c1565b915061439f836131c1565b92508282039050818111156143b7576143b661435a565b5b92915050565b60006143c8826131c1565b91506143d3836131c1565b92508282019050808211156143eb576143ea61435a565b5b92915050565b600080fd5b82818337505050565b600061440b83856139c8565b93507f07ffffffffffffffffffffffffffffffffffffffffffffffffffffffffffffff83111561443e5761443d6143f1565b5b60208302925061444f8385846143f6565b82840190509392505050565b600060408201905081810360008301526144768186886143ff565b9050818103602083015261448b8184866143ff565b905095945050505050565b82818337600083830152505050565b60006144b1838561353a565b93506144be838584614496565b6144c78361345a565b840190509392505050565b600060a0820190506144e7600083018b6134a4565b6144f4602083018a6134a4565b818103604083015261450781888a6143ff565b9050818103606083015261451c8186886143ff565b905081810360808301526145318184866144a5565b90509998505050505050505050565b60008151905061454f8161328d565b92915050565b60006020828403121561456b5761456a613159565b5b600061457984828501614540565b91505092915050565b7f554e534146455f524543495049454e5400000000000000000000000000000000600082015250565b60006145b860108361341f565b91506145c382614582565b602082019050919050565b600060208201905081810360008301526145e7816145ab565b9050919050565b600080fd5b7f4e487b7100000000000000000000000000000000000000000000000000000000600052604160045260246000fd5b61462b8261345a565b810181811067ffffffffffffffff8211171561464a576146496145f3565b5b80604052505050565b600061465d61314f565b90506146698282614622565b919050565b600080fd5b60008151905061468281613330565b92915050565b60008151905061469781613195565b92915050565b600481106146aa57600080fd5b50565b6000815190506146bc8161469d565b92915050565b6000815190506146d181613ca2565b92915050565b600067ffffffffffffffff8211156146f2576146f16145f3565b5b602082029050602081019050919050565b600080fd5b600067ffffffffffffffff821115614723576147226145f3565b5b61472c8261345a565b9050602081019050919050565b600061474c61474784614708565b614653565b90508281526020810184848401111561476857614767614703565b5b614773848285613430565b509392505050565b600082601f8301126147905761478f6135a6565b5b81516147a0848260208601614739565b91505092915050565b60006147bc6147b7846146d7565b614653565b905080838252602082019050602084028301858111156147df576147de6135b0565b5b835b8181101561482657805167ffffffffffffffff811115614804576148036135a6565b5b808601614811898261477b565b855260208501945050506020810190506147e1565b5050509392505050565b600082601f830112614845576148446135a6565b5b81516148558482602086016147a9565b91505092915050565b60006101408284031215614875576148746145ee565b5b614880610140614653565b9050600061489084828501614673565b60008301525060206148a484828501614673565b60208301525060406148b884828501614673565b60408301525060606148cc84828501614673565b60608301525060806148e084828501614688565b60808301525060a06148f484828501614673565b60a08301525060c0614908848285016146ad565b60c08301525060e061491c848285016146c2565b60e08301525061010082015167ffffffffffffffff8111156149415761494061466e565b5b61494d84828501614830565b6101008301525061012082015167ffffffffffffffff8111156149735761497261466e565b5b61497f8482850161477b565b6101208301525092915050565b6000602082840312156149a2576149a1613159565b5b600082015167ffffffffffffffff8111156149c0576149bf61315e565b5b6149cc8482850161485e565b91505092915050565b6000815190506149e4816131cb565b92915050565b600060208284031215614a00576149ff613159565b5b6000614a0e848285016149d5565b91505092915050565b7f4e487b7100000000000000000000000000000000000000000000000000000000600052602160045260246000fd5b614a4f8161331c565b82525050565b614a5e81613183565b82525050565b60048110614a7557614a74614a17565b5b50565b6000819050614a8682614a64565b919050565b6000614a9682614a78565b9050919050565b614aa681614a8b565b82525050565b614ab5816132e6565b82525050565b600081519050919050565b600082825260208201905092915050565b6000819050602082019050919050565b600082825260208201905092915050565b6000614b038261352f565b614b0d8185614ae7565b9350614b1d818560208601613430565b614b268161345a565b840191505092915050565b6000614b3d8383614af8565b905092915050565b6000602082019050919050565b6000614b5d82614abb565b614b678185614ac6565b935083602082028501614b7985614ad7565b8060005b85811015614bb55784840389528151614b968582614b31565b9450614ba183614b45565b925060208a01995050600181019050614b7d565b50829750879550505050505092915050565b600061014083016000830151614be06000860182614a46565b506020830151614bf36020860182614a46565b506040830151614c066040860182614a46565b506060830151614c196060860182614a46565b506080830151614c2c6080860182614a55565b5060a0830151614c3f60a0860182614a46565b5060c0830151614c5260c0860182614a9d565b5060e0830151614c6560e0860182614aac565b50610100830151848203610100860152614c7f8282614b52565b915050610120830151848203610120860152614c9b8282614af8565b9150508091505092915050565b50565b6000614cb860008361341f565b9150614cc382614ca8565b600082019050919050565b6000614cdb60008361353a565b9150614ce682614ca8565b600082019050919050565b60006080820190508181036000830152614d0b8184614bc7565b90508181036020830152614d1e81614cab565b90508181036040830152614d3181614cce565b90508181036060830152614d4481614cce565b905092915050565b600060208284031215614d6257614d61613159565b5b6000614d7084828501614673565b91505092915050565b7f4b657920706f6f6c206973206e6f74206c697175696461746564000000000000600082015250565b6000614daf601a8361341f565b9150614dba82614d79565b602082019050919050565b60006020820190508181036000830152614dde81614da2565b9050919050565b7f416c726561647920636c61696d65640000000000000000000000000000000000600082015250565b6000614e1b600f8361341f565b9150614e2682614de5565b602082019050919050565b60006020820190508181036000830152614e4a81614e0e565b9050919050565b7f496e76616c6964206d65726b6c652070726f6f66000000000000000000000000600082015250565b6000614e8760148361341f565b9150614e9282614e51565b602082019050919050565b60006020820190508181036000830152614eb681614e7a565b9050919050565b6000614ec8826131c1565b9150614ed3836131c1565b9250828202614ee1816131c1565b91508282048414831517614ef857614ef761435a565b5b5092915050565b7f4e487b7100000000000000000000000000000000000000000000000000000000600052601260045260246000fd5b6000614f39826131c1565b9150614f44836131c1565b925082614f5457614f53614eff565b5b828204905092915050565b6000614f6c600083614147565b9150614f7782614ca8565b600082019050919050565b6000614f8d82614f5f565b9150819050919050565b7f4661696c656420746f2073656e64204574686572000000000000000000000000600082015250565b6000614fcd60148361341f565b9150614fd882614f97565b602082019050919050565b60006020820190508181036000830152614ffc81614fc0565b9050919050565b7f4e6f74206f776e65720000000000000000000000000000000000000000000000600082015250565b600061503960098361341f565b915061504482615003565b602082019050919050565b600060208201905081810360008301526150688161502c565b9050919050565b60008190508160005260206000209050919050565b60006020601f8301049050919050565b600082821b905092915050565b6000600883026150d17fffffffffffffffffffffffffffffffffffffffffffffffffffffffffffffffff82615094565b6150db8683615094565b95508019841693508086168417925050509392505050565b600061510e615109615104846131c1565b613d0e565b6131c1565b9050919050565b6000819050919050565b615128836150f3565b61513c61513482615115565b8484546150a1565b825550505050565b600090565b615151615144565b61515c81848461511f565b505050565b5b8181101561518057615175600082615149565b600181019050615162565b5050565b601f8211156151c5576151968161506f565b61519f84615084565b810160208510156151ae578190505b6151c26151ba85615084565b830182615161565b50505b505050565b600082821c905092915050565b60006151e8600019846008026151ca565b1980831691505092915050565b600061520183836151d7565b9150826002028217905092915050565b61521a82613414565b67ffffffffffffffff811115615233576152326145f3565b5b61523d8254614081565b615248828285615184565b600060209050601f83116001811461527b5760008415615269578287015190505b61527385826151f5565b8655506152db565b601f1984166152898661506f565b60005b828110156152b15784890151825560018201915060208501945060208101905061528c565b868310156152ce57848901516152ca601f8916826151d7565b8355505b6001600288020188555050505b505050505050565b60006152ef838561341f565b93506152fc838584614496565b6153058361345a565b840190509392505050565b6000602082019050818103600083015261532b8184866152e3565b90509392505050565b6000819050919050565b600061535961535461534f84615334565b613d0e565b6131c1565b9050919050565b6153698161533e565b82525050565b60006040820190506153846000830185613237565b6153916020830184615360565b9392505050565b7f4b657920706f6f6c206973206c69717569646174656400000000000000000000600082015250565b60006153ce60168361341f565b91506153d982615398565b602082019050919050565b600060208201905081810360008301526153fd816153c1565b9050919050565b7f496e73756666696369656e74207061796d656e74000000000000000000000000600082015250565b600061543a60148361341f565b915061544582615404565b602082019050919050565b600060208201905081810360008301526154698161542d565b9050919050565b60006040820190506154856000830185613237565b6154926020830184613237565b9392505050565b7f496e73756666696369656e742062616c616e6365000000000000000000000000600082015250565b60006154cf60148361341f565b91506154da82615499565b602082019050919050565b600060208201905081810360008301526154fe816154c2565b9050919050565b7f537570706c79206e6f7420616c6c6f7765642062656c6f77207072656d696e7460008201527f20616d6f756e7400000000000000000000000000000000000000000000000000602082015250565b600061556160278361341f565b915061556c82615505565b604082019050919050565b6000602082019050818103600083015261559081615554565b9050919050565b60006080820190506155ac60008301876133ea565b6155b960208301866134a4565b6155c66040830185613237565b6155d36060830184613237565b95945050505050565b600060a0820190506155f160008301896134a4565b6155fe60208301886134a4565b61560b6040830187613237565b6156186060830186613237565b818103608083015261562b8184866144a5565b9050979650505050505050565b7f426c6f636b206e756d6265722063616e6e6f7420626520696e2074686520667560008201527f7475726500000000000000000000000000000000000000000000000000000000602082015250565b600061569460248361341f565b915061569f82615638565b604082019050919050565b600060208201905081810360008301526156c381615687565b9050919050565b600060a0820190506156df60008301886134a4565b6156ec60208301876134a4565b6156f96040830186613237565b6157066060830185613237565b8181036080830152615718818461354b565b9050969550505050505056fea26469706673582212207f29a40073af44436b773a2ceac80ef1739da2efbfd65887c8213249faa00f4364736f6c634300081b0033",
  "linkReferences": {},
  "deployedLinkReferences": {}
}