{
  "_format": "hh-sol-artifact-1",
  "contractName": "Aegis",
  "sourceName": "contracts/Aegis.sol",
  "abi": [
    {
      "inputs": [],
      "stateMutability": "nonpayable",
      "type": "constructor"
    },
    {
      "inputs": [],
      "name": "UnsupportedOperation",
      "type": "error"
    },
    {
      "anonymous": false,
      "inputs": [
        {
          "indexed": true,
          "internalType": "address",
          "name": "owner",
          "type": "address"
        },
        {
          "indexed": true,
          "internalType": "address",
          "name": "operator",
          "type": "address"
        },
        {
          "indexed": false,
          "internalType": "bool",
          "name": "approved",
          "type": "bool"
        }
      ],
      "name": "ApprovalForAll",
      "type": "event"
    },
    {
      "anonymous": false,
      "inputs": [
        {
          "indexed": true,
          "internalType": "address",
          "name": "issuer",
          "type": "address"
        },
        {
          "indexed": false,
          "internalType": "uint256",
          "name": "blockNumber",
          "type": "uint256"
        },
        {
          "indexed": true,
          "internalType": "uint256",
          "name": "keyId",
          "type": "uint256"
        },
        {
          "indexed": false,
          "internalType": "bytes32",
          "name": "merkleRoot",
          "type": "bytes32"
        }
      ],
      "name": "AttestationVerified",
      "type": "event"
    },
    {
      "anonymous": false,
      "inputs": [
        {
          "indexed": true,
          "internalType": "uint256",
          "name": "keyId",
          "type": "uint256"
        },
        {
          "indexed": true,
          "internalType": "address",
          "name": "claimer",
          "type": "address"
        },
        {
          "indexed": false,
          "internalType": "uint256",
          "name": "amount",
          "type": "uint256"
        }
      ],
      "name": "Claimed",
      "type": "event"
    },
    {
      "anonymous": false,
      "inputs": [
        {
          "indexed": true,
          "internalType": "uint256",
          "name": "keyId",
          "type": "uint256"
        },
        {
          "indexed": true,
          "internalType": "address",
          "name": "sender",
          "type": "address"
        },
        {
          "indexed": false,
          "internalType": "string",
          "name": "name",
          "type": "string"
        }
      ],
      "name": "Create",
      "type": "event"
    },
    {
      "anonymous": false,
      "inputs": [
        {
          "indexed": true,
          "internalType": "uint256",
          "name": "keyId",
          "type": "uint256"
        },
        {
          "indexed": true,
          "internalType": "address",
          "name": "sender",
          "type": "address"
        },
        {
          "indexed": false,
          "internalType": "bool",
          "name": "status",
          "type": "bool"
        }
      ],
      "name": "Liquidate",
      "type": "event"
    },
    {
      "anonymous": false,
      "inputs": [
        {
          "indexed": true,
          "internalType": "uint256",
          "name": "keyId",
          "type": "uint256"
        },
        {
          "indexed": false,
          "internalType": "bytes32",
          "name": "merkleRoot",
          "type": "bytes32"
        }
      ],
      "name": "MerkleRootUpdated",
      "type": "event"
    },
    {
      "anonymous": false,
      "inputs": [
        {
          "indexed": false,
          "internalType": "bool",
          "name": "status",
          "type": "bool"
        }
      ],
      "name": "SignProtocolStatusUpdated",
      "type": "event"
    },
    {
      "anonymous": false,
      "inputs": [
        {
          "indexed": true,
          "internalType": "enum Aegis.TradeType",
          "name": "tradeType",
          "type": "uint8"
        },
        {
          "indexed": true,
          "internalType": "uint256",
          "name": "keyId",
          "type": "uint256"
        },
        {
          "indexed": true,
          "internalType": "address",
          "name": "sender",
          "type": "address"
        },
        {
          "indexed": false,
          "internalType": "uint256",
          "name": "tokenAmount",
          "type": "uint256"
        },
        {
          "indexed": false,
          "internalType": "uint256",
          "name": "ethAmount",
          "type": "uint256"
        }
      ],
      "name": "Trade",
      "type": "event"
    },
    {
      "anonymous": false,
      "inputs": [
        {
          "indexed": true,
          "internalType": "address",
          "name": "operator",
          "type": "address"
        },
        {
          "indexed": true,
          "internalType": "address",
          "name": "from",
          "type": "address"
        },
        {
          "indexed": true,
          "internalType": "address",
          "name": "to",
          "type": "address"
        },
        {
          "indexed": false,
          "internalType": "uint256[]",
          "name": "ids",
          "type": "uint256[]"
        },
        {
          "indexed": false,
          "internalType": "uint256[]",
          "name": "amounts",
          "type": "uint256[]"
        }
      ],
      "name": "TransferBatch",
      "type": "event"
    },
    {
      "anonymous": false,
      "inputs": [
        {
          "indexed": true,
          "internalType": "address",
          "name": "operator",
          "type": "address"
        },
        {
          "indexed": true,
          "internalType": "address",
          "name": "from",
          "type": "address"
        },
        {
          "indexed": true,
          "internalType": "address",
          "name": "to",
          "type": "address"
        },
        {
          "indexed": false,
          "internalType": "uint256",
          "name": "id",
          "type": "uint256"
        },
        {
          "indexed": false,
          "internalType": "uint256",
          "name": "amount",
          "type": "uint256"
        }
      ],
      "name": "TransferSingle",
      "type": "event"
    },
    {
      "anonymous": false,
      "inputs": [
        {
          "indexed": false,
          "internalType": "string",
          "name": "value",
          "type": "string"
        },
        {
          "indexed": true,
          "internalType": "uint256",
          "name": "id",
          "type": "uint256"
        }
      ],
      "name": "URI",
      "type": "event"
    },
    {
      "inputs": [],
      "name": "CLAIM_DENOMINATOR",
      "outputs": [
        {
          "internalType": "uint256",
          "name": "",
          "type": "uint256"
        }
      ],
      "stateMutability": "view",
      "type": "function"
    },
    {
      "inputs": [],
      "name": "CLAIM_PERCENT",
      "outputs": [
        {
          "internalType": "uint256",
          "name": "",
          "type": "uint256"
        }
      ],
      "stateMutability": "view",
      "type": "function"
    },
    {
      "inputs": [],
      "name": "CREATOR_PREMINT",
      "outputs": [
        {
          "internalType": "uint256",
          "name": "",
          "type": "uint256"
        }
      ],
      "stateMutability": "view",
      "type": "function"
    },
    {
      "inputs": [
        {
          "internalType": "bytes32",
          "name": "merkleRoot",
          "type": "bytes32"
        },
        {
          "internalType": "address",
          "name": "account",
          "type": "address"
        },
        {
          "internalType": "uint256",
          "name": "blockNumber",
          "type": "uint256"
        },
        {
          "internalType": "uint256",
          "name": "keyId",
          "type": "uint256"
        }
      ],
      "name": "_attest",
      "outputs": [
        {
          "internalType": "uint64",
          "name": "",
          "type": "uint64"
        }
      ],
      "stateMutability": "nonpayable",
      "type": "function"
    },
    {
      "inputs": [
        {
          "internalType": "address",
          "name": "",
          "type": "address"
        },
        {
          "internalType": "uint256",
          "name": "",
          "type": "uint256"
        }
      ],
      "name": "balanceOf",
      "outputs": [
        {
          "internalType": "uint256",
          "name": "",
          "type": "uint256"
        }
      ],
      "stateMutability": "view",
      "type": "function"
    },
    {
      "inputs": [
        {
          "internalType": "address[]",
          "name": "owners",
          "type": "address[]"
        },
        {
          "internalType": "uint256[]",
          "name": "ids",
          "type": "uint256[]"
        }
      ],
      "name": "balanceOfBatch",
      "outputs": [
        {
          "internalType": "uint256[]",
          "name": "balances",
          "type": "uint256[]"
        }
      ],
      "stateMutability": "view",
      "type": "function"
    },
    {
      "inputs": [
        {
          "internalType": "uint256",
          "name": "keyId",
          "type": "uint256"
        },
        {
          "internalType": "uint256",
          "name": "amount",
          "type": "uint256"
        }
      ],
      "name": "buy",
      "outputs": [],
      "stateMutability": "payable",
      "type": "function"
    },
    {
      "inputs": [
        {
          "internalType": "uint256",
          "name": "keyId",
          "type": "uint256"
        },
        {
          "internalType": "uint256",
          "name": "amount",
          "type": "uint256"
        },
        {
          "internalType": "bytes32[]",
          "name": "merkleProof",
          "type": "bytes32[]"
        }
      ],
      "name": "claim",
      "outputs": [],
      "stateMutability": "nonpayable",
      "type": "function"
    },
    {
      "inputs": [
        {
          "internalType": "string",
          "name": "name",
          "type": "string"
        }
      ],
      "name": "create",
      "outputs": [],
      "stateMutability": "nonpayable",
      "type": "function"
    },
    {
      "inputs": [
        {
          "internalType": "string",
          "name": "name",
          "type": "string"
        }
      ],
      "name": "createFromL1",
      "outputs": [],
      "stateMutability": "nonpayable",
      "type": "function"
    },
    {
      "inputs": [
        {
          "internalType": "address",
          "name": "attester",
          "type": "address"
        },
        {
          "internalType": "uint64",
          "name": "",
          "type": "uint64"
        },
        {
          "internalType": "uint64",
          "name": "attestationId",
          "type": "uint64"
        },
        {
          "internalType": "bytes",
          "name": "",
          "type": "bytes"
        }
      ],
      "name": "didReceiveAttestation",
      "outputs": [],
      "stateMutability": "payable",
      "type": "function"
    },
    {
      "inputs": [
        {
          "internalType": "address",
          "name": "",
          "type": "address"
        },
        {
          "internalType": "uint64",
          "name": "",
          "type": "uint64"
        },
        {
          "internalType": "uint64",
          "name": "",
          "type": "uint64"
        },
        {
          "internalType": "contract IERC20",
          "name": "",
          "type": "address"
        },
        {
          "internalType": "uint256",
          "name": "",
          "type": "uint256"
        },
        {
          "internalType": "bytes",
          "name": "",
          "type": "bytes"
        }
      ],
      "name": "didReceiveAttestation",
      "outputs": [],
      "stateMutability": "pure",
      "type": "function"
    },
    {
      "inputs": [
        {
          "internalType": "address",
          "name": "",
          "type": "address"
        },
        {
          "internalType": "uint64",
          "name": "",
          "type": "uint64"
        },
        {
          "internalType": "uint64",
          "name": "",
          "type": "uint64"
        },
        {
          "internalType": "bytes",
          "name": "",
          "type": "bytes"
        }
      ],
      "name": "didReceiveRevocation",
      "outputs": [],
      "stateMutability": "payable",
      "type": "function"
    },
    {
      "inputs": [
        {
          "internalType": "address",
          "name": "",
          "type": "address"
        },
        {
          "internalType": "uint64",
          "name": "",
          "type": "uint64"
        },
        {
          "internalType": "uint64",
          "name": "",
          "type": "uint64"
        },
        {
          "internalType": "contract IERC20",
          "name": "",
          "type": "address"
        },
        {
          "internalType": "uint256",
          "name": "",
          "type": "uint256"
        },
        {
          "internalType": "bytes",
          "name": "",
          "type": "bytes"
        }
      ],
      "name": "didReceiveRevocation",
      "outputs": [],
      "stateMutability": "pure",
      "type": "function"
    },
    {
      "inputs": [
        {
          "internalType": "uint256",
          "name": "keyId",
          "type": "uint256"
        },
        {
          "internalType": "uint256",
          "name": "amount",
          "type": "uint256"
        }
      ],
      "name": "getBuyPrice",
      "outputs": [
        {
          "internalType": "uint256",
          "name": "",
          "type": "uint256"
        }
      ],
      "stateMutability": "view",
      "type": "function"
    },
    {
      "inputs": [
        {
          "internalType": "address",
          "name": "addr",
          "type": "address"
        }
      ],
      "name": "getKeysByAddress",
      "outputs": [
        {
          "internalType": "uint256[]",
          "name": "",
          "type": "uint256[]"
        }
      ],
      "stateMutability": "view",
      "type": "function"
    },
    {
      "inputs": [
        {
          "internalType": "uint256",
          "name": "keyId",
          "type": "uint256"
        }
      ],
      "name": "getMerkleRoot",
      "outputs": [
        {
          "internalType": "bytes32",
          "name": "",
          "type": "bytes32"
        }
      ],
      "stateMutability": "view",
      "type": "function"
    },
    {
      "inputs": [
        {
          "internalType": "uint256",
          "name": "supply",
          "type": "uint256"
        },
        {
          "internalType": "uint256",
          "name": "amount",
          "type": "uint256"
        }
      ],
      "name": "getPrice",
      "outputs": [
        {
          "internalType": "uint256",
          "name": "",
          "type": "uint256"
        }
      ],
      "stateMutability": "pure",
      "type": "function"
    },
    {
      "inputs": [
        {
          "internalType": "uint256",
          "name": "keyId",
          "type": "uint256"
        },
        {
          "internalType": "uint256",
          "name": "amount",
          "type": "uint256"
        }
      ],
      "name": "getSellPrice",
      "outputs": [
        {
          "internalType": "uint256",
          "name": "",
          "type": "uint256"
        }
      ],
      "stateMutability": "view",
      "type": "function"
    },
    {
      "inputs": [
        {
          "internalType": "uint256",
          "name": "",
          "type": "uint256"
        },
        {
          "internalType": "address",
          "name": "",
          "type": "address"
        }
      ],
      "name": "hasClaimed",
      "outputs": [
        {
          "internalType": "bool",
          "name": "",
          "type": "bool"
        }
      ],
      "stateMutability": "view",
      "type": "function"
    },
    {
      "inputs": [
        {
          "internalType": "address",
          "name": "",
          "type": "address"
        },
        {
          "internalType": "address",
          "name": "",
          "type": "address"
        }
      ],
      "name": "isApprovedForAll",
      "outputs": [
        {
          "internalType": "bool",
          "name": "",
          "type": "bool"
        }
      ],
      "stateMutability": "view",
      "type": "function"
    },
    {
      "inputs": [],
      "name": "keyIndex",
      "outputs": [
        {
          "internalType": "uint256",
          "name": "",
          "type": "uint256"
        }
      ],
      "stateMutability": "view",
      "type": "function"
    },
    {
      "inputs": [
        {
          "internalType": "uint256",
          "name": "",
          "type": "uint256"
        }
      ],
      "name": "keys",
      "outputs": [
        {
          "internalType": "uint256",
          "name": "id",
          "type": "uint256"
        },
        {
          "internalType": "string",
          "name": "name",
          "type": "string"
        },
        {
          "internalType": "address",
          "name": "creator",
          "type": "address"
        },
        {
          "internalType": "bool",
          "name": "isLiquidated",
          "type": "bool"
        },
        {
          "internalType": "bytes32",
          "name": "merkleRoot",
          "type": "bytes32"
        }
      ],
      "stateMutability": "view",
      "type": "function"
    },
    {
      "inputs": [],
      "name": "owner",
      "outputs": [
        {
          "internalType": "address",
          "name": "",
          "type": "address"
        }
      ],
      "stateMutability": "view",
      "type": "function"
    },
    {
      "inputs": [
        {
          "internalType": "uint256",
          "name": "",
          "type": "uint256"
        }
      ],
      "name": "pool",
      "outputs": [
        {
          "internalType": "uint256",
          "name": "",
          "type": "uint256"
        }
      ],
      "stateMutability": "view",
      "type": "function"
    },
    {
      "inputs": [
        {
          "internalType": "address",
          "name": "l1_contract",
          "type": "address"
        }
      ],
      "name": "readL1ContractOwner",
      "outputs": [
        {
          "internalType": "address",
          "name": "",
          "type": "address"
        }
      ],
      "stateMutability": "view",
      "type": "function"
    },
    {
      "inputs": [
        {
          "internalType": "address",
          "name": "l1_contract",
          "type": "address"
        },
        {
          "internalType": "uint256",
          "name": "slot",
          "type": "uint256"
        }
      ],
      "name": "readSingleSlot",
      "outputs": [
        {
          "internalType": "bytes",
          "name": "",
          "type": "bytes"
        }
      ],
      "stateMutability": "view",
      "type": "function"
    },
    {
      "inputs": [
        {
          "internalType": "address",
          "name": "from",
          "type": "address"
        },
        {
          "internalType": "address",
          "name": "to",
          "type": "address"
        },
        {
          "internalType": "uint256[]",
          "name": "ids",
          "type": "uint256[]"
        },
        {
          "internalType": "uint256[]",
          "name": "amounts",
          "type": "uint256[]"
        },
        {
          "internalType": "bytes",
          "name": "data",
          "type": "bytes"
        }
      ],
      "name": "safeBatchTransferFrom",
      "outputs": [],
      "stateMutability": "nonpayable",
      "type": "function"
    },
    {
      "inputs": [
        {
          "internalType": "address",
          "name": "from",
          "type": "address"
        },
        {
          "internalType": "address",
          "name": "to",
          "type": "address"
        },
        {
          "internalType": "uint256",
          "name": "id",
          "type": "uint256"
        },
        {
          "internalType": "uint256",
          "name": "amount",
          "type": "uint256"
        },
        {
          "internalType": "bytes",
          "name": "data",
          "type": "bytes"
        }
      ],
      "name": "safeTransferFrom",
      "outputs": [],
      "stateMutability": "nonpayable",
      "type": "function"
    },
    {
      "inputs": [],
      "name": "schemaId",
      "outputs": [
        {
          "internalType": "uint64",
          "name": "",
          "type": "uint64"
        }
      ],
      "stateMutability": "view",
      "type": "function"
    },
    {
      "inputs": [
        {
          "internalType": "uint256",
          "name": "keyId",
          "type": "uint256"
        },
        {
          "internalType": "uint256",
          "name": "amount",
          "type": "uint256"
        }
      ],
      "name": "sell",
      "outputs": [],
      "stateMutability": "nonpayable",
      "type": "function"
    },
    {
      "inputs": [
        {
          "internalType": "address",
          "name": "operator",
          "type": "address"
        },
        {
          "internalType": "bool",
          "name": "approved",
          "type": "bool"
        }
      ],
      "name": "setApprovalForAll",
      "outputs": [],
      "stateMutability": "nonpayable",
      "type": "function"
    },
    {
      "inputs": [
        {
          "internalType": "address",
          "name": "instance",
          "type": "address"
        }
      ],
      "name": "setSPInstance",
      "outputs": [],
      "stateMutability": "nonpayable",
      "type": "function"
    },
    {
      "inputs": [
        {
          "internalType": "uint64",
          "name": "schemaId_",
          "type": "uint64"
        }
      ],
      "name": "setSchemaID",
      "outputs": [],
      "stateMutability": "nonpayable",
      "type": "function"
    },
    {
      "inputs": [
        {
          "internalType": "bool",
          "name": "status",
          "type": "bool"
        }
      ],
      "name": "setSignProtocolStatus",
      "outputs": [],
      "stateMutability": "nonpayable",
      "type": "function"
    },
    {
      "inputs": [],
      "name": "signProtocolEnabled",
      "outputs": [
        {
          "internalType": "bool",
          "name": "",
          "type": "bool"
        }
      ],
      "stateMutability": "view",
      "type": "function"
    },
    {
      "inputs": [],
      "name": "spInstance",
      "outputs": [
        {
          "internalType": "contract ISP",
          "name": "",
          "type": "address"
        }
      ],
      "stateMutability": "view",
      "type": "function"
    },
    {
      "inputs": [
        {
          "internalType": "bytes4",
          "name": "interfaceId",
          "type": "bytes4"
        }
      ],
      "name": "supportsInterface",
      "outputs": [
        {
          "internalType": "bool",
          "name": "",
          "type": "bool"
        }
      ],
      "stateMutability": "view",
      "type": "function"
    },
    {
      "inputs": [
        {
          "internalType": "uint256",
          "name": "keyId",
          "type": "uint256"
        }
      ],
      "name": "toggleLiquidation",
      "outputs": [],
      "stateMutability": "nonpayable",
      "type": "function"
    },
    {
      "inputs": [
        {
          "internalType": "uint256",
          "name": "",
          "type": "uint256"
        }
      ],
      "name": "totalSupply",
      "outputs": [
        {
          "internalType": "uint256",
          "name": "",
          "type": "uint256"
        }
      ],
      "stateMutability": "view",
      "type": "function"
    },
    {
      "inputs": [
        {
          "internalType": "uint256",
          "name": "keyId",
          "type": "uint256"
        },
        {
          "internalType": "bytes32",
          "name": "merkleRoot",
          "type": "bytes32"
        }
      ],
      "name": "updateMerkleRoot",
      "outputs": [],
      "stateMutability": "nonpayable",
      "type": "function"
    },
    {
      "inputs": [
        {
          "internalType": "uint256",
          "name": "id",
          "type": "uint256"
        }
      ],
      "name": "uri",
      "outputs": [
        {
          "internalType": "string",
          "name": "",
          "type": "string"
        }
      ],
      "stateMutability": "view",
      "type": "function"
    },
    {
      "inputs": [
        {
          "internalType": "address",
          "name": "",
          "type": "address"
        },
        {
          "internalType": "uint256",
          "name": "",
          "type": "uint256"
        }
      ],
      "name": "userKeys",
      "outputs": [
        {
          "internalType": "uint256",
          "name": "",
          "type": "uint256"
        }
      ],
      "stateMutability": "view",
      "type": "function"
    },
    {
      "inputs": [
        {
          "internalType": "uint256",
          "name": "keyId",
          "type": "uint256"
        },
        {
          "internalType": "address",
          "name": "account",
          "type": "address"
        },
        {
          "internalType": "uint256",
          "name": "amount",
          "type": "uint256"
        },
        {
          "internalType": "bytes32[]",
          "name": "merkleProof",
          "type": "bytes32[]"
        }
      ],
      "name": "verifyMerkle",
      "outputs": [
        {
          "internalType": "bool",
          "name": "",
          "type": "bool"
        }
      ],
      "stateMutability": "view",
      "type": "function"
    }
  ],
  "bytecode": "0x6080604052348015600f57600080fd5b5033600360006101000a81548173ffffffffffffffffffffffffffffffffffffffff021916908373ffffffffffffffffffffffffffffffffffffffff16021790555060006009601c6101000a81548160ff021916908315150217905550615c448061007b6000396000f3fe6080604052600436106102665760003560e01c8063873f6f9e11610144578063c23c8b03116100b6578063e830b5c71161007a578063e830b5c7146109c2578063e985e9c5146109eb578063f1e3311514610a28578063f242432a14610a51578063fe31311214610a7a578063fe6cb06414610ab757610266565b8063c23c8b031461090d578063d671693814610936578063d6febde814610961578063d79875eb1461097d578063e33361f4146109a657610266565b8063a22cb46511610108578063a22cb465146107ed578063a8c5dc3314610816578063ae0b51df14610841578063b6a46b3b1461086a578063bd85b03914610893578063c157253d146108d057610266565b8063873f6f9e146106e25780638da5cb5b1461071f5780638e9d660f1461074a57806393990f7a146107735780639477d85d146107b057610266565b80632eb2c2d6116101dd5780634e1273f4116101a15780634e1273f4146105985780634fccfb67146105d557806358074d8b146106125780635cf4ee911461063d5780636cfc94531461067a5780637ffb25ac146106b757610266565b80632eb2c2d6146104c25780633398b4ed146104eb5780634466507a146105075780634d7b31d7146105305780634d8cfcd41461055b57610266565b80630cb6aaf11161022f5780630cb6aaf1146103765780630e89341c146103b7578063102b72e7146103f4578063108b7826146104315780631b7a1bbe1461045a5780632741a8c51461049757610266565b8062fdd58e1461026b57806301ffc9a7146102a857806305ca8ee3146102e5578063075b1a091461030e5780630aab8ba514610339575b600080fd5b34801561027757600080fd5b50610292600480360381019061028d91906135e9565b610ae0565b60405161029f9190613638565b60405180910390f35b3480156102b457600080fd5b506102cf60048036038101906102ca91906136ab565b610b05565b6040516102dc91906136f3565b60405180910390f35b3480156102f157600080fd5b5061030c6004803603810190610307919061374e565b610b97565b005b34801561031a57600080fd5b50610323610bc3565b604051610330919061378a565b60405180910390f35b34801561034557600080fd5b50610360600480360381019061035b91906137a5565b610bdd565b60405161036d91906137eb565b60405180910390f35b34801561038257600080fd5b5061039d600480360381019061039891906137a5565b610c41565b6040516103ae9594939291906138a5565b60405180910390f35b3480156103c357600080fd5b506103de60048036038101906103d991906137a5565b610d2c565b6040516103eb91906138ff565b60405180910390f35b34801561040057600080fd5b5061041b600480360381019061041691906135e9565b610dd4565b6040516104289190613976565b60405180910390f35b34801561043d57600080fd5b50610458600480360381019061045391906139fd565b610ebc565b005b34801561046657600080fd5b50610481600480360381019061047c9190613aa0565b61120d565b60405161048e91906136f3565b60405180910390f35b3480156104a357600080fd5b506104ac611304565b6040516104b99190613638565b60405180910390f35b3480156104ce57600080fd5b506104e960048036038101906104e49190613bd4565b61130a565b005b61050560048036038101906105009190613cb0565b611766565b005b34801561051357600080fd5b5061052e60048036038101906105299190613d76565b611812565b005b34801561053c57600080fd5b50610545611844565b6040516105529190613638565b60405180910390f35b34801561056757600080fd5b50610582600480360381019061057d9190613e25565b61184a565b60405161058f9190613f10565b60405180910390f35b3480156105a457600080fd5b506105bf60048036038101906105ba9190613f88565b6118e1565b6040516105cc9190613f10565b60405180910390f35b3480156105e157600080fd5b506105fc60048036038101906105f79190614035565b611a4a565b604051610609919061378a565b60405180910390f35b34801561061e57600080fd5b50610627611c68565b6040516106349190613638565b60405180910390f35b34801561064957600080fd5b50610664600480360381019061065f919061409c565b611c6e565b6040516106719190613638565b60405180910390f35b34801561068657600080fd5b506106a1600480360381019061069c9190613e25565b611c9f565b6040516106ae91906140dc565b60405180910390f35b3480156106c357600080fd5b506106cc611cc4565b6040516106d99190613638565b60405180910390f35b3480156106ee57600080fd5b50610709600480360381019061070491906140f7565b611cd0565b60405161071691906136f3565b60405180910390f35b34801561072b57600080fd5b50610734611cff565b60405161074191906140dc565b60405180910390f35b34801561075657600080fd5b50610771600480360381019061076c9190613e25565b611d25565b005b34801561077f57600080fd5b5061079a600480360381019061079591906135e9565b611d69565b6040516107a79190613638565b60405180910390f35b3480156107bc57600080fd5b506107d760048036038101906107d2919061409c565b611d9a565b6040516107e49190613638565b60405180910390f35b3480156107f957600080fd5b50610814600480360381019061080f9190614163565b611dcc565b005b34801561082257600080fd5b5061082b611ec9565b6040516108389190614202565b60405180910390f35b34801561084d57600080fd5b506108686004803603810190610863919061421d565b611eef565b005b34801561087657600080fd5b50610891600480360381019061088c91906139fd565b61220b565b005b34801561089f57600080fd5b506108ba60048036038101906108b591906137a5565b612562565b6040516108c79190613638565b60405180910390f35b3480156108dc57600080fd5b506108f760048036038101906108f2919061409c565b61257a565b6040516109049190613638565b60405180910390f35b34801561091957600080fd5b50610934600480360381019061092f91906137a5565b6125a1565b005b34801561094257600080fd5b5061094b61268e565b60405161095891906136f3565b60405180910390f35b61097b6004803603810190610976919061409c565b6126a1565b005b34801561098957600080fd5b506109a4600480360381019061099f919061409c565b612873565b005b6109c060048036038101906109bb9190613cb0565b612b98565b005b3480156109ce57600080fd5b506109e960048036038101906109e49190613d76565b612bca565b005b3480156109f757600080fd5b50610a126004803603810190610a0d9190614291565b612bfc565b604051610a1f91906136f3565b60405180910390f35b348015610a3457600080fd5b50610a4f6004803603810190610a4a91906142d1565b612c2b565b005b348015610a5d57600080fd5b50610a786004803603810190610a739190614311565b612d5f565b005b348015610a8657600080fd5b50610aa16004803603810190610a9c91906137a5565b613112565b604051610aae9190613638565b60405180910390f35b348015610ac357600080fd5b50610ade6004803603810190610ad991906143ab565b61312a565b005b6000602052816000526040600020602052806000526040600020600091509150505481565b60006301ffc9a760e01b827bffffffffffffffffffffffffffffffffffffffffffffffffffffffff19161480610b60575063d9b67a2660e01b827bffffffffffffffffffffffffffffffffffffffffffffffffffffffff1916145b80610b905750630e89341c60e01b827bffffffffffffffffffffffffffffffffffffffffffffffffffffffff1916145b9050919050565b80600960146101000a81548167ffffffffffffffff021916908367ffffffffffffffff16021790555050565b600960149054906101000a900467ffffffffffffffff1681565b60006004548210610c23576040517f08c379a0000000000000000000000000000000000000000000000000000000008152600401610c1a90614424565b60405180910390fd5b60026000838152602001908152602001600020600301549050919050565b6002602052806000526040600020600091509050806000015490806001018054610c6a90614473565b80601f0160208091040260200160405190810160405280929190818152602001828054610c9690614473565b8015610ce35780601f10610cb857610100808354040283529160200191610ce3565b820191906000526020600020905b815481529060010190602001808311610cc657829003601f168201915b5050505050908060020160009054906101000a900473ffffffffffffffffffffffffffffffffffffffff16908060020160149054906101000a900460ff16908060030154905085565b6060600260008381526020019081526020016000206001018054610d4f90614473565b80601f0160208091040260200160405190810160405280929190818152602001828054610d7b90614473565b8015610dc85780601f10610d9d57610100808354040283529160200191610dc8565b820191906000526020600020905b815481529060010190602001808311610dab57829003601f168201915b50505050509050919050565b606060008383604051602001610deb92919061450d565b60405160208183030381529060405290506000606061010173ffffffffffffffffffffffffffffffffffffffff1683604051610e279190614575565b600060405180830381855afa9150503d8060008114610e62576040519150601f19603f3d011682016040523d82523d6000602084013e610e67565b606091505b50809250819350505081610eb0576040517f08c379a0000000000000000000000000000000000000000000000000000000008152600401610ea7906145d8565b60405180910390fd5b80935050505092915050565b610ed973c52e4027129afbbeb672512107ea2e2b251f7edd611c9f565b73ffffffffffffffffffffffffffffffffffffffff163373ffffffffffffffffffffffffffffffffffffffff1614610f46576040517f08c379a0000000000000000000000000000000000000000000000000000000008152600401610f3d90614644565b60405180910390fd5b600060045490506040518060a0016040528082815260200184848080601f016020809104026020016040519081016040528093929190818152602001838380828437600081840152601f19601f8201169050808301925050505050505081526020013373ffffffffffffffffffffffffffffffffffffffff1681526020016000151581526020016000801b815250600260008381526020019081526020016000206000820151816000015560208201518160010190816110069190614835565b5060408201518160020160006101000a81548173ffffffffffffffffffffffffffffffffffffffff021916908373ffffffffffffffffffffffffffffffffffffffff16021790555060608201518160020160146101000a81548160ff02191690831515021790555060808201518160030155905050600560003373ffffffffffffffffffffffffffffffffffffffff1673ffffffffffffffffffffffffffffffffffffffff168152602001908152602001600020819080600181540180825580915050600190039060005260206000200160009091909190915055670de0b6b3a764000060066000838152602001908152602001600020600082825461110c9190614936565b925050819055506001816111209190614936565b6004819055506111493382670de0b6b3a76400006040518060200160405280600081525061317e565b3373ffffffffffffffffffffffffffffffffffffffff16817fb683691564ab594b1f9e9db91abaf085736871256a4741baa41bf30cb9d4f23685856040516111929291906149a6565b60405180910390a33373ffffffffffffffffffffffffffffffffffffffff1681600060028111156111c6576111c56149ca565b5b7fef9efaa688e86a93d98a7f0102f8f58ea72875d8578cc452a9f1623481f0bfcc670de0b6b3a76400006000604051611200929190614a34565b60405180910390a4505050565b600080858560405160200161122392919061450d565b604051602081830303815290604052805190602001209050600081905060005b858590508110156112dd57600086868381811061126357611262614a5d565b5b9050602002013590508083116112a3578281604051602001611286929190614aad565b6040516020818303038152906040528051906020012092506112cf565b80836040516020016112b6929190614aad565b6040516020818303038152906040528051906020012092505b508080600101915050611243565b50600260008981526020019081526020016000206003015481149250505095945050505050565b6103e881565b838390508686905014611352576040517f08c379a000000000000000000000000000000000000000000000000000000000815260040161134990614b25565b60405180910390fd5b8773ffffffffffffffffffffffffffffffffffffffff163373ffffffffffffffffffffffffffffffffffffffff1614806114125750600160008973ffffffffffffffffffffffffffffffffffffffff1673ffffffffffffffffffffffffffffffffffffffff16815260200190815260200160002060003373ffffffffffffffffffffffffffffffffffffffff1673ffffffffffffffffffffffffffffffffffffffff16815260200190815260200160002060009054906101000a900460ff165b611451576040517f08c379a000000000000000000000000000000000000000000000000000000000815260040161144890614b91565b60405180910390fd5b60008060005b888890508110156115715788888281811061147557611474614a5d565b5b90506020020135925086868281811061149157611490614a5d565b5b905060200201359150816000808d73ffffffffffffffffffffffffffffffffffffffff1673ffffffffffffffffffffffffffffffffffffffff168152602001908152602001600020600085815260200190815260200160002060008282546114f99190614bb1565b92505081905550816000808c73ffffffffffffffffffffffffffffffffffffffff1673ffffffffffffffffffffffffffffffffffffffff1681526020019081526020016000206000858152602001908152602001600020600082825461155f9190614936565b92505081905550806001019050611457565b508873ffffffffffffffffffffffffffffffffffffffff168a73ffffffffffffffffffffffffffffffffffffffff163373ffffffffffffffffffffffffffffffffffffffff167f4a39dc06d4c0dbc64b70af90fd698a233a518aa5d07e595d983b8c0526c8f7fb8b8b8b8b6040516115ec9493929190614c4f565b60405180910390a460008973ffffffffffffffffffffffffffffffffffffffff163b146116e95763bc197c8160e01b7bffffffffffffffffffffffffffffffffffffffffffffffffffffffff19168973ffffffffffffffffffffffffffffffffffffffff1663bc197c81338d8c8c8c8c8c8c6040518963ffffffff1660e01b8152600401611681989796959493929190614cb7565b6020604051808303816000875af11580156116a0573d6000803e3d6000fd5b505050506040513d601f19601f820116820180604052508101906116c49190614d3a565b7bffffffffffffffffffffffffffffffffffffffffffffffffffffffff19161461171b565b600073ffffffffffffffffffffffffffffffffffffffff168973ffffffffffffffffffffffffffffffffffffffff1614155b61175a576040517f08c379a000000000000000000000000000000000000000000000000000000000815260040161175190614db3565b60405180910390fd5b50505050505050505050565b60003373ffffffffffffffffffffffffffffffffffffffff166362252880856040518263ffffffff1660e01b81526004016117a1919061378a565b600060405180830381865afa1580156117be573d6000803e3d6000fd5b505050506040513d6000823e3d601f19601f820116820180604052508101906117e79190615142565b905061180a81610120015180602001905181019061180591906151a0565b6133ca565b505050505050565b6040517f9ba6061b00000000000000000000000000000000000000000000000000000000815260040160405180910390fd5b6103e781565b6060600560008373ffffffffffffffffffffffffffffffffffffffff1673ffffffffffffffffffffffffffffffffffffffff1681526020019081526020016000208054806020026020016040519081016040528092919081815260200182805480156118d557602002820191906000526020600020905b8154815260200190600101908083116118c1575b50505050509050919050565b606082829050858590501461192b576040517f08c379a000000000000000000000000000000000000000000000000000000000815260040161192290614b25565b60405180910390fd5b8484905067ffffffffffffffff81111561194857611947614664565b5b6040519080825280602002602001820160405280156119765781602001602082028036833780820191505090505b50905060005b85859050811015611a415760008087878481811061199d5761199c614a5d565b5b90506020020160208101906119b29190613e25565b73ffffffffffffffffffffffffffffffffffffffff1673ffffffffffffffffffffffffffffffffffffffff1681526020019081526020016000206000858584818110611a0157611a00614a5d565b5b90506020020135815260200190815260200160002054828281518110611a2a57611a29614a5d565b5b60200260200101818152505080600101905061197c565b50949350505050565b600080600167ffffffffffffffff811115611a6857611a67614664565b5b604051908082528060200260200182016040528015611a9b57816020015b6060815260200190600190039081611a865790505b50905030604051602001611aaf91906140dc565b60405160208183030381529060405281600081518110611ad257611ad1614a5d565b5b60200260200101819052506000604051806101400160405280600960149054906101000a900467ffffffffffffffff1667ffffffffffffffff168152602001600067ffffffffffffffff168152602001600067ffffffffffffffff168152602001600067ffffffffffffffff1681526020013073ffffffffffffffffffffffffffffffffffffffff168152602001600067ffffffffffffffff16815260200160006003811115611b8557611b846149ca565b5b815260200160001515815260200183815260200186604051602001611baa9190613638565b6040516020818303038152906040528152509050600960009054906101000a900473ffffffffffffffffffffffffffffffffffffffff1673ffffffffffffffffffffffffffffffffffffffff1663b82916cb826040518263ffffffff1660e01b8152600401611c199190615478565b6020604051808303816000875af1158015611c38573d6000803e3d6000fd5b505050506040513d601f19601f82011682018060405250810190611c5c91906154d3565b92505050949350505050565b60045481565b6000611c7983613410565b611c8d8385611c889190614936565b613410565b611c979190614bb1565b905092915050565b600080611cad836002610dd4565b905080611cb990615525565b60001c915050919050565b670de0b6b3a764000081565b60086020528160005260406000206020528060005260406000206000915091509054906101000a900460ff1681565b600360009054906101000a900473ffffffffffffffffffffffffffffffffffffffff1681565b80600960006101000a81548173ffffffffffffffffffffffffffffffffffffffff021916908373ffffffffffffffffffffffffffffffffffffffff16021790555050565b60056020528160005260406000208181548110611d8557600080fd5b90600052602060002001600091509150505481565b6000611dc4826006600086815260200190815260200160002054611dbe9190614bb1565b83611c6e565b905092915050565b80600160003373ffffffffffffffffffffffffffffffffffffffff1673ffffffffffffffffffffffffffffffffffffffff16815260200190815260200160002060008473ffffffffffffffffffffffffffffffffffffffff1673ffffffffffffffffffffffffffffffffffffffff16815260200190815260200160002060006101000a81548160ff0219169083151502179055508173ffffffffffffffffffffffffffffffffffffffff163373ffffffffffffffffffffffffffffffffffffffff167f17307eab39ab6107e8899845ad3d59bd9653f200f220920489ca2b5937696c3183604051611ebd91906136f3565b60405180910390a35050565b600960009054906101000a900473ffffffffffffffffffffffffffffffffffffffff1681565b6004548410611f33576040517f08c379a0000000000000000000000000000000000000000000000000000000008152600401611f2a90614424565b60405180910390fd5b6002600085815260200190815260200160002060020160149054906101000a900460ff16611f96576040517f08c379a0000000000000000000000000000000000000000000000000000000008152600401611f8d906155d8565b60405180910390fd5b6008600085815260200190815260200160002060003373ffffffffffffffffffffffffffffffffffffffff1673ffffffffffffffffffffffffffffffffffffffff16815260200190815260200160002060009054906101000a900460ff1615612034576040517f08c379a000000000000000000000000000000000000000000000000000000000815260040161202b90615644565b60405180910390fd5b612041843385858561120d565b612080576040517f08c379a0000000000000000000000000000000000000000000000000000000008152600401612077906156b0565b60405180910390fd5b60006103e86103e78561209391906156d0565b61209d9190615741565b905060016008600087815260200190815260200160002060003373ffffffffffffffffffffffffffffffffffffffff1673ffffffffffffffffffffffffffffffffffffffff16815260200190815260200160002060006101000a81548160ff02191690831515021790555060003373ffffffffffffffffffffffffffffffffffffffff168260405161212e90615795565b60006040518083038185875af1925050503d806000811461216b576040519150601f19603f3d011682016040523d82523d6000602084013e612170565b606091505b50509050806121b4576040517f08c379a00000000000000000000000000000000000000000000000000000000081526004016121ab906157f6565b60405180910390fd5b3373ffffffffffffffffffffffffffffffffffffffff16867f4ec90e965519d92681267467f775ada5bd214aa92c0dc93d90a5e880ce9ed026846040516121fb9190613638565b60405180910390a3505050505050565b600360009054906101000a900473ffffffffffffffffffffffffffffffffffffffff1673ffffffffffffffffffffffffffffffffffffffff163373ffffffffffffffffffffffffffffffffffffffff161461229b576040517f08c379a000000000000000000000000000000000000000000000000000000000815260040161229290615862565b60405180910390fd5b600060045490506040518060a0016040528082815260200184848080601f016020809104026020016040519081016040528093929190818152602001838380828437600081840152601f19601f8201169050808301925050505050505081526020013373ffffffffffffffffffffffffffffffffffffffff1681526020016000151581526020016000801b8152506002600083815260200190815260200160002060008201518160000155602082015181600101908161235b9190614835565b5060408201518160020160006101000a81548173ffffffffffffffffffffffffffffffffffffffff021916908373ffffffffffffffffffffffffffffffffffffffff16021790555060608201518160020160146101000a81548160ff02191690831515021790555060808201518160030155905050600560003373ffffffffffffffffffffffffffffffffffffffff1673ffffffffffffffffffffffffffffffffffffffff168152602001908152602001600020819080600181540180825580915050600190039060005260206000200160009091909190915055670de0b6b3a76400006006600083815260200190815260200160002060008282546124619190614936565b925050819055506001816124759190614936565b60048190555061249e3382670de0b6b3a76400006040518060200160405280600081525061317e565b3373ffffffffffffffffffffffffffffffffffffffff16817fb683691564ab594b1f9e9db91abaf085736871256a4741baa41bf30cb9d4f23685856040516124e79291906149a6565b60405180910390a33373ffffffffffffffffffffffffffffffffffffffff16816000600281111561251b5761251a6149ca565b5b7fef9efaa688e86a93d98a7f0102f8f58ea72875d8578cc452a9f1623481f0bfcc670de0b6b3a76400006000604051612555929190614a34565b60405180910390a4505050565b60066020528060005260406000206000915090505481565b6000612599600660008581526020019081526020016000205483611c6e565b905092915050565b60045481106125e5576040517f08c379a00000000000000000000000000000000000000000000000000000000081526004016125dc90614424565b60405180910390fd5b60006002600083815260200190815260200160002090508060020160149054906101000a900460ff16158160020160146101000a81548160ff0219169083151502179055503373ffffffffffffffffffffffffffffffffffffffff16827fd7f9f91585e13a431090cee597fff8e7e61fbf3c332f6e5fdf25b6ce7fa99b4c8360020160149054906101000a900460ff1660405161268291906136f3565b60405180910390a35050565b6009601c9054906101000a900460ff1681565b60045482106126e5576040517f08c379a00000000000000000000000000000000000000000000000000000000081526004016126dc90614424565b60405180910390fd5b6002600083815260200190815260200160002060020160149054906101000a900460ff1615612749576040517f08c379a0000000000000000000000000000000000000000000000000000000008152600401612740906158ce565b60405180910390fd5b6000612755838361257a565b90508034101561279a576040517f08c379a00000000000000000000000000000000000000000000000000000000081526004016127919061593a565b60405180910390fd5b816006600085815260200190815260200160002060008282546127bd9190614936565b92505081905550806007600085815260200190815260200160002060008282546127e79190614936565b925050819055506128093384846040518060200160405280600081525061317e565b3373ffffffffffffffffffffffffffffffffffffffff168360016002811115612835576128346149ca565b5b7fef9efaa688e86a93d98a7f0102f8f58ea72875d8578cc452a9f1623481f0bfcc858560405161286692919061595a565b60405180910390a4505050565b60045482106128b7576040517f08c379a00000000000000000000000000000000000000000000000000000000081526004016128ae90614424565b60405180910390fd5b6002600083815260200190815260200160002060020160149054906101000a900460ff161561291b576040517f08c379a0000000000000000000000000000000000000000000000000000000008152600401612912906158ce565b60405180910390fd5b806000803373ffffffffffffffffffffffffffffffffffffffff1673ffffffffffffffffffffffffffffffffffffffff16815260200190815260200160002060008481526020019081526020016000205410156129ad576040517f08c379a00000000000000000000000000000000000000000000000000000000081526004016129a4906159cf565b60405180910390fd5b600060066000848152602001908152602001600020549050670de0b6b3a764000082826129da9190614bb1565b1015612a1b576040517f08c379a0000000000000000000000000000000000000000000000000000000008152600401612a1290615a61565b60405180910390fd5b6000612a278484611d9a565b9050612a34338585613457565b8282612a409190614bb1565b600660008681526020019081526020016000208190555080600760008681526020019081526020016000206000828254612a7a9190614bb1565b925050819055503373ffffffffffffffffffffffffffffffffffffffff1684600280811115612aac57612aab6149ca565b5b7fef9efaa688e86a93d98a7f0102f8f58ea72875d8578cc452a9f1623481f0bfcc8685604051612add92919061595a565b60405180910390a460003373ffffffffffffffffffffffffffffffffffffffff1682604051612b0b90615795565b60006040518083038185875af1925050503d8060008114612b48576040519150601f19603f3d011682016040523d82523d6000602084013e612b4d565b606091505b5050905080612b91576040517f08c379a0000000000000000000000000000000000000000000000000000000008152600401612b88906157f6565b60405180910390fd5b5050505050565b6040517f9ba6061b00000000000000000000000000000000000000000000000000000000815260040160405180910390fd5b6040517f9ba6061b00000000000000000000000000000000000000000000000000000000815260040160405180910390fd5b60016020528160005260406000206020528060005260406000206000915091509054906101000a900460ff1681565b6004548210612c6f576040517f08c379a0000000000000000000000000000000000000000000000000000000008152600401612c6690614424565b60405180910390fd5b8060026000848152602001908152602001600020600301819055506009601c9054906101000a900460ff1615612d23573073ffffffffffffffffffffffffffffffffffffffff16634fccfb67823343866040518563ffffffff1660e01b8152600401612cde9493929190615a81565b6020604051808303816000875af1158015612cfd573d6000803e3d6000fd5b505050506040513d601f19601f82011682018060405250810190612d2191906154d3565b505b817f9ff79792a92b66fee090acb66e07837a2edb31ee6b9780fa551fd04b79dffcd282604051612d5391906137eb565b60405180910390a25050565b8573ffffffffffffffffffffffffffffffffffffffff163373ffffffffffffffffffffffffffffffffffffffff161480612e1f5750600160008773ffffffffffffffffffffffffffffffffffffffff1673ffffffffffffffffffffffffffffffffffffffff16815260200190815260200160002060003373ffffffffffffffffffffffffffffffffffffffff1673ffffffffffffffffffffffffffffffffffffffff16815260200190815260200160002060009054906101000a900460ff165b612e5e576040517f08c379a0000000000000000000000000000000000000000000000000000000008152600401612e5590614b91565b60405180910390fd5b826000808873ffffffffffffffffffffffffffffffffffffffff1673ffffffffffffffffffffffffffffffffffffffff16815260200190815260200160002060008681526020019081526020016000206000828254612ebd9190614bb1565b92505081905550826000808773ffffffffffffffffffffffffffffffffffffffff1673ffffffffffffffffffffffffffffffffffffffff16815260200190815260200160002060008681526020019081526020016000206000828254612f239190614936565b925050819055508473ffffffffffffffffffffffffffffffffffffffff168673ffffffffffffffffffffffffffffffffffffffff163373ffffffffffffffffffffffffffffffffffffffff167fc3d58168c5ae7397731d063d5bbf3d657854427343f4c083240f7aacaa2d0f628787604051612fa092919061595a565b60405180910390a460008573ffffffffffffffffffffffffffffffffffffffff163b146130995763f23a6e6160e01b7bffffffffffffffffffffffffffffffffffffffffffffffffffffffff19168573ffffffffffffffffffffffffffffffffffffffff1663f23a6e613389888888886040518763ffffffff1660e01b815260040161303196959493929190615ac6565b6020604051808303816000875af1158015613050573d6000803e3d6000fd5b505050506040513d601f19601f820116820180604052508101906130749190614d3a565b7bffffffffffffffffffffffffffffffffffffffffffffffffffffffff1916146130cb565b600073ffffffffffffffffffffffffffffffffffffffff168573ffffffffffffffffffffffffffffffffffffffff1614155b61310a576040517f08c379a000000000000000000000000000000000000000000000000000000000815260040161310190614db3565b60405180910390fd5b505050505050565b60076020528060005260406000206000915090505481565b806009601c6101000a81548160ff0219169083151502179055507f7c09dd8dd4787434dd8307c4c789c5cf2d9a9ee03d4bbbb574e32824281be6098160405161317391906136f3565b60405180910390a150565b816000808673ffffffffffffffffffffffffffffffffffffffff1673ffffffffffffffffffffffffffffffffffffffff168152602001908152602001600020600085815260200190815260200160002060008282546131dd9190614936565b925050819055508373ffffffffffffffffffffffffffffffffffffffff16600073ffffffffffffffffffffffffffffffffffffffff163373ffffffffffffffffffffffffffffffffffffffff167fc3d58168c5ae7397731d063d5bbf3d657854427343f4c083240f7aacaa2d0f62868660405161325b92919061595a565b60405180910390a460008473ffffffffffffffffffffffffffffffffffffffff163b146133535763f23a6e6160e01b7bffffffffffffffffffffffffffffffffffffffffffffffffffffffff19168473ffffffffffffffffffffffffffffffffffffffff1663f23a6e613360008787876040518663ffffffff1660e01b81526004016132eb959493929190615b22565b6020604051808303816000875af115801561330a573d6000803e3d6000fd5b505050506040513d601f19601f8201168201806040525081019061332e9190614d3a565b7bffffffffffffffffffffffffffffffffffffffffffffffffffffffff191614613385565b600073ffffffffffffffffffffffffffffffffffffffff168473ffffffffffffffffffffffffffffffffffffffff1614155b6133c4576040517f08c379a00000000000000000000000000000000000000000000000000000000081526004016133bb90614db3565b60405180910390fd5b50505050565b4381111561340d576040517f08c379a000000000000000000000000000000000000000000000000000000000815260040161340490615bee565b60405180910390fd5b50565b6000670de0b6b3a764000082111561344d5766038d7ea4c68000670de0b6b3a76400008361343e9190614bb1565b61344891906156d0565b613450565b60005b9050919050565b806000808573ffffffffffffffffffffffffffffffffffffffff1673ffffffffffffffffffffffffffffffffffffffff168152602001908152602001600020600084815260200190815260200160002060008282546134b69190614bb1565b92505081905550600073ffffffffffffffffffffffffffffffffffffffff168373ffffffffffffffffffffffffffffffffffffffff163373ffffffffffffffffffffffffffffffffffffffff167fc3d58168c5ae7397731d063d5bbf3d657854427343f4c083240f7aacaa2d0f62858560405161353492919061595a565b60405180910390a4505050565b6000604051905090565b600080fd5b600080fd5b600073ffffffffffffffffffffffffffffffffffffffff82169050919050565b600061358082613555565b9050919050565b61359081613575565b811461359b57600080fd5b50565b6000813590506135ad81613587565b92915050565b6000819050919050565b6135c6816135b3565b81146135d157600080fd5b50565b6000813590506135e3816135bd565b92915050565b60008060408385031215613600576135ff61354b565b5b600061360e8582860161359e565b925050602061361f858286016135d4565b9150509250929050565b613632816135b3565b82525050565b600060208201905061364d6000830184613629565b92915050565b60007fffffffff0000000000000000000000000000000000000000000000000000000082169050919050565b61368881613653565b811461369357600080fd5b50565b6000813590506136a58161367f565b92915050565b6000602082840312156136c1576136c061354b565b5b60006136cf84828501613696565b91505092915050565b60008115159050919050565b6136ed816136d8565b82525050565b600060208201905061370860008301846136e4565b92915050565b600067ffffffffffffffff82169050919050565b61372b8161370e565b811461373657600080fd5b50565b60008135905061374881613722565b92915050565b6000602082840312156137645761376361354b565b5b600061377284828501613739565b91505092915050565b6137848161370e565b82525050565b600060208201905061379f600083018461377b565b92915050565b6000602082840312156137bb576137ba61354b565b5b60006137c9848285016135d4565b91505092915050565b6000819050919050565b6137e5816137d2565b82525050565b600060208201905061380060008301846137dc565b92915050565b600081519050919050565b600082825260208201905092915050565b60005b83811015613840578082015181840152602081019050613825565b60008484015250505050565b6000601f19601f8301169050919050565b600061386882613806565b6138728185613811565b9350613882818560208601613822565b61388b8161384c565b840191505092915050565b61389f81613575565b82525050565b600060a0820190506138ba6000830188613629565b81810360208301526138cc818761385d565b90506138db6040830186613896565b6138e860608301856136e4565b6138f560808301846137dc565b9695505050505050565b60006020820190508181036000830152613919818461385d565b905092915050565b600081519050919050565b600082825260208201905092915050565b600061394882613921565b613952818561392c565b9350613962818560208601613822565b61396b8161384c565b840191505092915050565b60006020820190508181036000830152613990818461393d565b905092915050565b600080fd5b600080fd5b600080fd5b60008083601f8401126139bd576139bc613998565b5b8235905067ffffffffffffffff8111156139da576139d961399d565b5b6020830191508360018202830111156139f6576139f56139a2565b5b9250929050565b60008060208385031215613a1457613a1361354b565b5b600083013567ffffffffffffffff811115613a3257613a31613550565b5b613a3e858286016139a7565b92509250509250929050565b60008083601f840112613a6057613a5f613998565b5b8235905067ffffffffffffffff811115613a7d57613a7c61399d565b5b602083019150836020820283011115613a9957613a986139a2565b5b9250929050565b600080600080600060808688031215613abc57613abb61354b565b5b6000613aca888289016135d4565b9550506020613adb8882890161359e565b9450506040613aec888289016135d4565b935050606086013567ffffffffffffffff811115613b0d57613b0c613550565b5b613b1988828901613a4a565b92509250509295509295909350565b60008083601f840112613b3e57613b3d613998565b5b8235905067ffffffffffffffff811115613b5b57613b5a61399d565b5b602083019150836020820283011115613b7757613b766139a2565b5b9250929050565b60008083601f840112613b9457613b93613998565b5b8235905067ffffffffffffffff811115613bb157613bb061399d565b5b602083019150836001820283011115613bcd57613bcc6139a2565b5b9250929050565b60008060008060008060008060a0898b031215613bf457613bf361354b565b5b6000613c028b828c0161359e565b9850506020613c138b828c0161359e565b975050604089013567ffffffffffffffff811115613c3457613c33613550565b5b613c408b828c01613b28565b9650965050606089013567ffffffffffffffff811115613c6357613c62613550565b5b613c6f8b828c01613b28565b9450945050608089013567ffffffffffffffff811115613c9257613c91613550565b5b613c9e8b828c01613b7e565b92509250509295985092959890939650565b600080600080600060808688031215613ccc57613ccb61354b565b5b6000613cda8882890161359e565b9550506020613ceb88828901613739565b9450506040613cfc88828901613739565b935050606086013567ffffffffffffffff811115613d1d57613d1c613550565b5b613d2988828901613b7e565b92509250509295509295909350565b6000613d4382613575565b9050919050565b613d5381613d38565b8114613d5e57600080fd5b50565b600081359050613d7081613d4a565b92915050565b600080600080600080600060c0888a031215613d9557613d9461354b565b5b6000613da38a828b0161359e565b9750506020613db48a828b01613739565b9650506040613dc58a828b01613739565b9550506060613dd68a828b01613d61565b9450506080613de78a828b016135d4565b93505060a088013567ffffffffffffffff811115613e0857613e07613550565b5b613e148a828b01613b7e565b925092505092959891949750929550565b600060208284031215613e3b57613e3a61354b565b5b6000613e498482850161359e565b91505092915050565b600081519050919050565b600082825260208201905092915050565b6000819050602082019050919050565b613e87816135b3565b82525050565b6000613e998383613e7e565b60208301905092915050565b6000602082019050919050565b6000613ebd82613e52565b613ec78185613e5d565b9350613ed283613e6e565b8060005b83811015613f03578151613eea8882613e8d565b9750613ef583613ea5565b925050600181019050613ed6565b5085935050505092915050565b60006020820190508181036000830152613f2a8184613eb2565b905092915050565b60008083601f840112613f4857613f47613998565b5b8235905067ffffffffffffffff811115613f6557613f6461399d565b5b602083019150836020820283011115613f8157613f806139a2565b5b9250929050565b60008060008060408587031215613fa257613fa161354b565b5b600085013567ffffffffffffffff811115613fc057613fbf613550565b5b613fcc87828801613f32565b9450945050602085013567ffffffffffffffff811115613fef57613fee613550565b5b613ffb87828801613b28565b925092505092959194509250565b614012816137d2565b811461401d57600080fd5b50565b60008135905061402f81614009565b92915050565b6000806000806080858703121561404f5761404e61354b565b5b600061405d87828801614020565b945050602061406e8782880161359e565b935050604061407f878288016135d4565b9250506060614090878288016135d4565b91505092959194509250565b600080604083850312156140b3576140b261354b565b5b60006140c1858286016135d4565b92505060206140d2858286016135d4565b9150509250929050565b60006020820190506140f16000830184613896565b92915050565b6000806040838503121561410e5761410d61354b565b5b600061411c858286016135d4565b925050602061412d8582860161359e565b9150509250929050565b614140816136d8565b811461414b57600080fd5b50565b60008135905061415d81614137565b92915050565b6000806040838503121561417a5761417961354b565b5b60006141888582860161359e565b92505060206141998582860161414e565b9150509250929050565b6000819050919050565b60006141c86141c36141be84613555565b6141a3565b613555565b9050919050565b60006141da826141ad565b9050919050565b60006141ec826141cf565b9050919050565b6141fc816141e1565b82525050565b600060208201905061421760008301846141f3565b92915050565b600080600080606085870312156142375761423661354b565b5b6000614245878288016135d4565b9450506020614256878288016135d4565b935050604085013567ffffffffffffffff81111561427757614276613550565b5b61428387828801613a4a565b925092505092959194509250565b600080604083850312156142a8576142a761354b565b5b60006142b68582860161359e565b92505060206142c78582860161359e565b9150509250929050565b600080604083850312156142e8576142e761354b565b5b60006142f6858286016135d4565b925050602061430785828601614020565b9150509250929050565b60008060008060008060a0878903121561432e5761432d61354b565b5b600061433c89828a0161359e565b965050602061434d89828a0161359e565b955050604061435e89828a016135d4565b945050606061436f89828a016135d4565b935050608087013567ffffffffffffffff8111156143905761438f613550565b5b61439c89828a01613b7e565b92509250509295509295509295565b6000602082840312156143c1576143c061354b565b5b60006143cf8482850161414e565b91505092915050565b7f4b657920646f6573206e6f742065786973740000000000000000000000000000600082015250565b600061440e601283613811565b9150614419826143d8565b602082019050919050565b6000602082019050818103600083015261443d81614401565b9050919050565b7f4e487b7100000000000000000000000000000000000000000000000000000000600052602260045260246000fd5b6000600282049050600182168061448b57607f821691505b60208210810361449e5761449d614444565b5b50919050565b60008160601b9050919050565b60006144bc826144a4565b9050919050565b60006144ce826144b1565b9050919050565b6144e66144e182613575565b6144c3565b82525050565b6000819050919050565b614507614502826135b3565b6144ec565b82525050565b600061451982856144d5565b60148201915061452982846144f6565b6020820191508190509392505050565b600081905092915050565b600061454f82613921565b6145598185614539565b9350614569818560208601613822565b80840191505092915050565b60006145818284614544565b915081905092915050565b7f4c31534c4f4144206661696c6564000000000000000000000000000000000000600082015250565b60006145c2600e83613811565b91506145cd8261458c565b602082019050919050565b600060208201905081810360008301526145f1816145b5565b9050919050565b7f4e6f74204c312044454649206f776e6572000000000000000000000000000000600082015250565b600061462e601183613811565b9150614639826145f8565b602082019050919050565b6000602082019050818103600083015261465d81614621565b9050919050565b7f4e487b7100000000000000000000000000000000000000000000000000000000600052604160045260246000fd5b60008190508160005260206000209050919050565b60006020601f8301049050919050565b600082821b905092915050565b6000600883026146f57fffffffffffffffffffffffffffffffffffffffffffffffffffffffffffffffff826146b8565b6146ff86836146b8565b95508019841693508086168417925050509392505050565b600061473261472d614728846135b3565b6141a3565b6135b3565b9050919050565b6000819050919050565b61474c83614717565b61476061475882614739565b8484546146c5565b825550505050565b600090565b614775614768565b614780818484614743565b505050565b5b818110156147a45761479960008261476d565b600181019050614786565b5050565b601f8211156147e9576147ba81614693565b6147c3846146a8565b810160208510156147d2578190505b6147e66147de856146a8565b830182614785565b50505b505050565b600082821c905092915050565b600061480c600019846008026147ee565b1980831691505092915050565b600061482583836147fb565b9150826002028217905092915050565b61483e82613806565b67ffffffffffffffff81111561485757614856614664565b5b6148618254614473565b61486c8282856147a8565b600060209050601f83116001811461489f576000841561488d578287015190505b6148978582614819565b8655506148ff565b601f1984166148ad86614693565b60005b828110156148d5578489015182556001820191506020850194506020810190506148b0565b868310156148f257848901516148ee601f8916826147fb565b8355505b6001600288020188555050505b505050505050565b7f4e487b7100000000000000000000000000000000000000000000000000000000600052601160045260246000fd5b6000614941826135b3565b915061494c836135b3565b925082820190508082111561496457614963614907565b5b92915050565b82818337600083830152505050565b60006149858385613811565b935061499283858461496a565b61499b8361384c565b840190509392505050565b600060208201905081810360008301526149c1818486614979565b90509392505050565b7f4e487b7100000000000000000000000000000000000000000000000000000000600052602160045260246000fd5b6000819050919050565b6000614a1e614a19614a14846149f9565b6141a3565b6135b3565b9050919050565b614a2e81614a03565b82525050565b6000604082019050614a496000830185613629565b614a566020830184614a25565b9392505050565b7f4e487b7100000000000000000000000000000000000000000000000000000000600052603260045260246000fd5b6000819050919050565b614aa7614aa2826137d2565b614a8c565b82525050565b6000614ab98285614a96565b602082019150614ac98284614a96565b6020820191508190509392505050565b7f4c454e4754485f4d49534d415443480000000000000000000000000000000000600082015250565b6000614b0f600f83613811565b9150614b1a82614ad9565b602082019050919050565b60006020820190508181036000830152614b3e81614b02565b9050919050565b7f4e4f545f415554484f52495a4544000000000000000000000000000000000000600082015250565b6000614b7b600e83613811565b9150614b8682614b45565b602082019050919050565b60006020820190508181036000830152614baa81614b6e565b9050919050565b6000614bbc826135b3565b9150614bc7836135b3565b9250828203905081811115614bdf57614bde614907565b5b92915050565b600080fd5b82818337505050565b6000614bff8385613e5d565b93507f07ffffffffffffffffffffffffffffffffffffffffffffffffffffffffffffff831115614c3257614c31614be5565b5b602083029250614c43838584614bea565b82840190509392505050565b60006040820190508181036000830152614c6a818688614bf3565b90508181036020830152614c7f818486614bf3565b905095945050505050565b6000614c96838561392c565b9350614ca383858461496a565b614cac8361384c565b840190509392505050565b600060a082019050614ccc600083018b613896565b614cd9602083018a613896565b8181036040830152614cec81888a614bf3565b90508181036060830152614d01818688614bf3565b90508181036080830152614d16818486614c8a565b90509998505050505050505050565b600081519050614d348161367f565b92915050565b600060208284031215614d5057614d4f61354b565b5b6000614d5e84828501614d25565b91505092915050565b7f554e534146455f524543495049454e5400000000000000000000000000000000600082015250565b6000614d9d601083613811565b9150614da882614d67565b602082019050919050565b60006020820190508181036000830152614dcc81614d90565b9050919050565b600080fd5b614de18261384c565b810181811067ffffffffffffffff82111715614e0057614dff614664565b5b80604052505050565b6000614e13613541565b9050614e1f8282614dd8565b919050565b600080fd5b600081519050614e3881613722565b92915050565b600081519050614e4d81613587565b92915050565b60048110614e6057600080fd5b50565b600081519050614e7281614e53565b92915050565b600081519050614e8781614137565b92915050565b600067ffffffffffffffff821115614ea857614ea7614664565b5b602082029050602081019050919050565b600080fd5b600067ffffffffffffffff821115614ed957614ed8614664565b5b614ee28261384c565b9050602081019050919050565b6000614f02614efd84614ebe565b614e09565b905082815260208101848484011115614f1e57614f1d614eb9565b5b614f29848285613822565b509392505050565b600082601f830112614f4657614f45613998565b5b8151614f56848260208601614eef565b91505092915050565b6000614f72614f6d84614e8d565b614e09565b90508083825260208201905060208402830185811115614f9557614f946139a2565b5b835b81811015614fdc57805167ffffffffffffffff811115614fba57614fb9613998565b5b808601614fc78982614f31565b85526020850194505050602081019050614f97565b5050509392505050565b600082601f830112614ffb57614ffa613998565b5b815161500b848260208601614f5f565b91505092915050565b6000610140828403121561502b5761502a614dd3565b5b615036610140614e09565b9050600061504684828501614e29565b600083015250602061505a84828501614e29565b602083015250604061506e84828501614e29565b604083015250606061508284828501614e29565b606083015250608061509684828501614e3e565b60808301525060a06150aa84828501614e29565b60a08301525060c06150be84828501614e63565b60c08301525060e06150d284828501614e78565b60e08301525061010082015167ffffffffffffffff8111156150f7576150f6614e24565b5b61510384828501614fe6565b6101008301525061012082015167ffffffffffffffff81111561512957615128614e24565b5b61513584828501614f31565b6101208301525092915050565b6000602082840312156151585761515761354b565b5b600082015167ffffffffffffffff81111561517657615175613550565b5b61518284828501615014565b91505092915050565b60008151905061519a816135bd565b92915050565b6000602082840312156151b6576151b561354b565b5b60006151c48482850161518b565b91505092915050565b6151d68161370e565b82525050565b6151e581613575565b82525050565b600481106151fc576151fb6149ca565b5b50565b600081905061520d826151eb565b919050565b600061521d826151ff565b9050919050565b61522d81615212565b82525050565b61523c816136d8565b82525050565b600081519050919050565b600082825260208201905092915050565b6000819050602082019050919050565b600082825260208201905092915050565b600061528a82613921565b615294818561526e565b93506152a4818560208601613822565b6152ad8161384c565b840191505092915050565b60006152c4838361527f565b905092915050565b6000602082019050919050565b60006152e482615242565b6152ee818561524d565b9350836020820285016153008561525e565b8060005b8581101561533c578484038952815161531d85826152b8565b9450615328836152cc565b925060208a01995050600181019050615304565b50829750879550505050505092915050565b60006101408301600083015161536760008601826151cd565b50602083015161537a60208601826151cd565b50604083015161538d60408601826151cd565b5060608301516153a060608601826151cd565b5060808301516153b360808601826151dc565b5060a08301516153c660a08601826151cd565b5060c08301516153d960c0860182615224565b5060e08301516153ec60e0860182615233565b5061010083015184820361010086015261540682826152d9565b915050610120830151848203610120860152615422828261527f565b9150508091505092915050565b50565b600061543f600083613811565b915061544a8261542f565b600082019050919050565b600061546260008361392c565b915061546d8261542f565b600082019050919050565b60006080820190508181036000830152615492818461534e565b905081810360208301526154a581615432565b905081810360408301526154b881615455565b905081810360608301526154cb81615455565b905092915050565b6000602082840312156154e9576154e861354b565b5b60006154f784828501614e29565b91505092915050565b6000819050602082019050919050565b600061551c82516137d2565b80915050919050565b600061553082613921565b8261553a84615500565b905061554581615510565b92506020821015615585576155807fffffffffffffffffffffffffffffffffffffffffffffffffffffffffffffffff836020036008026146b8565b831692505b5050919050565b7f4b657920706f6f6c206973206e6f74206c697175696461746564000000000000600082015250565b60006155c2601a83613811565b91506155cd8261558c565b602082019050919050565b600060208201905081810360008301526155f1816155b5565b9050919050565b7f416c726561647920636c61696d65640000000000000000000000000000000000600082015250565b600061562e600f83613811565b9150615639826155f8565b602082019050919050565b6000602082019050818103600083015261565d81615621565b9050919050565b7f496e76616c6964206d65726b6c652070726f6f66000000000000000000000000600082015250565b600061569a601483613811565b91506156a582615664565b602082019050919050565b600060208201905081810360008301526156c98161568d565b9050919050565b60006156db826135b3565b91506156e6836135b3565b92508282026156f4816135b3565b9150828204841483151761570b5761570a614907565b5b5092915050565b7f4e487b7100000000000000000000000000000000000000000000000000000000600052601260045260246000fd5b600061574c826135b3565b9150615757836135b3565b92508261576757615766615712565b5b828204905092915050565b600061577f600083614539565b915061578a8261542f565b600082019050919050565b60006157a082615772565b9150819050919050565b7f4661696c656420746f2073656e64204574686572000000000000000000000000600082015250565b60006157e0601483613811565b91506157eb826157aa565b602082019050919050565b6000602082019050818103600083015261580f816157d3565b9050919050565b7f4e6f74206f776e65720000000000000000000000000000000000000000000000600082015250565b600061584c600983613811565b915061585782615816565b602082019050919050565b6000602082019050818103600083015261587b8161583f565b9050919050565b7f4b657920706f6f6c206973206c69717569646174656400000000000000000000600082015250565b60006158b8601683613811565b91506158c382615882565b602082019050919050565b600060208201905081810360008301526158e7816158ab565b9050919050565b7f496e73756666696369656e74207061796d656e74000000000000000000000000600082015250565b6000615924601483613811565b915061592f826158ee565b602082019050919050565b6000602082019050818103600083015261595381615917565b9050919050565b600060408201905061596f6000830185613629565b61597c6020830184613629565b9392505050565b7f496e73756666696369656e742062616c616e6365000000000000000000000000600082015250565b60006159b9601483613811565b91506159c482615983565b602082019050919050565b600060208201905081810360008301526159e8816159ac565b9050919050565b7f537570706c79206e6f7420616c6c6f7765642062656c6f77207072656d696e7460008201527f20616d6f756e7400000000000000000000000000000000000000000000000000602082015250565b6000615a4b602783613811565b9150615a56826159ef565b604082019050919050565b60006020820190508181036000830152615a7a81615a3e565b9050919050565b6000608082019050615a9660008301876137dc565b615aa36020830186613896565b615ab06040830185613629565b615abd6060830184613629565b95945050505050565b600060a082019050615adb6000830189613896565b615ae86020830188613896565b615af56040830187613629565b615b026060830186613629565b8181036080830152615b15818486614c8a565b9050979650505050505050565b600060a082019050615b376000830188613896565b615b446020830187613896565b615b516040830186613629565b615b5e6060830185613629565b8181036080830152615b70818461393d565b90509695505050505050565b7f426c6f636b206e756d6265722063616e6e6f7420626520696e2074686520667560008201527f7475726500000000000000000000000000000000000000000000000000000000602082015250565b6000615bd8602483613811565b9150615be382615b7c565b604082019050919050565b60006020820190508181036000830152615c0781615bcb565b905091905056fea264697066735822122009e28edd274b1f6fe92854a0eb00ee4ed9698da2e8a68a51f4c5e322719179cc64736f6c634300081b0033",
  "linkReferences": {},
  "deployedLinkReferences": {}
}