{
  "_format": "hh-sol-artifact-1",
  "contractName": "Aegis",
  "sourceName": "contracts/Aegis.sol",
  "abi": [
    {
      "inputs": [],
      "stateMutability": "nonpayable",
      "type": "constructor"
    },
    {
      "anonymous": false,
      "inputs": [
        {
          "indexed": true,
          "internalType": "address",
          "name": "owner",
          "type": "address"
        },
        {
          "indexed": true,
          "internalType": "address",
          "name": "operator",
          "type": "address"
        },
        {
          "indexed": false,
          "internalType": "bool",
          "name": "approved",
          "type": "bool"
        }
      ],
      "name": "ApprovalForAll",
      "type": "event"
    },
    {
      "anonymous": false,
      "inputs": [
        {
          "indexed": true,
          "internalType": "uint256",
          "name": "keyId",
          "type": "uint256"
        },
        {
          "indexed": true,
          "internalType": "address",
          "name": "claimer",
          "type": "address"
        },
        {
          "indexed": false,
          "internalType": "uint256",
          "name": "amount",
          "type": "uint256"
        }
      ],
      "name": "Claimed",
      "type": "event"
    },
    {
      "anonymous": false,
      "inputs": [
        {
          "indexed": true,
          "internalType": "uint256",
          "name": "keyId",
          "type": "uint256"
        },
        {
          "indexed": true,
          "internalType": "address",
          "name": "sender",
          "type": "address"
        },
        {
          "indexed": false,
          "internalType": "string",
          "name": "name",
          "type": "string"
        }
      ],
      "name": "Create",
      "type": "event"
    },
    {
      "anonymous": false,
      "inputs": [
        {
          "indexed": true,
          "internalType": "uint256",
          "name": "keyId",
          "type": "uint256"
        },
        {
          "indexed": true,
          "internalType": "address",
          "name": "sender",
          "type": "address"
        },
        {
          "indexed": false,
          "internalType": "bool",
          "name": "status",
          "type": "bool"
        }
      ],
      "name": "Liquidate",
      "type": "event"
    },
    {
      "anonymous": false,
      "inputs": [
        {
          "indexed": true,
          "internalType": "uint256",
          "name": "keyId",
          "type": "uint256"
        },
        {
          "indexed": false,
          "internalType": "bytes32",
          "name": "merkleRoot",
          "type": "bytes32"
        }
      ],
      "name": "MerkleRootUpdated",
      "type": "event"
    },
    {
      "anonymous": false,
      "inputs": [
        {
          "indexed": true,
          "internalType": "enum Aegis.TradeType",
          "name": "tradeType",
          "type": "uint8"
        },
        {
          "indexed": true,
          "internalType": "uint256",
          "name": "keyId",
          "type": "uint256"
        },
        {
          "indexed": true,
          "internalType": "address",
          "name": "sender",
          "type": "address"
        },
        {
          "indexed": false,
          "internalType": "uint256",
          "name": "tokenAmount",
          "type": "uint256"
        },
        {
          "indexed": false,
          "internalType": "uint256",
          "name": "ethAmount",
          "type": "uint256"
        }
      ],
      "name": "Trade",
      "type": "event"
    },
    {
      "anonymous": false,
      "inputs": [
        {
          "indexed": true,
          "internalType": "address",
          "name": "operator",
          "type": "address"
        },
        {
          "indexed": true,
          "internalType": "address",
          "name": "from",
          "type": "address"
        },
        {
          "indexed": true,
          "internalType": "address",
          "name": "to",
          "type": "address"
        },
        {
          "indexed": false,
          "internalType": "uint256[]",
          "name": "ids",
          "type": "uint256[]"
        },
        {
          "indexed": false,
          "internalType": "uint256[]",
          "name": "amounts",
          "type": "uint256[]"
        }
      ],
      "name": "TransferBatch",
      "type": "event"
    },
    {
      "anonymous": false,
      "inputs": [
        {
          "indexed": true,
          "internalType": "address",
          "name": "operator",
          "type": "address"
        },
        {
          "indexed": true,
          "internalType": "address",
          "name": "from",
          "type": "address"
        },
        {
          "indexed": true,
          "internalType": "address",
          "name": "to",
          "type": "address"
        },
        {
          "indexed": false,
          "internalType": "uint256",
          "name": "id",
          "type": "uint256"
        },
        {
          "indexed": false,
          "internalType": "uint256",
          "name": "amount",
          "type": "uint256"
        }
      ],
      "name": "TransferSingle",
      "type": "event"
    },
    {
      "anonymous": false,
      "inputs": [
        {
          "indexed": false,
          "internalType": "string",
          "name": "value",
          "type": "string"
        },
        {
          "indexed": true,
          "internalType": "uint256",
          "name": "id",
          "type": "uint256"
        }
      ],
      "name": "URI",
      "type": "event"
    },
    {
      "inputs": [],
      "name": "CLAIM_DENOMINATOR",
      "outputs": [
        {
          "internalType": "uint256",
          "name": "",
          "type": "uint256"
        }
      ],
      "stateMutability": "view",
      "type": "function"
    },
    {
      "inputs": [],
      "name": "CLAIM_PERCENT",
      "outputs": [
        {
          "internalType": "uint256",
          "name": "",
          "type": "uint256"
        }
      ],
      "stateMutability": "view",
      "type": "function"
    },
    {
      "inputs": [],
      "name": "CREATOR_PREMINT",
      "outputs": [
        {
          "internalType": "uint256",
          "name": "",
          "type": "uint256"
        }
      ],
      "stateMutability": "view",
      "type": "function"
    },
    {
      "inputs": [
        {
          "internalType": "address",
          "name": "",
          "type": "address"
        },
        {
          "internalType": "uint256",
          "name": "",
          "type": "uint256"
        }
      ],
      "name": "balanceOf",
      "outputs": [
        {
          "internalType": "uint256",
          "name": "",
          "type": "uint256"
        }
      ],
      "stateMutability": "view",
      "type": "function"
    },
    {
      "inputs": [
        {
          "internalType": "address[]",
          "name": "owners",
          "type": "address[]"
        },
        {
          "internalType": "uint256[]",
          "name": "ids",
          "type": "uint256[]"
        }
      ],
      "name": "balanceOfBatch",
      "outputs": [
        {
          "internalType": "uint256[]",
          "name": "balances",
          "type": "uint256[]"
        }
      ],
      "stateMutability": "view",
      "type": "function"
    },
    {
      "inputs": [
        {
          "internalType": "uint256",
          "name": "keyId",
          "type": "uint256"
        },
        {
          "internalType": "uint256",
          "name": "amount",
          "type": "uint256"
        }
      ],
      "name": "buy",
      "outputs": [],
      "stateMutability": "payable",
      "type": "function"
    },
    {
      "inputs": [
        {
          "internalType": "uint256",
          "name": "keyId",
          "type": "uint256"
        },
        {
          "internalType": "uint256",
          "name": "amount",
          "type": "uint256"
        },
        {
          "internalType": "bytes32[]",
          "name": "merkleProof",
          "type": "bytes32[]"
        }
      ],
      "name": "claim",
      "outputs": [],
      "stateMutability": "nonpayable",
      "type": "function"
    },
    {
      "inputs": [
        {
          "internalType": "string",
          "name": "name",
          "type": "string"
        }
      ],
      "name": "create",
      "outputs": [],
      "stateMutability": "nonpayable",
      "type": "function"
    },
    {
      "inputs": [
        {
          "internalType": "uint256",
          "name": "keyId",
          "type": "uint256"
        },
        {
          "internalType": "uint256",
          "name": "amount",
          "type": "uint256"
        }
      ],
      "name": "getBuyPrice",
      "outputs": [
        {
          "internalType": "uint256",
          "name": "",
          "type": "uint256"
        }
      ],
      "stateMutability": "view",
      "type": "function"
    },
    {
      "inputs": [
        {
          "internalType": "address",
          "name": "addr",
          "type": "address"
        }
      ],
      "name": "getKeysByAddress",
      "outputs": [
        {
          "internalType": "uint256[]",
          "name": "",
          "type": "uint256[]"
        }
      ],
      "stateMutability": "view",
      "type": "function"
    },
    {
      "inputs": [
        {
          "internalType": "uint256",
          "name": "supply",
          "type": "uint256"
        },
        {
          "internalType": "uint256",
          "name": "amount",
          "type": "uint256"
        }
      ],
      "name": "getPrice",
      "outputs": [
        {
          "internalType": "uint256",
          "name": "",
          "type": "uint256"
        }
      ],
      "stateMutability": "pure",
      "type": "function"
    },
    {
      "inputs": [
        {
          "internalType": "uint256",
          "name": "keyId",
          "type": "uint256"
        },
        {
          "internalType": "uint256",
          "name": "amount",
          "type": "uint256"
        }
      ],
      "name": "getSellPrice",
      "outputs": [
        {
          "internalType": "uint256",
          "name": "",
          "type": "uint256"
        }
      ],
      "stateMutability": "view",
      "type": "function"
    },
    {
      "inputs": [
        {
          "internalType": "uint256",
          "name": "",
          "type": "uint256"
        },
        {
          "internalType": "address",
          "name": "",
          "type": "address"
        }
      ],
      "name": "hasClaimed",
      "outputs": [
        {
          "internalType": "bool",
          "name": "",
          "type": "bool"
        }
      ],
      "stateMutability": "view",
      "type": "function"
    },
    {
      "inputs": [
        {
          "internalType": "address",
          "name": "",
          "type": "address"
        },
        {
          "internalType": "address",
          "name": "",
          "type": "address"
        }
      ],
      "name": "isApprovedForAll",
      "outputs": [
        {
          "internalType": "bool",
          "name": "",
          "type": "bool"
        }
      ],
      "stateMutability": "view",
      "type": "function"
    },
    {
      "inputs": [],
      "name": "keyIndex",
      "outputs": [
        {
          "internalType": "uint256",
          "name": "",
          "type": "uint256"
        }
      ],
      "stateMutability": "view",
      "type": "function"
    },
    {
      "inputs": [
        {
          "internalType": "uint256",
          "name": "",
          "type": "uint256"
        }
      ],
      "name": "keys",
      "outputs": [
        {
          "internalType": "uint256",
          "name": "id",
          "type": "uint256"
        },
        {
          "internalType": "string",
          "name": "name",
          "type": "string"
        },
        {
          "internalType": "address",
          "name": "creator",
          "type": "address"
        },
        {
          "internalType": "bool",
          "name": "isLiquidated",
          "type": "bool"
        },
        {
          "internalType": "bytes32",
          "name": "merkleRoot",
          "type": "bytes32"
        }
      ],
      "stateMutability": "view",
      "type": "function"
    },
    {
      "inputs": [],
      "name": "owner",
      "outputs": [
        {
          "internalType": "address",
          "name": "",
          "type": "address"
        }
      ],
      "stateMutability": "view",
      "type": "function"
    },
    {
      "inputs": [
        {
          "internalType": "uint256",
          "name": "",
          "type": "uint256"
        }
      ],
      "name": "pool",
      "outputs": [
        {
          "internalType": "uint256",
          "name": "",
          "type": "uint256"
        }
      ],
      "stateMutability": "view",
      "type": "function"
    },
    {
      "inputs": [
        {
          "internalType": "address",
          "name": "from",
          "type": "address"
        },
        {
          "internalType": "address",
          "name": "to",
          "type": "address"
        },
        {
          "internalType": "uint256[]",
          "name": "ids",
          "type": "uint256[]"
        },
        {
          "internalType": "uint256[]",
          "name": "amounts",
          "type": "uint256[]"
        },
        {
          "internalType": "bytes",
          "name": "data",
          "type": "bytes"
        }
      ],
      "name": "safeBatchTransferFrom",
      "outputs": [],
      "stateMutability": "nonpayable",
      "type": "function"
    },
    {
      "inputs": [
        {
          "internalType": "address",
          "name": "from",
          "type": "address"
        },
        {
          "internalType": "address",
          "name": "to",
          "type": "address"
        },
        {
          "internalType": "uint256",
          "name": "id",
          "type": "uint256"
        },
        {
          "internalType": "uint256",
          "name": "amount",
          "type": "uint256"
        },
        {
          "internalType": "bytes",
          "name": "data",
          "type": "bytes"
        }
      ],
      "name": "safeTransferFrom",
      "outputs": [],
      "stateMutability": "nonpayable",
      "type": "function"
    },
    {
      "inputs": [
        {
          "internalType": "uint256",
          "name": "keyId",
          "type": "uint256"
        },
        {
          "internalType": "uint256",
          "name": "amount",
          "type": "uint256"
        }
      ],
      "name": "sell",
      "outputs": [],
      "stateMutability": "nonpayable",
      "type": "function"
    },
    {
      "inputs": [
        {
          "internalType": "address",
          "name": "operator",
          "type": "address"
        },
        {
          "internalType": "bool",
          "name": "approved",
          "type": "bool"
        }
      ],
      "name": "setApprovalForAll",
      "outputs": [],
      "stateMutability": "nonpayable",
      "type": "function"
    },
    {
      "inputs": [
        {
          "internalType": "bytes4",
          "name": "interfaceId",
          "type": "bytes4"
        }
      ],
      "name": "supportsInterface",
      "outputs": [
        {
          "internalType": "bool",
          "name": "",
          "type": "bool"
        }
      ],
      "stateMutability": "view",
      "type": "function"
    },
    {
      "inputs": [
        {
          "internalType": "uint256",
          "name": "keyId",
          "type": "uint256"
        }
      ],
      "name": "toggleLiquidation",
      "outputs": [],
      "stateMutability": "nonpayable",
      "type": "function"
    },
    {
      "inputs": [
        {
          "internalType": "uint256",
          "name": "",
          "type": "uint256"
        }
      ],
      "name": "totalSupply",
      "outputs": [
        {
          "internalType": "uint256",
          "name": "",
          "type": "uint256"
        }
      ],
      "stateMutability": "view",
      "type": "function"
    },
    {
      "inputs": [
        {
          "internalType": "uint256",
          "name": "keyId",
          "type": "uint256"
        },
        {
          "internalType": "bytes32",
          "name": "merkleRoot",
          "type": "bytes32"
        }
      ],
      "name": "updateMerkleRoot",
      "outputs": [],
      "stateMutability": "nonpayable",
      "type": "function"
    },
    {
      "inputs": [
        {
          "internalType": "uint256",
          "name": "id",
          "type": "uint256"
        }
      ],
      "name": "uri",
      "outputs": [
        {
          "internalType": "string",
          "name": "",
          "type": "string"
        }
      ],
      "stateMutability": "view",
      "type": "function"
    },
    {
      "inputs": [
        {
          "internalType": "address",
          "name": "",
          "type": "address"
        },
        {
          "internalType": "uint256",
          "name": "",
          "type": "uint256"
        }
      ],
      "name": "userKeys",
      "outputs": [
        {
          "internalType": "uint256",
          "name": "",
          "type": "uint256"
        }
      ],
      "stateMutability": "view",
      "type": "function"
    },
    {
      "inputs": [
        {
          "internalType": "uint256",
          "name": "keyId",
          "type": "uint256"
        },
        {
          "internalType": "address",
          "name": "account",
          "type": "address"
        },
        {
          "internalType": "uint256",
          "name": "amount",
          "type": "uint256"
        },
        {
          "internalType": "bytes32[]",
          "name": "merkleProof",
          "type": "bytes32[]"
        }
      ],
      "name": "verifyMerkle",
      "outputs": [
        {
          "internalType": "bool",
          "name": "",
          "type": "bool"
        }
      ],
      "stateMutability": "view",
      "type": "function"
    }
  ],
  "bytecode": "0x6080604052348015600f57600080fd5b5033600260006101000a81548173ffffffffffffffffffffffffffffffffffffffff021916908373ffffffffffffffffffffffffffffffffffffffff16021790555061428b806100606000396000f3fe6080604052600436106101c15760003560e01c80638da5cb5b116100f7578063c157253d11610095578063e985e9c511610064578063e985e9c5146106cc578063f1e3311514610709578063f242432a14610732578063fe3131121461075b576101c1565b8063c157253d14610621578063c23c8b031461065e578063d6febde814610687578063d79875eb146106a3576101c1565b8063a22cb465116100d1578063a22cb46514610569578063ae0b51df14610592578063b6a46b3b146105bb578063bd85b039146105e4576101c1565b80638da5cb5b146104c457806393990f7a146104ef5780639477d85d1461052c576101c1565b80634d7b31d71161016457806358074d8b1161013e57806358074d8b146103f45780635cf4ee911461041f5780637ffb25ac1461045c578063873f6f9e14610487576101c1565b80634d7b31d71461034f5780634d8cfcd41461037a5780634e1273f4146103b7576101c1565b80630e89341c116101a05780630e89341c146102815780631b7a1bbe146102be5780632741a8c5146102fb5780632eb2c2d614610326576101c1565b8062fdd58e146101c657806301ffc9a7146102035780630cb6aaf114610240575b600080fd5b3480156101d257600080fd5b506101ed60048036038101906101e8919061290f565b610798565b6040516101fa919061295e565b60405180910390f35b34801561020f57600080fd5b5061022a600480360381019061022591906129d1565b6107bd565b6040516102379190612a19565b60405180910390f35b34801561024c57600080fd5b5061026760048036038101906102629190612a34565b61084f565b604051610278959493929190612b19565b60405180910390f35b34801561028d57600080fd5b506102a860048036038101906102a39190612a34565b61093a565b6040516102b59190612b73565b60405180910390f35b3480156102ca57600080fd5b506102e560048036038101906102e09190612bfa565b6109e2565b6040516102f29190612a19565b60405180910390f35b34801561030757600080fd5b50610310610ad9565b60405161031d919061295e565b60405180910390f35b34801561033257600080fd5b5061034d60048036038101906103489190612d2e565b610adf565b005b34801561035b57600080fd5b50610364610f3b565b604051610371919061295e565b60405180910390f35b34801561038657600080fd5b506103a1600480360381019061039c9190612e0a565b610f41565b6040516103ae9190612ef5565b60405180910390f35b3480156103c357600080fd5b506103de60048036038101906103d99190612f6d565b610fd8565b6040516103eb9190612ef5565b60405180910390f35b34801561040057600080fd5b50610409611141565b604051610416919061295e565b60405180910390f35b34801561042b57600080fd5b5061044660048036038101906104419190612fee565b611147565b604051610453919061295e565b60405180910390f35b34801561046857600080fd5b50610471611178565b60405161047e919061295e565b60405180910390f35b34801561049357600080fd5b506104ae60048036038101906104a9919061302e565b611184565b6040516104bb9190612a19565b60405180910390f35b3480156104d057600080fd5b506104d96111b3565b6040516104e6919061306e565b60405180910390f35b3480156104fb57600080fd5b506105166004803603810190610511919061290f565b6111d9565b604051610523919061295e565b60405180910390f35b34801561053857600080fd5b50610553600480360381019061054e9190612fee565b61120a565b604051610560919061295e565b60405180910390f35b34801561057557600080fd5b50610590600480360381019061058b91906130b5565b61123c565b005b34801561059e57600080fd5b506105b960048036038101906105b491906130f5565b611339565b005b3480156105c757600080fd5b506105e260048036038101906105dd91906131bf565b611655565b005b3480156105f057600080fd5b5061060b60048036038101906106069190612a34565b6119ac565b604051610618919061295e565b60405180910390f35b34801561062d57600080fd5b5061064860048036038101906106439190612fee565b6119c4565b604051610655919061295e565b60405180910390f35b34801561066a57600080fd5b5061068560048036038101906106809190612a34565b6119eb565b005b6106a1600480360381019061069c9190612fee565b611ad8565b005b3480156106af57600080fd5b506106ca60048036038101906106c59190612fee565b611caa565b005b3480156106d857600080fd5b506106f360048036038101906106ee919061320c565b611fcf565b6040516107009190612a19565b60405180910390f35b34801561071557600080fd5b50610730600480360381019061072b9190613278565b611ffe565b005b34801561073e57600080fd5b50610759600480360381019061075491906132b8565b612129565b005b34801561076757600080fd5b50610782600480360381019061077d9190612a34565b6124dc565b60405161078f919061295e565b60405180910390f35b6000602052816000526040600020602052806000526040600020600091509150505481565b60006301ffc9a760e01b827bffffffffffffffffffffffffffffffffffffffffffffffffffffffff19161480610818575063d9b67a2660e01b827bffffffffffffffffffffffffffffffffffffffffffffffffffffffff1916145b806108485750630e89341c60e01b827bffffffffffffffffffffffffffffffffffffffffffffffffffffffff1916145b9050919050565b600460205280600052604060002060009150905080600001549080600101805461087890613381565b80601f01602080910402602001604051908101604052809291908181526020018280546108a490613381565b80156108f15780601f106108c6576101008083540402835291602001916108f1565b820191906000526020600020905b8154815290600101906020018083116108d457829003601f168201915b5050505050908060020160009054906101000a900473ffffffffffffffffffffffffffffffffffffffff16908060020160149054906101000a900460ff16908060030154905085565b606060046000838152602001908152602001600020600101805461095d90613381565b80601f016020809104026020016040519081016040528092919081815260200182805461098990613381565b80156109d65780601f106109ab576101008083540402835291602001916109d6565b820191906000526020600020905b8154815290600101906020018083116109b957829003601f168201915b50505050509050919050565b60008085856040516020016109f892919061341b565b604051602081830303815290604052805190602001209050600081905060005b85859050811015610ab2576000868683818110610a3857610a37613447565b5b905060200201359050808311610a78578281604051602001610a5b929190613497565b604051602081830303815290604052805190602001209250610aa4565b8083604051602001610a8b929190613497565b6040516020818303038152906040528051906020012092505b508080600101915050610a18565b50600460008981526020019081526020016000206003015481149250505095945050505050565b6103e881565b838390508686905014610b27576040517f08c379a0000000000000000000000000000000000000000000000000000000008152600401610b1e9061350f565b60405180910390fd5b8773ffffffffffffffffffffffffffffffffffffffff163373ffffffffffffffffffffffffffffffffffffffff161480610be75750600160008973ffffffffffffffffffffffffffffffffffffffff1673ffffffffffffffffffffffffffffffffffffffff16815260200190815260200160002060003373ffffffffffffffffffffffffffffffffffffffff1673ffffffffffffffffffffffffffffffffffffffff16815260200190815260200160002060009054906101000a900460ff165b610c26576040517f08c379a0000000000000000000000000000000000000000000000000000000008152600401610c1d9061357b565b60405180910390fd5b60008060005b88889050811015610d4657888882818110610c4a57610c49613447565b5b905060200201359250868682818110610c6657610c65613447565b5b905060200201359150816000808d73ffffffffffffffffffffffffffffffffffffffff1673ffffffffffffffffffffffffffffffffffffffff16815260200190815260200160002060008581526020019081526020016000206000828254610cce91906135ca565b92505081905550816000808c73ffffffffffffffffffffffffffffffffffffffff1673ffffffffffffffffffffffffffffffffffffffff16815260200190815260200160002060008581526020019081526020016000206000828254610d3491906135fe565b92505081905550806001019050610c2c565b508873ffffffffffffffffffffffffffffffffffffffff168a73ffffffffffffffffffffffffffffffffffffffff163373ffffffffffffffffffffffffffffffffffffffff167f4a39dc06d4c0dbc64b70af90fd698a233a518aa5d07e595d983b8c0526c8f7fb8b8b8b8b604051610dc1949392919061369c565b60405180910390a460008973ffffffffffffffffffffffffffffffffffffffff163b14610ebe5763bc197c8160e01b7bffffffffffffffffffffffffffffffffffffffffffffffffffffffff19168973ffffffffffffffffffffffffffffffffffffffff1663bc197c81338d8c8c8c8c8c8c6040518963ffffffff1660e01b8152600401610e56989796959493929190613724565b6020604051808303816000875af1158015610e75573d6000803e3d6000fd5b505050506040513d601f19601f82011682018060405250810190610e9991906137a7565b7bffffffffffffffffffffffffffffffffffffffffffffffffffffffff191614610ef0565b600073ffffffffffffffffffffffffffffffffffffffff168973ffffffffffffffffffffffffffffffffffffffff1614155b610f2f576040517f08c379a0000000000000000000000000000000000000000000000000000000008152600401610f2690613820565b60405180910390fd5b50505050505050505050565b6103e781565b6060600560008373ffffffffffffffffffffffffffffffffffffffff1673ffffffffffffffffffffffffffffffffffffffff168152602001908152602001600020805480602002602001604051908101604052809291908181526020018280548015610fcc57602002820191906000526020600020905b815481526020019060010190808311610fb8575b50505050509050919050565b6060828290508585905014611022576040517f08c379a00000000000000000000000000000000000000000000000000000000081526004016110199061350f565b60405180910390fd5b8484905067ffffffffffffffff81111561103f5761103e613840565b5b60405190808252806020026020018201604052801561106d5781602001602082028036833780820191505090505b50905060005b858590508110156111385760008087878481811061109457611093613447565b5b90506020020160208101906110a99190612e0a565b73ffffffffffffffffffffffffffffffffffffffff1673ffffffffffffffffffffffffffffffffffffffff16815260200190815260200160002060008585848181106110f8576110f7613447565b5b9050602002013581526020019081526020016000205482828151811061112157611120613447565b5b602002602001018181525050806001019050611073565b50949350505050565b60035481565b6000611152836124f4565b611166838561116191906135fe565b6124f4565b61117091906135ca565b905092915050565b670de0b6b3a764000081565b60086020528160005260406000206020528060005260406000206000915091509054906101000a900460ff1681565b600260009054906101000a900473ffffffffffffffffffffffffffffffffffffffff1681565b600560205281600052604060002081815481106111f557600080fd5b90600052602060002001600091509150505481565b600061123482600660008681526020019081526020016000205461122e91906135ca565b83611147565b905092915050565b80600160003373ffffffffffffffffffffffffffffffffffffffff1673ffffffffffffffffffffffffffffffffffffffff16815260200190815260200160002060008473ffffffffffffffffffffffffffffffffffffffff1673ffffffffffffffffffffffffffffffffffffffff16815260200190815260200160002060006101000a81548160ff0219169083151502179055508173ffffffffffffffffffffffffffffffffffffffff163373ffffffffffffffffffffffffffffffffffffffff167f17307eab39ab6107e8899845ad3d59bd9653f200f220920489ca2b5937696c318360405161132d9190612a19565b60405180910390a35050565b600354841061137d576040517f08c379a0000000000000000000000000000000000000000000000000000000008152600401611374906138bb565b60405180910390fd5b6004600085815260200190815260200160002060020160149054906101000a900460ff166113e0576040517f08c379a00000000000000000000000000000000000000000000000000000000081526004016113d790613927565b60405180910390fd5b6008600085815260200190815260200160002060003373ffffffffffffffffffffffffffffffffffffffff1673ffffffffffffffffffffffffffffffffffffffff16815260200190815260200160002060009054906101000a900460ff161561147e576040517f08c379a000000000000000000000000000000000000000000000000000000000815260040161147590613993565b60405180910390fd5b61148b84338585856109e2565b6114ca576040517f08c379a00000000000000000000000000000000000000000000000000000000081526004016114c1906139ff565b60405180910390fd5b60006103e86103e7856114dd9190613a1f565b6114e79190613a90565b905060016008600087815260200190815260200160002060003373ffffffffffffffffffffffffffffffffffffffff1673ffffffffffffffffffffffffffffffffffffffff16815260200190815260200160002060006101000a81548160ff02191690831515021790555060003373ffffffffffffffffffffffffffffffffffffffff168260405161157890613af2565b60006040518083038185875af1925050503d80600081146115b5576040519150601f19603f3d011682016040523d82523d6000602084013e6115ba565b606091505b50509050806115fe576040517f08c379a00000000000000000000000000000000000000000000000000000000081526004016115f590613b53565b60405180910390fd5b3373ffffffffffffffffffffffffffffffffffffffff16867f4ec90e965519d92681267467f775ada5bd214aa92c0dc93d90a5e880ce9ed02684604051611645919061295e565b60405180910390a3505050505050565b600260009054906101000a900473ffffffffffffffffffffffffffffffffffffffff1673ffffffffffffffffffffffffffffffffffffffff163373ffffffffffffffffffffffffffffffffffffffff16146116e5576040517f08c379a00000000000000000000000000000000000000000000000000000000081526004016116dc90613bbf565b60405180910390fd5b600060035490506040518060a0016040528082815260200184848080601f016020809104026020016040519081016040528093929190818152602001838380828437600081840152601f19601f8201169050808301925050505050505081526020013373ffffffffffffffffffffffffffffffffffffffff1681526020016000151581526020016000801b815250600460008381526020019081526020016000206000820151816000015560208201518160010190816117a59190613d8b565b5060408201518160020160006101000a81548173ffffffffffffffffffffffffffffffffffffffff021916908373ffffffffffffffffffffffffffffffffffffffff16021790555060608201518160020160146101000a81548160ff02191690831515021790555060808201518160030155905050600560003373ffffffffffffffffffffffffffffffffffffffff1673ffffffffffffffffffffffffffffffffffffffff168152602001908152602001600020819080600181540180825580915050600190039060005260206000200160009091909190915055670de0b6b3a76400006006600083815260200190815260200160002060008282546118ab91906135fe565b925050819055506001816118bf91906135fe565b6003819055506118e83382670de0b6b3a76400006040518060200160405280600081525061253b565b3373ffffffffffffffffffffffffffffffffffffffff16817fb683691564ab594b1f9e9db91abaf085736871256a4741baa41bf30cb9d4f2368585604051611931929190613e8a565b60405180910390a33373ffffffffffffffffffffffffffffffffffffffff16816000600281111561196557611964613eae565b5b7fef9efaa688e86a93d98a7f0102f8f58ea72875d8578cc452a9f1623481f0bfcc670de0b6b3a7640000600060405161199f929190613f18565b60405180910390a4505050565b60066020528060005260406000206000915090505481565b60006119e3600660008581526020019081526020016000205483611147565b905092915050565b6003548110611a2f576040517f08c379a0000000000000000000000000000000000000000000000000000000008152600401611a26906138bb565b60405180910390fd5b60006004600083815260200190815260200160002090508060020160149054906101000a900460ff16158160020160146101000a81548160ff0219169083151502179055503373ffffffffffffffffffffffffffffffffffffffff16827fd7f9f91585e13a431090cee597fff8e7e61fbf3c332f6e5fdf25b6ce7fa99b4c8360020160149054906101000a900460ff16604051611acc9190612a19565b60405180910390a35050565b6003548210611b1c576040517f08c379a0000000000000000000000000000000000000000000000000000000008152600401611b13906138bb565b60405180910390fd5b6004600083815260200190815260200160002060020160149054906101000a900460ff1615611b80576040517f08c379a0000000000000000000000000000000000000000000000000000000008152600401611b7790613f8d565b60405180910390fd5b6000611b8c83836119c4565b905080341015611bd1576040517f08c379a0000000000000000000000000000000000000000000000000000000008152600401611bc890613ff9565b60405180910390fd5b81600660008581526020019081526020016000206000828254611bf491906135fe565b9250508190555080600760008581526020019081526020016000206000828254611c1e91906135fe565b92505081905550611c403384846040518060200160405280600081525061253b565b3373ffffffffffffffffffffffffffffffffffffffff168360016002811115611c6c57611c6b613eae565b5b7fef9efaa688e86a93d98a7f0102f8f58ea72875d8578cc452a9f1623481f0bfcc8585604051611c9d929190614019565b60405180910390a4505050565b6003548210611cee576040517f08c379a0000000000000000000000000000000000000000000000000000000008152600401611ce5906138bb565b60405180910390fd5b6004600083815260200190815260200160002060020160149054906101000a900460ff1615611d52576040517f08c379a0000000000000000000000000000000000000000000000000000000008152600401611d4990613f8d565b60405180910390fd5b806000803373ffffffffffffffffffffffffffffffffffffffff1673ffffffffffffffffffffffffffffffffffffffff1681526020019081526020016000206000848152602001908152602001600020541015611de4576040517f08c379a0000000000000000000000000000000000000000000000000000000008152600401611ddb9061408e565b60405180910390fd5b600060066000848152602001908152602001600020549050670de0b6b3a76400008282611e1191906135ca565b1015611e52576040517f08c379a0000000000000000000000000000000000000000000000000000000008152600401611e4990614120565b60405180910390fd5b6000611e5e848461120a565b9050611e6b338585612787565b8282611e7791906135ca565b600660008681526020019081526020016000208190555080600760008681526020019081526020016000206000828254611eb191906135ca565b925050819055503373ffffffffffffffffffffffffffffffffffffffff1684600280811115611ee357611ee2613eae565b5b7fef9efaa688e86a93d98a7f0102f8f58ea72875d8578cc452a9f1623481f0bfcc8685604051611f14929190614019565b60405180910390a460003373ffffffffffffffffffffffffffffffffffffffff1682604051611f4290613af2565b60006040518083038185875af1925050503d8060008114611f7f576040519150601f19603f3d011682016040523d82523d6000602084013e611f84565b606091505b5050905080611fc8576040517f08c379a0000000000000000000000000000000000000000000000000000000008152600401611fbf90613b53565b60405180910390fd5b5050505050565b60016020528160005260406000206020528060005260406000206000915091509054906101000a900460ff1681565b600260009054906101000a900473ffffffffffffffffffffffffffffffffffffffff1673ffffffffffffffffffffffffffffffffffffffff163373ffffffffffffffffffffffffffffffffffffffff161461208e576040517f08c379a000000000000000000000000000000000000000000000000000000000815260040161208590613bbf565b60405180910390fd5b60035482106120d2576040517f08c379a00000000000000000000000000000000000000000000000000000000081526004016120c9906138bb565b60405180910390fd5b806004600084815260200190815260200160002060030181905550817f9ff79792a92b66fee090acb66e07837a2edb31ee6b9780fa551fd04b79dffcd28260405161211d9190614140565b60405180910390a25050565b8573ffffffffffffffffffffffffffffffffffffffff163373ffffffffffffffffffffffffffffffffffffffff1614806121e95750600160008773ffffffffffffffffffffffffffffffffffffffff1673ffffffffffffffffffffffffffffffffffffffff16815260200190815260200160002060003373ffffffffffffffffffffffffffffffffffffffff1673ffffffffffffffffffffffffffffffffffffffff16815260200190815260200160002060009054906101000a900460ff165b612228576040517f08c379a000000000000000000000000000000000000000000000000000000000815260040161221f9061357b565b60405180910390fd5b826000808873ffffffffffffffffffffffffffffffffffffffff1673ffffffffffffffffffffffffffffffffffffffff1681526020019081526020016000206000868152602001908152602001600020600082825461228791906135ca565b92505081905550826000808773ffffffffffffffffffffffffffffffffffffffff1673ffffffffffffffffffffffffffffffffffffffff168152602001908152602001600020600086815260200190815260200160002060008282546122ed91906135fe565b925050819055508473ffffffffffffffffffffffffffffffffffffffff168673ffffffffffffffffffffffffffffffffffffffff163373ffffffffffffffffffffffffffffffffffffffff167fc3d58168c5ae7397731d063d5bbf3d657854427343f4c083240f7aacaa2d0f62878760405161236a929190614019565b60405180910390a460008573ffffffffffffffffffffffffffffffffffffffff163b146124635763f23a6e6160e01b7bffffffffffffffffffffffffffffffffffffffffffffffffffffffff19168573ffffffffffffffffffffffffffffffffffffffff1663f23a6e613389888888886040518763ffffffff1660e01b81526004016123fb9695949392919061415b565b6020604051808303816000875af115801561241a573d6000803e3d6000fd5b505050506040513d601f19601f8201168201806040525081019061243e91906137a7565b7bffffffffffffffffffffffffffffffffffffffffffffffffffffffff191614612495565b600073ffffffffffffffffffffffffffffffffffffffff168573ffffffffffffffffffffffffffffffffffffffff1614155b6124d4576040517f08c379a00000000000000000000000000000000000000000000000000000000081526004016124cb90613820565b60405180910390fd5b505050505050565b60076020528060005260406000206000915090505481565b6000670de0b6b3a76400008211156125315766038d7ea4c68000670de0b6b3a76400008361252291906135ca565b61252c9190613a1f565b612534565b60005b9050919050565b816000808673ffffffffffffffffffffffffffffffffffffffff1673ffffffffffffffffffffffffffffffffffffffff1681526020019081526020016000206000858152602001908152602001600020600082825461259a91906135fe565b925050819055508373ffffffffffffffffffffffffffffffffffffffff16600073ffffffffffffffffffffffffffffffffffffffff163373ffffffffffffffffffffffffffffffffffffffff167fc3d58168c5ae7397731d063d5bbf3d657854427343f4c083240f7aacaa2d0f628686604051612618929190614019565b60405180910390a460008473ffffffffffffffffffffffffffffffffffffffff163b146127105763f23a6e6160e01b7bffffffffffffffffffffffffffffffffffffffffffffffffffffffff19168473ffffffffffffffffffffffffffffffffffffffff1663f23a6e613360008787876040518663ffffffff1660e01b81526004016126a89594939291906141fb565b6020604051808303816000875af11580156126c7573d6000803e3d6000fd5b505050506040513d601f19601f820116820180604052508101906126eb91906137a7565b7bffffffffffffffffffffffffffffffffffffffffffffffffffffffff191614612742565b600073ffffffffffffffffffffffffffffffffffffffff168473ffffffffffffffffffffffffffffffffffffffff1614155b612781576040517f08c379a000000000000000000000000000000000000000000000000000000000815260040161277890613820565b60405180910390fd5b50505050565b806000808573ffffffffffffffffffffffffffffffffffffffff1673ffffffffffffffffffffffffffffffffffffffff168152602001908152602001600020600084815260200190815260200160002060008282546127e691906135ca565b92505081905550600073ffffffffffffffffffffffffffffffffffffffff168373ffffffffffffffffffffffffffffffffffffffff163373ffffffffffffffffffffffffffffffffffffffff167fc3d58168c5ae7397731d063d5bbf3d657854427343f4c083240f7aacaa2d0f628585604051612864929190614019565b60405180910390a4505050565b600080fd5b600080fd5b600073ffffffffffffffffffffffffffffffffffffffff82169050919050565b60006128a68261287b565b9050919050565b6128b68161289b565b81146128c157600080fd5b50565b6000813590506128d3816128ad565b92915050565b6000819050919050565b6128ec816128d9565b81146128f757600080fd5b50565b600081359050612909816128e3565b92915050565b6000806040838503121561292657612925612871565b5b6000612934858286016128c4565b9250506020612945858286016128fa565b9150509250929050565b612958816128d9565b82525050565b6000602082019050612973600083018461294f565b92915050565b60007fffffffff0000000000000000000000000000000000000000000000000000000082169050919050565b6129ae81612979565b81146129b957600080fd5b50565b6000813590506129cb816129a5565b92915050565b6000602082840312156129e7576129e6612871565b5b60006129f5848285016129bc565b91505092915050565b60008115159050919050565b612a13816129fe565b82525050565b6000602082019050612a2e6000830184612a0a565b92915050565b600060208284031215612a4a57612a49612871565b5b6000612a58848285016128fa565b91505092915050565b600081519050919050565b600082825260208201905092915050565b60005b83811015612a9b578082015181840152602081019050612a80565b60008484015250505050565b6000601f19601f8301169050919050565b6000612ac382612a61565b612acd8185612a6c565b9350612add818560208601612a7d565b612ae681612aa7565b840191505092915050565b612afa8161289b565b82525050565b6000819050919050565b612b1381612b00565b82525050565b600060a082019050612b2e600083018861294f565b8181036020830152612b408187612ab8565b9050612b4f6040830186612af1565b612b5c6060830185612a0a565b612b696080830184612b0a565b9695505050505050565b60006020820190508181036000830152612b8d8184612ab8565b905092915050565b600080fd5b600080fd5b600080fd5b60008083601f840112612bba57612bb9612b95565b5b8235905067ffffffffffffffff811115612bd757612bd6612b9a565b5b602083019150836020820283011115612bf357612bf2612b9f565b5b9250929050565b600080600080600060808688031215612c1657612c15612871565b5b6000612c24888289016128fa565b9550506020612c35888289016128c4565b9450506040612c46888289016128fa565b935050606086013567ffffffffffffffff811115612c6757612c66612876565b5b612c7388828901612ba4565b92509250509295509295909350565b60008083601f840112612c9857612c97612b95565b5b8235905067ffffffffffffffff811115612cb557612cb4612b9a565b5b602083019150836020820283011115612cd157612cd0612b9f565b5b9250929050565b60008083601f840112612cee57612ced612b95565b5b8235905067ffffffffffffffff811115612d0b57612d0a612b9a565b5b602083019150836001820283011115612d2757612d26612b9f565b5b9250929050565b60008060008060008060008060a0898b031215612d4e57612d4d612871565b5b6000612d5c8b828c016128c4565b9850506020612d6d8b828c016128c4565b975050604089013567ffffffffffffffff811115612d8e57612d8d612876565b5b612d9a8b828c01612c82565b9650965050606089013567ffffffffffffffff811115612dbd57612dbc612876565b5b612dc98b828c01612c82565b9450945050608089013567ffffffffffffffff811115612dec57612deb612876565b5b612df88b828c01612cd8565b92509250509295985092959890939650565b600060208284031215612e2057612e1f612871565b5b6000612e2e848285016128c4565b91505092915050565b600081519050919050565b600082825260208201905092915050565b6000819050602082019050919050565b612e6c816128d9565b82525050565b6000612e7e8383612e63565b60208301905092915050565b6000602082019050919050565b6000612ea282612e37565b612eac8185612e42565b9350612eb783612e53565b8060005b83811015612ee8578151612ecf8882612e72565b9750612eda83612e8a565b925050600181019050612ebb565b5085935050505092915050565b60006020820190508181036000830152612f0f8184612e97565b905092915050565b60008083601f840112612f2d57612f2c612b95565b5b8235905067ffffffffffffffff811115612f4a57612f49612b9a565b5b602083019150836020820283011115612f6657612f65612b9f565b5b9250929050565b60008060008060408587031215612f8757612f86612871565b5b600085013567ffffffffffffffff811115612fa557612fa4612876565b5b612fb187828801612f17565b9450945050602085013567ffffffffffffffff811115612fd457612fd3612876565b5b612fe087828801612c82565b925092505092959194509250565b6000806040838503121561300557613004612871565b5b6000613013858286016128fa565b9250506020613024858286016128fa565b9150509250929050565b6000806040838503121561304557613044612871565b5b6000613053858286016128fa565b9250506020613064858286016128c4565b9150509250929050565b60006020820190506130836000830184612af1565b92915050565b613092816129fe565b811461309d57600080fd5b50565b6000813590506130af81613089565b92915050565b600080604083850312156130cc576130cb612871565b5b60006130da858286016128c4565b92505060206130eb858286016130a0565b9150509250929050565b6000806000806060858703121561310f5761310e612871565b5b600061311d878288016128fa565b945050602061312e878288016128fa565b935050604085013567ffffffffffffffff81111561314f5761314e612876565b5b61315b87828801612ba4565b925092505092959194509250565b60008083601f84011261317f5761317e612b95565b5b8235905067ffffffffffffffff81111561319c5761319b612b9a565b5b6020830191508360018202830111156131b8576131b7612b9f565b5b9250929050565b600080602083850312156131d6576131d5612871565b5b600083013567ffffffffffffffff8111156131f4576131f3612876565b5b61320085828601613169565b92509250509250929050565b6000806040838503121561322357613222612871565b5b6000613231858286016128c4565b9250506020613242858286016128c4565b9150509250929050565b61325581612b00565b811461326057600080fd5b50565b6000813590506132728161324c565b92915050565b6000806040838503121561328f5761328e612871565b5b600061329d858286016128fa565b92505060206132ae85828601613263565b9150509250929050565b60008060008060008060a087890312156132d5576132d4612871565b5b60006132e389828a016128c4565b96505060206132f489828a016128c4565b955050604061330589828a016128fa565b945050606061331689828a016128fa565b935050608087013567ffffffffffffffff81111561333757613336612876565b5b61334389828a01612cd8565b92509250509295509295509295565b7f4e487b7100000000000000000000000000000000000000000000000000000000600052602260045260246000fd5b6000600282049050600182168061339957607f821691505b6020821081036133ac576133ab613352565b5b50919050565b60008160601b9050919050565b60006133ca826133b2565b9050919050565b60006133dc826133bf565b9050919050565b6133f46133ef8261289b565b6133d1565b82525050565b6000819050919050565b613415613410826128d9565b6133fa565b82525050565b600061342782856133e3565b6014820191506134378284613404565b6020820191508190509392505050565b7f4e487b7100000000000000000000000000000000000000000000000000000000600052603260045260246000fd5b6000819050919050565b61349161348c82612b00565b613476565b82525050565b60006134a38285613480565b6020820191506134b38284613480565b6020820191508190509392505050565b7f4c454e4754485f4d49534d415443480000000000000000000000000000000000600082015250565b60006134f9600f83612a6c565b9150613504826134c3565b602082019050919050565b60006020820190508181036000830152613528816134ec565b9050919050565b7f4e4f545f415554484f52495a4544000000000000000000000000000000000000600082015250565b6000613565600e83612a6c565b91506135708261352f565b602082019050919050565b6000602082019050818103600083015261359481613558565b9050919050565b7f4e487b7100000000000000000000000000000000000000000000000000000000600052601160045260246000fd5b60006135d5826128d9565b91506135e0836128d9565b92508282039050818111156135f8576135f761359b565b5b92915050565b6000613609826128d9565b9150613614836128d9565b925082820190508082111561362c5761362b61359b565b5b92915050565b600080fd5b82818337505050565b600061364c8385612e42565b93507f07ffffffffffffffffffffffffffffffffffffffffffffffffffffffffffffff83111561367f5761367e613632565b5b602083029250613690838584613637565b82840190509392505050565b600060408201905081810360008301526136b7818688613640565b905081810360208301526136cc818486613640565b905095945050505050565b600082825260208201905092915050565b82818337600083830152505050565b600061370383856136d7565b93506137108385846136e8565b61371983612aa7565b840190509392505050565b600060a082019050613739600083018b612af1565b613746602083018a612af1565b818103604083015261375981888a613640565b9050818103606083015261376e818688613640565b905081810360808301526137838184866136f7565b90509998505050505050505050565b6000815190506137a1816129a5565b92915050565b6000602082840312156137bd576137bc612871565b5b60006137cb84828501613792565b91505092915050565b7f554e534146455f524543495049454e5400000000000000000000000000000000600082015250565b600061380a601083612a6c565b9150613815826137d4565b602082019050919050565b60006020820190508181036000830152613839816137fd565b9050919050565b7f4e487b7100000000000000000000000000000000000000000000000000000000600052604160045260246000fd5b7f4b657920646f6573206e6f742065786973740000000000000000000000000000600082015250565b60006138a5601283612a6c565b91506138b08261386f565b602082019050919050565b600060208201905081810360008301526138d481613898565b9050919050565b7f4b657920706f6f6c206973206e6f74206c697175696461746564000000000000600082015250565b6000613911601a83612a6c565b915061391c826138db565b602082019050919050565b6000602082019050818103600083015261394081613904565b9050919050565b7f416c726561647920636c61696d65640000000000000000000000000000000000600082015250565b600061397d600f83612a6c565b915061398882613947565b602082019050919050565b600060208201905081810360008301526139ac81613970565b9050919050565b7f496e76616c6964206d65726b6c652070726f6f66000000000000000000000000600082015250565b60006139e9601483612a6c565b91506139f4826139b3565b602082019050919050565b60006020820190508181036000830152613a18816139dc565b9050919050565b6000613a2a826128d9565b9150613a35836128d9565b9250828202613a43816128d9565b91508282048414831517613a5a57613a5961359b565b5b5092915050565b7f4e487b7100000000000000000000000000000000000000000000000000000000600052601260045260246000fd5b6000613a9b826128d9565b9150613aa6836128d9565b925082613ab657613ab5613a61565b5b828204905092915050565b600081905092915050565b50565b6000613adc600083613ac1565b9150613ae782613acc565b600082019050919050565b6000613afd82613acf565b9150819050919050565b7f4661696c656420746f2073656e64204574686572000000000000000000000000600082015250565b6000613b3d601483612a6c565b9150613b4882613b07565b602082019050919050565b60006020820190508181036000830152613b6c81613b30565b9050919050565b7f4e6f74206f776e65720000000000000000000000000000000000000000000000600082015250565b6000613ba9600983612a6c565b9150613bb482613b73565b602082019050919050565b60006020820190508181036000830152613bd881613b9c565b9050919050565b60008190508160005260206000209050919050565b60006020601f8301049050919050565b600082821b905092915050565b600060088302613c417fffffffffffffffffffffffffffffffffffffffffffffffffffffffffffffffff82613c04565b613c4b8683613c04565b95508019841693508086168417925050509392505050565b6000819050919050565b6000613c88613c83613c7e846128d9565b613c63565b6128d9565b9050919050565b6000819050919050565b613ca283613c6d565b613cb6613cae82613c8f565b848454613c11565b825550505050565b600090565b613ccb613cbe565b613cd6818484613c99565b505050565b5b81811015613cfa57613cef600082613cc3565b600181019050613cdc565b5050565b601f821115613d3f57613d1081613bdf565b613d1984613bf4565b81016020851015613d28578190505b613d3c613d3485613bf4565b830182613cdb565b50505b505050565b600082821c905092915050565b6000613d6260001984600802613d44565b1980831691505092915050565b6000613d7b8383613d51565b9150826002028217905092915050565b613d9482612a61565b67ffffffffffffffff811115613dad57613dac613840565b5b613db78254613381565b613dc2828285613cfe565b600060209050601f831160018114613df55760008415613de3578287015190505b613ded8582613d6f565b865550613e55565b601f198416613e0386613bdf565b60005b82811015613e2b57848901518255600182019150602085019450602081019050613e06565b86831015613e485784890151613e44601f891682613d51565b8355505b6001600288020188555050505b505050505050565b6000613e698385612a6c565b9350613e768385846136e8565b613e7f83612aa7565b840190509392505050565b60006020820190508181036000830152613ea5818486613e5d565b90509392505050565b7f4e487b7100000000000000000000000000000000000000000000000000000000600052602160045260246000fd5b6000819050919050565b6000613f02613efd613ef884613edd565b613c63565b6128d9565b9050919050565b613f1281613ee7565b82525050565b6000604082019050613f2d600083018561294f565b613f3a6020830184613f09565b9392505050565b7f4b657920706f6f6c206973206c69717569646174656400000000000000000000600082015250565b6000613f77601683612a6c565b9150613f8282613f41565b602082019050919050565b60006020820190508181036000830152613fa681613f6a565b9050919050565b7f496e73756666696369656e74207061796d656e74000000000000000000000000600082015250565b6000613fe3601483612a6c565b9150613fee82613fad565b602082019050919050565b6000602082019050818103600083015261401281613fd6565b9050919050565b600060408201905061402e600083018561294f565b61403b602083018461294f565b9392505050565b7f496e73756666696369656e742062616c616e6365000000000000000000000000600082015250565b6000614078601483612a6c565b915061408382614042565b602082019050919050565b600060208201905081810360008301526140a78161406b565b9050919050565b7f537570706c79206e6f7420616c6c6f7765642062656c6f77207072656d696e7460008201527f20616d6f756e7400000000000000000000000000000000000000000000000000602082015250565b600061410a602783612a6c565b9150614115826140ae565b604082019050919050565b60006020820190508181036000830152614139816140fd565b9050919050565b60006020820190506141556000830184612b0a565b92915050565b600060a0820190506141706000830189612af1565b61417d6020830188612af1565b61418a604083018761294f565b614197606083018661294f565b81810360808301526141aa8184866136f7565b9050979650505050505050565b600081519050919050565b60006141cd826141b7565b6141d781856136d7565b93506141e7818560208601612a7d565b6141f081612aa7565b840191505092915050565b600060a0820190506142106000830188612af1565b61421d6020830187612af1565b61422a604083018661294f565b614237606083018561294f565b818103608083015261424981846141c2565b9050969550505050505056fea26469706673582212203d243345328b40b87e80b928e1453a939b44ff63fbdf2a775f3fe5564e7a196164736f6c634300081b0033",
  "linkReferences": {},
  "deployedLinkReferences": {}
}