{
  "_format": "hh-sol-artifact-1",
  "contractName": "Aegis",
  "sourceName": "contracts/Aegis.sol",
  "abi": [
    {
      "inputs": [],
      "stateMutability": "nonpayable",
      "type": "constructor"
    },
    {
      "anonymous": false,
      "inputs": [
        {
          "indexed": true,
          "internalType": "address",
          "name": "owner",
          "type": "address"
        },
        {
          "indexed": true,
          "internalType": "address",
          "name": "operator",
          "type": "address"
        },
        {
          "indexed": false,
          "internalType": "bool",
          "name": "approved",
          "type": "bool"
        }
      ],
      "name": "ApprovalForAll",
      "type": "event"
    },
    {
      "anonymous": false,
      "inputs": [
        {
          "indexed": true,
          "internalType": "uint256",
          "name": "keyId",
          "type": "uint256"
        },
        {
          "indexed": true,
          "internalType": "address",
          "name": "claimer",
          "type": "address"
        },
        {
          "indexed": false,
          "internalType": "uint256",
          "name": "amount",
          "type": "uint256"
        }
      ],
      "name": "Claimed",
      "type": "event"
    },
    {
      "anonymous": false,
      "inputs": [
        {
          "indexed": true,
          "internalType": "uint256",
          "name": "keyId",
          "type": "uint256"
        },
        {
          "indexed": true,
          "internalType": "address",
          "name": "sender",
          "type": "address"
        },
        {
          "indexed": false,
          "internalType": "string",
          "name": "name",
          "type": "string"
        }
      ],
      "name": "Create",
      "type": "event"
    },
    {
      "anonymous": false,
      "inputs": [
        {
          "indexed": true,
          "internalType": "uint256",
          "name": "keyId",
          "type": "uint256"
        },
        {
          "indexed": true,
          "internalType": "address",
          "name": "sender",
          "type": "address"
        },
        {
          "indexed": false,
          "internalType": "bool",
          "name": "status",
          "type": "bool"
        }
      ],
      "name": "Liquidate",
      "type": "event"
    },
    {
      "anonymous": false,
      "inputs": [
        {
          "indexed": true,
          "internalType": "uint256",
          "name": "keyId",
          "type": "uint256"
        },
        {
          "indexed": false,
          "internalType": "bytes32",
          "name": "merkleRoot",
          "type": "bytes32"
        }
      ],
      "name": "MerkleRootUpdated",
      "type": "event"
    },
    {
      "anonymous": false,
      "inputs": [
        {
          "indexed": true,
          "internalType": "enum Aegis.TradeType",
          "name": "tradeType",
          "type": "uint8"
        },
        {
          "indexed": true,
          "internalType": "uint256",
          "name": "keyId",
          "type": "uint256"
        },
        {
          "indexed": true,
          "internalType": "address",
          "name": "sender",
          "type": "address"
        },
        {
          "indexed": false,
          "internalType": "uint256",
          "name": "tokenAmount",
          "type": "uint256"
        },
        {
          "indexed": false,
          "internalType": "uint256",
          "name": "ethAmount",
          "type": "uint256"
        }
      ],
      "name": "Trade",
      "type": "event"
    },
    {
      "anonymous": false,
      "inputs": [
        {
          "indexed": true,
          "internalType": "address",
          "name": "operator",
          "type": "address"
        },
        {
          "indexed": true,
          "internalType": "address",
          "name": "from",
          "type": "address"
        },
        {
          "indexed": true,
          "internalType": "address",
          "name": "to",
          "type": "address"
        },
        {
          "indexed": false,
          "internalType": "uint256[]",
          "name": "ids",
          "type": "uint256[]"
        },
        {
          "indexed": false,
          "internalType": "uint256[]",
          "name": "amounts",
          "type": "uint256[]"
        }
      ],
      "name": "TransferBatch",
      "type": "event"
    },
    {
      "anonymous": false,
      "inputs": [
        {
          "indexed": true,
          "internalType": "address",
          "name": "operator",
          "type": "address"
        },
        {
          "indexed": true,
          "internalType": "address",
          "name": "from",
          "type": "address"
        },
        {
          "indexed": true,
          "internalType": "address",
          "name": "to",
          "type": "address"
        },
        {
          "indexed": false,
          "internalType": "uint256",
          "name": "id",
          "type": "uint256"
        },
        {
          "indexed": false,
          "internalType": "uint256",
          "name": "amount",
          "type": "uint256"
        }
      ],
      "name": "TransferSingle",
      "type": "event"
    },
    {
      "anonymous": false,
      "inputs": [
        {
          "indexed": false,
          "internalType": "string",
          "name": "value",
          "type": "string"
        },
        {
          "indexed": true,
          "internalType": "uint256",
          "name": "id",
          "type": "uint256"
        }
      ],
      "name": "URI",
      "type": "event"
    },
    {
      "inputs": [],
      "name": "CLAIM_DENOMINATOR",
      "outputs": [
        {
          "internalType": "uint256",
          "name": "",
          "type": "uint256"
        }
      ],
      "stateMutability": "view",
      "type": "function"
    },
    {
      "inputs": [],
      "name": "CLAIM_PERCENT",
      "outputs": [
        {
          "internalType": "uint256",
          "name": "",
          "type": "uint256"
        }
      ],
      "stateMutability": "view",
      "type": "function"
    },
    {
      "inputs": [],
      "name": "CREATOR_PREMINT",
      "outputs": [
        {
          "internalType": "uint256",
          "name": "",
          "type": "uint256"
        }
      ],
      "stateMutability": "view",
      "type": "function"
    },
    {
      "inputs": [
        {
          "internalType": "address",
          "name": "",
          "type": "address"
        },
        {
          "internalType": "uint256",
          "name": "",
          "type": "uint256"
        }
      ],
      "name": "balanceOf",
      "outputs": [
        {
          "internalType": "uint256",
          "name": "",
          "type": "uint256"
        }
      ],
      "stateMutability": "view",
      "type": "function"
    },
    {
      "inputs": [
        {
          "internalType": "address[]",
          "name": "owners",
          "type": "address[]"
        },
        {
          "internalType": "uint256[]",
          "name": "ids",
          "type": "uint256[]"
        }
      ],
      "name": "balanceOfBatch",
      "outputs": [
        {
          "internalType": "uint256[]",
          "name": "balances",
          "type": "uint256[]"
        }
      ],
      "stateMutability": "view",
      "type": "function"
    },
    {
      "inputs": [
        {
          "internalType": "uint256",
          "name": "keyId",
          "type": "uint256"
        },
        {
          "internalType": "uint256",
          "name": "amount",
          "type": "uint256"
        }
      ],
      "name": "buy",
      "outputs": [],
      "stateMutability": "payable",
      "type": "function"
    },
    {
      "inputs": [
        {
          "internalType": "uint256",
          "name": "keyId",
          "type": "uint256"
        },
        {
          "internalType": "uint256",
          "name": "amount",
          "type": "uint256"
        },
        {
          "internalType": "bytes32[]",
          "name": "merkleProof",
          "type": "bytes32[]"
        }
      ],
      "name": "claim",
      "outputs": [],
      "stateMutability": "nonpayable",
      "type": "function"
    },
    {
      "inputs": [
        {
          "internalType": "string",
          "name": "name",
          "type": "string"
        }
      ],
      "name": "create",
      "outputs": [],
      "stateMutability": "nonpayable",
      "type": "function"
    },
    {
      "inputs": [
        {
          "internalType": "uint256",
          "name": "keyId",
          "type": "uint256"
        },
        {
          "internalType": "uint256",
          "name": "amount",
          "type": "uint256"
        }
      ],
      "name": "getBuyPrice",
      "outputs": [
        {
          "internalType": "uint256",
          "name": "",
          "type": "uint256"
        }
      ],
      "stateMutability": "view",
      "type": "function"
    },
    {
      "inputs": [
        {
          "internalType": "address",
          "name": "addr",
          "type": "address"
        }
      ],
      "name": "getKeysByAddress",
      "outputs": [
        {
          "internalType": "uint256[]",
          "name": "",
          "type": "uint256[]"
        }
      ],
      "stateMutability": "view",
      "type": "function"
    },
    {
      "inputs": [
        {
          "internalType": "uint256",
          "name": "keyId",
          "type": "uint256"
        }
      ],
      "name": "getMerkleRoot",
      "outputs": [
        {
          "internalType": "bytes32",
          "name": "",
          "type": "bytes32"
        }
      ],
      "stateMutability": "view",
      "type": "function"
    },
    {
      "inputs": [
        {
          "internalType": "uint256",
          "name": "supply",
          "type": "uint256"
        },
        {
          "internalType": "uint256",
          "name": "amount",
          "type": "uint256"
        }
      ],
      "name": "getPrice",
      "outputs": [
        {
          "internalType": "uint256",
          "name": "",
          "type": "uint256"
        }
      ],
      "stateMutability": "pure",
      "type": "function"
    },
    {
      "inputs": [
        {
          "internalType": "uint256",
          "name": "keyId",
          "type": "uint256"
        },
        {
          "internalType": "uint256",
          "name": "amount",
          "type": "uint256"
        }
      ],
      "name": "getSellPrice",
      "outputs": [
        {
          "internalType": "uint256",
          "name": "",
          "type": "uint256"
        }
      ],
      "stateMutability": "view",
      "type": "function"
    },
    {
      "inputs": [
        {
          "internalType": "uint256",
          "name": "",
          "type": "uint256"
        },
        {
          "internalType": "address",
          "name": "",
          "type": "address"
        }
      ],
      "name": "hasClaimed",
      "outputs": [
        {
          "internalType": "bool",
          "name": "",
          "type": "bool"
        }
      ],
      "stateMutability": "view",
      "type": "function"
    },
    {
      "inputs": [
        {
          "internalType": "address",
          "name": "",
          "type": "address"
        },
        {
          "internalType": "address",
          "name": "",
          "type": "address"
        }
      ],
      "name": "isApprovedForAll",
      "outputs": [
        {
          "internalType": "bool",
          "name": "",
          "type": "bool"
        }
      ],
      "stateMutability": "view",
      "type": "function"
    },
    {
      "inputs": [],
      "name": "keyIndex",
      "outputs": [
        {
          "internalType": "uint256",
          "name": "",
          "type": "uint256"
        }
      ],
      "stateMutability": "view",
      "type": "function"
    },
    {
      "inputs": [
        {
          "internalType": "uint256",
          "name": "",
          "type": "uint256"
        }
      ],
      "name": "keys",
      "outputs": [
        {
          "internalType": "uint256",
          "name": "id",
          "type": "uint256"
        },
        {
          "internalType": "string",
          "name": "name",
          "type": "string"
        },
        {
          "internalType": "address",
          "name": "creator",
          "type": "address"
        },
        {
          "internalType": "bool",
          "name": "isLiquidated",
          "type": "bool"
        },
        {
          "internalType": "bytes32",
          "name": "merkleRoot",
          "type": "bytes32"
        }
      ],
      "stateMutability": "view",
      "type": "function"
    },
    {
      "inputs": [],
      "name": "owner",
      "outputs": [
        {
          "internalType": "address",
          "name": "",
          "type": "address"
        }
      ],
      "stateMutability": "view",
      "type": "function"
    },
    {
      "inputs": [
        {
          "internalType": "uint256",
          "name": "",
          "type": "uint256"
        }
      ],
      "name": "pool",
      "outputs": [
        {
          "internalType": "uint256",
          "name": "",
          "type": "uint256"
        }
      ],
      "stateMutability": "view",
      "type": "function"
    },
    {
      "inputs": [
        {
          "internalType": "address",
          "name": "from",
          "type": "address"
        },
        {
          "internalType": "address",
          "name": "to",
          "type": "address"
        },
        {
          "internalType": "uint256[]",
          "name": "ids",
          "type": "uint256[]"
        },
        {
          "internalType": "uint256[]",
          "name": "amounts",
          "type": "uint256[]"
        },
        {
          "internalType": "bytes",
          "name": "data",
          "type": "bytes"
        }
      ],
      "name": "safeBatchTransferFrom",
      "outputs": [],
      "stateMutability": "nonpayable",
      "type": "function"
    },
    {
      "inputs": [
        {
          "internalType": "address",
          "name": "from",
          "type": "address"
        },
        {
          "internalType": "address",
          "name": "to",
          "type": "address"
        },
        {
          "internalType": "uint256",
          "name": "id",
          "type": "uint256"
        },
        {
          "internalType": "uint256",
          "name": "amount",
          "type": "uint256"
        },
        {
          "internalType": "bytes",
          "name": "data",
          "type": "bytes"
        }
      ],
      "name": "safeTransferFrom",
      "outputs": [],
      "stateMutability": "nonpayable",
      "type": "function"
    },
    {
      "inputs": [
        {
          "internalType": "uint256",
          "name": "keyId",
          "type": "uint256"
        },
        {
          "internalType": "uint256",
          "name": "amount",
          "type": "uint256"
        }
      ],
      "name": "sell",
      "outputs": [],
      "stateMutability": "nonpayable",
      "type": "function"
    },
    {
      "inputs": [
        {
          "internalType": "address",
          "name": "operator",
          "type": "address"
        },
        {
          "internalType": "bool",
          "name": "approved",
          "type": "bool"
        }
      ],
      "name": "setApprovalForAll",
      "outputs": [],
      "stateMutability": "nonpayable",
      "type": "function"
    },
    {
      "inputs": [
        {
          "internalType": "bytes4",
          "name": "interfaceId",
          "type": "bytes4"
        }
      ],
      "name": "supportsInterface",
      "outputs": [
        {
          "internalType": "bool",
          "name": "",
          "type": "bool"
        }
      ],
      "stateMutability": "view",
      "type": "function"
    },
    {
      "inputs": [
        {
          "internalType": "uint256",
          "name": "keyId",
          "type": "uint256"
        }
      ],
      "name": "toggleLiquidation",
      "outputs": [],
      "stateMutability": "nonpayable",
      "type": "function"
    },
    {
      "inputs": [
        {
          "internalType": "uint256",
          "name": "",
          "type": "uint256"
        }
      ],
      "name": "totalSupply",
      "outputs": [
        {
          "internalType": "uint256",
          "name": "",
          "type": "uint256"
        }
      ],
      "stateMutability": "view",
      "type": "function"
    },
    {
      "inputs": [
        {
          "internalType": "uint256",
          "name": "keyId",
          "type": "uint256"
        },
        {
          "internalType": "bytes32",
          "name": "merkleRoot",
          "type": "bytes32"
        }
      ],
      "name": "updateMerkleRoot",
      "outputs": [],
      "stateMutability": "nonpayable",
      "type": "function"
    },
    {
      "inputs": [
        {
          "internalType": "uint256",
          "name": "id",
          "type": "uint256"
        }
      ],
      "name": "uri",
      "outputs": [
        {
          "internalType": "string",
          "name": "",
          "type": "string"
        }
      ],
      "stateMutability": "view",
      "type": "function"
    },
    {
      "inputs": [
        {
          "internalType": "address",
          "name": "",
          "type": "address"
        },
        {
          "internalType": "uint256",
          "name": "",
          "type": "uint256"
        }
      ],
      "name": "userKeys",
      "outputs": [
        {
          "internalType": "uint256",
          "name": "",
          "type": "uint256"
        }
      ],
      "stateMutability": "view",
      "type": "function"
    },
    {
      "inputs": [
        {
          "internalType": "uint256",
          "name": "keyId",
          "type": "uint256"
        },
        {
          "internalType": "address",
          "name": "account",
          "type": "address"
        },
        {
          "internalType": "uint256",
          "name": "amount",
          "type": "uint256"
        },
        {
          "internalType": "bytes32[]",
          "name": "merkleProof",
          "type": "bytes32[]"
        }
      ],
      "name": "verifyMerkle",
      "outputs": [
        {
          "internalType": "bool",
          "name": "",
          "type": "bool"
        }
      ],
      "stateMutability": "view",
      "type": "function"
    }
  ],
  "bytecode": "0x6080604052348015600f57600080fd5b5033600260006101000a81548173ffffffffffffffffffffffffffffffffffffffff021916908373ffffffffffffffffffffffffffffffffffffffff1602179055506142a7806100606000396000f3fe6080604052600436106101cc5760003560e01c80638da5cb5b116100f7578063c157253d11610095578063e985e9c511610064578063e985e9c514610714578063f1e3311514610751578063f242432a1461077a578063fe313112146107a3576101cc565b8063c157253d14610669578063c23c8b03146106a6578063d6febde8146106cf578063d79875eb146106eb576101cc565b8063a22cb465116100d1578063a22cb465146105b1578063ae0b51df146105da578063b6a46b3b14610603578063bd85b0391461062c576101cc565b80638da5cb5b1461050c57806393990f7a146105375780639477d85d14610574576101cc565b80632eb2c2d61161016f57806358074d8b1161013e57806358074d8b1461043c5780635cf4ee91146104675780637ffb25ac146104a4578063873f6f9e146104cf576101cc565b80632eb2c2d61461036e5780634d7b31d7146103975780634d8cfcd4146103c25780634e1273f4146103ff576101cc565b80630cb6aaf1116101ab5780630cb6aaf1146102885780630e89341c146102c95780631b7a1bbe146103065780632741a8c514610343576101cc565b8062fdd58e146101d157806301ffc9a71461020e5780630aab8ba51461024b575b600080fd5b3480156101dd57600080fd5b506101f860048036038101906101f3919061292b565b6107e0565b604051610205919061297a565b60405180910390f35b34801561021a57600080fd5b50610235600480360381019061023091906129ed565b610805565b6040516102429190612a35565b60405180910390f35b34801561025757600080fd5b50610272600480360381019061026d9190612a50565b610897565b60405161027f9190612a96565b60405180910390f35b34801561029457600080fd5b506102af60048036038101906102aa9190612a50565b6108fb565b6040516102c0959493929190612b50565b60405180910390f35b3480156102d557600080fd5b506102f060048036038101906102eb9190612a50565b6109e6565b6040516102fd9190612baa565b60405180910390f35b34801561031257600080fd5b5061032d60048036038101906103289190612c31565b610a8e565b60405161033a9190612a35565b60405180910390f35b34801561034f57600080fd5b50610358610b85565b604051610365919061297a565b60405180910390f35b34801561037a57600080fd5b5061039560048036038101906103909190612d65565b610b8b565b005b3480156103a357600080fd5b506103ac610fe7565b6040516103b9919061297a565b60405180910390f35b3480156103ce57600080fd5b506103e960048036038101906103e49190612e41565b610fed565b6040516103f69190612f2c565b60405180910390f35b34801561040b57600080fd5b5061042660048036038101906104219190612fa4565b611084565b6040516104339190612f2c565b60405180910390f35b34801561044857600080fd5b506104516111ed565b60405161045e919061297a565b60405180910390f35b34801561047357600080fd5b5061048e60048036038101906104899190613025565b6111f3565b60405161049b919061297a565b60405180910390f35b3480156104b057600080fd5b506104b9611224565b6040516104c6919061297a565b60405180910390f35b3480156104db57600080fd5b506104f660048036038101906104f19190613065565b611230565b6040516105039190612a35565b60405180910390f35b34801561051857600080fd5b5061052161125f565b60405161052e91906130a5565b60405180910390f35b34801561054357600080fd5b5061055e6004803603810190610559919061292b565b611285565b60405161056b919061297a565b60405180910390f35b34801561058057600080fd5b5061059b60048036038101906105969190613025565b6112b6565b6040516105a8919061297a565b60405180910390f35b3480156105bd57600080fd5b506105d860048036038101906105d391906130ec565b6112e8565b005b3480156105e657600080fd5b5061060160048036038101906105fc919061312c565b6113e5565b005b34801561060f57600080fd5b5061062a600480360381019061062591906131f6565b611701565b005b34801561063857600080fd5b50610653600480360381019061064e9190612a50565b611a58565b604051610660919061297a565b60405180910390f35b34801561067557600080fd5b50610690600480360381019061068b9190613025565b611a70565b60405161069d919061297a565b60405180910390f35b3480156106b257600080fd5b506106cd60048036038101906106c89190612a50565b611a97565b005b6106e960048036038101906106e49190613025565b611b84565b005b3480156106f757600080fd5b50610712600480360381019061070d9190613025565b611d56565b005b34801561072057600080fd5b5061073b60048036038101906107369190613243565b61207b565b6040516107489190612a35565b60405180910390f35b34801561075d57600080fd5b50610778600480360381019061077391906132af565b6120aa565b005b34801561078657600080fd5b506107a1600480360381019061079c91906132ef565b612145565b005b3480156107af57600080fd5b506107ca60048036038101906107c59190612a50565b6124f8565b6040516107d7919061297a565b60405180910390f35b6000602052816000526040600020602052806000526040600020600091509150505481565b60006301ffc9a760e01b827bffffffffffffffffffffffffffffffffffffffffffffffffffffffff19161480610860575063d9b67a2660e01b827bffffffffffffffffffffffffffffffffffffffffffffffffffffffff1916145b806108905750630e89341c60e01b827bffffffffffffffffffffffffffffffffffffffffffffffffffffffff1916145b9050919050565b600060035482106108dd576040517f08c379a00000000000000000000000000000000000000000000000000000000081526004016108d4906133d5565b60405180910390fd5b60046000838152602001908152602001600020600301549050919050565b600460205280600052604060002060009150905080600001549080600101805461092490613424565b80601f016020809104026020016040519081016040528092919081815260200182805461095090613424565b801561099d5780601f106109725761010080835404028352916020019161099d565b820191906000526020600020905b81548152906001019060200180831161098057829003601f168201915b5050505050908060020160009054906101000a900473ffffffffffffffffffffffffffffffffffffffff16908060020160149054906101000a900460ff16908060030154905085565b6060600460008381526020019081526020016000206001018054610a0990613424565b80601f0160208091040260200160405190810160405280929190818152602001828054610a3590613424565b8015610a825780601f10610a5757610100808354040283529160200191610a82565b820191906000526020600020905b815481529060010190602001808311610a6557829003601f168201915b50505050509050919050565b6000808585604051602001610aa49291906134be565b604051602081830303815290604052805190602001209050600081905060005b85859050811015610b5e576000868683818110610ae457610ae36134ea565b5b905060200201359050808311610b24578281604051602001610b0792919061353a565b604051602081830303815290604052805190602001209250610b50565b8083604051602001610b3792919061353a565b6040516020818303038152906040528051906020012092505b508080600101915050610ac4565b50600460008981526020019081526020016000206003015481149250505095945050505050565b6103e881565b838390508686905014610bd3576040517f08c379a0000000000000000000000000000000000000000000000000000000008152600401610bca906135b2565b60405180910390fd5b8773ffffffffffffffffffffffffffffffffffffffff163373ffffffffffffffffffffffffffffffffffffffff161480610c935750600160008973ffffffffffffffffffffffffffffffffffffffff1673ffffffffffffffffffffffffffffffffffffffff16815260200190815260200160002060003373ffffffffffffffffffffffffffffffffffffffff1673ffffffffffffffffffffffffffffffffffffffff16815260200190815260200160002060009054906101000a900460ff165b610cd2576040517f08c379a0000000000000000000000000000000000000000000000000000000008152600401610cc99061361e565b60405180910390fd5b60008060005b88889050811015610df257888882818110610cf657610cf56134ea565b5b905060200201359250868682818110610d1257610d116134ea565b5b905060200201359150816000808d73ffffffffffffffffffffffffffffffffffffffff1673ffffffffffffffffffffffffffffffffffffffff16815260200190815260200160002060008581526020019081526020016000206000828254610d7a919061366d565b92505081905550816000808c73ffffffffffffffffffffffffffffffffffffffff1673ffffffffffffffffffffffffffffffffffffffff16815260200190815260200160002060008581526020019081526020016000206000828254610de091906136a1565b92505081905550806001019050610cd8565b508873ffffffffffffffffffffffffffffffffffffffff168a73ffffffffffffffffffffffffffffffffffffffff163373ffffffffffffffffffffffffffffffffffffffff167f4a39dc06d4c0dbc64b70af90fd698a233a518aa5d07e595d983b8c0526c8f7fb8b8b8b8b604051610e6d949392919061373f565b60405180910390a460008973ffffffffffffffffffffffffffffffffffffffff163b14610f6a5763bc197c8160e01b7bffffffffffffffffffffffffffffffffffffffffffffffffffffffff19168973ffffffffffffffffffffffffffffffffffffffff1663bc197c81338d8c8c8c8c8c8c6040518963ffffffff1660e01b8152600401610f029897969594939291906137c7565b6020604051808303816000875af1158015610f21573d6000803e3d6000fd5b505050506040513d601f19601f82011682018060405250810190610f45919061384a565b7bffffffffffffffffffffffffffffffffffffffffffffffffffffffff191614610f9c565b600073ffffffffffffffffffffffffffffffffffffffff168973ffffffffffffffffffffffffffffffffffffffff1614155b610fdb576040517f08c379a0000000000000000000000000000000000000000000000000000000008152600401610fd2906138c3565b60405180910390fd5b50505050505050505050565b6103e781565b6060600560008373ffffffffffffffffffffffffffffffffffffffff1673ffffffffffffffffffffffffffffffffffffffff16815260200190815260200160002080548060200260200160405190810160405280929190818152602001828054801561107857602002820191906000526020600020905b815481526020019060010190808311611064575b50505050509050919050565b60608282905085859050146110ce576040517f08c379a00000000000000000000000000000000000000000000000000000000081526004016110c5906135b2565b60405180910390fd5b8484905067ffffffffffffffff8111156110eb576110ea6138e3565b5b6040519080825280602002602001820160405280156111195781602001602082028036833780820191505090505b50905060005b858590508110156111e4576000808787848181106111405761113f6134ea565b5b90506020020160208101906111559190612e41565b73ffffffffffffffffffffffffffffffffffffffff1673ffffffffffffffffffffffffffffffffffffffff16815260200190815260200160002060008585848181106111a4576111a36134ea565b5b905060200201358152602001908152602001600020548282815181106111cd576111cc6134ea565b5b60200260200101818152505080600101905061111f565b50949350505050565b60035481565b60006111fe83612510565b611212838561120d91906136a1565b612510565b61121c919061366d565b905092915050565b670de0b6b3a764000081565b60086020528160005260406000206020528060005260406000206000915091509054906101000a900460ff1681565b600260009054906101000a900473ffffffffffffffffffffffffffffffffffffffff1681565b600560205281600052604060002081815481106112a157600080fd5b90600052602060002001600091509150505481565b60006112e08260066000868152602001908152602001600020546112da919061366d565b836111f3565b905092915050565b80600160003373ffffffffffffffffffffffffffffffffffffffff1673ffffffffffffffffffffffffffffffffffffffff16815260200190815260200160002060008473ffffffffffffffffffffffffffffffffffffffff1673ffffffffffffffffffffffffffffffffffffffff16815260200190815260200160002060006101000a81548160ff0219169083151502179055508173ffffffffffffffffffffffffffffffffffffffff163373ffffffffffffffffffffffffffffffffffffffff167f17307eab39ab6107e8899845ad3d59bd9653f200f220920489ca2b5937696c31836040516113d99190612a35565b60405180910390a35050565b6003548410611429576040517f08c379a0000000000000000000000000000000000000000000000000000000008152600401611420906133d5565b60405180910390fd5b6004600085815260200190815260200160002060020160149054906101000a900460ff1661148c576040517f08c379a00000000000000000000000000000000000000000000000000000000081526004016114839061395e565b60405180910390fd5b6008600085815260200190815260200160002060003373ffffffffffffffffffffffffffffffffffffffff1673ffffffffffffffffffffffffffffffffffffffff16815260200190815260200160002060009054906101000a900460ff161561152a576040517f08c379a0000000000000000000000000000000000000000000000000000000008152600401611521906139ca565b60405180910390fd5b6115378433858585610a8e565b611576576040517f08c379a000000000000000000000000000000000000000000000000000000000815260040161156d90613a36565b60405180910390fd5b60006103e86103e7856115899190613a56565b6115939190613ac7565b905060016008600087815260200190815260200160002060003373ffffffffffffffffffffffffffffffffffffffff1673ffffffffffffffffffffffffffffffffffffffff16815260200190815260200160002060006101000a81548160ff02191690831515021790555060003373ffffffffffffffffffffffffffffffffffffffff168260405161162490613b29565b60006040518083038185875af1925050503d8060008114611661576040519150601f19603f3d011682016040523d82523d6000602084013e611666565b606091505b50509050806116aa576040517f08c379a00000000000000000000000000000000000000000000000000000000081526004016116a190613b8a565b60405180910390fd5b3373ffffffffffffffffffffffffffffffffffffffff16867f4ec90e965519d92681267467f775ada5bd214aa92c0dc93d90a5e880ce9ed026846040516116f1919061297a565b60405180910390a3505050505050565b600260009054906101000a900473ffffffffffffffffffffffffffffffffffffffff1673ffffffffffffffffffffffffffffffffffffffff163373ffffffffffffffffffffffffffffffffffffffff1614611791576040517f08c379a000000000000000000000000000000000000000000000000000000000815260040161178890613bf6565b60405180910390fd5b600060035490506040518060a0016040528082815260200184848080601f016020809104026020016040519081016040528093929190818152602001838380828437600081840152601f19601f8201169050808301925050505050505081526020013373ffffffffffffffffffffffffffffffffffffffff1681526020016000151581526020016000801b815250600460008381526020019081526020016000206000820151816000015560208201518160010190816118519190613dc2565b5060408201518160020160006101000a81548173ffffffffffffffffffffffffffffffffffffffff021916908373ffffffffffffffffffffffffffffffffffffffff16021790555060608201518160020160146101000a81548160ff02191690831515021790555060808201518160030155905050600560003373ffffffffffffffffffffffffffffffffffffffff1673ffffffffffffffffffffffffffffffffffffffff168152602001908152602001600020819080600181540180825580915050600190039060005260206000200160009091909190915055670de0b6b3a764000060066000838152602001908152602001600020600082825461195791906136a1565b9250508190555060018161196b91906136a1565b6003819055506119943382670de0b6b3a764000060405180602001604052806000815250612557565b3373ffffffffffffffffffffffffffffffffffffffff16817fb683691564ab594b1f9e9db91abaf085736871256a4741baa41bf30cb9d4f23685856040516119dd929190613ec1565b60405180910390a33373ffffffffffffffffffffffffffffffffffffffff168160006002811115611a1157611a10613ee5565b5b7fef9efaa688e86a93d98a7f0102f8f58ea72875d8578cc452a9f1623481f0bfcc670de0b6b3a76400006000604051611a4b929190613f4f565b60405180910390a4505050565b60066020528060005260406000206000915090505481565b6000611a8f6006600085815260200190815260200160002054836111f3565b905092915050565b6003548110611adb576040517f08c379a0000000000000000000000000000000000000000000000000000000008152600401611ad2906133d5565b60405180910390fd5b60006004600083815260200190815260200160002090508060020160149054906101000a900460ff16158160020160146101000a81548160ff0219169083151502179055503373ffffffffffffffffffffffffffffffffffffffff16827fd7f9f91585e13a431090cee597fff8e7e61fbf3c332f6e5fdf25b6ce7fa99b4c8360020160149054906101000a900460ff16604051611b789190612a35565b60405180910390a35050565b6003548210611bc8576040517f08c379a0000000000000000000000000000000000000000000000000000000008152600401611bbf906133d5565b60405180910390fd5b6004600083815260200190815260200160002060020160149054906101000a900460ff1615611c2c576040517f08c379a0000000000000000000000000000000000000000000000000000000008152600401611c2390613fc4565b60405180910390fd5b6000611c388383611a70565b905080341015611c7d576040517f08c379a0000000000000000000000000000000000000000000000000000000008152600401611c7490614030565b60405180910390fd5b81600660008581526020019081526020016000206000828254611ca091906136a1565b9250508190555080600760008581526020019081526020016000206000828254611cca91906136a1565b92505081905550611cec33848460405180602001604052806000815250612557565b3373ffffffffffffffffffffffffffffffffffffffff168360016002811115611d1857611d17613ee5565b5b7fef9efaa688e86a93d98a7f0102f8f58ea72875d8578cc452a9f1623481f0bfcc8585604051611d49929190614050565b60405180910390a4505050565b6003548210611d9a576040517f08c379a0000000000000000000000000000000000000000000000000000000008152600401611d91906133d5565b60405180910390fd5b6004600083815260200190815260200160002060020160149054906101000a900460ff1615611dfe576040517f08c379a0000000000000000000000000000000000000000000000000000000008152600401611df590613fc4565b60405180910390fd5b806000803373ffffffffffffffffffffffffffffffffffffffff1673ffffffffffffffffffffffffffffffffffffffff1681526020019081526020016000206000848152602001908152602001600020541015611e90576040517f08c379a0000000000000000000000000000000000000000000000000000000008152600401611e87906140c5565b60405180910390fd5b600060066000848152602001908152602001600020549050670de0b6b3a76400008282611ebd919061366d565b1015611efe576040517f08c379a0000000000000000000000000000000000000000000000000000000008152600401611ef590614157565b60405180910390fd5b6000611f0a84846112b6565b9050611f173385856127a3565b8282611f23919061366d565b600660008681526020019081526020016000208190555080600760008681526020019081526020016000206000828254611f5d919061366d565b925050819055503373ffffffffffffffffffffffffffffffffffffffff1684600280811115611f8f57611f8e613ee5565b5b7fef9efaa688e86a93d98a7f0102f8f58ea72875d8578cc452a9f1623481f0bfcc8685604051611fc0929190614050565b60405180910390a460003373ffffffffffffffffffffffffffffffffffffffff1682604051611fee90613b29565b60006040518083038185875af1925050503d806000811461202b576040519150601f19603f3d011682016040523d82523d6000602084013e612030565b606091505b5050905080612074576040517f08c379a000000000000000000000000000000000000000000000000000000000815260040161206b90613b8a565b60405180910390fd5b5050505050565b60016020528160005260406000206020528060005260406000206000915091509054906101000a900460ff1681565b60035482106120ee576040517f08c379a00000000000000000000000000000000000000000000000000000000081526004016120e5906133d5565b60405180910390fd5b806004600084815260200190815260200160002060030181905550817f9ff79792a92b66fee090acb66e07837a2edb31ee6b9780fa551fd04b79dffcd2826040516121399190612a96565b60405180910390a25050565b8573ffffffffffffffffffffffffffffffffffffffff163373ffffffffffffffffffffffffffffffffffffffff1614806122055750600160008773ffffffffffffffffffffffffffffffffffffffff1673ffffffffffffffffffffffffffffffffffffffff16815260200190815260200160002060003373ffffffffffffffffffffffffffffffffffffffff1673ffffffffffffffffffffffffffffffffffffffff16815260200190815260200160002060009054906101000a900460ff165b612244576040517f08c379a000000000000000000000000000000000000000000000000000000000815260040161223b9061361e565b60405180910390fd5b826000808873ffffffffffffffffffffffffffffffffffffffff1673ffffffffffffffffffffffffffffffffffffffff168152602001908152602001600020600086815260200190815260200160002060008282546122a3919061366d565b92505081905550826000808773ffffffffffffffffffffffffffffffffffffffff1673ffffffffffffffffffffffffffffffffffffffff1681526020019081526020016000206000868152602001908152602001600020600082825461230991906136a1565b925050819055508473ffffffffffffffffffffffffffffffffffffffff168673ffffffffffffffffffffffffffffffffffffffff163373ffffffffffffffffffffffffffffffffffffffff167fc3d58168c5ae7397731d063d5bbf3d657854427343f4c083240f7aacaa2d0f628787604051612386929190614050565b60405180910390a460008573ffffffffffffffffffffffffffffffffffffffff163b1461247f5763f23a6e6160e01b7bffffffffffffffffffffffffffffffffffffffffffffffffffffffff19168573ffffffffffffffffffffffffffffffffffffffff1663f23a6e613389888888886040518763ffffffff1660e01b815260040161241796959493929190614177565b6020604051808303816000875af1158015612436573d6000803e3d6000fd5b505050506040513d601f19601f8201168201806040525081019061245a919061384a565b7bffffffffffffffffffffffffffffffffffffffffffffffffffffffff1916146124b1565b600073ffffffffffffffffffffffffffffffffffffffff168573ffffffffffffffffffffffffffffffffffffffff1614155b6124f0576040517f08c379a00000000000000000000000000000000000000000000000000000000081526004016124e7906138c3565b60405180910390fd5b505050505050565b60076020528060005260406000206000915090505481565b6000670de0b6b3a764000082111561254d5766038d7ea4c68000670de0b6b3a76400008361253e919061366d565b6125489190613a56565b612550565b60005b9050919050565b816000808673ffffffffffffffffffffffffffffffffffffffff1673ffffffffffffffffffffffffffffffffffffffff168152602001908152602001600020600085815260200190815260200160002060008282546125b691906136a1565b925050819055508373ffffffffffffffffffffffffffffffffffffffff16600073ffffffffffffffffffffffffffffffffffffffff163373ffffffffffffffffffffffffffffffffffffffff167fc3d58168c5ae7397731d063d5bbf3d657854427343f4c083240f7aacaa2d0f628686604051612634929190614050565b60405180910390a460008473ffffffffffffffffffffffffffffffffffffffff163b1461272c5763f23a6e6160e01b7bffffffffffffffffffffffffffffffffffffffffffffffffffffffff19168473ffffffffffffffffffffffffffffffffffffffff1663f23a6e613360008787876040518663ffffffff1660e01b81526004016126c4959493929190614217565b6020604051808303816000875af11580156126e3573d6000803e3d6000fd5b505050506040513d601f19601f82011682018060405250810190612707919061384a565b7bffffffffffffffffffffffffffffffffffffffffffffffffffffffff19161461275e565b600073ffffffffffffffffffffffffffffffffffffffff168473ffffffffffffffffffffffffffffffffffffffff1614155b61279d576040517f08c379a0000000000000000000000000000000000000000000000000000000008152600401612794906138c3565b60405180910390fd5b50505050565b806000808573ffffffffffffffffffffffffffffffffffffffff1673ffffffffffffffffffffffffffffffffffffffff16815260200190815260200160002060008481526020019081526020016000206000828254612802919061366d565b92505081905550600073ffffffffffffffffffffffffffffffffffffffff168373ffffffffffffffffffffffffffffffffffffffff163373ffffffffffffffffffffffffffffffffffffffff167fc3d58168c5ae7397731d063d5bbf3d657854427343f4c083240f7aacaa2d0f628585604051612880929190614050565b60405180910390a4505050565b600080fd5b600080fd5b600073ffffffffffffffffffffffffffffffffffffffff82169050919050565b60006128c282612897565b9050919050565b6128d2816128b7565b81146128dd57600080fd5b50565b6000813590506128ef816128c9565b92915050565b6000819050919050565b612908816128f5565b811461291357600080fd5b50565b600081359050612925816128ff565b92915050565b600080604083850312156129425761294161288d565b5b6000612950858286016128e0565b925050602061296185828601612916565b9150509250929050565b612974816128f5565b82525050565b600060208201905061298f600083018461296b565b92915050565b60007fffffffff0000000000000000000000000000000000000000000000000000000082169050919050565b6129ca81612995565b81146129d557600080fd5b50565b6000813590506129e7816129c1565b92915050565b600060208284031215612a0357612a0261288d565b5b6000612a11848285016129d8565b91505092915050565b60008115159050919050565b612a2f81612a1a565b82525050565b6000602082019050612a4a6000830184612a26565b92915050565b600060208284031215612a6657612a6561288d565b5b6000612a7484828501612916565b91505092915050565b6000819050919050565b612a9081612a7d565b82525050565b6000602082019050612aab6000830184612a87565b92915050565b600081519050919050565b600082825260208201905092915050565b60005b83811015612aeb578082015181840152602081019050612ad0565b60008484015250505050565b6000601f19601f8301169050919050565b6000612b1382612ab1565b612b1d8185612abc565b9350612b2d818560208601612acd565b612b3681612af7565b840191505092915050565b612b4a816128b7565b82525050565b600060a082019050612b65600083018861296b565b8181036020830152612b778187612b08565b9050612b866040830186612b41565b612b936060830185612a26565b612ba06080830184612a87565b9695505050505050565b60006020820190508181036000830152612bc48184612b08565b905092915050565b600080fd5b600080fd5b600080fd5b60008083601f840112612bf157612bf0612bcc565b5b8235905067ffffffffffffffff811115612c0e57612c0d612bd1565b5b602083019150836020820283011115612c2a57612c29612bd6565b5b9250929050565b600080600080600060808688031215612c4d57612c4c61288d565b5b6000612c5b88828901612916565b9550506020612c6c888289016128e0565b9450506040612c7d88828901612916565b935050606086013567ffffffffffffffff811115612c9e57612c9d612892565b5b612caa88828901612bdb565b92509250509295509295909350565b60008083601f840112612ccf57612cce612bcc565b5b8235905067ffffffffffffffff811115612cec57612ceb612bd1565b5b602083019150836020820283011115612d0857612d07612bd6565b5b9250929050565b60008083601f840112612d2557612d24612bcc565b5b8235905067ffffffffffffffff811115612d4257612d41612bd1565b5b602083019150836001820283011115612d5e57612d5d612bd6565b5b9250929050565b60008060008060008060008060a0898b031215612d8557612d8461288d565b5b6000612d938b828c016128e0565b9850506020612da48b828c016128e0565b975050604089013567ffffffffffffffff811115612dc557612dc4612892565b5b612dd18b828c01612cb9565b9650965050606089013567ffffffffffffffff811115612df457612df3612892565b5b612e008b828c01612cb9565b9450945050608089013567ffffffffffffffff811115612e2357612e22612892565b5b612e2f8b828c01612d0f565b92509250509295985092959890939650565b600060208284031215612e5757612e5661288d565b5b6000612e65848285016128e0565b91505092915050565b600081519050919050565b600082825260208201905092915050565b6000819050602082019050919050565b612ea3816128f5565b82525050565b6000612eb58383612e9a565b60208301905092915050565b6000602082019050919050565b6000612ed982612e6e565b612ee38185612e79565b9350612eee83612e8a565b8060005b83811015612f1f578151612f068882612ea9565b9750612f1183612ec1565b925050600181019050612ef2565b5085935050505092915050565b60006020820190508181036000830152612f468184612ece565b905092915050565b60008083601f840112612f6457612f63612bcc565b5b8235905067ffffffffffffffff811115612f8157612f80612bd1565b5b602083019150836020820283011115612f9d57612f9c612bd6565b5b9250929050565b60008060008060408587031215612fbe57612fbd61288d565b5b600085013567ffffffffffffffff811115612fdc57612fdb612892565b5b612fe887828801612f4e565b9450945050602085013567ffffffffffffffff81111561300b5761300a612892565b5b61301787828801612cb9565b925092505092959194509250565b6000806040838503121561303c5761303b61288d565b5b600061304a85828601612916565b925050602061305b85828601612916565b9150509250929050565b6000806040838503121561307c5761307b61288d565b5b600061308a85828601612916565b925050602061309b858286016128e0565b9150509250929050565b60006020820190506130ba6000830184612b41565b92915050565b6130c981612a1a565b81146130d457600080fd5b50565b6000813590506130e6816130c0565b92915050565b600080604083850312156131035761310261288d565b5b6000613111858286016128e0565b9250506020613122858286016130d7565b9150509250929050565b600080600080606085870312156131465761314561288d565b5b600061315487828801612916565b945050602061316587828801612916565b935050604085013567ffffffffffffffff81111561318657613185612892565b5b61319287828801612bdb565b925092505092959194509250565b60008083601f8401126131b6576131b5612bcc565b5b8235905067ffffffffffffffff8111156131d3576131d2612bd1565b5b6020830191508360018202830111156131ef576131ee612bd6565b5b9250929050565b6000806020838503121561320d5761320c61288d565b5b600083013567ffffffffffffffff81111561322b5761322a612892565b5b613237858286016131a0565b92509250509250929050565b6000806040838503121561325a5761325961288d565b5b6000613268858286016128e0565b9250506020613279858286016128e0565b9150509250929050565b61328c81612a7d565b811461329757600080fd5b50565b6000813590506132a981613283565b92915050565b600080604083850312156132c6576132c561288d565b5b60006132d485828601612916565b92505060206132e58582860161329a565b9150509250929050565b60008060008060008060a0878903121561330c5761330b61288d565b5b600061331a89828a016128e0565b965050602061332b89828a016128e0565b955050604061333c89828a01612916565b945050606061334d89828a01612916565b935050608087013567ffffffffffffffff81111561336e5761336d612892565b5b61337a89828a01612d0f565b92509250509295509295509295565b7f4b657920646f6573206e6f742065786973740000000000000000000000000000600082015250565b60006133bf601283612abc565b91506133ca82613389565b602082019050919050565b600060208201905081810360008301526133ee816133b2565b9050919050565b7f4e487b7100000000000000000000000000000000000000000000000000000000600052602260045260246000fd5b6000600282049050600182168061343c57607f821691505b60208210810361344f5761344e6133f5565b5b50919050565b60008160601b9050919050565b600061346d82613455565b9050919050565b600061347f82613462565b9050919050565b613497613492826128b7565b613474565b82525050565b6000819050919050565b6134b86134b3826128f5565b61349d565b82525050565b60006134ca8285613486565b6014820191506134da82846134a7565b6020820191508190509392505050565b7f4e487b7100000000000000000000000000000000000000000000000000000000600052603260045260246000fd5b6000819050919050565b61353461352f82612a7d565b613519565b82525050565b60006135468285613523565b6020820191506135568284613523565b6020820191508190509392505050565b7f4c454e4754485f4d49534d415443480000000000000000000000000000000000600082015250565b600061359c600f83612abc565b91506135a782613566565b602082019050919050565b600060208201905081810360008301526135cb8161358f565b9050919050565b7f4e4f545f415554484f52495a4544000000000000000000000000000000000000600082015250565b6000613608600e83612abc565b9150613613826135d2565b602082019050919050565b60006020820190508181036000830152613637816135fb565b9050919050565b7f4e487b7100000000000000000000000000000000000000000000000000000000600052601160045260246000fd5b6000613678826128f5565b9150613683836128f5565b925082820390508181111561369b5761369a61363e565b5b92915050565b60006136ac826128f5565b91506136b7836128f5565b92508282019050808211156136cf576136ce61363e565b5b92915050565b600080fd5b82818337505050565b60006136ef8385612e79565b93507f07ffffffffffffffffffffffffffffffffffffffffffffffffffffffffffffff831115613722576137216136d5565b5b6020830292506137338385846136da565b82840190509392505050565b6000604082019050818103600083015261375a8186886136e3565b9050818103602083015261376f8184866136e3565b905095945050505050565b600082825260208201905092915050565b82818337600083830152505050565b60006137a6838561377a565b93506137b383858461378b565b6137bc83612af7565b840190509392505050565b600060a0820190506137dc600083018b612b41565b6137e9602083018a612b41565b81810360408301526137fc81888a6136e3565b905081810360608301526138118186886136e3565b9050818103608083015261382681848661379a565b90509998505050505050505050565b600081519050613844816129c1565b92915050565b6000602082840312156138605761385f61288d565b5b600061386e84828501613835565b91505092915050565b7f554e534146455f524543495049454e5400000000000000000000000000000000600082015250565b60006138ad601083612abc565b91506138b882613877565b602082019050919050565b600060208201905081810360008301526138dc816138a0565b9050919050565b7f4e487b7100000000000000000000000000000000000000000000000000000000600052604160045260246000fd5b7f4b657920706f6f6c206973206e6f74206c697175696461746564000000000000600082015250565b6000613948601a83612abc565b915061395382613912565b602082019050919050565b600060208201905081810360008301526139778161393b565b9050919050565b7f416c726561647920636c61696d65640000000000000000000000000000000000600082015250565b60006139b4600f83612abc565b91506139bf8261397e565b602082019050919050565b600060208201905081810360008301526139e3816139a7565b9050919050565b7f496e76616c6964206d65726b6c652070726f6f66000000000000000000000000600082015250565b6000613a20601483612abc565b9150613a2b826139ea565b602082019050919050565b60006020820190508181036000830152613a4f81613a13565b9050919050565b6000613a61826128f5565b9150613a6c836128f5565b9250828202613a7a816128f5565b91508282048414831517613a9157613a9061363e565b5b5092915050565b7f4e487b7100000000000000000000000000000000000000000000000000000000600052601260045260246000fd5b6000613ad2826128f5565b9150613add836128f5565b925082613aed57613aec613a98565b5b828204905092915050565b600081905092915050565b50565b6000613b13600083613af8565b9150613b1e82613b03565b600082019050919050565b6000613b3482613b06565b9150819050919050565b7f4661696c656420746f2073656e64204574686572000000000000000000000000600082015250565b6000613b74601483612abc565b9150613b7f82613b3e565b602082019050919050565b60006020820190508181036000830152613ba381613b67565b9050919050565b7f4e6f74206f776e65720000000000000000000000000000000000000000000000600082015250565b6000613be0600983612abc565b9150613beb82613baa565b602082019050919050565b60006020820190508181036000830152613c0f81613bd3565b9050919050565b60008190508160005260206000209050919050565b60006020601f8301049050919050565b600082821b905092915050565b600060088302613c787fffffffffffffffffffffffffffffffffffffffffffffffffffffffffffffffff82613c3b565b613c828683613c3b565b95508019841693508086168417925050509392505050565b6000819050919050565b6000613cbf613cba613cb5846128f5565b613c9a565b6128f5565b9050919050565b6000819050919050565b613cd983613ca4565b613ced613ce582613cc6565b848454613c48565b825550505050565b600090565b613d02613cf5565b613d0d818484613cd0565b505050565b5b81811015613d3157613d26600082613cfa565b600181019050613d13565b5050565b601f821115613d7657613d4781613c16565b613d5084613c2b565b81016020851015613d5f578190505b613d73613d6b85613c2b565b830182613d12565b50505b505050565b600082821c905092915050565b6000613d9960001984600802613d7b565b1980831691505092915050565b6000613db28383613d88565b9150826002028217905092915050565b613dcb82612ab1565b67ffffffffffffffff811115613de457613de36138e3565b5b613dee8254613424565b613df9828285613d35565b600060209050601f831160018114613e2c5760008415613e1a578287015190505b613e248582613da6565b865550613e8c565b601f198416613e3a86613c16565b60005b82811015613e6257848901518255600182019150602085019450602081019050613e3d565b86831015613e7f5784890151613e7b601f891682613d88565b8355505b6001600288020188555050505b505050505050565b6000613ea08385612abc565b9350613ead83858461378b565b613eb683612af7565b840190509392505050565b60006020820190508181036000830152613edc818486613e94565b90509392505050565b7f4e487b7100000000000000000000000000000000000000000000000000000000600052602160045260246000fd5b6000819050919050565b6000613f39613f34613f2f84613f14565b613c9a565b6128f5565b9050919050565b613f4981613f1e565b82525050565b6000604082019050613f64600083018561296b565b613f716020830184613f40565b9392505050565b7f4b657920706f6f6c206973206c69717569646174656400000000000000000000600082015250565b6000613fae601683612abc565b9150613fb982613f78565b602082019050919050565b60006020820190508181036000830152613fdd81613fa1565b9050919050565b7f496e73756666696369656e74207061796d656e74000000000000000000000000600082015250565b600061401a601483612abc565b915061402582613fe4565b602082019050919050565b600060208201905081810360008301526140498161400d565b9050919050565b6000604082019050614065600083018561296b565b614072602083018461296b565b9392505050565b7f496e73756666696369656e742062616c616e6365000000000000000000000000600082015250565b60006140af601483612abc565b91506140ba82614079565b602082019050919050565b600060208201905081810360008301526140de816140a2565b9050919050565b7f537570706c79206e6f7420616c6c6f7765642062656c6f77207072656d696e7460008201527f20616d6f756e7400000000000000000000000000000000000000000000000000602082015250565b6000614141602783612abc565b915061414c826140e5565b604082019050919050565b6000602082019050818103600083015261417081614134565b9050919050565b600060a08201905061418c6000830189612b41565b6141996020830188612b41565b6141a6604083018761296b565b6141b3606083018661296b565b81810360808301526141c681848661379a565b9050979650505050505050565b600081519050919050565b60006141e9826141d3565b6141f3818561377a565b9350614203818560208601612acd565b61420c81612af7565b840191505092915050565b600060a08201905061422c6000830188612b41565b6142396020830187612b41565b614246604083018661296b565b614253606083018561296b565b818103608083015261426581846141de565b9050969550505050505056fea2646970667358221220b41d74fbdd85d2761051e5bc89207042f400b7709e47c346bde73d7ae4f7a2de64736f6c634300081b0033",
  "linkReferences": {},
  "deployedLinkReferences": {}
}