{
  "_format": "hh-sol-artifact-1",
  "contractName": "Aegis",
  "sourceName": "contracts/Aegis.sol",
  "abi": [
    {
      "inputs": [],
      "stateMutability": "nonpayable",
      "type": "constructor"
    },
    {
      "inputs": [],
      "name": "UnsupportedOperation",
      "type": "error"
    },
    {
      "anonymous": false,
      "inputs": [
        {
          "indexed": true,
          "internalType": "address",
          "name": "owner",
          "type": "address"
        },
        {
          "indexed": true,
          "internalType": "address",
          "name": "operator",
          "type": "address"
        },
        {
          "indexed": false,
          "internalType": "bool",
          "name": "approved",
          "type": "bool"
        }
      ],
      "name": "ApprovalForAll",
      "type": "event"
    },
    {
      "anonymous": false,
      "inputs": [
        {
          "indexed": true,
          "internalType": "address",
          "name": "issuer",
          "type": "address"
        },
        {
          "indexed": false,
          "internalType": "uint256",
          "name": "blockNumber",
          "type": "uint256"
        },
        {
          "indexed": true,
          "internalType": "uint256",
          "name": "keyId",
          "type": "uint256"
        },
        {
          "indexed": false,
          "internalType": "bytes32",
          "name": "merkleRoot",
          "type": "bytes32"
        }
      ],
      "name": "AttestationVerified",
      "type": "event"
    },
    {
      "anonymous": false,
      "inputs": [
        {
          "indexed": true,
          "internalType": "uint256",
          "name": "keyId",
          "type": "uint256"
        },
        {
          "indexed": true,
          "internalType": "address",
          "name": "claimer",
          "type": "address"
        },
        {
          "indexed": false,
          "internalType": "uint256",
          "name": "amount",
          "type": "uint256"
        }
      ],
      "name": "Claimed",
      "type": "event"
    },
    {
      "anonymous": false,
      "inputs": [
        {
          "indexed": true,
          "internalType": "uint256",
          "name": "keyId",
          "type": "uint256"
        },
        {
          "indexed": true,
          "internalType": "address",
          "name": "sender",
          "type": "address"
        },
        {
          "indexed": false,
          "internalType": "string",
          "name": "name",
          "type": "string"
        }
      ],
      "name": "Create",
      "type": "event"
    },
    {
      "anonymous": false,
      "inputs": [
        {
          "indexed": true,
          "internalType": "uint256",
          "name": "keyId",
          "type": "uint256"
        },
        {
          "indexed": true,
          "internalType": "address",
          "name": "sender",
          "type": "address"
        },
        {
          "indexed": false,
          "internalType": "bool",
          "name": "status",
          "type": "bool"
        }
      ],
      "name": "Liquidate",
      "type": "event"
    },
    {
      "anonymous": false,
      "inputs": [
        {
          "indexed": true,
          "internalType": "uint256",
          "name": "keyId",
          "type": "uint256"
        },
        {
          "indexed": false,
          "internalType": "bytes32",
          "name": "merkleRoot",
          "type": "bytes32"
        }
      ],
      "name": "MerkleRootUpdated",
      "type": "event"
    },
    {
      "anonymous": false,
      "inputs": [
        {
          "indexed": true,
          "internalType": "enum Aegis.TradeType",
          "name": "tradeType",
          "type": "uint8"
        },
        {
          "indexed": true,
          "internalType": "uint256",
          "name": "keyId",
          "type": "uint256"
        },
        {
          "indexed": true,
          "internalType": "address",
          "name": "sender",
          "type": "address"
        },
        {
          "indexed": false,
          "internalType": "uint256",
          "name": "tokenAmount",
          "type": "uint256"
        },
        {
          "indexed": false,
          "internalType": "uint256",
          "name": "ethAmount",
          "type": "uint256"
        }
      ],
      "name": "Trade",
      "type": "event"
    },
    {
      "anonymous": false,
      "inputs": [
        {
          "indexed": true,
          "internalType": "address",
          "name": "operator",
          "type": "address"
        },
        {
          "indexed": true,
          "internalType": "address",
          "name": "from",
          "type": "address"
        },
        {
          "indexed": true,
          "internalType": "address",
          "name": "to",
          "type": "address"
        },
        {
          "indexed": false,
          "internalType": "uint256[]",
          "name": "ids",
          "type": "uint256[]"
        },
        {
          "indexed": false,
          "internalType": "uint256[]",
          "name": "amounts",
          "type": "uint256[]"
        }
      ],
      "name": "TransferBatch",
      "type": "event"
    },
    {
      "anonymous": false,
      "inputs": [
        {
          "indexed": true,
          "internalType": "address",
          "name": "operator",
          "type": "address"
        },
        {
          "indexed": true,
          "internalType": "address",
          "name": "from",
          "type": "address"
        },
        {
          "indexed": true,
          "internalType": "address",
          "name": "to",
          "type": "address"
        },
        {
          "indexed": false,
          "internalType": "uint256",
          "name": "id",
          "type": "uint256"
        },
        {
          "indexed": false,
          "internalType": "uint256",
          "name": "amount",
          "type": "uint256"
        }
      ],
      "name": "TransferSingle",
      "type": "event"
    },
    {
      "anonymous": false,
      "inputs": [
        {
          "indexed": false,
          "internalType": "string",
          "name": "value",
          "type": "string"
        },
        {
          "indexed": true,
          "internalType": "uint256",
          "name": "id",
          "type": "uint256"
        }
      ],
      "name": "URI",
      "type": "event"
    },
    {
      "inputs": [],
      "name": "CLAIM_DENOMINATOR",
      "outputs": [
        {
          "internalType": "uint256",
          "name": "",
          "type": "uint256"
        }
      ],
      "stateMutability": "view",
      "type": "function"
    },
    {
      "inputs": [],
      "name": "CLAIM_PERCENT",
      "outputs": [
        {
          "internalType": "uint256",
          "name": "",
          "type": "uint256"
        }
      ],
      "stateMutability": "view",
      "type": "function"
    },
    {
      "inputs": [],
      "name": "CREATOR_PREMINT",
      "outputs": [
        {
          "internalType": "uint256",
          "name": "",
          "type": "uint256"
        }
      ],
      "stateMutability": "view",
      "type": "function"
    },
    {
      "inputs": [
        {
          "internalType": "bytes32",
          "name": "merkleRoot",
          "type": "bytes32"
        },
        {
          "internalType": "address",
          "name": "account",
          "type": "address"
        },
        {
          "internalType": "uint256",
          "name": "blockNumber",
          "type": "uint256"
        },
        {
          "internalType": "uint256",
          "name": "keyId",
          "type": "uint256"
        }
      ],
      "name": "_attest",
      "outputs": [
        {
          "internalType": "uint64",
          "name": "",
          "type": "uint64"
        }
      ],
      "stateMutability": "nonpayable",
      "type": "function"
    },
    {
      "inputs": [
        {
          "internalType": "address",
          "name": "",
          "type": "address"
        },
        {
          "internalType": "uint256",
          "name": "",
          "type": "uint256"
        }
      ],
      "name": "balanceOf",
      "outputs": [
        {
          "internalType": "uint256",
          "name": "",
          "type": "uint256"
        }
      ],
      "stateMutability": "view",
      "type": "function"
    },
    {
      "inputs": [
        {
          "internalType": "address[]",
          "name": "owners",
          "type": "address[]"
        },
        {
          "internalType": "uint256[]",
          "name": "ids",
          "type": "uint256[]"
        }
      ],
      "name": "balanceOfBatch",
      "outputs": [
        {
          "internalType": "uint256[]",
          "name": "balances",
          "type": "uint256[]"
        }
      ],
      "stateMutability": "view",
      "type": "function"
    },
    {
      "inputs": [
        {
          "internalType": "uint256",
          "name": "keyId",
          "type": "uint256"
        },
        {
          "internalType": "uint256",
          "name": "amount",
          "type": "uint256"
        }
      ],
      "name": "buy",
      "outputs": [],
      "stateMutability": "payable",
      "type": "function"
    },
    {
      "inputs": [
        {
          "internalType": "uint256",
          "name": "keyId",
          "type": "uint256"
        },
        {
          "internalType": "uint256",
          "name": "amount",
          "type": "uint256"
        },
        {
          "internalType": "bytes32[]",
          "name": "merkleProof",
          "type": "bytes32[]"
        }
      ],
      "name": "claim",
      "outputs": [],
      "stateMutability": "nonpayable",
      "type": "function"
    },
    {
      "inputs": [
        {
          "internalType": "string",
          "name": "name",
          "type": "string"
        }
      ],
      "name": "create",
      "outputs": [],
      "stateMutability": "nonpayable",
      "type": "function"
    },
    {
      "inputs": [
        {
          "internalType": "address",
          "name": "attester",
          "type": "address"
        },
        {
          "internalType": "uint64",
          "name": "",
          "type": "uint64"
        },
        {
          "internalType": "uint64",
          "name": "attestationId",
          "type": "uint64"
        },
        {
          "internalType": "bytes",
          "name": "",
          "type": "bytes"
        }
      ],
      "name": "didReceiveAttestation",
      "outputs": [],
      "stateMutability": "payable",
      "type": "function"
    },
    {
      "inputs": [
        {
          "internalType": "address",
          "name": "",
          "type": "address"
        },
        {
          "internalType": "uint64",
          "name": "",
          "type": "uint64"
        },
        {
          "internalType": "uint64",
          "name": "",
          "type": "uint64"
        },
        {
          "internalType": "contract IERC20",
          "name": "",
          "type": "address"
        },
        {
          "internalType": "uint256",
          "name": "",
          "type": "uint256"
        },
        {
          "internalType": "bytes",
          "name": "",
          "type": "bytes"
        }
      ],
      "name": "didReceiveAttestation",
      "outputs": [],
      "stateMutability": "pure",
      "type": "function"
    },
    {
      "inputs": [
        {
          "internalType": "address",
          "name": "",
          "type": "address"
        },
        {
          "internalType": "uint64",
          "name": "",
          "type": "uint64"
        },
        {
          "internalType": "uint64",
          "name": "",
          "type": "uint64"
        },
        {
          "internalType": "bytes",
          "name": "",
          "type": "bytes"
        }
      ],
      "name": "didReceiveRevocation",
      "outputs": [],
      "stateMutability": "payable",
      "type": "function"
    },
    {
      "inputs": [
        {
          "internalType": "address",
          "name": "",
          "type": "address"
        },
        {
          "internalType": "uint64",
          "name": "",
          "type": "uint64"
        },
        {
          "internalType": "uint64",
          "name": "",
          "type": "uint64"
        },
        {
          "internalType": "contract IERC20",
          "name": "",
          "type": "address"
        },
        {
          "internalType": "uint256",
          "name": "",
          "type": "uint256"
        },
        {
          "internalType": "bytes",
          "name": "",
          "type": "bytes"
        }
      ],
      "name": "didReceiveRevocation",
      "outputs": [],
      "stateMutability": "pure",
      "type": "function"
    },
    {
      "inputs": [
        {
          "internalType": "uint256",
          "name": "keyId",
          "type": "uint256"
        },
        {
          "internalType": "uint256",
          "name": "amount",
          "type": "uint256"
        }
      ],
      "name": "getBuyPrice",
      "outputs": [
        {
          "internalType": "uint256",
          "name": "",
          "type": "uint256"
        }
      ],
      "stateMutability": "view",
      "type": "function"
    },
    {
      "inputs": [
        {
          "internalType": "address",
          "name": "addr",
          "type": "address"
        }
      ],
      "name": "getKeysByAddress",
      "outputs": [
        {
          "internalType": "uint256[]",
          "name": "",
          "type": "uint256[]"
        }
      ],
      "stateMutability": "view",
      "type": "function"
    },
    {
      "inputs": [
        {
          "internalType": "uint256",
          "name": "keyId",
          "type": "uint256"
        }
      ],
      "name": "getMerkleRoot",
      "outputs": [
        {
          "internalType": "bytes32",
          "name": "",
          "type": "bytes32"
        }
      ],
      "stateMutability": "view",
      "type": "function"
    },
    {
      "inputs": [
        {
          "internalType": "uint256",
          "name": "supply",
          "type": "uint256"
        },
        {
          "internalType": "uint256",
          "name": "amount",
          "type": "uint256"
        }
      ],
      "name": "getPrice",
      "outputs": [
        {
          "internalType": "uint256",
          "name": "",
          "type": "uint256"
        }
      ],
      "stateMutability": "pure",
      "type": "function"
    },
    {
      "inputs": [
        {
          "internalType": "uint256",
          "name": "keyId",
          "type": "uint256"
        },
        {
          "internalType": "uint256",
          "name": "amount",
          "type": "uint256"
        }
      ],
      "name": "getSellPrice",
      "outputs": [
        {
          "internalType": "uint256",
          "name": "",
          "type": "uint256"
        }
      ],
      "stateMutability": "view",
      "type": "function"
    },
    {
      "inputs": [
        {
          "internalType": "uint256",
          "name": "",
          "type": "uint256"
        },
        {
          "internalType": "address",
          "name": "",
          "type": "address"
        }
      ],
      "name": "hasClaimed",
      "outputs": [
        {
          "internalType": "bool",
          "name": "",
          "type": "bool"
        }
      ],
      "stateMutability": "view",
      "type": "function"
    },
    {
      "inputs": [
        {
          "internalType": "address",
          "name": "",
          "type": "address"
        },
        {
          "internalType": "address",
          "name": "",
          "type": "address"
        }
      ],
      "name": "isApprovedForAll",
      "outputs": [
        {
          "internalType": "bool",
          "name": "",
          "type": "bool"
        }
      ],
      "stateMutability": "view",
      "type": "function"
    },
    {
      "inputs": [],
      "name": "keyIndex",
      "outputs": [
        {
          "internalType": "uint256",
          "name": "",
          "type": "uint256"
        }
      ],
      "stateMutability": "view",
      "type": "function"
    },
    {
      "inputs": [
        {
          "internalType": "uint256",
          "name": "",
          "type": "uint256"
        }
      ],
      "name": "keys",
      "outputs": [
        {
          "internalType": "uint256",
          "name": "id",
          "type": "uint256"
        },
        {
          "internalType": "string",
          "name": "name",
          "type": "string"
        },
        {
          "internalType": "address",
          "name": "creator",
          "type": "address"
        },
        {
          "internalType": "bool",
          "name": "isLiquidated",
          "type": "bool"
        },
        {
          "internalType": "bytes32",
          "name": "merkleRoot",
          "type": "bytes32"
        }
      ],
      "stateMutability": "view",
      "type": "function"
    },
    {
      "inputs": [],
      "name": "owner",
      "outputs": [
        {
          "internalType": "address",
          "name": "",
          "type": "address"
        }
      ],
      "stateMutability": "view",
      "type": "function"
    },
    {
      "inputs": [
        {
          "internalType": "uint256",
          "name": "",
          "type": "uint256"
        }
      ],
      "name": "pool",
      "outputs": [
        {
          "internalType": "uint256",
          "name": "",
          "type": "uint256"
        }
      ],
      "stateMutability": "view",
      "type": "function"
    },
    {
      "inputs": [
        {
          "internalType": "address",
          "name": "from",
          "type": "address"
        },
        {
          "internalType": "address",
          "name": "to",
          "type": "address"
        },
        {
          "internalType": "uint256[]",
          "name": "ids",
          "type": "uint256[]"
        },
        {
          "internalType": "uint256[]",
          "name": "amounts",
          "type": "uint256[]"
        },
        {
          "internalType": "bytes",
          "name": "data",
          "type": "bytes"
        }
      ],
      "name": "safeBatchTransferFrom",
      "outputs": [],
      "stateMutability": "nonpayable",
      "type": "function"
    },
    {
      "inputs": [
        {
          "internalType": "address",
          "name": "from",
          "type": "address"
        },
        {
          "internalType": "address",
          "name": "to",
          "type": "address"
        },
        {
          "internalType": "uint256",
          "name": "id",
          "type": "uint256"
        },
        {
          "internalType": "uint256",
          "name": "amount",
          "type": "uint256"
        },
        {
          "internalType": "bytes",
          "name": "data",
          "type": "bytes"
        }
      ],
      "name": "safeTransferFrom",
      "outputs": [],
      "stateMutability": "nonpayable",
      "type": "function"
    },
    {
      "inputs": [],
      "name": "schemaId",
      "outputs": [
        {
          "internalType": "uint64",
          "name": "",
          "type": "uint64"
        }
      ],
      "stateMutability": "view",
      "type": "function"
    },
    {
      "inputs": [
        {
          "internalType": "uint256",
          "name": "keyId",
          "type": "uint256"
        },
        {
          "internalType": "uint256",
          "name": "amount",
          "type": "uint256"
        }
      ],
      "name": "sell",
      "outputs": [],
      "stateMutability": "nonpayable",
      "type": "function"
    },
    {
      "inputs": [
        {
          "internalType": "address",
          "name": "operator",
          "type": "address"
        },
        {
          "internalType": "bool",
          "name": "approved",
          "type": "bool"
        }
      ],
      "name": "setApprovalForAll",
      "outputs": [],
      "stateMutability": "nonpayable",
      "type": "function"
    },
    {
      "inputs": [
        {
          "internalType": "address",
          "name": "instance",
          "type": "address"
        }
      ],
      "name": "setSPInstance",
      "outputs": [],
      "stateMutability": "nonpayable",
      "type": "function"
    },
    {
      "inputs": [
        {
          "internalType": "uint64",
          "name": "schemaId_",
          "type": "uint64"
        }
      ],
      "name": "setSchemaID",
      "outputs": [],
      "stateMutability": "nonpayable",
      "type": "function"
    },
    {
      "inputs": [],
      "name": "spInstance",
      "outputs": [
        {
          "internalType": "contract ISP",
          "name": "",
          "type": "address"
        }
      ],
      "stateMutability": "view",
      "type": "function"
    },
    {
      "inputs": [
        {
          "internalType": "bytes4",
          "name": "interfaceId",
          "type": "bytes4"
        }
      ],
      "name": "supportsInterface",
      "outputs": [
        {
          "internalType": "bool",
          "name": "",
          "type": "bool"
        }
      ],
      "stateMutability": "view",
      "type": "function"
    },
    {
      "inputs": [
        {
          "internalType": "uint256",
          "name": "keyId",
          "type": "uint256"
        }
      ],
      "name": "toggleLiquidation",
      "outputs": [],
      "stateMutability": "nonpayable",
      "type": "function"
    },
    {
      "inputs": [
        {
          "internalType": "uint256",
          "name": "",
          "type": "uint256"
        }
      ],
      "name": "totalSupply",
      "outputs": [
        {
          "internalType": "uint256",
          "name": "",
          "type": "uint256"
        }
      ],
      "stateMutability": "view",
      "type": "function"
    },
    {
      "inputs": [
        {
          "internalType": "uint256",
          "name": "keyId",
          "type": "uint256"
        },
        {
          "internalType": "bytes32",
          "name": "merkleRoot",
          "type": "bytes32"
        }
      ],
      "name": "updateMerkleRoot",
      "outputs": [],
      "stateMutability": "nonpayable",
      "type": "function"
    },
    {
      "inputs": [
        {
          "internalType": "uint256",
          "name": "id",
          "type": "uint256"
        }
      ],
      "name": "uri",
      "outputs": [
        {
          "internalType": "string",
          "name": "",
          "type": "string"
        }
      ],
      "stateMutability": "view",
      "type": "function"
    },
    {
      "inputs": [
        {
          "internalType": "address",
          "name": "",
          "type": "address"
        },
        {
          "internalType": "uint256",
          "name": "",
          "type": "uint256"
        }
      ],
      "name": "userKeys",
      "outputs": [
        {
          "internalType": "uint256",
          "name": "",
          "type": "uint256"
        }
      ],
      "stateMutability": "view",
      "type": "function"
    },
    {
      "inputs": [
        {
          "internalType": "uint256",
          "name": "keyId",
          "type": "uint256"
        },
        {
          "internalType": "address",
          "name": "account",
          "type": "address"
        },
        {
          "internalType": "uint256",
          "name": "amount",
          "type": "uint256"
        },
        {
          "internalType": "bytes32[]",
          "name": "merkleProof",
          "type": "bytes32[]"
        }
      ],
      "name": "verifyMerkle",
      "outputs": [
        {
          "internalType": "bool",
          "name": "",
          "type": "bool"
        }
      ],
      "stateMutability": "view",
      "type": "function"
    }
  ],
  "bytecode": "0x6080604052348015600f57600080fd5b5033600260006101000a81548173ffffffffffffffffffffffffffffffffffffffff021916908373ffffffffffffffffffffffffffffffffffffffff1602179055506156c0806100606000396000f3fe60806040526004361061022f5760003560e01c8063873f6f9e1161012e578063c157253d116100ab578063e830b5c71161006f578063e830b5c7146108bd578063e985e9c5146108e6578063f1e3311514610923578063f242432a1461094c578063fe313112146109755761022f565b8063c157253d146107f6578063c23c8b0314610833578063d6febde81461085c578063d79875eb14610878578063e33361f4146108a15761022f565b8063a22cb465116100f2578063a22cb46514610713578063a8c5dc331461073c578063ae0b51df14610767578063b6a46b3b14610790578063bd85b039146107b95761022f565b8063873f6f9e146106085780638da5cb5b146106455780638e9d660f1461067057806393990f7a146106995780639477d85d146106d65761022f565b80632eb2c2d6116101bc5780634e1273f4116101805780634e1273f4146104fb5780634fccfb671461053857806358074d8b146105755780635cf4ee91146105a05780637ffb25ac146105dd5761022f565b80632eb2c2d6146104255780633398b4ed1461044e5780634466507a1461046a5780634d7b31d7146104935780634d8cfcd4146104be5761022f565b80630aab8ba5116102035780630aab8ba5146103025780630cb6aaf11461033f5780630e89341c146103805780631b7a1bbe146103bd5780632741a8c5146103fa5761022f565b8062fdd58e1461023457806301ffc9a71461027157806305ca8ee3146102ae578063075b1a09146102d7575b600080fd5b34801561024057600080fd5b5061025b600480360381019061025691906130fb565b6109b2565b604051610268919061314a565b60405180910390f35b34801561027d57600080fd5b50610298600480360381019061029391906131bd565b6109d7565b6040516102a59190613205565b60405180910390f35b3480156102ba57600080fd5b506102d560048036038101906102d09190613260565b610a69565b005b3480156102e357600080fd5b506102ec610a95565b6040516102f9919061329c565b60405180910390f35b34801561030e57600080fd5b50610329600480360381019061032491906132b7565b610aaf565b60405161033691906132fd565b60405180910390f35b34801561034b57600080fd5b50610366600480360381019061036191906132b7565b610b13565b6040516103779594939291906133b7565b60405180910390f35b34801561038c57600080fd5b506103a760048036038101906103a291906132b7565b610bfe565b6040516103b49190613411565b60405180910390f35b3480156103c957600080fd5b506103e460048036038101906103df9190613498565b610ca6565b6040516103f19190613205565b60405180910390f35b34801561040657600080fd5b5061040f610d9d565b60405161041c919061314a565b60405180910390f35b34801561043157600080fd5b5061044c600480360381019061044791906135cc565b610da3565b005b610468600480360381019061046391906136a8565b6111ff565b005b34801561047657600080fd5b50610491600480360381019061048c919061376e565b6112c1565b005b34801561049f57600080fd5b506104a86112f3565b6040516104b5919061314a565b60405180910390f35b3480156104ca57600080fd5b506104e560048036038101906104e0919061381d565b6112f9565b6040516104f29190613908565b60405180910390f35b34801561050757600080fd5b50610522600480360381019061051d9190613980565b611390565b60405161052f9190613908565b60405180910390f35b34801561054457600080fd5b5061055f600480360381019061055a9190613a2d565b6114f9565b60405161056c919061329c565b60405180910390f35b34801561058157600080fd5b5061058a61171d565b604051610597919061314a565b60405180910390f35b3480156105ac57600080fd5b506105c760048036038101906105c29190613a94565b611723565b6040516105d4919061314a565b60405180910390f35b3480156105e957600080fd5b506105f2611754565b6040516105ff919061314a565b60405180910390f35b34801561061457600080fd5b5061062f600480360381019061062a9190613ad4565b611760565b60405161063c9190613205565b60405180910390f35b34801561065157600080fd5b5061065a61178f565b6040516106679190613b14565b60405180910390f35b34801561067c57600080fd5b506106976004803603810190610692919061381d565b6117b5565b005b3480156106a557600080fd5b506106c060048036038101906106bb91906130fb565b6117f9565b6040516106cd919061314a565b60405180910390f35b3480156106e257600080fd5b506106fd60048036038101906106f89190613a94565b61182a565b60405161070a919061314a565b60405180910390f35b34801561071f57600080fd5b5061073a60048036038101906107359190613b5b565b61185c565b005b34801561074857600080fd5b50610751611959565b60405161075e9190613bfa565b60405180910390f35b34801561077357600080fd5b5061078e60048036038101906107899190613c15565b61197f565b005b34801561079c57600080fd5b506107b760048036038101906107b29190613cdf565b611c9b565b005b3480156107c557600080fd5b506107e060048036038101906107db91906132b7565b611ff2565b6040516107ed919061314a565b60405180910390f35b34801561080257600080fd5b5061081d60048036038101906108189190613a94565b61200a565b60405161082a919061314a565b60405180910390f35b34801561083f57600080fd5b5061085a600480360381019061085591906132b7565b612031565b005b61087660048036038101906108719190613a94565b61211e565b005b34801561088457600080fd5b5061089f600480360381019061089a9190613a94565b6122f0565b005b6108bb60048036038101906108b691906136a8565b612615565b005b3480156108c957600080fd5b506108e460048036038101906108df919061376e565b612647565b005b3480156108f257600080fd5b5061090d60048036038101906109089190613d2c565b612679565b60405161091a9190613205565b60405180910390f35b34801561092f57600080fd5b5061094a60048036038101906109459190613d6c565b6126a8565b005b34801561095857600080fd5b50610973600480360381019061096e9190613dac565b6127c6565b005b34801561098157600080fd5b5061099c600480360381019061099791906132b7565b612b79565b6040516109a9919061314a565b60405180910390f35b6000602052816000526040600020602052806000526040600020600091509150505481565b60006301ffc9a760e01b827bffffffffffffffffffffffffffffffffffffffffffffffffffffffff19161480610a32575063d9b67a2660e01b827bffffffffffffffffffffffffffffffffffffffffffffffffffffffff1916145b80610a625750630e89341c60e01b827bffffffffffffffffffffffffffffffffffffffffffffffffffffffff1916145b9050919050565b80600960146101000a81548167ffffffffffffffff021916908367ffffffffffffffff16021790555050565b600960149054906101000a900467ffffffffffffffff1681565b60006003548210610af5576040517f08c379a0000000000000000000000000000000000000000000000000000000008152600401610aec90613e92565b60405180910390fd5b60046000838152602001908152602001600020600301549050919050565b6004602052806000526040600020600091509050806000015490806001018054610b3c90613ee1565b80601f0160208091040260200160405190810160405280929190818152602001828054610b6890613ee1565b8015610bb55780601f10610b8a57610100808354040283529160200191610bb5565b820191906000526020600020905b815481529060010190602001808311610b9857829003601f168201915b5050505050908060020160009054906101000a900473ffffffffffffffffffffffffffffffffffffffff16908060020160149054906101000a900460ff16908060030154905085565b6060600460008381526020019081526020016000206001018054610c2190613ee1565b80601f0160208091040260200160405190810160405280929190818152602001828054610c4d90613ee1565b8015610c9a5780601f10610c6f57610100808354040283529160200191610c9a565b820191906000526020600020905b815481529060010190602001808311610c7d57829003601f168201915b50505050509050919050565b6000808585604051602001610cbc929190613f7b565b604051602081830303815290604052805190602001209050600081905060005b85859050811015610d76576000868683818110610cfc57610cfb613fa7565b5b905060200201359050808311610d3c578281604051602001610d1f929190613ff7565b604051602081830303815290604052805190602001209250610d68565b8083604051602001610d4f929190613ff7565b6040516020818303038152906040528051906020012092505b508080600101915050610cdc565b50600460008981526020019081526020016000206003015481149250505095945050505050565b6103e881565b838390508686905014610deb576040517f08c379a0000000000000000000000000000000000000000000000000000000008152600401610de29061406f565b60405180910390fd5b8773ffffffffffffffffffffffffffffffffffffffff163373ffffffffffffffffffffffffffffffffffffffff161480610eab5750600160008973ffffffffffffffffffffffffffffffffffffffff1673ffffffffffffffffffffffffffffffffffffffff16815260200190815260200160002060003373ffffffffffffffffffffffffffffffffffffffff1673ffffffffffffffffffffffffffffffffffffffff16815260200190815260200160002060009054906101000a900460ff165b610eea576040517f08c379a0000000000000000000000000000000000000000000000000000000008152600401610ee1906140db565b60405180910390fd5b60008060005b8888905081101561100a57888882818110610f0e57610f0d613fa7565b5b905060200201359250868682818110610f2a57610f29613fa7565b5b905060200201359150816000808d73ffffffffffffffffffffffffffffffffffffffff1673ffffffffffffffffffffffffffffffffffffffff16815260200190815260200160002060008581526020019081526020016000206000828254610f92919061412a565b92505081905550816000808c73ffffffffffffffffffffffffffffffffffffffff1673ffffffffffffffffffffffffffffffffffffffff16815260200190815260200160002060008581526020019081526020016000206000828254610ff8919061415e565b92505081905550806001019050610ef0565b508873ffffffffffffffffffffffffffffffffffffffff168a73ffffffffffffffffffffffffffffffffffffffff163373ffffffffffffffffffffffffffffffffffffffff167f4a39dc06d4c0dbc64b70af90fd698a233a518aa5d07e595d983b8c0526c8f7fb8b8b8b8b60405161108594939291906141fc565b60405180910390a460008973ffffffffffffffffffffffffffffffffffffffff163b146111825763bc197c8160e01b7bffffffffffffffffffffffffffffffffffffffffffffffffffffffff19168973ffffffffffffffffffffffffffffffffffffffff1663bc197c81338d8c8c8c8c8c8c6040518963ffffffff1660e01b815260040161111a989796959493929190614284565b6020604051808303816000875af1158015611139573d6000803e3d6000fd5b505050506040513d601f19601f8201168201806040525081019061115d9190614307565b7bffffffffffffffffffffffffffffffffffffffffffffffffffffffff1916146111b4565b600073ffffffffffffffffffffffffffffffffffffffff168973ffffffffffffffffffffffffffffffffffffffff1614155b6111f3576040517f08c379a00000000000000000000000000000000000000000000000000000000081526004016111ea90614380565b60405180910390fd5b50505050505050505050565b60003373ffffffffffffffffffffffffffffffffffffffff166362252880856040518263ffffffff1660e01b815260040161123a919061329c565b600060405180830381865afa158015611257573d6000803e3d6000fd5b505050506040513d6000823e3d601f19601f82011682018060405250810190611280919061473e565b90506000806000808461012001518060200190518101906112a191906147ef565b93509350935093506112b584848484612b91565b50505050505050505050565b6040517f9ba6061b00000000000000000000000000000000000000000000000000000000815260040160405180910390fd5b6103e781565b6060600560008373ffffffffffffffffffffffffffffffffffffffff1673ffffffffffffffffffffffffffffffffffffffff16815260200190815260200160002080548060200260200160405190810160405280929190818152602001828054801561138457602002820191906000526020600020905b815481526020019060010190808311611370575b50505050509050919050565b60608282905085859050146113da576040517f08c379a00000000000000000000000000000000000000000000000000000000081526004016113d19061406f565b60405180910390fd5b8484905067ffffffffffffffff8111156113f7576113f66143a5565b5b6040519080825280602002602001820160405280156114255781602001602082028036833780820191505090505b50905060005b858590508110156114f05760008087878481811061144c5761144b613fa7565b5b9050602002016020810190611461919061381d565b73ffffffffffffffffffffffffffffffffffffffff1673ffffffffffffffffffffffffffffffffffffffff16815260200190815260200160002060008585848181106114b0576114af613fa7565b5b905060200201358152602001908152602001600020548282815181106114d9576114d8613fa7565b5b60200260200101818152505080600101905061142b565b50949350505050565b600080600167ffffffffffffffff811115611517576115166143a5565b5b60405190808252806020026020018201604052801561154a57816020015b60608152602001906001900390816115355790505b5090503060405160200161155e9190613b14565b6040516020818303038152906040528160008151811061158157611580613fa7565b5b60200260200101819052506000604051806101400160405280600960149054906101000a900467ffffffffffffffff1667ffffffffffffffff168152602001600067ffffffffffffffff168152602001600067ffffffffffffffff168152602001600067ffffffffffffffff1681526020013073ffffffffffffffffffffffffffffffffffffffff168152602001600067ffffffffffffffff1681526020016000600381111561163457611633614856565b5b81526020016000151581526020018381526020018888888860405160200161165f9493929190614885565b6040516020818303038152906040528152509050600960009054906101000a900473ffffffffffffffffffffffffffffffffffffffff1673ffffffffffffffffffffffffffffffffffffffff1663b82916cb826040518263ffffffff1660e01b81526004016116ce9190614b80565b6020604051808303816000875af11580156116ed573d6000803e3d6000fd5b505050506040513d601f19601f820116820180604052508101906117119190614bdb565b92505050949350505050565b60035481565b600061172e83612cd6565b611742838561173d919061415e565b612cd6565b61174c919061412a565b905092915050565b670de0b6b3a764000081565b60086020528160005260406000206020528060005260406000206000915091509054906101000a900460ff1681565b600260009054906101000a900473ffffffffffffffffffffffffffffffffffffffff1681565b80600960006101000a81548173ffffffffffffffffffffffffffffffffffffffff021916908373ffffffffffffffffffffffffffffffffffffffff16021790555050565b6005602052816000526040600020818154811061181557600080fd5b90600052602060002001600091509150505481565b600061185482600660008681526020019081526020016000205461184e919061412a565b83611723565b905092915050565b80600160003373ffffffffffffffffffffffffffffffffffffffff1673ffffffffffffffffffffffffffffffffffffffff16815260200190815260200160002060008473ffffffffffffffffffffffffffffffffffffffff1673ffffffffffffffffffffffffffffffffffffffff16815260200190815260200160002060006101000a81548160ff0219169083151502179055508173ffffffffffffffffffffffffffffffffffffffff163373ffffffffffffffffffffffffffffffffffffffff167f17307eab39ab6107e8899845ad3d59bd9653f200f220920489ca2b5937696c318360405161194d9190613205565b60405180910390a35050565b600960009054906101000a900473ffffffffffffffffffffffffffffffffffffffff1681565b60035484106119c3576040517f08c379a00000000000000000000000000000000000000000000000000000000081526004016119ba90613e92565b60405180910390fd5b6004600085815260200190815260200160002060020160149054906101000a900460ff16611a26576040517f08c379a0000000000000000000000000000000000000000000000000000000008152600401611a1d90614c54565b60405180910390fd5b6008600085815260200190815260200160002060003373ffffffffffffffffffffffffffffffffffffffff1673ffffffffffffffffffffffffffffffffffffffff16815260200190815260200160002060009054906101000a900460ff1615611ac4576040517f08c379a0000000000000000000000000000000000000000000000000000000008152600401611abb90614cc0565b60405180910390fd5b611ad18433858585610ca6565b611b10576040517f08c379a0000000000000000000000000000000000000000000000000000000008152600401611b0790614d2c565b60405180910390fd5b60006103e86103e785611b239190614d4c565b611b2d9190614dbd565b905060016008600087815260200190815260200160002060003373ffffffffffffffffffffffffffffffffffffffff1673ffffffffffffffffffffffffffffffffffffffff16815260200190815260200160002060006101000a81548160ff02191690831515021790555060003373ffffffffffffffffffffffffffffffffffffffff1682604051611bbe90614e1c565b60006040518083038185875af1925050503d8060008114611bfb576040519150601f19603f3d011682016040523d82523d6000602084013e611c00565b606091505b5050905080611c44576040517f08c379a0000000000000000000000000000000000000000000000000000000008152600401611c3b90614e7d565b60405180910390fd5b3373ffffffffffffffffffffffffffffffffffffffff16867f4ec90e965519d92681267467f775ada5bd214aa92c0dc93d90a5e880ce9ed02684604051611c8b919061314a565b60405180910390a3505050505050565b600260009054906101000a900473ffffffffffffffffffffffffffffffffffffffff1673ffffffffffffffffffffffffffffffffffffffff163373ffffffffffffffffffffffffffffffffffffffff1614611d2b576040517f08c379a0000000000000000000000000000000000000000000000000000000008152600401611d2290614ee9565b60405180910390fd5b600060035490506040518060a0016040528082815260200184848080601f016020809104026020016040519081016040528093929190818152602001838380828437600081840152601f19601f8201169050808301925050505050505081526020013373ffffffffffffffffffffffffffffffffffffffff1681526020016000151581526020016000801b81525060046000838152602001908152602001600020600082015181600001556020820151816001019081611deb91906150ab565b5060408201518160020160006101000a81548173ffffffffffffffffffffffffffffffffffffffff021916908373ffffffffffffffffffffffffffffffffffffffff16021790555060608201518160020160146101000a81548160ff02191690831515021790555060808201518160030155905050600560003373ffffffffffffffffffffffffffffffffffffffff1673ffffffffffffffffffffffffffffffffffffffff168152602001908152602001600020819080600181540180825580915050600190039060005260206000200160009091909190915055670de0b6b3a7640000600660008381526020019081526020016000206000828254611ef1919061415e565b92505081905550600181611f05919061415e565b600381905550611f2e3382670de0b6b3a764000060405180602001604052806000815250612d1d565b3373ffffffffffffffffffffffffffffffffffffffff16817fb683691564ab594b1f9e9db91abaf085736871256a4741baa41bf30cb9d4f2368585604051611f779291906151aa565b60405180910390a33373ffffffffffffffffffffffffffffffffffffffff168160006002811115611fab57611faa614856565b5b7fef9efaa688e86a93d98a7f0102f8f58ea72875d8578cc452a9f1623481f0bfcc670de0b6b3a76400006000604051611fe5929190615209565b60405180910390a4505050565b60066020528060005260406000206000915090505481565b6000612029600660008581526020019081526020016000205483611723565b905092915050565b6003548110612075576040517f08c379a000000000000000000000000000000000000000000000000000000000815260040161206c90613e92565b60405180910390fd5b60006004600083815260200190815260200160002090508060020160149054906101000a900460ff16158160020160146101000a81548160ff0219169083151502179055503373ffffffffffffffffffffffffffffffffffffffff16827fd7f9f91585e13a431090cee597fff8e7e61fbf3c332f6e5fdf25b6ce7fa99b4c8360020160149054906101000a900460ff166040516121129190613205565b60405180910390a35050565b6003548210612162576040517f08c379a000000000000000000000000000000000000000000000000000000000815260040161215990613e92565b60405180910390fd5b6004600083815260200190815260200160002060020160149054906101000a900460ff16156121c6576040517f08c379a00000000000000000000000000000000000000000000000000000000081526004016121bd9061527e565b60405180910390fd5b60006121d2838361200a565b905080341015612217576040517f08c379a000000000000000000000000000000000000000000000000000000000815260040161220e906152ea565b60405180910390fd5b8160066000858152602001908152602001600020600082825461223a919061415e565b9250508190555080600760008581526020019081526020016000206000828254612264919061415e565b9250508190555061228633848460405180602001604052806000815250612d1d565b3373ffffffffffffffffffffffffffffffffffffffff1683600160028111156122b2576122b1614856565b5b7fef9efaa688e86a93d98a7f0102f8f58ea72875d8578cc452a9f1623481f0bfcc85856040516122e392919061530a565b60405180910390a4505050565b6003548210612334576040517f08c379a000000000000000000000000000000000000000000000000000000000815260040161232b90613e92565b60405180910390fd5b6004600083815260200190815260200160002060020160149054906101000a900460ff1615612398576040517f08c379a000000000000000000000000000000000000000000000000000000000815260040161238f9061527e565b60405180910390fd5b806000803373ffffffffffffffffffffffffffffffffffffffff1673ffffffffffffffffffffffffffffffffffffffff168152602001908152602001600020600084815260200190815260200160002054101561242a576040517f08c379a00000000000000000000000000000000000000000000000000000000081526004016124219061537f565b60405180910390fd5b600060066000848152602001908152602001600020549050670de0b6b3a76400008282612457919061412a565b1015612498576040517f08c379a000000000000000000000000000000000000000000000000000000000815260040161248f90615411565b60405180910390fd5b60006124a4848461182a565b90506124b1338585612f69565b82826124bd919061412a565b6006600086815260200190815260200160002081905550806007600086815260200190815260200160002060008282546124f7919061412a565b925050819055503373ffffffffffffffffffffffffffffffffffffffff168460028081111561252957612528614856565b5b7fef9efaa688e86a93d98a7f0102f8f58ea72875d8578cc452a9f1623481f0bfcc868560405161255a92919061530a565b60405180910390a460003373ffffffffffffffffffffffffffffffffffffffff168260405161258890614e1c565b60006040518083038185875af1925050503d80600081146125c5576040519150601f19603f3d011682016040523d82523d6000602084013e6125ca565b606091505b505090508061260e576040517f08c379a000000000000000000000000000000000000000000000000000000000815260040161260590614e7d565b60405180910390fd5b5050505050565b6040517f9ba6061b00000000000000000000000000000000000000000000000000000000815260040160405180910390fd5b6040517f9ba6061b00000000000000000000000000000000000000000000000000000000815260040160405180910390fd5b60016020528160005260406000206020528060005260406000206000915091509054906101000a900460ff1681565b60035482106126ec576040517f08c379a00000000000000000000000000000000000000000000000000000000081526004016126e390613e92565b60405180910390fd5b8060046000848152602001908152602001600020600301819055503073ffffffffffffffffffffffffffffffffffffffff16634fccfb67823343866040518563ffffffff1660e01b81526004016127469493929190614885565b6020604051808303816000875af1158015612765573d6000803e3d6000fd5b505050506040513d601f19601f820116820180604052508101906127899190614bdb565b50817f9ff79792a92b66fee090acb66e07837a2edb31ee6b9780fa551fd04b79dffcd2826040516127ba91906132fd565b60405180910390a25050565b8573ffffffffffffffffffffffffffffffffffffffff163373ffffffffffffffffffffffffffffffffffffffff1614806128865750600160008773ffffffffffffffffffffffffffffffffffffffff1673ffffffffffffffffffffffffffffffffffffffff16815260200190815260200160002060003373ffffffffffffffffffffffffffffffffffffffff1673ffffffffffffffffffffffffffffffffffffffff16815260200190815260200160002060009054906101000a900460ff165b6128c5576040517f08c379a00000000000000000000000000000000000000000000000000000000081526004016128bc906140db565b60405180910390fd5b826000808873ffffffffffffffffffffffffffffffffffffffff1673ffffffffffffffffffffffffffffffffffffffff16815260200190815260200160002060008681526020019081526020016000206000828254612924919061412a565b92505081905550826000808773ffffffffffffffffffffffffffffffffffffffff1673ffffffffffffffffffffffffffffffffffffffff1681526020019081526020016000206000868152602001908152602001600020600082825461298a919061415e565b925050819055508473ffffffffffffffffffffffffffffffffffffffff168673ffffffffffffffffffffffffffffffffffffffff163373ffffffffffffffffffffffffffffffffffffffff167fc3d58168c5ae7397731d063d5bbf3d657854427343f4c083240f7aacaa2d0f628787604051612a0792919061530a565b60405180910390a460008573ffffffffffffffffffffffffffffffffffffffff163b14612b005763f23a6e6160e01b7bffffffffffffffffffffffffffffffffffffffffffffffffffffffff19168573ffffffffffffffffffffffffffffffffffffffff1663f23a6e613389888888886040518763ffffffff1660e01b8152600401612a9896959493929190615431565b6020604051808303816000875af1158015612ab7573d6000803e3d6000fd5b505050506040513d601f19601f82011682018060405250810190612adb9190614307565b7bffffffffffffffffffffffffffffffffffffffffffffffffffffffff191614612b32565b600073ffffffffffffffffffffffffffffffffffffffff168573ffffffffffffffffffffffffffffffffffffffff1614155b612b71576040517f08c379a0000000000000000000000000000000000000000000000000000000008152600401612b6890614380565b60405180910390fd5b505050505050565b60076020528060005260406000206000915090505481565b43821115612bd4576040517f08c379a0000000000000000000000000000000000000000000000000000000008152600401612bcb906154ff565b60405180910390fd5b60046000828152602001908152602001600020600301548403612c2c576040517f08c379a0000000000000000000000000000000000000000000000000000000008152600401612c239061556b565b60405180910390fd5b6004600082815260200190815260200160002060020160009054906101000a900473ffffffffffffffffffffffffffffffffffffffff1673ffffffffffffffffffffffffffffffffffffffff168373ffffffffffffffffffffffffffffffffffffffff1603612cd0576040517f08c379a0000000000000000000000000000000000000000000000000000000008152600401612cc7906155d7565b60405180910390fd5b50505050565b6000670de0b6b3a7640000821115612d135766038d7ea4c68000670de0b6b3a764000083612d04919061412a565b612d0e9190614d4c565b612d16565b60005b9050919050565b816000808673ffffffffffffffffffffffffffffffffffffffff1673ffffffffffffffffffffffffffffffffffffffff16815260200190815260200160002060008581526020019081526020016000206000828254612d7c919061415e565b925050819055508373ffffffffffffffffffffffffffffffffffffffff16600073ffffffffffffffffffffffffffffffffffffffff163373ffffffffffffffffffffffffffffffffffffffff167fc3d58168c5ae7397731d063d5bbf3d657854427343f4c083240f7aacaa2d0f628686604051612dfa92919061530a565b60405180910390a460008473ffffffffffffffffffffffffffffffffffffffff163b14612ef25763f23a6e6160e01b7bffffffffffffffffffffffffffffffffffffffffffffffffffffffff19168473ffffffffffffffffffffffffffffffffffffffff1663f23a6e613360008787876040518663ffffffff1660e01b8152600401612e8a959493929190615630565b6020604051808303816000875af1158015612ea9573d6000803e3d6000fd5b505050506040513d601f19601f82011682018060405250810190612ecd9190614307565b7bffffffffffffffffffffffffffffffffffffffffffffffffffffffff191614612f24565b600073ffffffffffffffffffffffffffffffffffffffff168473ffffffffffffffffffffffffffffffffffffffff1614155b612f63576040517f08c379a0000000000000000000000000000000000000000000000000000000008152600401612f5a90614380565b60405180910390fd5b50505050565b806000808573ffffffffffffffffffffffffffffffffffffffff1673ffffffffffffffffffffffffffffffffffffffff16815260200190815260200160002060008481526020019081526020016000206000828254612fc8919061412a565b92505081905550600073ffffffffffffffffffffffffffffffffffffffff168373ffffffffffffffffffffffffffffffffffffffff163373ffffffffffffffffffffffffffffffffffffffff167fc3d58168c5ae7397731d063d5bbf3d657854427343f4c083240f7aacaa2d0f62858560405161304692919061530a565b60405180910390a4505050565b6000604051905090565b600080fd5b600080fd5b600073ffffffffffffffffffffffffffffffffffffffff82169050919050565b600061309282613067565b9050919050565b6130a281613087565b81146130ad57600080fd5b50565b6000813590506130bf81613099565b92915050565b6000819050919050565b6130d8816130c5565b81146130e357600080fd5b50565b6000813590506130f5816130cf565b92915050565b600080604083850312156131125761311161305d565b5b6000613120858286016130b0565b9250506020613131858286016130e6565b9150509250929050565b613144816130c5565b82525050565b600060208201905061315f600083018461313b565b92915050565b60007fffffffff0000000000000000000000000000000000000000000000000000000082169050919050565b61319a81613165565b81146131a557600080fd5b50565b6000813590506131b781613191565b92915050565b6000602082840312156131d3576131d261305d565b5b60006131e1848285016131a8565b91505092915050565b60008115159050919050565b6131ff816131ea565b82525050565b600060208201905061321a60008301846131f6565b92915050565b600067ffffffffffffffff82169050919050565b61323d81613220565b811461324857600080fd5b50565b60008135905061325a81613234565b92915050565b6000602082840312156132765761327561305d565b5b60006132848482850161324b565b91505092915050565b61329681613220565b82525050565b60006020820190506132b1600083018461328d565b92915050565b6000602082840312156132cd576132cc61305d565b5b60006132db848285016130e6565b91505092915050565b6000819050919050565b6132f7816132e4565b82525050565b600060208201905061331260008301846132ee565b92915050565b600081519050919050565b600082825260208201905092915050565b60005b83811015613352578082015181840152602081019050613337565b60008484015250505050565b6000601f19601f8301169050919050565b600061337a82613318565b6133848185613323565b9350613394818560208601613334565b61339d8161335e565b840191505092915050565b6133b181613087565b82525050565b600060a0820190506133cc600083018861313b565b81810360208301526133de818761336f565b90506133ed60408301866133a8565b6133fa60608301856131f6565b61340760808301846132ee565b9695505050505050565b6000602082019050818103600083015261342b818461336f565b905092915050565b600080fd5b600080fd5b600080fd5b60008083601f84011261345857613457613433565b5b8235905067ffffffffffffffff81111561347557613474613438565b5b6020830191508360208202830111156134915761349061343d565b5b9250929050565b6000806000806000608086880312156134b4576134b361305d565b5b60006134c2888289016130e6565b95505060206134d3888289016130b0565b94505060406134e4888289016130e6565b935050606086013567ffffffffffffffff81111561350557613504613062565b5b61351188828901613442565b92509250509295509295909350565b60008083601f84011261353657613535613433565b5b8235905067ffffffffffffffff81111561355357613552613438565b5b60208301915083602082028301111561356f5761356e61343d565b5b9250929050565b60008083601f84011261358c5761358b613433565b5b8235905067ffffffffffffffff8111156135a9576135a8613438565b5b6020830191508360018202830111156135c5576135c461343d565b5b9250929050565b60008060008060008060008060a0898b0312156135ec576135eb61305d565b5b60006135fa8b828c016130b0565b985050602061360b8b828c016130b0565b975050604089013567ffffffffffffffff81111561362c5761362b613062565b5b6136388b828c01613520565b9650965050606089013567ffffffffffffffff81111561365b5761365a613062565b5b6136678b828c01613520565b9450945050608089013567ffffffffffffffff81111561368a57613689613062565b5b6136968b828c01613576565b92509250509295985092959890939650565b6000806000806000608086880312156136c4576136c361305d565b5b60006136d2888289016130b0565b95505060206136e38882890161324b565b94505060406136f48882890161324b565b935050606086013567ffffffffffffffff81111561371557613714613062565b5b61372188828901613576565b92509250509295509295909350565b600061373b82613087565b9050919050565b61374b81613730565b811461375657600080fd5b50565b60008135905061376881613742565b92915050565b600080600080600080600060c0888a03121561378d5761378c61305d565b5b600061379b8a828b016130b0565b97505060206137ac8a828b0161324b565b96505060406137bd8a828b0161324b565b95505060606137ce8a828b01613759565b94505060806137df8a828b016130e6565b93505060a088013567ffffffffffffffff811115613800576137ff613062565b5b61380c8a828b01613576565b925092505092959891949750929550565b6000602082840312156138335761383261305d565b5b6000613841848285016130b0565b91505092915050565b600081519050919050565b600082825260208201905092915050565b6000819050602082019050919050565b61387f816130c5565b82525050565b60006138918383613876565b60208301905092915050565b6000602082019050919050565b60006138b58261384a565b6138bf8185613855565b93506138ca83613866565b8060005b838110156138fb5781516138e28882613885565b97506138ed8361389d565b9250506001810190506138ce565b5085935050505092915050565b6000602082019050818103600083015261392281846138aa565b905092915050565b60008083601f8401126139405761393f613433565b5b8235905067ffffffffffffffff81111561395d5761395c613438565b5b6020830191508360208202830111156139795761397861343d565b5b9250929050565b6000806000806040858703121561399a5761399961305d565b5b600085013567ffffffffffffffff8111156139b8576139b7613062565b5b6139c48782880161392a565b9450945050602085013567ffffffffffffffff8111156139e7576139e6613062565b5b6139f387828801613520565b925092505092959194509250565b613a0a816132e4565b8114613a1557600080fd5b50565b600081359050613a2781613a01565b92915050565b60008060008060808587031215613a4757613a4661305d565b5b6000613a5587828801613a18565b9450506020613a66878288016130b0565b9350506040613a77878288016130e6565b9250506060613a88878288016130e6565b91505092959194509250565b60008060408385031215613aab57613aaa61305d565b5b6000613ab9858286016130e6565b9250506020613aca858286016130e6565b9150509250929050565b60008060408385031215613aeb57613aea61305d565b5b6000613af9858286016130e6565b9250506020613b0a858286016130b0565b9150509250929050565b6000602082019050613b2960008301846133a8565b92915050565b613b38816131ea565b8114613b4357600080fd5b50565b600081359050613b5581613b2f565b92915050565b60008060408385031215613b7257613b7161305d565b5b6000613b80858286016130b0565b9250506020613b9185828601613b46565b9150509250929050565b6000819050919050565b6000613bc0613bbb613bb684613067565b613b9b565b613067565b9050919050565b6000613bd282613ba5565b9050919050565b6000613be482613bc7565b9050919050565b613bf481613bd9565b82525050565b6000602082019050613c0f6000830184613beb565b92915050565b60008060008060608587031215613c2f57613c2e61305d565b5b6000613c3d878288016130e6565b9450506020613c4e878288016130e6565b935050604085013567ffffffffffffffff811115613c6f57613c6e613062565b5b613c7b87828801613442565b925092505092959194509250565b60008083601f840112613c9f57613c9e613433565b5b8235905067ffffffffffffffff811115613cbc57613cbb613438565b5b602083019150836001820283011115613cd857613cd761343d565b5b9250929050565b60008060208385031215613cf657613cf561305d565b5b600083013567ffffffffffffffff811115613d1457613d13613062565b5b613d2085828601613c89565b92509250509250929050565b60008060408385031215613d4357613d4261305d565b5b6000613d51858286016130b0565b9250506020613d62858286016130b0565b9150509250929050565b60008060408385031215613d8357613d8261305d565b5b6000613d91858286016130e6565b9250506020613da285828601613a18565b9150509250929050565b60008060008060008060a08789031215613dc957613dc861305d565b5b6000613dd789828a016130b0565b9650506020613de889828a016130b0565b9550506040613df989828a016130e6565b9450506060613e0a89828a016130e6565b935050608087013567ffffffffffffffff811115613e2b57613e2a613062565b5b613e3789828a01613576565b92509250509295509295509295565b7f4b657920646f6573206e6f742065786973740000000000000000000000000000600082015250565b6000613e7c601283613323565b9150613e8782613e46565b602082019050919050565b60006020820190508181036000830152613eab81613e6f565b9050919050565b7f4e487b7100000000000000000000000000000000000000000000000000000000600052602260045260246000fd5b60006002820490506001821680613ef957607f821691505b602082108103613f0c57613f0b613eb2565b5b50919050565b60008160601b9050919050565b6000613f2a82613f12565b9050919050565b6000613f3c82613f1f565b9050919050565b613f54613f4f82613087565b613f31565b82525050565b6000819050919050565b613f75613f70826130c5565b613f5a565b82525050565b6000613f878285613f43565b601482019150613f978284613f64565b6020820191508190509392505050565b7f4e487b7100000000000000000000000000000000000000000000000000000000600052603260045260246000fd5b6000819050919050565b613ff1613fec826132e4565b613fd6565b82525050565b60006140038285613fe0565b6020820191506140138284613fe0565b6020820191508190509392505050565b7f4c454e4754485f4d49534d415443480000000000000000000000000000000000600082015250565b6000614059600f83613323565b915061406482614023565b602082019050919050565b600060208201905081810360008301526140888161404c565b9050919050565b7f4e4f545f415554484f52495a4544000000000000000000000000000000000000600082015250565b60006140c5600e83613323565b91506140d08261408f565b602082019050919050565b600060208201905081810360008301526140f4816140b8565b9050919050565b7f4e487b7100000000000000000000000000000000000000000000000000000000600052601160045260246000fd5b6000614135826130c5565b9150614140836130c5565b9250828203905081811115614158576141576140fb565b5b92915050565b6000614169826130c5565b9150614174836130c5565b925082820190508082111561418c5761418b6140fb565b5b92915050565b600080fd5b82818337505050565b60006141ac8385613855565b93507f07ffffffffffffffffffffffffffffffffffffffffffffffffffffffffffffff8311156141df576141de614192565b5b6020830292506141f0838584614197565b82840190509392505050565b600060408201905081810360008301526142178186886141a0565b9050818103602083015261422c8184866141a0565b905095945050505050565b600082825260208201905092915050565b82818337600083830152505050565b60006142638385614237565b9350614270838584614248565b6142798361335e565b840190509392505050565b600060a082019050614299600083018b6133a8565b6142a6602083018a6133a8565b81810360408301526142b981888a6141a0565b905081810360608301526142ce8186886141a0565b905081810360808301526142e3818486614257565b90509998505050505050505050565b60008151905061430181613191565b92915050565b60006020828403121561431d5761431c61305d565b5b600061432b848285016142f2565b91505092915050565b7f554e534146455f524543495049454e5400000000000000000000000000000000600082015250565b600061436a601083613323565b915061437582614334565b602082019050919050565b600060208201905081810360008301526143998161435d565b9050919050565b600080fd5b7f4e487b7100000000000000000000000000000000000000000000000000000000600052604160045260246000fd5b6143dd8261335e565b810181811067ffffffffffffffff821117156143fc576143fb6143a5565b5b80604052505050565b600061440f613053565b905061441b82826143d4565b919050565b600080fd5b60008151905061443481613234565b92915050565b60008151905061444981613099565b92915050565b6004811061445c57600080fd5b50565b60008151905061446e8161444f565b92915050565b60008151905061448381613b2f565b92915050565b600067ffffffffffffffff8211156144a4576144a36143a5565b5b602082029050602081019050919050565b600080fd5b600067ffffffffffffffff8211156144d5576144d46143a5565b5b6144de8261335e565b9050602081019050919050565b60006144fe6144f9846144ba565b614405565b90508281526020810184848401111561451a576145196144b5565b5b614525848285613334565b509392505050565b600082601f83011261454257614541613433565b5b81516145528482602086016144eb565b91505092915050565b600061456e61456984614489565b614405565b905080838252602082019050602084028301858111156145915761459061343d565b5b835b818110156145d857805167ffffffffffffffff8111156145b6576145b5613433565b5b8086016145c3898261452d565b85526020850194505050602081019050614593565b5050509392505050565b600082601f8301126145f7576145f6613433565b5b815161460784826020860161455b565b91505092915050565b60006101408284031215614627576146266143a0565b5b614632610140614405565b9050600061464284828501614425565b600083015250602061465684828501614425565b602083015250604061466a84828501614425565b604083015250606061467e84828501614425565b60608301525060806146928482850161443a565b60808301525060a06146a684828501614425565b60a08301525060c06146ba8482850161445f565b60c08301525060e06146ce84828501614474565b60e08301525061010082015167ffffffffffffffff8111156146f3576146f2614420565b5b6146ff848285016145e2565b6101008301525061012082015167ffffffffffffffff81111561472557614724614420565b5b6147318482850161452d565b6101208301525092915050565b6000602082840312156147545761475361305d565b5b600082015167ffffffffffffffff81111561477257614771613062565b5b61477e84828501614610565b91505092915050565b60008151905061479681613a01565b92915050565b60006147a782613067565b9050919050565b6147b78161479c565b81146147c257600080fd5b50565b6000815190506147d4816147ae565b92915050565b6000815190506147e9816130cf565b92915050565b600080600080608085870312156148095761480861305d565b5b600061481787828801614787565b9450506020614828878288016147c5565b9350506040614839878288016147da565b925050606061484a878288016147da565b91505092959194509250565b7f4e487b7100000000000000000000000000000000000000000000000000000000600052602160045260246000fd5b600060808201905061489a60008301876132ee565b6148a760208301866133a8565b6148b4604083018561313b565b6148c1606083018461313b565b95945050505050565b6148d381613220565b82525050565b6148e281613087565b82525050565b600481106148f9576148f8614856565b5b50565b600081905061490a826148e8565b919050565b600061491a826148fc565b9050919050565b61492a8161490f565b82525050565b614939816131ea565b82525050565b600081519050919050565b600082825260208201905092915050565b6000819050602082019050919050565b600081519050919050565b600082825260208201905092915050565b60006149928261496b565b61499c8185614976565b93506149ac818560208601613334565b6149b58161335e565b840191505092915050565b60006149cc8383614987565b905092915050565b6000602082019050919050565b60006149ec8261493f565b6149f6818561494a565b935083602082028501614a088561495b565b8060005b85811015614a445784840389528151614a2585826149c0565b9450614a30836149d4565b925060208a01995050600181019050614a0c565b50829750879550505050505092915050565b600061014083016000830151614a6f60008601826148ca565b506020830151614a8260208601826148ca565b506040830151614a9560408601826148ca565b506060830151614aa860608601826148ca565b506080830151614abb60808601826148d9565b5060a0830151614ace60a08601826148ca565b5060c0830151614ae160c0860182614921565b5060e0830151614af460e0860182614930565b50610100830151848203610100860152614b0e82826149e1565b915050610120830151848203610120860152614b2a8282614987565b9150508091505092915050565b50565b6000614b47600083613323565b9150614b5282614b37565b600082019050919050565b6000614b6a600083614237565b9150614b7582614b37565b600082019050919050565b60006080820190508181036000830152614b9a8184614a56565b90508181036020830152614bad81614b3a565b90508181036040830152614bc081614b5d565b90508181036060830152614bd381614b5d565b905092915050565b600060208284031215614bf157614bf061305d565b5b6000614bff84828501614425565b91505092915050565b7f4b657920706f6f6c206973206e6f74206c697175696461746564000000000000600082015250565b6000614c3e601a83613323565b9150614c4982614c08565b602082019050919050565b60006020820190508181036000830152614c6d81614c31565b9050919050565b7f416c726561647920636c61696d65640000000000000000000000000000000000600082015250565b6000614caa600f83613323565b9150614cb582614c74565b602082019050919050565b60006020820190508181036000830152614cd981614c9d565b9050919050565b7f496e76616c6964206d65726b6c652070726f6f66000000000000000000000000600082015250565b6000614d16601483613323565b9150614d2182614ce0565b602082019050919050565b60006020820190508181036000830152614d4581614d09565b9050919050565b6000614d57826130c5565b9150614d62836130c5565b9250828202614d70816130c5565b91508282048414831517614d8757614d866140fb565b5b5092915050565b7f4e487b7100000000000000000000000000000000000000000000000000000000600052601260045260246000fd5b6000614dc8826130c5565b9150614dd3836130c5565b925082614de357614de2614d8e565b5b828204905092915050565b600081905092915050565b6000614e06600083614dee565b9150614e1182614b37565b600082019050919050565b6000614e2782614df9565b9150819050919050565b7f4661696c656420746f2073656e64204574686572000000000000000000000000600082015250565b6000614e67601483613323565b9150614e7282614e31565b602082019050919050565b60006020820190508181036000830152614e9681614e5a565b9050919050565b7f4e6f74206f776e65720000000000000000000000000000000000000000000000600082015250565b6000614ed3600983613323565b9150614ede82614e9d565b602082019050919050565b60006020820190508181036000830152614f0281614ec6565b9050919050565b60008190508160005260206000209050919050565b60006020601f8301049050919050565b600082821b905092915050565b600060088302614f6b7fffffffffffffffffffffffffffffffffffffffffffffffffffffffffffffffff82614f2e565b614f758683614f2e565b95508019841693508086168417925050509392505050565b6000614fa8614fa3614f9e846130c5565b613b9b565b6130c5565b9050919050565b6000819050919050565b614fc283614f8d565b614fd6614fce82614faf565b848454614f3b565b825550505050565b600090565b614feb614fde565b614ff6818484614fb9565b505050565b5b8181101561501a5761500f600082614fe3565b600181019050614ffc565b5050565b601f82111561505f5761503081614f09565b61503984614f1e565b81016020851015615048578190505b61505c61505485614f1e565b830182614ffb565b50505b505050565b600082821c905092915050565b600061508260001984600802615064565b1980831691505092915050565b600061509b8383615071565b9150826002028217905092915050565b6150b482613318565b67ffffffffffffffff8111156150cd576150cc6143a5565b5b6150d78254613ee1565b6150e282828561501e565b600060209050601f8311600181146151155760008415615103578287015190505b61510d858261508f565b865550615175565b601f19841661512386614f09565b60005b8281101561514b57848901518255600182019150602085019450602081019050615126565b868310156151685784890151615164601f891682615071565b8355505b6001600288020188555050505b505050505050565b60006151898385613323565b9350615196838584614248565b61519f8361335e565b840190509392505050565b600060208201905081810360008301526151c581848661517d565b90509392505050565b6000819050919050565b60006151f36151ee6151e9846151ce565b613b9b565b6130c5565b9050919050565b615203816151d8565b82525050565b600060408201905061521e600083018561313b565b61522b60208301846151fa565b9392505050565b7f4b657920706f6f6c206973206c69717569646174656400000000000000000000600082015250565b6000615268601683613323565b915061527382615232565b602082019050919050565b600060208201905081810360008301526152978161525b565b9050919050565b7f496e73756666696369656e74207061796d656e74000000000000000000000000600082015250565b60006152d4601483613323565b91506152df8261529e565b602082019050919050565b60006020820190508181036000830152615303816152c7565b9050919050565b600060408201905061531f600083018561313b565b61532c602083018461313b565b9392505050565b7f496e73756666696369656e742062616c616e6365000000000000000000000000600082015250565b6000615369601483613323565b915061537482615333565b602082019050919050565b600060208201905081810360008301526153988161535c565b9050919050565b7f537570706c79206e6f7420616c6c6f7765642062656c6f77207072656d696e7460008201527f20616d6f756e7400000000000000000000000000000000000000000000000000602082015250565b60006153fb602783613323565b91506154068261539f565b604082019050919050565b6000602082019050818103600083015261542a816153ee565b9050919050565b600060a08201905061544660008301896133a8565b61545360208301886133a8565b615460604083018761313b565b61546d606083018661313b565b8181036080830152615480818486614257565b9050979650505050505050565b7f426c6f636b206e756d6265722063616e6e6f7420626520696e2074686520667560008201527f7475726500000000000000000000000000000000000000000000000000000000602082015250565b60006154e9602483613323565b91506154f48261548d565b604082019050919050565b60006020820190508181036000830152615518816154dc565b9050919050565b7f496e76616c6964206d65726b6c6520726f6f7400000000000000000000000000600082015250565b6000615555601383613323565b91506155608261551f565b602082019050919050565b6000602082019050818103600083015261558481615548565b9050919050565b7f496e76616c696420697373756572000000000000000000000000000000000000600082015250565b60006155c1600e83613323565b91506155cc8261558b565b602082019050919050565b600060208201905081810360008301526155f0816155b4565b9050919050565b60006156028261496b565b61560c8185614237565b935061561c818560208601613334565b6156258161335e565b840191505092915050565b600060a08201905061564560008301886133a8565b61565260208301876133a8565b61565f604083018661313b565b61566c606083018561313b565b818103608083015261567e81846155f7565b9050969550505050505056fea2646970667358221220816fffc9cd9c6a41625d4d7024f2db2a8a0767322ec2b16785e96acdd981f84c64736f6c634300081b0033",
  "linkReferences": {},
  "deployedLinkReferences": {}
}