{"contracts/Aegis.sol":{"Aegis":{"abi":[{"inputs":[],"stateMutability":"nonpayable","type":"constructor"},{"inputs":[],"name":"UnsupportedOperation","type":"error"},{"anonymous":false,"inputs":[{"indexed":true,"internalType":"address","name":"owner","type":"address"},{"indexed":true,"internalType":"address","name":"operator","type":"address"},{"indexed":false,"internalType":"bool","name":"approved","type":"bool"}],"name":"ApprovalForAll","type":"event"},{"anonymous":false,"inputs":[{"indexed":true,"internalType":"address","name":"issuer","type":"address"},{"indexed":false,"internalType":"uint256","name":"blockNumber","type":"uint256"},{"indexed":true,"internalType":"uint256","name":"keyId","type":"uint256"},{"indexed":false,"internalType":"bytes32","name":"merkleRoot","type":"bytes32"}],"name":"AttestationVerified","type":"event"},{"anonymous":false,"inputs":[{"indexed":true,"internalType":"uint256","name":"keyId","type":"uint256"},{"indexed":true,"internalType":"address","name":"claimer","type":"address"},{"indexed":false,"internalType":"uint256","name":"amount","type":"uint256"}],"name":"Claimed","type":"event"},{"anonymous":false,"inputs":[{"indexed":true,"internalType":"uint256","name":"keyId","type":"uint256"},{"indexed":true,"internalType":"address","name":"sender","type":"address"},{"indexed":false,"internalType":"string","name":"name","type":"string"}],"name":"Create","type":"event"},{"anonymous":false,"inputs":[{"indexed":true,"internalType":"uint256","name":"keyId","type":"uint256"},{"indexed":true,"internalType":"address","name":"sender","type":"address"},{"indexed":false,"internalType":"bool","name":"status","type":"bool"}],"name":"Liquidate","type":"event"},{"anonymous":false,"inputs":[{"indexed":true,"internalType":"uint256","name":"keyId","type":"uint256"},{"indexed":false,"internalType":"bytes32","name":"merkleRoot","type":"bytes32"}],"name":"MerkleRootUpdated","type":"event"},{"anonymous":false,"inputs":[{"indexed":false,"internalType":"bool","name":"status","type":"bool"}],"name":"SignProtocolStatusUpdated","type":"event"},{"anonymous":false,"inputs":[{"indexed":true,"internalType":"enum Aegis.TradeType","name":"tradeType","type":"uint8"},{"indexed":true,"internalType":"uint256","name":"keyId","type":"uint256"},{"indexed":true,"internalType":"address","name":"sender","type":"address"},{"indexed":false,"internalType":"uint256","name":"tokenAmount","type":"uint256"},{"indexed":false,"internalType":"uint256","name":"ethAmount","type":"uint256"}],"name":"Trade","type":"event"},{"anonymous":false,"inputs":[{"indexed":true,"internalType":"address","name":"operator","type":"address"},{"indexed":true,"internalType":"address","name":"from","type":"address"},{"indexed":true,"internalType":"address","name":"to","type":"address"},{"indexed":false,"internalType":"uint256[]","name":"ids","type":"uint256[]"},{"indexed":false,"internalType":"uint256[]","name":"amounts","type":"uint256[]"}],"name":"TransferBatch","type":"event"},{"anonymous":false,"inputs":[{"indexed":true,"internalType":"address","name":"operator","type":"address"},{"indexed":true,"internalType":"address","name":"from","type":"address"},{"indexed":true,"internalType":"address","name":"to","type":"address"},{"indexed":false,"internalType":"uint256","name":"id","type":"uint256"},{"indexed":false,"internalType":"uint256","name":"amount","type":"uint256"}],"name":"TransferSingle","type":"event"},{"anonymous":false,"inputs":[{"indexed":false,"internalType":"string","name":"value","type":"string"},{"indexed":true,"internalType":"uint256","name":"id","type":"uint256"}],"name":"URI","type":"event"},{"inputs":[],"name":"CLAIM_DENOMINATOR","outputs":[{"internalType":"uint256","name":"","type":"uint256"}],"stateMutability":"view","type":"function"},{"inputs":[],"name":"CLAIM_PERCENT","outputs":[{"internalType":"uint256","name":"","type":"uint256"}],"stateMutability":"view","type":"function"},{"inputs":[],"name":"CREATOR_PREMINT","outputs":[{"internalType":"uint256","name":"","type":"uint256"}],"stateMutability":"view","type":"function"},{"inputs":[{"internalType":"bytes32","name":"merkleRoot","type":"bytes32"},{"internalType":"address","name":"account","type":"address"},{"internalType":"uint256","name":"blockNumber","type":"uint256"},{"internalType":"uint256","name":"keyId","type":"uint256"}],"name":"_attest","outputs":[{"internalType":"uint64","name":"","type":"uint64"}],"stateMutability":"nonpayable","type":"function"},{"inputs":[{"internalType":"address","name":"","type":"address"},{"internalType":"uint256","name":"","type":"uint256"}],"name":"balanceOf","outputs":[{"internalType":"uint256","name":"","type":"uint256"}],"stateMutability":"view","type":"function"},{"inputs":[{"internalType":"address[]","name":"owners","type":"address[]"},{"internalType":"uint256[]","name":"ids","type":"uint256[]"}],"name":"balanceOfBatch","outputs":[{"internalType":"uint256[]","name":"balances","type":"uint256[]"}],"stateMutability":"view","type":"function"},{"inputs":[{"internalType":"uint256","name":"keyId","type":"uint256"},{"internalType":"uint256","name":"amount","type":"uint256"}],"name":"buy","outputs":[],"stateMutability":"payable","type":"function"},{"inputs":[{"internalType":"uint256","name":"keyId","type":"uint256"},{"internalType":"uint256","name":"amount","type":"uint256"},{"internalType":"bytes32[]","name":"merkleProof","type":"bytes32[]"}],"name":"claim","outputs":[],"stateMutability":"nonpayable","type":"function"},{"inputs":[{"internalType":"string","name":"name","type":"string"}],"name":"create","outputs":[],"stateMutability":"nonpayable","type":"function"},{"inputs":[{"internalType":"address","name":"attester","type":"address"},{"internalType":"uint64","name":"","type":"uint64"},{"internalType":"uint64","name":"attestationId","type":"uint64"},{"internalType":"bytes","name":"","type":"bytes"}],"name":"didReceiveAttestation","outputs":[],"stateMutability":"payable","type":"function"},{"inputs":[{"internalType":"address","name":"","type":"address"},{"internalType":"uint64","name":"","type":"uint64"},{"internalType":"uint64","name":"","type":"uint64"},{"internalType":"contract IERC20","name":"","type":"address"},{"internalType":"uint256","name":"","type":"uint256"},{"internalType":"bytes","name":"","type":"bytes"}],"name":"didReceiveAttestation","outputs":[],"stateMutability":"pure","type":"function"},{"inputs":[{"internalType":"address","name":"","type":"address"},{"internalType":"uint64","name":"","type":"uint64"},{"internalType":"uint64","name":"","type":"uint64"},{"internalType":"bytes","name":"","type":"bytes"}],"name":"didReceiveRevocation","outputs":[],"stateMutability":"payable","type":"function"},{"inputs":[{"internalType":"address","name":"","type":"address"},{"internalType":"uint64","name":"","type":"uint64"},{"internalType":"uint64","name":"","type":"uint64"},{"internalType":"contract IERC20","name":"","type":"address"},{"internalType":"uint256","name":"","type":"uint256"},{"internalType":"bytes","name":"","type":"bytes"}],"name":"didReceiveRevocation","outputs":[],"stateMutability":"pure","type":"function"},{"inputs":[{"internalType":"uint256","name":"keyId","type":"uint256"},{"internalType":"uint256","name":"amount","type":"uint256"}],"name":"getBuyPrice","outputs":[{"internalType":"uint256","name":"","type":"uint256"}],"stateMutability":"view","type":"function"},{"inputs":[{"internalType":"address","name":"addr","type":"address"}],"name":"getKeysByAddress","outputs":[{"internalType":"uint256[]","name":"","type":"uint256[]"}],"stateMutability":"view","type":"function"},{"inputs":[{"internalType":"uint256","name":"keyId","type":"uint256"}],"name":"getMerkleRoot","outputs":[{"internalType":"bytes32","name":"","type":"bytes32"}],"stateMutability":"view","type":"function"},{"inputs":[{"internalType":"uint256","name":"supply","type":"uint256"},{"internalType":"uint256","name":"amount","type":"uint256"}],"name":"getPrice","outputs":[{"internalType":"uint256","name":"","type":"uint256"}],"stateMutability":"pure","type":"function"},{"inputs":[{"internalType":"uint256","name":"keyId","type":"uint256"},{"internalType":"uint256","name":"amount","type":"uint256"}],"name":"getSellPrice","outputs":[{"internalType":"uint256","name":"","type":"uint256"}],"stateMutability":"view","type":"function"},{"inputs":[{"internalType":"uint256","name":"","type":"uint256"},{"internalType":"address","name":"","type":"address"}],"name":"hasClaimed","outputs":[{"internalType":"bool","name":"","type":"bool"}],"stateMutability":"view","type":"function"},{"inputs":[{"internalType":"address","name":"","type":"address"},{"internalType":"address","name":"","type":"address"}],"name":"isApprovedForAll","outputs":[{"internalType":"bool","name":"","type":"bool"}],"stateMutability":"view","type":"function"},{"inputs":[],"name":"keyIndex","outputs":[{"internalType":"uint256","name":"","type":"uint256"}],"stateMutability":"view","type":"function"},{"inputs":[{"internalType":"uint256","name":"","type":"uint256"}],"name":"keys","outputs":[{"internalType":"uint256","name":"id","type":"uint256"},{"internalType":"string","name":"name","type":"string"},{"internalType":"address","name":"creator","type":"address"},{"internalType":"bool","name":"isLiquidated","type":"bool"},{"internalType":"bytes32","name":"merkleRoot","type":"bytes32"}],"stateMutability":"view","type":"function"},{"inputs":[],"name":"owner","outputs":[{"internalType":"address","name":"","type":"address"}],"stateMutability":"view","type":"function"},{"inputs":[{"internalType":"uint256","name":"","type":"uint256"}],"name":"pool","outputs":[{"internalType":"uint256","name":"","type":"uint256"}],"stateMutability":"view","type":"function"},{"inputs":[{"internalType":"address","name":"from","type":"address"},{"internalType":"address","name":"to","type":"address"},{"internalType":"uint256[]","name":"ids","type":"uint256[]"},{"internalType":"uint256[]","name":"amounts","type":"uint256[]"},{"internalType":"bytes","name":"data","type":"bytes"}],"name":"safeBatchTransferFrom","outputs":[],"stateMutability":"nonpayable","type":"function"},{"inputs":[{"internalType":"address","name":"from","type":"address"},{"internalType":"address","name":"to","type":"address"},{"internalType":"uint256","name":"id","type":"uint256"},{"internalType":"uint256","name":"amount","type":"uint256"},{"internalType":"bytes","name":"data","type":"bytes"}],"name":"safeTransferFrom","outputs":[],"stateMutability":"nonpayable","type":"function"},{"inputs":[],"name":"schemaId","outputs":[{"internalType":"uint64","name":"","type":"uint64"}],"stateMutability":"view","type":"function"},{"inputs":[{"internalType":"uint256","name":"keyId","type":"uint256"},{"internalType":"uint256","name":"amount","type":"uint256"}],"name":"sell","outputs":[],"stateMutability":"nonpayable","type":"function"},{"inputs":[{"internalType":"address","name":"operator","type":"address"},{"internalType":"bool","name":"approved","type":"bool"}],"name":"setApprovalForAll","outputs":[],"stateMutability":"nonpayable","type":"function"},{"inputs":[{"internalType":"address","name":"instance","type":"address"}],"name":"setSPInstance","outputs":[],"stateMutability":"nonpayable","type":"function"},{"inputs":[{"internalType":"uint64","name":"schemaId_","type":"uint64"}],"name":"setSchemaID","outputs":[],"stateMutability":"nonpayable","type":"function"},{"inputs":[{"internalType":"bool","name":"status","type":"bool"}],"name":"setSignProtocolStatus","outputs":[],"stateMutability":"nonpayable","type":"function"},{"inputs":[],"name":"signProtocolEnabled","outputs":[{"internalType":"bool","name":"","type":"bool"}],"stateMutability":"view","type":"function"},{"inputs":[],"name":"spInstance","outputs":[{"internalType":"contract ISP","name":"","type":"address"}],"stateMutability":"view","type":"function"},{"inputs":[{"internalType":"bytes4","name":"interfaceId","type":"bytes4"}],"name":"supportsInterface","outputs":[{"internalType":"bool","name":"","type":"bool"}],"stateMutability":"view","type":"function"},{"inputs":[{"internalType":"uint256","name":"keyId","type":"uint256"}],"name":"toggleLiquidation","outputs":[],"stateMutability":"nonpayable","type":"function"},{"inputs":[{"internalType":"uint256","name":"","type":"uint256"}],"name":"totalSupply","outputs":[{"internalType":"uint256","name":"","type":"uint256"}],"stateMutability":"view","type":"function"},{"inputs":[{"internalType":"uint256","name":"keyId","type":"uint256"},{"internalType":"bytes32","name":"merkleRoot","type":"bytes32"}],"name":"updateMerkleRoot","outputs":[],"stateMutability":"nonpayable","type":"function"},{"inputs":[{"internalType":"uint256","name":"id","type":"uint256"}],"name":"uri","outputs":[{"internalType":"string","name":"","type":"string"}],"stateMutability":"view","type":"function"},{"inputs":[{"internalType":"address","name":"","type":"address"},{"internalType":"uint256","name":"","type":"uint256"}],"name":"userKeys","outputs":[{"internalType":"uint256","name":"","type":"uint256"}],"stateMutability":"view","type":"function"},{"inputs":[{"internalType":"uint256","name":"keyId","type":"uint256"},{"internalType":"address","name":"account","type":"address"},{"internalType":"uint256","name":"amount","type":"uint256"},{"internalType":"bytes32[]","name":"merkleProof","type":"bytes32[]"}],"name":"verifyMerkle","outputs":[{"internalType":"bool","name":"","type":"bool"}],"stateMutability":"view","type":"function"}],"evm":{"bytecode":{"linkReferences":{},"object":"6080604052348015600f57600080fd5b5033600260006101000a81548173ffffffffffffffffffffffffffffffffffffffff021916908373ffffffffffffffffffffffffffffffffffffffff16021790555060006009601c6101000a81548160ff0219169083151502179055506155548061007b6000396000f3fe6080604052600436106102455760003560e01c80638da5cb5b11610139578063c23c8b03116100b6578063e830b5c71161007a578063e830b5c7146108fe578063e985e9c514610927578063f1e3311514610964578063f242432a1461098d578063fe313112146109b6578063fe6cb064146109f357610245565b8063c23c8b0314610849578063d671693814610872578063d6febde81461089d578063d79875eb146108b9578063e33361f4146108e257610245565b8063a8c5dc33116100fd578063a8c5dc3314610752578063ae0b51df1461077d578063b6a46b3b146107a6578063bd85b039146107cf578063c157253d1461080c57610245565b80638da5cb5b1461065b5780638e9d660f1461068657806393990f7a146106af5780639477d85d146106ec578063a22cb4651461072957610245565b80633398b4ed116101c75780634fccfb671161018b5780634fccfb671461054e57806358074d8b1461058b5780635cf4ee91146105b65780637ffb25ac146105f3578063873f6f9e1461061e57610245565b80633398b4ed146104645780634466507a146104805780634d7b31d7146104a95780634d8cfcd4146104d45780634e1273f41461051157610245565b80630cb6aaf11161020e5780630cb6aaf1146103555780630e89341c146103965780631b7a1bbe146103d35780632741a8c5146104105780632eb2c2d61461043b57610245565b8062fdd58e1461024a57806301ffc9a71461028757806305ca8ee3146102c4578063075b1a09146102ed5780630aab8ba514610318575b600080fd5b34801561025657600080fd5b50610271600480360381019061026c91906130c7565b610a1c565b60405161027e9190613116565b60405180910390f35b34801561029357600080fd5b506102ae60048036038101906102a99190613189565b610a41565b6040516102bb91906131d1565b60405180910390f35b3480156102d057600080fd5b506102eb60048036038101906102e6919061322c565b610ad3565b005b3480156102f957600080fd5b50610302610aff565b60405161030f9190613268565b60405180910390f35b34801561032457600080fd5b5061033f600480360381019061033a9190613283565b610b19565b60405161034c91906132c9565b60405180910390f35b34801561036157600080fd5b5061037c60048036038101906103779190613283565b610b7d565b60405161038d959493929190613383565b60405180910390f35b3480156103a257600080fd5b506103bd60048036038101906103b89190613283565b610c68565b6040516103ca91906133dd565b60405180910390f35b3480156103df57600080fd5b506103fa60048036038101906103f59190613464565b610d10565b60405161040791906131d1565b60405180910390f35b34801561041c57600080fd5b50610425610e07565b6040516104329190613116565b60405180910390f35b34801561044757600080fd5b50610462600480360381019061045d9190613598565b610e0d565b005b61047e60048036038101906104799190613674565b611269565b005b34801561048c57600080fd5b506104a760048036038101906104a2919061373a565b611315565b005b3480156104b557600080fd5b506104be611347565b6040516104cb9190613116565b60405180910390f35b3480156104e057600080fd5b506104fb60048036038101906104f691906137e9565b61134d565b60405161050891906138d4565b60405180910390f35b34801561051d57600080fd5b506105386004803603810190610533919061394c565b6113e4565b60405161054591906138d4565b60405180910390f35b34801561055a57600080fd5b50610575600480360381019061057091906139f9565b61154d565b6040516105829190613268565b60405180910390f35b34801561059757600080fd5b506105a061176b565b6040516105ad9190613116565b60405180910390f35b3480156105c257600080fd5b506105dd60048036038101906105d89190613a60565b611771565b6040516105ea9190613116565b60405180910390f35b3480156105ff57600080fd5b506106086117a2565b6040516106159190613116565b60405180910390f35b34801561062a57600080fd5b5061064560048036038101906106409190613aa0565b6117ae565b60405161065291906131d1565b60405180910390f35b34801561066757600080fd5b506106706117dd565b60405161067d9190613ae0565b60405180910390f35b34801561069257600080fd5b506106ad60048036038101906106a891906137e9565b611803565b005b3480156106bb57600080fd5b506106d660048036038101906106d191906130c7565b611847565b6040516106e39190613116565b60405180910390f35b3480156106f857600080fd5b50610713600480360381019061070e9190613a60565b611878565b6040516107209190613116565b60405180910390f35b34801561073557600080fd5b50610750600480360381019061074b9190613b27565b6118aa565b005b34801561075e57600080fd5b506107676119a7565b6040516107749190613bc6565b60405180910390f35b34801561078957600080fd5b506107a4600480360381019061079f9190613be1565b6119cd565b005b3480156107b257600080fd5b506107cd60048036038101906107c89190613cab565b611ce9565b005b3480156107db57600080fd5b506107f660048036038101906107f19190613283565b612040565b6040516108039190613116565b60405180910390f35b34801561081857600080fd5b50610833600480360381019061082e9190613a60565b612058565b6040516108409190613116565b60405180910390f35b34801561085557600080fd5b50610870600480360381019061086b9190613283565b61207f565b005b34801561087e57600080fd5b5061088761216c565b60405161089491906131d1565b60405180910390f35b6108b760048036038101906108b29190613a60565b61217f565b005b3480156108c557600080fd5b506108e060048036038101906108db9190613a60565b612351565b005b6108fc60048036038101906108f79190613674565b612676565b005b34801561090a57600080fd5b506109256004803603810190610920919061373a565b6126a8565b005b34801561093357600080fd5b5061094e60048036038101906109499190613cf8565b6126da565b60405161095b91906131d1565b60405180910390f35b34801561097057600080fd5b5061098b60048036038101906109869190613d38565b612709565b005b34801561099957600080fd5b506109b460048036038101906109af9190613d78565b61283d565b005b3480156109c257600080fd5b506109dd60048036038101906109d89190613283565b612bf0565b6040516109ea9190613116565b60405180910390f35b3480156109ff57600080fd5b50610a1a6004803603810190610a159190613e12565b612c08565b005b6000602052816000526040600020602052806000526040600020600091509150505481565b60006301ffc9a760e01b827bffffffffffffffffffffffffffffffffffffffffffffffffffffffff19161480610a9c575063d9b67a2660e01b827bffffffffffffffffffffffffffffffffffffffffffffffffffffffff1916145b80610acc5750630e89341c60e01b827bffffffffffffffffffffffffffffffffffffffffffffffffffffffff1916145b9050919050565b80600960146101000a81548167ffffffffffffffff021916908367ffffffffffffffff16021790555050565b600960149054906101000a900467ffffffffffffffff1681565b60006003548210610b5f576040517f08c379a0000000000000000000000000000000000000000000000000000000008152600401610b5690613e8b565b60405180910390fd5b60046000838152602001908152602001600020600301549050919050565b6004602052806000526040600020600091509050806000015490806001018054610ba690613eda565b80601f0160208091040260200160405190810160405280929190818152602001828054610bd290613eda565b8015610c1f5780601f10610bf457610100808354040283529160200191610c1f565b820191906000526020600020905b815481529060010190602001808311610c0257829003601f168201915b5050505050908060020160009054906101000a900473ffffffffffffffffffffffffffffffffffffffff16908060020160149054906101000a900460ff16908060030154905085565b6060600460008381526020019081526020016000206001018054610c8b90613eda565b80601f0160208091040260200160405190810160405280929190818152602001828054610cb790613eda565b8015610d045780601f10610cd957610100808354040283529160200191610d04565b820191906000526020600020905b815481529060010190602001808311610ce757829003601f168201915b50505050509050919050565b6000808585604051602001610d26929190613f74565b604051602081830303815290604052805190602001209050600081905060005b85859050811015610de0576000868683818110610d6657610d65613fa0565b5b905060200201359050808311610da6578281604051602001610d89929190613ff0565b604051602081830303815290604052805190602001209250610dd2565b8083604051602001610db9929190613ff0565b6040516020818303038152906040528051906020012092505b508080600101915050610d46565b50600460008981526020019081526020016000206003015481149250505095945050505050565b6103e881565b838390508686905014610e55576040517f08c379a0000000000000000000000000000000000000000000000000000000008152600401610e4c90614068565b60405180910390fd5b8773ffffffffffffffffffffffffffffffffffffffff163373ffffffffffffffffffffffffffffffffffffffff161480610f155750600160008973ffffffffffffffffffffffffffffffffffffffff1673ffffffffffffffffffffffffffffffffffffffff16815260200190815260200160002060003373ffffffffffffffffffffffffffffffffffffffff1673ffffffffffffffffffffffffffffffffffffffff16815260200190815260200160002060009054906101000a900460ff165b610f54576040517f08c379a0000000000000000000000000000000000000000000000000000000008152600401610f4b906140d4565b60405180910390fd5b60008060005b8888905081101561107457888882818110610f7857610f77613fa0565b5b905060200201359250868682818110610f9457610f93613fa0565b5b905060200201359150816000808d73ffffffffffffffffffffffffffffffffffffffff1673ffffffffffffffffffffffffffffffffffffffff16815260200190815260200160002060008581526020019081526020016000206000828254610ffc9190614123565b92505081905550816000808c73ffffffffffffffffffffffffffffffffffffffff1673ffffffffffffffffffffffffffffffffffffffff168152602001908152602001600020600085815260200190815260200160002060008282546110629190614157565b92505081905550806001019050610f5a565b508873ffffffffffffffffffffffffffffffffffffffff168a73ffffffffffffffffffffffffffffffffffffffff163373ffffffffffffffffffffffffffffffffffffffff167f4a39dc06d4c0dbc64b70af90fd698a233a518aa5d07e595d983b8c0526c8f7fb8b8b8b8b6040516110ef94939291906141f5565b60405180910390a460008973ffffffffffffffffffffffffffffffffffffffff163b146111ec5763bc197c8160e01b7bffffffffffffffffffffffffffffffffffffffffffffffffffffffff19168973ffffffffffffffffffffffffffffffffffffffff1663bc197c81338d8c8c8c8c8c8c6040518963ffffffff1660e01b815260040161118498979695949392919061427d565b6020604051808303816000875af11580156111a3573d6000803e3d6000fd5b505050506040513d601f19601f820116820180604052508101906111c79190614300565b7bffffffffffffffffffffffffffffffffffffffffffffffffffffffff19161461121e565b600073ffffffffffffffffffffffffffffffffffffffff168973ffffffffffffffffffffffffffffffffffffffff1614155b61125d576040517f08c379a000000000000000000000000000000000000000000000000000000000815260040161125490614379565b60405180910390fd5b50505050505050505050565b60003373ffffffffffffffffffffffffffffffffffffffff166362252880856040518263ffffffff1660e01b81526004016112a49190613268565b600060405180830381865afa1580156112c1573d6000803e3d6000fd5b505050506040513d6000823e3d601f19601f820116820180604052508101906112ea9190614737565b905061130d8161012001518060200190518101906113089190614795565b612c5c565b505050505050565b6040517f9ba6061b00000000000000000000000000000000000000000000000000000000815260040160405180910390fd5b6103e781565b6060600560008373ffffffffffffffffffffffffffffffffffffffff1673ffffffffffffffffffffffffffffffffffffffff1681526020019081526020016000208054806020026020016040519081016040528092919081815260200182805480156113d857602002820191906000526020600020905b8154815260200190600101908083116113c4575b50505050509050919050565b606082829050858590501461142e576040517f08c379a000000000000000000000000000000000000000000000000000000000815260040161142590614068565b60405180910390fd5b8484905067ffffffffffffffff81111561144b5761144a61439e565b5b6040519080825280602002602001820160405280156114795781602001602082028036833780820191505090505b50905060005b85859050811015611544576000808787848181106114a05761149f613fa0565b5b90506020020160208101906114b591906137e9565b73ffffffffffffffffffffffffffffffffffffffff1673ffffffffffffffffffffffffffffffffffffffff168152602001908152602001600020600085858481811061150457611503613fa0565b5b9050602002013581526020019081526020016000205482828151811061152d5761152c613fa0565b5b60200260200101818152505080600101905061147f565b50949350505050565b600080600167ffffffffffffffff81111561156b5761156a61439e565b5b60405190808252806020026020018201604052801561159e57816020015b60608152602001906001900390816115895790505b509050306040516020016115b29190613ae0565b604051602081830303815290604052816000815181106115d5576115d4613fa0565b5b60200260200101819052506000604051806101400160405280600960149054906101000a900467ffffffffffffffff1667ffffffffffffffff168152602001600067ffffffffffffffff168152602001600067ffffffffffffffff168152602001600067ffffffffffffffff1681526020013073ffffffffffffffffffffffffffffffffffffffff168152602001600067ffffffffffffffff16815260200160006003811115611688576116876147c2565b5b8152602001600015158152602001838152602001866040516020016116ad9190613116565b6040516020818303038152906040528152509050600960009054906101000a900473ffffffffffffffffffffffffffffffffffffffff1673ffffffffffffffffffffffffffffffffffffffff1663b82916cb826040518263ffffffff1660e01b815260040161171c9190614aa7565b6020604051808303816000875af115801561173b573d6000803e3d6000fd5b505050506040513d601f19601f8201168201806040525081019061175f9190614b02565b92505050949350505050565b60035481565b600061177c83612ca2565b611790838561178b9190614157565b612ca2565b61179a9190614123565b905092915050565b670de0b6b3a764000081565b60086020528160005260406000206020528060005260406000206000915091509054906101000a900460ff1681565b600260009054906101000a900473ffffffffffffffffffffffffffffffffffffffff1681565b80600960006101000a81548173ffffffffffffffffffffffffffffffffffffffff021916908373ffffffffffffffffffffffffffffffffffffffff16021790555050565b6005602052816000526040600020818154811061186357600080fd5b90600052602060002001600091509150505481565b60006118a282600660008681526020019081526020016000205461189c9190614123565b83611771565b905092915050565b80600160003373ffffffffffffffffffffffffffffffffffffffff1673ffffffffffffffffffffffffffffffffffffffff16815260200190815260200160002060008473ffffffffffffffffffffffffffffffffffffffff1673ffffffffffffffffffffffffffffffffffffffff16815260200190815260200160002060006101000a81548160ff0219169083151502179055508173ffffffffffffffffffffffffffffffffffffffff163373ffffffffffffffffffffffffffffffffffffffff167f17307eab39ab6107e8899845ad3d59bd9653f200f220920489ca2b5937696c318360405161199b91906131d1565b60405180910390a35050565b600960009054906101000a900473ffffffffffffffffffffffffffffffffffffffff1681565b6003548410611a11576040517f08c379a0000000000000000000000000000000000000000000000000000000008152600401611a0890613e8b565b60405180910390fd5b6004600085815260200190815260200160002060020160149054906101000a900460ff16611a74576040517f08c379a0000000000000000000000000000000000000000000000000000000008152600401611a6b90614b7b565b60405180910390fd5b6008600085815260200190815260200160002060003373ffffffffffffffffffffffffffffffffffffffff1673ffffffffffffffffffffffffffffffffffffffff16815260200190815260200160002060009054906101000a900460ff1615611b12576040517f08c379a0000000000000000000000000000000000000000000000000000000008152600401611b0990614be7565b60405180910390fd5b611b1f8433858585610d10565b611b5e576040517f08c379a0000000000000000000000000000000000000000000000000000000008152600401611b5590614c53565b60405180910390fd5b60006103e86103e785611b719190614c73565b611b7b9190614ce4565b905060016008600087815260200190815260200160002060003373ffffffffffffffffffffffffffffffffffffffff1673ffffffffffffffffffffffffffffffffffffffff16815260200190815260200160002060006101000a81548160ff02191690831515021790555060003373ffffffffffffffffffffffffffffffffffffffff1682604051611c0c90614d43565b60006040518083038185875af1925050503d8060008114611c49576040519150601f19603f3d011682016040523d82523d6000602084013e611c4e565b606091505b5050905080611c92576040517f08c379a0000000000000000000000000000000000000000000000000000000008152600401611c8990614da4565b60405180910390fd5b3373ffffffffffffffffffffffffffffffffffffffff16867f4ec90e965519d92681267467f775ada5bd214aa92c0dc93d90a5e880ce9ed02684604051611cd99190613116565b60405180910390a3505050505050565b600260009054906101000a900473ffffffffffffffffffffffffffffffffffffffff1673ffffffffffffffffffffffffffffffffffffffff163373ffffffffffffffffffffffffffffffffffffffff1614611d79576040517f08c379a0000000000000000000000000000000000000000000000000000000008152600401611d7090614e10565b60405180910390fd5b600060035490506040518060a0016040528082815260200184848080601f016020809104026020016040519081016040528093929190818152602001838380828437600081840152601f19601f8201169050808301925050505050505081526020013373ffffffffffffffffffffffffffffffffffffffff1681526020016000151581526020016000801b81525060046000838152602001908152602001600020600082015181600001556020820151816001019081611e399190614fd2565b5060408201518160020160006101000a81548173ffffffffffffffffffffffffffffffffffffffff021916908373ffffffffffffffffffffffffffffffffffffffff16021790555060608201518160020160146101000a81548160ff02191690831515021790555060808201518160030155905050600560003373ffffffffffffffffffffffffffffffffffffffff1673ffffffffffffffffffffffffffffffffffffffff168152602001908152602001600020819080600181540180825580915050600190039060005260206000200160009091909190915055670de0b6b3a7640000600660008381526020019081526020016000206000828254611f3f9190614157565b92505081905550600181611f539190614157565b600381905550611f7c3382670de0b6b3a764000060405180602001604052806000815250612ce9565b3373ffffffffffffffffffffffffffffffffffffffff16817fb683691564ab594b1f9e9db91abaf085736871256a4741baa41bf30cb9d4f2368585604051611fc59291906150d1565b60405180910390a33373ffffffffffffffffffffffffffffffffffffffff168160006002811115611ff957611ff86147c2565b5b7fef9efaa688e86a93d98a7f0102f8f58ea72875d8578cc452a9f1623481f0bfcc670de0b6b3a76400006000604051612033929190615130565b60405180910390a4505050565b60066020528060005260406000206000915090505481565b6000612077600660008581526020019081526020016000205483611771565b905092915050565b60035481106120c3576040517f08c379a00000000000000000000000000000000000000000000000000000000081526004016120ba90613e8b565b60405180910390fd5b60006004600083815260200190815260200160002090508060020160149054906101000a900460ff16158160020160146101000a81548160ff0219169083151502179055503373ffffffffffffffffffffffffffffffffffffffff16827fd7f9f91585e13a431090cee597fff8e7e61fbf3c332f6e5fdf25b6ce7fa99b4c8360020160149054906101000a900460ff1660405161216091906131d1565b60405180910390a35050565b6009601c9054906101000a900460ff1681565b60035482106121c3576040517f08c379a00000000000000000000000000000000000000000000000000000000081526004016121ba90613e8b565b60405180910390fd5b6004600083815260200190815260200160002060020160149054906101000a900460ff1615612227576040517f08c379a000000000000000000000000000000000000000000000000000000000815260040161221e906151a5565b60405180910390fd5b60006122338383612058565b905080341015612278576040517f08c379a000000000000000000000000000000000000000000000000000000000815260040161226f90615211565b60405180910390fd5b8160066000858152602001908152602001600020600082825461229b9190614157565b92505081905550806007600085815260200190815260200160002060008282546122c59190614157565b925050819055506122e733848460405180602001604052806000815250612ce9565b3373ffffffffffffffffffffffffffffffffffffffff168360016002811115612313576123126147c2565b5b7fef9efaa688e86a93d98a7f0102f8f58ea72875d8578cc452a9f1623481f0bfcc8585604051612344929190615231565b60405180910390a4505050565b6003548210612395576040517f08c379a000000000000000000000000000000000000000000000000000000000815260040161238c90613e8b565b60405180910390fd5b6004600083815260200190815260200160002060020160149054906101000a900460ff16156123f9576040517f08c379a00000000000000000000000000000000000000000000000000000000081526004016123f0906151a5565b60405180910390fd5b806000803373ffffffffffffffffffffffffffffffffffffffff1673ffffffffffffffffffffffffffffffffffffffff168152602001908152602001600020600084815260200190815260200160002054101561248b576040517f08c379a0000000000000000000000000000000000000000000000000000000008152600401612482906152a6565b60405180910390fd5b600060066000848152602001908152602001600020549050670de0b6b3a764000082826124b89190614123565b10156124f9576040517f08c379a00000000000000000000000000000000000000000000000000000000081526004016124f090615338565b60405180910390fd5b60006125058484611878565b9050612512338585612f35565b828261251e9190614123565b6006600086815260200190815260200160002081905550806007600086815260200190815260200160002060008282546125589190614123565b925050819055503373ffffffffffffffffffffffffffffffffffffffff168460028081111561258a576125896147c2565b5b7fef9efaa688e86a93d98a7f0102f8f58ea72875d8578cc452a9f1623481f0bfcc86856040516125bb929190615231565b60405180910390a460003373ffffffffffffffffffffffffffffffffffffffff16826040516125e990614d43565b60006040518083038185875af1925050503d8060008114612626576040519150601f19603f3d011682016040523d82523d6000602084013e61262b565b606091505b505090508061266f576040517f08c379a000000000000000000000000000000000000000000000000000000000815260040161266690614da4565b60405180910390fd5b5050505050565b6040517f9ba6061b00000000000000000000000000000000000000000000000000000000815260040160405180910390fd5b6040517f9ba6061b00000000000000000000000000000000000000000000000000000000815260040160405180910390fd5b60016020528160005260406000206020528060005260406000206000915091509054906101000a900460ff1681565b600354821061274d576040517f08c379a000000000000000000000000000000000000000000000000000000000815260040161274490613e8b565b60405180910390fd5b8060046000848152602001908152602001600020600301819055506009601c9054906101000a900460ff1615612801573073ffffffffffffffffffffffffffffffffffffffff16634fccfb67823343866040518563ffffffff1660e01b81526004016127bc9493929190615358565b6020604051808303816000875af11580156127db573d6000803e3d6000fd5b505050506040513d601f19601f820116820180604052508101906127ff9190614b02565b505b817f9ff79792a92b66fee090acb66e07837a2edb31ee6b9780fa551fd04b79dffcd28260405161283191906132c9565b60405180910390a25050565b8573ffffffffffffffffffffffffffffffffffffffff163373ffffffffffffffffffffffffffffffffffffffff1614806128fd5750600160008773ffffffffffffffffffffffffffffffffffffffff1673ffffffffffffffffffffffffffffffffffffffff16815260200190815260200160002060003373ffffffffffffffffffffffffffffffffffffffff1673ffffffffffffffffffffffffffffffffffffffff16815260200190815260200160002060009054906101000a900460ff165b61293c576040517f08c379a0000000000000000000000000000000000000000000000000000000008152600401612933906140d4565b60405180910390fd5b826000808873ffffffffffffffffffffffffffffffffffffffff1673ffffffffffffffffffffffffffffffffffffffff1681526020019081526020016000206000868152602001908152602001600020600082825461299b9190614123565b92505081905550826000808773ffffffffffffffffffffffffffffffffffffffff1673ffffffffffffffffffffffffffffffffffffffff16815260200190815260200160002060008681526020019081526020016000206000828254612a019190614157565b925050819055508473ffffffffffffffffffffffffffffffffffffffff168673ffffffffffffffffffffffffffffffffffffffff163373ffffffffffffffffffffffffffffffffffffffff167fc3d58168c5ae7397731d063d5bbf3d657854427343f4c083240f7aacaa2d0f628787604051612a7e929190615231565b60405180910390a460008573ffffffffffffffffffffffffffffffffffffffff163b14612b775763f23a6e6160e01b7bffffffffffffffffffffffffffffffffffffffffffffffffffffffff19168573ffffffffffffffffffffffffffffffffffffffff1663f23a6e613389888888886040518763ffffffff1660e01b8152600401612b0f9695949392919061539d565b6020604051808303816000875af1158015612b2e573d6000803e3d6000fd5b505050506040513d601f19601f82011682018060405250810190612b529190614300565b7bffffffffffffffffffffffffffffffffffffffffffffffffffffffff191614612ba9565b600073ffffffffffffffffffffffffffffffffffffffff168573ffffffffffffffffffffffffffffffffffffffff1614155b612be8576040517f08c379a0000000000000000000000000000000000000000000000000000000008152600401612bdf90614379565b60405180910390fd5b505050505050565b60076020528060005260406000206000915090505481565b806009601c6101000a81548160ff0219169083151502179055507f7c09dd8dd4787434dd8307c4c789c5cf2d9a9ee03d4bbbb574e32824281be60981604051612c5191906131d1565b60405180910390a150565b43811115612c9f576040517f08c379a0000000000000000000000000000000000000000000000000000000008152600401612c969061546b565b60405180910390fd5b50565b6000670de0b6b3a7640000821115612cdf5766038d7ea4c68000670de0b6b3a764000083612cd09190614123565b612cda9190614c73565b612ce2565b60005b9050919050565b816000808673ffffffffffffffffffffffffffffffffffffffff1673ffffffffffffffffffffffffffffffffffffffff16815260200190815260200160002060008581526020019081526020016000206000828254612d489190614157565b925050819055508373ffffffffffffffffffffffffffffffffffffffff16600073ffffffffffffffffffffffffffffffffffffffff163373ffffffffffffffffffffffffffffffffffffffff167fc3d58168c5ae7397731d063d5bbf3d657854427343f4c083240f7aacaa2d0f628686604051612dc6929190615231565b60405180910390a460008473ffffffffffffffffffffffffffffffffffffffff163b14612ebe5763f23a6e6160e01b7bffffffffffffffffffffffffffffffffffffffffffffffffffffffff19168473ffffffffffffffffffffffffffffffffffffffff1663f23a6e613360008787876040518663ffffffff1660e01b8152600401612e569594939291906154c4565b6020604051808303816000875af1158015612e75573d6000803e3d6000fd5b505050506040513d601f19601f82011682018060405250810190612e999190614300565b7bffffffffffffffffffffffffffffffffffffffffffffffffffffffff191614612ef0565b600073ffffffffffffffffffffffffffffffffffffffff168473ffffffffffffffffffffffffffffffffffffffff1614155b612f2f576040517f08c379a0000000000000000000000000000000000000000000000000000000008152600401612f2690614379565b60405180910390fd5b50505050565b806000808573ffffffffffffffffffffffffffffffffffffffff1673ffffffffffffffffffffffffffffffffffffffff16815260200190815260200160002060008481526020019081526020016000206000828254612f949190614123565b92505081905550600073ffffffffffffffffffffffffffffffffffffffff168373ffffffffffffffffffffffffffffffffffffffff163373ffffffffffffffffffffffffffffffffffffffff167fc3d58168c5ae7397731d063d5bbf3d657854427343f4c083240f7aacaa2d0f628585604051613012929190615231565b60405180910390a4505050565b6000604051905090565b600080fd5b600080fd5b600073ffffffffffffffffffffffffffffffffffffffff82169050919050565b600061305e82613033565b9050919050565b61306e81613053565b811461307957600080fd5b50565b60008135905061308b81613065565b92915050565b6000819050919050565b6130a481613091565b81146130af57600080fd5b50565b6000813590506130c18161309b565b92915050565b600080604083850312156130de576130dd613029565b5b60006130ec8582860161307c565b92505060206130fd858286016130b2565b9150509250929050565b61311081613091565b82525050565b600060208201905061312b6000830184613107565b92915050565b60007fffffffff0000000000000000000000000000000000000000000000000000000082169050919050565b61316681613131565b811461317157600080fd5b50565b6000813590506131838161315d565b92915050565b60006020828403121561319f5761319e613029565b5b60006131ad84828501613174565b91505092915050565b60008115159050919050565b6131cb816131b6565b82525050565b60006020820190506131e660008301846131c2565b92915050565b600067ffffffffffffffff82169050919050565b613209816131ec565b811461321457600080fd5b50565b60008135905061322681613200565b92915050565b60006020828403121561324257613241613029565b5b600061325084828501613217565b91505092915050565b613262816131ec565b82525050565b600060208201905061327d6000830184613259565b92915050565b60006020828403121561329957613298613029565b5b60006132a7848285016130b2565b91505092915050565b6000819050919050565b6132c3816132b0565b82525050565b60006020820190506132de60008301846132ba565b92915050565b600081519050919050565b600082825260208201905092915050565b60005b8381101561331e578082015181840152602081019050613303565b60008484015250505050565b6000601f19601f8301169050919050565b6000613346826132e4565b61335081856132ef565b9350613360818560208601613300565b6133698161332a565b840191505092915050565b61337d81613053565b82525050565b600060a0820190506133986000830188613107565b81810360208301526133aa818761333b565b90506133b96040830186613374565b6133c660608301856131c2565b6133d360808301846132ba565b9695505050505050565b600060208201905081810360008301526133f7818461333b565b905092915050565b600080fd5b600080fd5b600080fd5b60008083601f840112613424576134236133ff565b5b8235905067ffffffffffffffff81111561344157613440613404565b5b60208301915083602082028301111561345d5761345c613409565b5b9250929050565b6000806000806000608086880312156134805761347f613029565b5b600061348e888289016130b2565b955050602061349f8882890161307c565b94505060406134b0888289016130b2565b935050606086013567ffffffffffffffff8111156134d1576134d061302e565b5b6134dd8882890161340e565b92509250509295509295909350565b60008083601f840112613502576135016133ff565b5b8235905067ffffffffffffffff81111561351f5761351e613404565b5b60208301915083602082028301111561353b5761353a613409565b5b9250929050565b60008083601f840112613558576135576133ff565b5b8235905067ffffffffffffffff81111561357557613574613404565b5b60208301915083600182028301111561359157613590613409565b5b9250929050565b60008060008060008060008060a0898b0312156135b8576135b7613029565b5b60006135c68b828c0161307c565b98505060206135d78b828c0161307c565b975050604089013567ffffffffffffffff8111156135f8576135f761302e565b5b6136048b828c016134ec565b9650965050606089013567ffffffffffffffff8111156136275761362661302e565b5b6136338b828c016134ec565b9450945050608089013567ffffffffffffffff8111156136565761365561302e565b5b6136628b828c01613542565b92509250509295985092959890939650565b6000806000806000608086880312156136905761368f613029565b5b600061369e8882890161307c565b95505060206136af88828901613217565b94505060406136c088828901613217565b935050606086013567ffffffffffffffff8111156136e1576136e061302e565b5b6136ed88828901613542565b92509250509295509295909350565b600061370782613053565b9050919050565b613717816136fc565b811461372257600080fd5b50565b6000813590506137348161370e565b92915050565b600080600080600080600060c0888a03121561375957613758613029565b5b60006137678a828b0161307c565b97505060206137788a828b01613217565b96505060406137898a828b01613217565b955050606061379a8a828b01613725565b94505060806137ab8a828b016130b2565b93505060a088013567ffffffffffffffff8111156137cc576137cb61302e565b5b6137d88a828b01613542565b925092505092959891949750929550565b6000602082840312156137ff576137fe613029565b5b600061380d8482850161307c565b91505092915050565b600081519050919050565b600082825260208201905092915050565b6000819050602082019050919050565b61384b81613091565b82525050565b600061385d8383613842565b60208301905092915050565b6000602082019050919050565b600061388182613816565b61388b8185613821565b935061389683613832565b8060005b838110156138c75781516138ae8882613851565b97506138b983613869565b92505060018101905061389a565b5085935050505092915050565b600060208201905081810360008301526138ee8184613876565b905092915050565b60008083601f84011261390c5761390b6133ff565b5b8235905067ffffffffffffffff81111561392957613928613404565b5b60208301915083602082028301111561394557613944613409565b5b9250929050565b6000806000806040858703121561396657613965613029565b5b600085013567ffffffffffffffff8111156139845761398361302e565b5b613990878288016138f6565b9450945050602085013567ffffffffffffffff8111156139b3576139b261302e565b5b6139bf878288016134ec565b925092505092959194509250565b6139d6816132b0565b81146139e157600080fd5b50565b6000813590506139f3816139cd565b92915050565b60008060008060808587031215613a1357613a12613029565b5b6000613a21878288016139e4565b9450506020613a328782880161307c565b9350506040613a43878288016130b2565b9250506060613a54878288016130b2565b91505092959194509250565b60008060408385031215613a7757613a76613029565b5b6000613a85858286016130b2565b9250506020613a96858286016130b2565b9150509250929050565b60008060408385031215613ab757613ab6613029565b5b6000613ac5858286016130b2565b9250506020613ad68582860161307c565b9150509250929050565b6000602082019050613af56000830184613374565b92915050565b613b04816131b6565b8114613b0f57600080fd5b50565b600081359050613b2181613afb565b92915050565b60008060408385031215613b3e57613b3d613029565b5b6000613b4c8582860161307c565b9250506020613b5d85828601613b12565b9150509250929050565b6000819050919050565b6000613b8c613b87613b8284613033565b613b67565b613033565b9050919050565b6000613b9e82613b71565b9050919050565b6000613bb082613b93565b9050919050565b613bc081613ba5565b82525050565b6000602082019050613bdb6000830184613bb7565b92915050565b60008060008060608587031215613bfb57613bfa613029565b5b6000613c09878288016130b2565b9450506020613c1a878288016130b2565b935050604085013567ffffffffffffffff811115613c3b57613c3a61302e565b5b613c478782880161340e565b925092505092959194509250565b60008083601f840112613c6b57613c6a6133ff565b5b8235905067ffffffffffffffff811115613c8857613c87613404565b5b602083019150836001820283011115613ca457613ca3613409565b5b9250929050565b60008060208385031215613cc257613cc1613029565b5b600083013567ffffffffffffffff811115613ce057613cdf61302e565b5b613cec85828601613c55565b92509250509250929050565b60008060408385031215613d0f57613d0e613029565b5b6000613d1d8582860161307c565b9250506020613d2e8582860161307c565b9150509250929050565b60008060408385031215613d4f57613d4e613029565b5b6000613d5d858286016130b2565b9250506020613d6e858286016139e4565b9150509250929050565b60008060008060008060a08789031215613d9557613d94613029565b5b6000613da389828a0161307c565b9650506020613db489828a0161307c565b9550506040613dc589828a016130b2565b9450506060613dd689828a016130b2565b935050608087013567ffffffffffffffff811115613df757613df661302e565b5b613e0389828a01613542565b92509250509295509295509295565b600060208284031215613e2857613e27613029565b5b6000613e3684828501613b12565b91505092915050565b7f4b657920646f6573206e6f742065786973740000000000000000000000000000600082015250565b6000613e756012836132ef565b9150613e8082613e3f565b602082019050919050565b60006020820190508181036000830152613ea481613e68565b9050919050565b7f4e487b7100000000000000000000000000000000000000000000000000000000600052602260045260246000fd5b60006002820490506001821680613ef257607f821691505b602082108103613f0557613f04613eab565b5b50919050565b60008160601b9050919050565b6000613f2382613f0b565b9050919050565b6000613f3582613f18565b9050919050565b613f4d613f4882613053565b613f2a565b82525050565b6000819050919050565b613f6e613f6982613091565b613f53565b82525050565b6000613f808285613f3c565b601482019150613f908284613f5d565b6020820191508190509392505050565b7f4e487b7100000000000000000000000000000000000000000000000000000000600052603260045260246000fd5b6000819050919050565b613fea613fe5826132b0565b613fcf565b82525050565b6000613ffc8285613fd9565b60208201915061400c8284613fd9565b6020820191508190509392505050565b7f4c454e4754485f4d49534d415443480000000000000000000000000000000000600082015250565b6000614052600f836132ef565b915061405d8261401c565b602082019050919050565b6000602082019050818103600083015261408181614045565b9050919050565b7f4e4f545f415554484f52495a4544000000000000000000000000000000000000600082015250565b60006140be600e836132ef565b91506140c982614088565b602082019050919050565b600060208201905081810360008301526140ed816140b1565b9050919050565b7f4e487b7100000000000000000000000000000000000000000000000000000000600052601160045260246000fd5b600061412e82613091565b915061413983613091565b9250828203905081811115614151576141506140f4565b5b92915050565b600061416282613091565b915061416d83613091565b9250828201905080821115614185576141846140f4565b5b92915050565b600080fd5b82818337505050565b60006141a58385613821565b93507f07ffffffffffffffffffffffffffffffffffffffffffffffffffffffffffffff8311156141d8576141d761418b565b5b6020830292506141e9838584614190565b82840190509392505050565b60006040820190508181036000830152614210818688614199565b90508181036020830152614225818486614199565b905095945050505050565b600082825260208201905092915050565b82818337600083830152505050565b600061425c8385614230565b9350614269838584614241565b6142728361332a565b840190509392505050565b600060a082019050614292600083018b613374565b61429f602083018a613374565b81810360408301526142b281888a614199565b905081810360608301526142c7818688614199565b905081810360808301526142dc818486614250565b90509998505050505050505050565b6000815190506142fa8161315d565b92915050565b60006020828403121561431657614315613029565b5b6000614324848285016142eb565b91505092915050565b7f554e534146455f524543495049454e5400000000000000000000000000000000600082015250565b60006143636010836132ef565b915061436e8261432d565b602082019050919050565b6000602082019050818103600083015261439281614356565b9050919050565b600080fd5b7f4e487b7100000000000000000000000000000000000000000000000000000000600052604160045260246000fd5b6143d68261332a565b810181811067ffffffffffffffff821117156143f5576143f461439e565b5b80604052505050565b600061440861301f565b905061441482826143cd565b919050565b600080fd5b60008151905061442d81613200565b92915050565b60008151905061444281613065565b92915050565b6004811061445557600080fd5b50565b60008151905061446781614448565b92915050565b60008151905061447c81613afb565b92915050565b600067ffffffffffffffff82111561449d5761449c61439e565b5b602082029050602081019050919050565b600080fd5b600067ffffffffffffffff8211156144ce576144cd61439e565b5b6144d78261332a565b9050602081019050919050565b60006144f76144f2846144b3565b6143fe565b905082815260208101848484011115614513576145126144ae565b5b61451e848285613300565b509392505050565b600082601f83011261453b5761453a6133ff565b5b815161454b8482602086016144e4565b91505092915050565b600061456761456284614482565b6143fe565b9050808382526020820190506020840283018581111561458a57614589613409565b5b835b818110156145d157805167ffffffffffffffff8111156145af576145ae6133ff565b5b8086016145bc8982614526565b8552602085019450505060208101905061458c565b5050509392505050565b600082601f8301126145f0576145ef6133ff565b5b8151614600848260208601614554565b91505092915050565b600061014082840312156146205761461f614399565b5b61462b6101406143fe565b9050600061463b8482850161441e565b600083015250602061464f8482850161441e565b60208301525060406146638482850161441e565b60408301525060606146778482850161441e565b606083015250608061468b84828501614433565b60808301525060a061469f8482850161441e565b60a08301525060c06146b384828501614458565b60c08301525060e06146c78482850161446d565b60e08301525061010082015167ffffffffffffffff8111156146ec576146eb614419565b5b6146f8848285016145db565b6101008301525061012082015167ffffffffffffffff81111561471e5761471d614419565b5b61472a84828501614526565b6101208301525092915050565b60006020828403121561474d5761474c613029565b5b600082015167ffffffffffffffff81111561476b5761476a61302e565b5b61477784828501614609565b91505092915050565b60008151905061478f8161309b565b92915050565b6000602082840312156147ab576147aa613029565b5b60006147b984828501614780565b91505092915050565b7f4e487b7100000000000000000000000000000000000000000000000000000000600052602160045260246000fd5b6147fa816131ec565b82525050565b61480981613053565b82525050565b600481106148205761481f6147c2565b5b50565b60008190506148318261480f565b919050565b600061484182614823565b9050919050565b61485181614836565b82525050565b614860816131b6565b82525050565b600081519050919050565b600082825260208201905092915050565b6000819050602082019050919050565b600081519050919050565b600082825260208201905092915050565b60006148b982614892565b6148c3818561489d565b93506148d3818560208601613300565b6148dc8161332a565b840191505092915050565b60006148f383836148ae565b905092915050565b6000602082019050919050565b600061491382614866565b61491d8185614871565b93508360208202850161492f85614882565b8060005b8581101561496b578484038952815161494c85826148e7565b9450614957836148fb565b925060208a01995050600181019050614933565b50829750879550505050505092915050565b60006101408301600083015161499660008601826147f1565b5060208301516149a960208601826147f1565b5060408301516149bc60408601826147f1565b5060608301516149cf60608601826147f1565b5060808301516149e26080860182614800565b5060a08301516149f560a08601826147f1565b5060c0830151614a0860c0860182614848565b5060e0830151614a1b60e0860182614857565b50610100830151848203610100860152614a358282614908565b915050610120830151848203610120860152614a5182826148ae565b9150508091505092915050565b50565b6000614a6e6000836132ef565b9150614a7982614a5e565b600082019050919050565b6000614a91600083614230565b9150614a9c82614a5e565b600082019050919050565b60006080820190508181036000830152614ac1818461497d565b90508181036020830152614ad481614a61565b90508181036040830152614ae781614a84565b90508181036060830152614afa81614a84565b905092915050565b600060208284031215614b1857614b17613029565b5b6000614b268482850161441e565b91505092915050565b7f4b657920706f6f6c206973206e6f74206c697175696461746564000000000000600082015250565b6000614b65601a836132ef565b9150614b7082614b2f565b602082019050919050565b60006020820190508181036000830152614b9481614b58565b9050919050565b7f416c726561647920636c61696d65640000000000000000000000000000000000600082015250565b6000614bd1600f836132ef565b9150614bdc82614b9b565b602082019050919050565b60006020820190508181036000830152614c0081614bc4565b9050919050565b7f496e76616c6964206d65726b6c652070726f6f66000000000000000000000000600082015250565b6000614c3d6014836132ef565b9150614c4882614c07565b602082019050919050565b60006020820190508181036000830152614c6c81614c30565b9050919050565b6000614c7e82613091565b9150614c8983613091565b9250828202614c9781613091565b91508282048414831517614cae57614cad6140f4565b5b5092915050565b7f4e487b7100000000000000000000000000000000000000000000000000000000600052601260045260246000fd5b6000614cef82613091565b9150614cfa83613091565b925082614d0a57614d09614cb5565b5b828204905092915050565b600081905092915050565b6000614d2d600083614d15565b9150614d3882614a5e565b600082019050919050565b6000614d4e82614d20565b9150819050919050565b7f4661696c656420746f2073656e64204574686572000000000000000000000000600082015250565b6000614d8e6014836132ef565b9150614d9982614d58565b602082019050919050565b60006020820190508181036000830152614dbd81614d81565b9050919050565b7f4e6f74206f776e65720000000000000000000000000000000000000000000000600082015250565b6000614dfa6009836132ef565b9150614e0582614dc4565b602082019050919050565b60006020820190508181036000830152614e2981614ded565b9050919050565b60008190508160005260206000209050919050565b60006020601f8301049050919050565b600082821b905092915050565b600060088302614e927fffffffffffffffffffffffffffffffffffffffffffffffffffffffffffffffff82614e55565b614e9c8683614e55565b95508019841693508086168417925050509392505050565b6000614ecf614eca614ec584613091565b613b67565b613091565b9050919050565b6000819050919050565b614ee983614eb4565b614efd614ef582614ed6565b848454614e62565b825550505050565b600090565b614f12614f05565b614f1d818484614ee0565b505050565b5b81811015614f4157614f36600082614f0a565b600181019050614f23565b5050565b601f821115614f8657614f5781614e30565b614f6084614e45565b81016020851015614f6f578190505b614f83614f7b85614e45565b830182614f22565b50505b505050565b600082821c905092915050565b6000614fa960001984600802614f8b565b1980831691505092915050565b6000614fc28383614f98565b9150826002028217905092915050565b614fdb826132e4565b67ffffffffffffffff811115614ff457614ff361439e565b5b614ffe8254613eda565b615009828285614f45565b600060209050601f83116001811461503c576000841561502a578287015190505b6150348582614fb6565b86555061509c565b601f19841661504a86614e30565b60005b828110156150725784890151825560018201915060208501945060208101905061504d565b8683101561508f578489015161508b601f891682614f98565b8355505b6001600288020188555050505b505050505050565b60006150b083856132ef565b93506150bd838584614241565b6150c68361332a565b840190509392505050565b600060208201905081810360008301526150ec8184866150a4565b90509392505050565b6000819050919050565b600061511a615115615110846150f5565b613b67565b613091565b9050919050565b61512a816150ff565b82525050565b60006040820190506151456000830185613107565b6151526020830184615121565b9392505050565b7f4b657920706f6f6c206973206c69717569646174656400000000000000000000600082015250565b600061518f6016836132ef565b915061519a82615159565b602082019050919050565b600060208201905081810360008301526151be81615182565b9050919050565b7f496e73756666696369656e74207061796d656e74000000000000000000000000600082015250565b60006151fb6014836132ef565b9150615206826151c5565b602082019050919050565b6000602082019050818103600083015261522a816151ee565b9050919050565b60006040820190506152466000830185613107565b6152536020830184613107565b9392505050565b7f496e73756666696369656e742062616c616e6365000000000000000000000000600082015250565b60006152906014836132ef565b915061529b8261525a565b602082019050919050565b600060208201905081810360008301526152bf81615283565b9050919050565b7f537570706c79206e6f7420616c6c6f7765642062656c6f77207072656d696e7460008201527f20616d6f756e7400000000000000000000000000000000000000000000000000602082015250565b60006153226027836132ef565b915061532d826152c6565b604082019050919050565b6000602082019050818103600083015261535181615315565b9050919050565b600060808201905061536d60008301876132ba565b61537a6020830186613374565b6153876040830185613107565b6153946060830184613107565b95945050505050565b600060a0820190506153b26000830189613374565b6153bf6020830188613374565b6153cc6040830187613107565b6153d96060830186613107565b81810360808301526153ec818486614250565b9050979650505050505050565b7f426c6f636b206e756d6265722063616e6e6f7420626520696e2074686520667560008201527f7475726500000000000000000000000000000000000000000000000000000000602082015250565b60006154556024836132ef565b9150615460826153f9565b604082019050919050565b6000602082019050818103600083015261548481615448565b9050919050565b600061549682614892565b6154a08185614230565b93506154b0818560208601613300565b6154b98161332a565b840191505092915050565b600060a0820190506154d96000830188613374565b6154e66020830187613374565b6154f36040830186613107565b6155006060830185613107565b8181036080830152615512818461548b565b9050969550505050505056fea2646970667358221220f99be654ac33a28b7a3bca8cda6ea94a22eaf7730cee1d82c4cc34ee8a5dbba664736f6c634300081b0033","opcodes":"PUSH1 0x80 PUSH1 0x40 MSTORE CALLVALUE DUP1 ISZERO PUSH1 0xF JUMPI PUSH1 0x0 DUP1 REVERT JUMPDEST POP CALLER PUSH1 0x2 PUSH1 0x0 PUSH2 0x100 EXP DUP2 SLOAD DUP2 PUSH20 0xFFFFFFFFFFFFFFFFFFFFFFFFFFFFFFFFFFFFFFFF MUL NOT AND SWAP1 DUP4 PUSH20 0xFFFFFFFFFFFFFFFFFFFFFFFFFFFFFFFFFFFFFFFF AND MUL OR SWAP1 SSTORE POP PUSH1 0x0 PUSH1 0x9 PUSH1 0x1C PUSH2 0x100 EXP DUP2 SLOAD DUP2 PUSH1 0xFF MUL NOT AND SWAP1 DUP4 ISZERO ISZERO MUL OR SWAP1 SSTORE POP PUSH2 0x5554 DUP1 PUSH2 0x7B PUSH1 0x0 CODECOPY PUSH1 0x0 RETURN INVALID PUSH1 0x80 PUSH1 0x40 MSTORE PUSH1 0x4 CALLDATASIZE LT PUSH2 0x245 JUMPI PUSH1 0x0 CALLDATALOAD PUSH1 0xE0 SHR DUP1 PUSH4 0x8DA5CB5B GT PUSH2 0x139 JUMPI DUP1 PUSH4 0xC23C8B03 GT PUSH2 0xB6 JUMPI DUP1 PUSH4 0xE830B5C7 GT PUSH2 0x7A JUMPI DUP1 PUSH4 0xE830B5C7 EQ PUSH2 0x8FE JUMPI DUP1 PUSH4 0xE985E9C5 EQ PUSH2 0x927 JUMPI DUP1 PUSH4 0xF1E33115 EQ PUSH2 0x964 JUMPI DUP1 PUSH4 0xF242432A EQ PUSH2 0x98D JUMPI DUP1 PUSH4 0xFE313112 EQ PUSH2 0x9B6 JUMPI DUP1 PUSH4 0xFE6CB064 EQ PUSH2 0x9F3 JUMPI PUSH2 0x245 JUMP JUMPDEST DUP1 PUSH4 0xC23C8B03 EQ PUSH2 0x849 JUMPI DUP1 PUSH4 0xD6716938 EQ PUSH2 0x872 JUMPI DUP1 PUSH4 0xD6FEBDE8 EQ PUSH2 0x89D JUMPI DUP1 PUSH4 0xD79875EB EQ PUSH2 0x8B9 JUMPI DUP1 PUSH4 0xE33361F4 EQ PUSH2 0x8E2 JUMPI PUSH2 0x245 JUMP JUMPDEST DUP1 PUSH4 0xA8C5DC33 GT PUSH2 0xFD JUMPI DUP1 PUSH4 0xA8C5DC33 EQ PUSH2 0x752 JUMPI DUP1 PUSH4 0xAE0B51DF EQ PUSH2 0x77D JUMPI DUP1 PUSH4 0xB6A46B3B EQ PUSH2 0x7A6 JUMPI DUP1 PUSH4 0xBD85B039 EQ PUSH2 0x7CF JUMPI DUP1 PUSH4 0xC157253D EQ PUSH2 0x80C JUMPI PUSH2 0x245 JUMP JUMPDEST DUP1 PUSH4 0x8DA5CB5B EQ PUSH2 0x65B JUMPI DUP1 PUSH4 0x8E9D660F EQ PUSH2 0x686 JUMPI DUP1 PUSH4 0x93990F7A EQ PUSH2 0x6AF JUMPI DUP1 PUSH4 0x9477D85D EQ PUSH2 0x6EC JUMPI DUP1 PUSH4 0xA22CB465 EQ PUSH2 0x729 JUMPI PUSH2 0x245 JUMP JUMPDEST DUP1 PUSH4 0x3398B4ED GT PUSH2 0x1C7 JUMPI DUP1 PUSH4 0x4FCCFB67 GT PUSH2 0x18B JUMPI DUP1 PUSH4 0x4FCCFB67 EQ PUSH2 0x54E JUMPI DUP1 PUSH4 0x58074D8B EQ PUSH2 0x58B JUMPI DUP1 PUSH4 0x5CF4EE91 EQ PUSH2 0x5B6 JUMPI DUP1 PUSH4 0x7FFB25AC EQ PUSH2 0x5F3 JUMPI DUP1 PUSH4 0x873F6F9E EQ PUSH2 0x61E JUMPI PUSH2 0x245 JUMP JUMPDEST DUP1 PUSH4 0x3398B4ED EQ PUSH2 0x464 JUMPI DUP1 PUSH4 0x4466507A EQ PUSH2 0x480 JUMPI DUP1 PUSH4 0x4D7B31D7 EQ PUSH2 0x4A9 JUMPI DUP1 PUSH4 0x4D8CFCD4 EQ PUSH2 0x4D4 JUMPI DUP1 PUSH4 0x4E1273F4 EQ PUSH2 0x511 JUMPI PUSH2 0x245 JUMP JUMPDEST DUP1 PUSH4 0xCB6AAF1 GT PUSH2 0x20E JUMPI DUP1 PUSH4 0xCB6AAF1 EQ PUSH2 0x355 JUMPI DUP1 PUSH4 0xE89341C EQ PUSH2 0x396 JUMPI DUP1 PUSH4 0x1B7A1BBE EQ PUSH2 0x3D3 JUMPI DUP1 PUSH4 0x2741A8C5 EQ PUSH2 0x410 JUMPI DUP1 PUSH4 0x2EB2C2D6 EQ PUSH2 0x43B JUMPI PUSH2 0x245 JUMP JUMPDEST DUP1 PUSH3 0xFDD58E EQ PUSH2 0x24A JUMPI DUP1 PUSH4 0x1FFC9A7 EQ PUSH2 0x287 JUMPI DUP1 PUSH4 0x5CA8EE3 EQ PUSH2 0x2C4 JUMPI DUP1 PUSH4 0x75B1A09 EQ PUSH2 0x2ED JUMPI DUP1 PUSH4 0xAAB8BA5 EQ PUSH2 0x318 JUMPI JUMPDEST PUSH1 0x0 DUP1 REVERT JUMPDEST CALLVALUE DUP1 ISZERO PUSH2 0x256 JUMPI PUSH1 0x0 DUP1 REVERT JUMPDEST POP PUSH2 0x271 PUSH1 0x4 DUP1 CALLDATASIZE SUB DUP2 ADD SWAP1 PUSH2 0x26C SWAP2 SWAP1 PUSH2 0x30C7 JUMP JUMPDEST PUSH2 0xA1C JUMP JUMPDEST PUSH1 0x40 MLOAD PUSH2 0x27E SWAP2 SWAP1 PUSH2 0x3116 JUMP JUMPDEST PUSH1 0x40 MLOAD DUP1 SWAP2 SUB SWAP1 RETURN JUMPDEST CALLVALUE DUP1 ISZERO PUSH2 0x293 JUMPI PUSH1 0x0 DUP1 REVERT JUMPDEST POP PUSH2 0x2AE PUSH1 0x4 DUP1 CALLDATASIZE SUB DUP2 ADD SWAP1 PUSH2 0x2A9 SWAP2 SWAP1 PUSH2 0x3189 JUMP JUMPDEST PUSH2 0xA41 JUMP JUMPDEST PUSH1 0x40 MLOAD PUSH2 0x2BB SWAP2 SWAP1 PUSH2 0x31D1 JUMP JUMPDEST PUSH1 0x40 MLOAD DUP1 SWAP2 SUB SWAP1 RETURN JUMPDEST CALLVALUE DUP1 ISZERO PUSH2 0x2D0 JUMPI PUSH1 0x0 DUP1 REVERT JUMPDEST POP PUSH2 0x2EB PUSH1 0x4 DUP1 CALLDATASIZE SUB DUP2 ADD SWAP1 PUSH2 0x2E6 SWAP2 SWAP1 PUSH2 0x322C JUMP JUMPDEST PUSH2 0xAD3 JUMP JUMPDEST STOP JUMPDEST CALLVALUE DUP1 ISZERO PUSH2 0x2F9 JUMPI PUSH1 0x0 DUP1 REVERT JUMPDEST POP PUSH2 0x302 PUSH2 0xAFF JUMP JUMPDEST PUSH1 0x40 MLOAD PUSH2 0x30F SWAP2 SWAP1 PUSH2 0x3268 JUMP JUMPDEST PUSH1 0x40 MLOAD DUP1 SWAP2 SUB SWAP1 RETURN JUMPDEST CALLVALUE DUP1 ISZERO PUSH2 0x324 JUMPI PUSH1 0x0 DUP1 REVERT JUMPDEST POP PUSH2 0x33F PUSH1 0x4 DUP1 CALLDATASIZE SUB DUP2 ADD SWAP1 PUSH2 0x33A SWAP2 SWAP1 PUSH2 0x3283 JUMP JUMPDEST PUSH2 0xB19 JUMP JUMPDEST PUSH1 0x40 MLOAD PUSH2 0x34C SWAP2 SWAP1 PUSH2 0x32C9 JUMP JUMPDEST PUSH1 0x40 MLOAD DUP1 SWAP2 SUB SWAP1 RETURN JUMPDEST CALLVALUE DUP1 ISZERO PUSH2 0x361 JUMPI PUSH1 0x0 DUP1 REVERT JUMPDEST POP PUSH2 0x37C PUSH1 0x4 DUP1 CALLDATASIZE SUB DUP2 ADD SWAP1 PUSH2 0x377 SWAP2 SWAP1 PUSH2 0x3283 JUMP JUMPDEST PUSH2 0xB7D JUMP JUMPDEST PUSH1 0x40 MLOAD PUSH2 0x38D SWAP6 SWAP5 SWAP4 SWAP3 SWAP2 SWAP1 PUSH2 0x3383 JUMP JUMPDEST PUSH1 0x40 MLOAD DUP1 SWAP2 SUB SWAP1 RETURN JUMPDEST CALLVALUE DUP1 ISZERO PUSH2 0x3A2 JUMPI PUSH1 0x0 DUP1 REVERT JUMPDEST POP PUSH2 0x3BD PUSH1 0x4 DUP1 CALLDATASIZE SUB DUP2 ADD SWAP1 PUSH2 0x3B8 SWAP2 SWAP1 PUSH2 0x3283 JUMP JUMPDEST PUSH2 0xC68 JUMP JUMPDEST PUSH1 0x40 MLOAD PUSH2 0x3CA SWAP2 SWAP1 PUSH2 0x33DD JUMP JUMPDEST PUSH1 0x40 MLOAD DUP1 SWAP2 SUB SWAP1 RETURN JUMPDEST CALLVALUE DUP1 ISZERO PUSH2 0x3DF JUMPI PUSH1 0x0 DUP1 REVERT JUMPDEST POP PUSH2 0x3FA PUSH1 0x4 DUP1 CALLDATASIZE SUB DUP2 ADD SWAP1 PUSH2 0x3F5 SWAP2 SWAP1 PUSH2 0x3464 JUMP JUMPDEST PUSH2 0xD10 JUMP JUMPDEST PUSH1 0x40 MLOAD PUSH2 0x407 SWAP2 SWAP1 PUSH2 0x31D1 JUMP JUMPDEST PUSH1 0x40 MLOAD DUP1 SWAP2 SUB SWAP1 RETURN JUMPDEST CALLVALUE DUP1 ISZERO PUSH2 0x41C JUMPI PUSH1 0x0 DUP1 REVERT JUMPDEST POP PUSH2 0x425 PUSH2 0xE07 JUMP JUMPDEST PUSH1 0x40 MLOAD PUSH2 0x432 SWAP2 SWAP1 PUSH2 0x3116 JUMP JUMPDEST PUSH1 0x40 MLOAD DUP1 SWAP2 SUB SWAP1 RETURN JUMPDEST CALLVALUE DUP1 ISZERO PUSH2 0x447 JUMPI PUSH1 0x0 DUP1 REVERT JUMPDEST POP PUSH2 0x462 PUSH1 0x4 DUP1 CALLDATASIZE SUB DUP2 ADD SWAP1 PUSH2 0x45D SWAP2 SWAP1 PUSH2 0x3598 JUMP JUMPDEST PUSH2 0xE0D JUMP JUMPDEST STOP JUMPDEST PUSH2 0x47E PUSH1 0x4 DUP1 CALLDATASIZE SUB DUP2 ADD SWAP1 PUSH2 0x479 SWAP2 SWAP1 PUSH2 0x3674 JUMP JUMPDEST PUSH2 0x1269 JUMP JUMPDEST STOP JUMPDEST CALLVALUE DUP1 ISZERO PUSH2 0x48C JUMPI PUSH1 0x0 DUP1 REVERT JUMPDEST POP PUSH2 0x4A7 PUSH1 0x4 DUP1 CALLDATASIZE SUB DUP2 ADD SWAP1 PUSH2 0x4A2 SWAP2 SWAP1 PUSH2 0x373A JUMP JUMPDEST PUSH2 0x1315 JUMP JUMPDEST STOP JUMPDEST CALLVALUE DUP1 ISZERO PUSH2 0x4B5 JUMPI PUSH1 0x0 DUP1 REVERT JUMPDEST POP PUSH2 0x4BE PUSH2 0x1347 JUMP JUMPDEST PUSH1 0x40 MLOAD PUSH2 0x4CB SWAP2 SWAP1 PUSH2 0x3116 JUMP JUMPDEST PUSH1 0x40 MLOAD DUP1 SWAP2 SUB SWAP1 RETURN JUMPDEST CALLVALUE DUP1 ISZERO PUSH2 0x4E0 JUMPI PUSH1 0x0 DUP1 REVERT JUMPDEST POP PUSH2 0x4FB PUSH1 0x4 DUP1 CALLDATASIZE SUB DUP2 ADD SWAP1 PUSH2 0x4F6 SWAP2 SWAP1 PUSH2 0x37E9 JUMP JUMPDEST PUSH2 0x134D JUMP JUMPDEST PUSH1 0x40 MLOAD PUSH2 0x508 SWAP2 SWAP1 PUSH2 0x38D4 JUMP JUMPDEST PUSH1 0x40 MLOAD DUP1 SWAP2 SUB SWAP1 RETURN JUMPDEST CALLVALUE DUP1 ISZERO PUSH2 0x51D JUMPI PUSH1 0x0 DUP1 REVERT JUMPDEST POP PUSH2 0x538 PUSH1 0x4 DUP1 CALLDATASIZE SUB DUP2 ADD SWAP1 PUSH2 0x533 SWAP2 SWAP1 PUSH2 0x394C JUMP JUMPDEST PUSH2 0x13E4 JUMP JUMPDEST PUSH1 0x40 MLOAD PUSH2 0x545 SWAP2 SWAP1 PUSH2 0x38D4 JUMP JUMPDEST PUSH1 0x40 MLOAD DUP1 SWAP2 SUB SWAP1 RETURN JUMPDEST CALLVALUE DUP1 ISZERO PUSH2 0x55A JUMPI PUSH1 0x0 DUP1 REVERT JUMPDEST POP PUSH2 0x575 PUSH1 0x4 DUP1 CALLDATASIZE SUB DUP2 ADD SWAP1 PUSH2 0x570 SWAP2 SWAP1 PUSH2 0x39F9 JUMP JUMPDEST PUSH2 0x154D JUMP JUMPDEST PUSH1 0x40 MLOAD PUSH2 0x582 SWAP2 SWAP1 PUSH2 0x3268 JUMP JUMPDEST PUSH1 0x40 MLOAD DUP1 SWAP2 SUB SWAP1 RETURN JUMPDEST CALLVALUE DUP1 ISZERO PUSH2 0x597 JUMPI PUSH1 0x0 DUP1 REVERT JUMPDEST POP PUSH2 0x5A0 PUSH2 0x176B JUMP JUMPDEST PUSH1 0x40 MLOAD PUSH2 0x5AD SWAP2 SWAP1 PUSH2 0x3116 JUMP JUMPDEST PUSH1 0x40 MLOAD DUP1 SWAP2 SUB SWAP1 RETURN JUMPDEST CALLVALUE DUP1 ISZERO PUSH2 0x5C2 JUMPI PUSH1 0x0 DUP1 REVERT JUMPDEST POP PUSH2 0x5DD PUSH1 0x4 DUP1 CALLDATASIZE SUB DUP2 ADD SWAP1 PUSH2 0x5D8 SWAP2 SWAP1 PUSH2 0x3A60 JUMP JUMPDEST PUSH2 0x1771 JUMP JUMPDEST PUSH1 0x40 MLOAD PUSH2 0x5EA SWAP2 SWAP1 PUSH2 0x3116 JUMP JUMPDEST PUSH1 0x40 MLOAD DUP1 SWAP2 SUB SWAP1 RETURN JUMPDEST CALLVALUE DUP1 ISZERO PUSH2 0x5FF JUMPI PUSH1 0x0 DUP1 REVERT JUMPDEST POP PUSH2 0x608 PUSH2 0x17A2 JUMP JUMPDEST PUSH1 0x40 MLOAD PUSH2 0x615 SWAP2 SWAP1 PUSH2 0x3116 JUMP JUMPDEST PUSH1 0x40 MLOAD DUP1 SWAP2 SUB SWAP1 RETURN JUMPDEST CALLVALUE DUP1 ISZERO PUSH2 0x62A JUMPI PUSH1 0x0 DUP1 REVERT JUMPDEST POP PUSH2 0x645 PUSH1 0x4 DUP1 CALLDATASIZE SUB DUP2 ADD SWAP1 PUSH2 0x640 SWAP2 SWAP1 PUSH2 0x3AA0 JUMP JUMPDEST PUSH2 0x17AE JUMP JUMPDEST PUSH1 0x40 MLOAD PUSH2 0x652 SWAP2 SWAP1 PUSH2 0x31D1 JUMP JUMPDEST PUSH1 0x40 MLOAD DUP1 SWAP2 SUB SWAP1 RETURN JUMPDEST CALLVALUE DUP1 ISZERO PUSH2 0x667 JUMPI PUSH1 0x0 DUP1 REVERT JUMPDEST POP PUSH2 0x670 PUSH2 0x17DD JUMP JUMPDEST PUSH1 0x40 MLOAD PUSH2 0x67D SWAP2 SWAP1 PUSH2 0x3AE0 JUMP JUMPDEST PUSH1 0x40 MLOAD DUP1 SWAP2 SUB SWAP1 RETURN JUMPDEST CALLVALUE DUP1 ISZERO PUSH2 0x692 JUMPI PUSH1 0x0 DUP1 REVERT JUMPDEST POP PUSH2 0x6AD PUSH1 0x4 DUP1 CALLDATASIZE SUB DUP2 ADD SWAP1 PUSH2 0x6A8 SWAP2 SWAP1 PUSH2 0x37E9 JUMP JUMPDEST PUSH2 0x1803 JUMP JUMPDEST STOP JUMPDEST CALLVALUE DUP1 ISZERO PUSH2 0x6BB JUMPI PUSH1 0x0 DUP1 REVERT JUMPDEST POP PUSH2 0x6D6 PUSH1 0x4 DUP1 CALLDATASIZE SUB DUP2 ADD SWAP1 PUSH2 0x6D1 SWAP2 SWAP1 PUSH2 0x30C7 JUMP JUMPDEST PUSH2 0x1847 JUMP JUMPDEST PUSH1 0x40 MLOAD PUSH2 0x6E3 SWAP2 SWAP1 PUSH2 0x3116 JUMP JUMPDEST PUSH1 0x40 MLOAD DUP1 SWAP2 SUB SWAP1 RETURN JUMPDEST CALLVALUE DUP1 ISZERO PUSH2 0x6F8 JUMPI PUSH1 0x0 DUP1 REVERT JUMPDEST POP PUSH2 0x713 PUSH1 0x4 DUP1 CALLDATASIZE SUB DUP2 ADD SWAP1 PUSH2 0x70E SWAP2 SWAP1 PUSH2 0x3A60 JUMP JUMPDEST PUSH2 0x1878 JUMP JUMPDEST PUSH1 0x40 MLOAD PUSH2 0x720 SWAP2 SWAP1 PUSH2 0x3116 JUMP JUMPDEST PUSH1 0x40 MLOAD DUP1 SWAP2 SUB SWAP1 RETURN JUMPDEST CALLVALUE DUP1 ISZERO PUSH2 0x735 JUMPI PUSH1 0x0 DUP1 REVERT JUMPDEST POP PUSH2 0x750 PUSH1 0x4 DUP1 CALLDATASIZE SUB DUP2 ADD SWAP1 PUSH2 0x74B SWAP2 SWAP1 PUSH2 0x3B27 JUMP JUMPDEST PUSH2 0x18AA JUMP JUMPDEST STOP JUMPDEST CALLVALUE DUP1 ISZERO PUSH2 0x75E JUMPI PUSH1 0x0 DUP1 REVERT JUMPDEST POP PUSH2 0x767 PUSH2 0x19A7 JUMP JUMPDEST PUSH1 0x40 MLOAD PUSH2 0x774 SWAP2 SWAP1 PUSH2 0x3BC6 JUMP JUMPDEST PUSH1 0x40 MLOAD DUP1 SWAP2 SUB SWAP1 RETURN JUMPDEST CALLVALUE DUP1 ISZERO PUSH2 0x789 JUMPI PUSH1 0x0 DUP1 REVERT JUMPDEST POP PUSH2 0x7A4 PUSH1 0x4 DUP1 CALLDATASIZE SUB DUP2 ADD SWAP1 PUSH2 0x79F SWAP2 SWAP1 PUSH2 0x3BE1 JUMP JUMPDEST PUSH2 0x19CD JUMP JUMPDEST STOP JUMPDEST CALLVALUE DUP1 ISZERO PUSH2 0x7B2 JUMPI PUSH1 0x0 DUP1 REVERT JUMPDEST POP PUSH2 0x7CD PUSH1 0x4 DUP1 CALLDATASIZE SUB DUP2 ADD SWAP1 PUSH2 0x7C8 SWAP2 SWAP1 PUSH2 0x3CAB JUMP JUMPDEST PUSH2 0x1CE9 JUMP JUMPDEST STOP JUMPDEST CALLVALUE DUP1 ISZERO PUSH2 0x7DB JUMPI PUSH1 0x0 DUP1 REVERT JUMPDEST POP PUSH2 0x7F6 PUSH1 0x4 DUP1 CALLDATASIZE SUB DUP2 ADD SWAP1 PUSH2 0x7F1 SWAP2 SWAP1 PUSH2 0x3283 JUMP JUMPDEST PUSH2 0x2040 JUMP JUMPDEST PUSH1 0x40 MLOAD PUSH2 0x803 SWAP2 SWAP1 PUSH2 0x3116 JUMP JUMPDEST PUSH1 0x40 MLOAD DUP1 SWAP2 SUB SWAP1 RETURN JUMPDEST CALLVALUE DUP1 ISZERO PUSH2 0x818 JUMPI PUSH1 0x0 DUP1 REVERT JUMPDEST POP PUSH2 0x833 PUSH1 0x4 DUP1 CALLDATASIZE SUB DUP2 ADD SWAP1 PUSH2 0x82E SWAP2 SWAP1 PUSH2 0x3A60 JUMP JUMPDEST PUSH2 0x2058 JUMP JUMPDEST PUSH1 0x40 MLOAD PUSH2 0x840 SWAP2 SWAP1 PUSH2 0x3116 JUMP JUMPDEST PUSH1 0x40 MLOAD DUP1 SWAP2 SUB SWAP1 RETURN JUMPDEST CALLVALUE DUP1 ISZERO PUSH2 0x855 JUMPI PUSH1 0x0 DUP1 REVERT JUMPDEST POP PUSH2 0x870 PUSH1 0x4 DUP1 CALLDATASIZE SUB DUP2 ADD SWAP1 PUSH2 0x86B SWAP2 SWAP1 PUSH2 0x3283 JUMP JUMPDEST PUSH2 0x207F JUMP JUMPDEST STOP JUMPDEST CALLVALUE DUP1 ISZERO PUSH2 0x87E JUMPI PUSH1 0x0 DUP1 REVERT JUMPDEST POP PUSH2 0x887 PUSH2 0x216C JUMP JUMPDEST PUSH1 0x40 MLOAD PUSH2 0x894 SWAP2 SWAP1 PUSH2 0x31D1 JUMP JUMPDEST PUSH1 0x40 MLOAD DUP1 SWAP2 SUB SWAP1 RETURN JUMPDEST PUSH2 0x8B7 PUSH1 0x4 DUP1 CALLDATASIZE SUB DUP2 ADD SWAP1 PUSH2 0x8B2 SWAP2 SWAP1 PUSH2 0x3A60 JUMP JUMPDEST PUSH2 0x217F JUMP JUMPDEST STOP JUMPDEST CALLVALUE DUP1 ISZERO PUSH2 0x8C5 JUMPI PUSH1 0x0 DUP1 REVERT JUMPDEST POP PUSH2 0x8E0 PUSH1 0x4 DUP1 CALLDATASIZE SUB DUP2 ADD SWAP1 PUSH2 0x8DB SWAP2 SWAP1 PUSH2 0x3A60 JUMP JUMPDEST PUSH2 0x2351 JUMP JUMPDEST STOP JUMPDEST PUSH2 0x8FC PUSH1 0x4 DUP1 CALLDATASIZE SUB DUP2 ADD SWAP1 PUSH2 0x8F7 SWAP2 SWAP1 PUSH2 0x3674 JUMP JUMPDEST PUSH2 0x2676 JUMP JUMPDEST STOP JUMPDEST CALLVALUE DUP1 ISZERO PUSH2 0x90A JUMPI PUSH1 0x0 DUP1 REVERT JUMPDEST POP PUSH2 0x925 PUSH1 0x4 DUP1 CALLDATASIZE SUB DUP2 ADD SWAP1 PUSH2 0x920 SWAP2 SWAP1 PUSH2 0x373A JUMP JUMPDEST PUSH2 0x26A8 JUMP JUMPDEST STOP JUMPDEST CALLVALUE DUP1 ISZERO PUSH2 0x933 JUMPI PUSH1 0x0 DUP1 REVERT JUMPDEST POP PUSH2 0x94E PUSH1 0x4 DUP1 CALLDATASIZE SUB DUP2 ADD SWAP1 PUSH2 0x949 SWAP2 SWAP1 PUSH2 0x3CF8 JUMP JUMPDEST PUSH2 0x26DA JUMP JUMPDEST PUSH1 0x40 MLOAD PUSH2 0x95B SWAP2 SWAP1 PUSH2 0x31D1 JUMP JUMPDEST PUSH1 0x40 MLOAD DUP1 SWAP2 SUB SWAP1 RETURN JUMPDEST CALLVALUE DUP1 ISZERO PUSH2 0x970 JUMPI PUSH1 0x0 DUP1 REVERT JUMPDEST POP PUSH2 0x98B PUSH1 0x4 DUP1 CALLDATASIZE SUB DUP2 ADD SWAP1 PUSH2 0x986 SWAP2 SWAP1 PUSH2 0x3D38 JUMP JUMPDEST PUSH2 0x2709 JUMP JUMPDEST STOP JUMPDEST CALLVALUE DUP1 ISZERO PUSH2 0x999 JUMPI PUSH1 0x0 DUP1 REVERT JUMPDEST POP PUSH2 0x9B4 PUSH1 0x4 DUP1 CALLDATASIZE SUB DUP2 ADD SWAP1 PUSH2 0x9AF SWAP2 SWAP1 PUSH2 0x3D78 JUMP JUMPDEST PUSH2 0x283D JUMP JUMPDEST STOP JUMPDEST CALLVALUE DUP1 ISZERO PUSH2 0x9C2 JUMPI PUSH1 0x0 DUP1 REVERT JUMPDEST POP PUSH2 0x9DD PUSH1 0x4 DUP1 CALLDATASIZE SUB DUP2 ADD SWAP1 PUSH2 0x9D8 SWAP2 SWAP1 PUSH2 0x3283 JUMP JUMPDEST PUSH2 0x2BF0 JUMP JUMPDEST PUSH1 0x40 MLOAD PUSH2 0x9EA SWAP2 SWAP1 PUSH2 0x3116 JUMP JUMPDEST PUSH1 0x40 MLOAD DUP1 SWAP2 SUB SWAP1 RETURN JUMPDEST CALLVALUE DUP1 ISZERO PUSH2 0x9FF JUMPI PUSH1 0x0 DUP1 REVERT JUMPDEST POP PUSH2 0xA1A PUSH1 0x4 DUP1 CALLDATASIZE SUB DUP2 ADD SWAP1 PUSH2 0xA15 SWAP2 SWAP1 PUSH2 0x3E12 JUMP JUMPDEST PUSH2 0x2C08 JUMP JUMPDEST STOP JUMPDEST PUSH1 0x0 PUSH1 0x20 MSTORE DUP2 PUSH1 0x0 MSTORE PUSH1 0x40 PUSH1 0x0 KECCAK256 PUSH1 0x20 MSTORE DUP1 PUSH1 0x0 MSTORE PUSH1 0x40 PUSH1 0x0 KECCAK256 PUSH1 0x0 SWAP2 POP SWAP2 POP POP SLOAD DUP2 JUMP JUMPDEST PUSH1 0x0 PUSH4 0x1FFC9A7 PUSH1 0xE0 SHL DUP3 PUSH28 0xFFFFFFFFFFFFFFFFFFFFFFFFFFFFFFFFFFFFFFFFFFFFFFFFFFFFFFFF NOT AND EQ DUP1 PUSH2 0xA9C JUMPI POP PUSH4 0xD9B67A26 PUSH1 0xE0 SHL DUP3 PUSH28 0xFFFFFFFFFFFFFFFFFFFFFFFFFFFFFFFFFFFFFFFFFFFFFFFFFFFFFFFF NOT AND EQ JUMPDEST DUP1 PUSH2 0xACC JUMPI POP PUSH4 0xE89341C PUSH1 0xE0 SHL DUP3 PUSH28 0xFFFFFFFFFFFFFFFFFFFFFFFFFFFFFFFFFFFFFFFFFFFFFFFFFFFFFFFF NOT AND EQ JUMPDEST SWAP1 POP SWAP2 SWAP1 POP JUMP JUMPDEST DUP1 PUSH1 0x9 PUSH1 0x14 PUSH2 0x100 EXP DUP2 SLOAD DUP2 PUSH8 0xFFFFFFFFFFFFFFFF MUL NOT AND SWAP1 DUP4 PUSH8 0xFFFFFFFFFFFFFFFF AND MUL OR SWAP1 SSTORE POP POP JUMP JUMPDEST PUSH1 0x9 PUSH1 0x14 SWAP1 SLOAD SWAP1 PUSH2 0x100 EXP SWAP1 DIV PUSH8 0xFFFFFFFFFFFFFFFF AND DUP2 JUMP JUMPDEST PUSH1 0x0 PUSH1 0x3 SLOAD DUP3 LT PUSH2 0xB5F JUMPI PUSH1 0x40 MLOAD PUSH32 0x8C379A000000000000000000000000000000000000000000000000000000000 DUP2 MSTORE PUSH1 0x4 ADD PUSH2 0xB56 SWAP1 PUSH2 0x3E8B JUMP JUMPDEST PUSH1 0x40 MLOAD DUP1 SWAP2 SUB SWAP1 REVERT JUMPDEST PUSH1 0x4 PUSH1 0x0 DUP4 DUP2 MSTORE PUSH1 0x20 ADD SWAP1 DUP2 MSTORE PUSH1 0x20 ADD PUSH1 0x0 KECCAK256 PUSH1 0x3 ADD SLOAD SWAP1 POP SWAP2 SWAP1 POP JUMP JUMPDEST PUSH1 0x4 PUSH1 0x20 MSTORE DUP1 PUSH1 0x0 MSTORE PUSH1 0x40 PUSH1 0x0 KECCAK256 PUSH1 0x0 SWAP2 POP SWAP1 POP DUP1 PUSH1 0x0 ADD SLOAD SWAP1 DUP1 PUSH1 0x1 ADD DUP1 SLOAD PUSH2 0xBA6 SWAP1 PUSH2 0x3EDA JUMP JUMPDEST DUP1 PUSH1 0x1F ADD PUSH1 0x20 DUP1 SWAP2 DIV MUL PUSH1 0x20 ADD PUSH1 0x40 MLOAD SWAP1 DUP2 ADD PUSH1 0x40 MSTORE DUP1 SWAP3 SWAP2 SWAP1 DUP2 DUP2 MSTORE PUSH1 0x20 ADD DUP3 DUP1 SLOAD PUSH2 0xBD2 SWAP1 PUSH2 0x3EDA JUMP JUMPDEST DUP1 ISZERO PUSH2 0xC1F JUMPI DUP1 PUSH1 0x1F LT PUSH2 0xBF4 JUMPI PUSH2 0x100 DUP1 DUP4 SLOAD DIV MUL DUP4 MSTORE SWAP2 PUSH1 0x20 ADD SWAP2 PUSH2 0xC1F JUMP JUMPDEST DUP3 ADD SWAP2 SWAP1 PUSH1 0x0 MSTORE PUSH1 0x20 PUSH1 0x0 KECCAK256 SWAP1 JUMPDEST DUP2 SLOAD DUP2 MSTORE SWAP1 PUSH1 0x1 ADD SWAP1 PUSH1 0x20 ADD DUP1 DUP4 GT PUSH2 0xC02 JUMPI DUP3 SWAP1 SUB PUSH1 0x1F AND DUP3 ADD SWAP2 JUMPDEST POP POP POP POP POP SWAP1 DUP1 PUSH1 0x2 ADD PUSH1 0x0 SWAP1 SLOAD SWAP1 PUSH2 0x100 EXP SWAP1 DIV PUSH20 0xFFFFFFFFFFFFFFFFFFFFFFFFFFFFFFFFFFFFFFFF AND SWAP1 DUP1 PUSH1 0x2 ADD PUSH1 0x14 SWAP1 SLOAD SWAP1 PUSH2 0x100 EXP SWAP1 DIV PUSH1 0xFF AND SWAP1 DUP1 PUSH1 0x3 ADD SLOAD SWAP1 POP DUP6 JUMP JUMPDEST PUSH1 0x60 PUSH1 0x4 PUSH1 0x0 DUP4 DUP2 MSTORE PUSH1 0x20 ADD SWAP1 DUP2 MSTORE PUSH1 0x20 ADD PUSH1 0x0 KECCAK256 PUSH1 0x1 ADD DUP1 SLOAD PUSH2 0xC8B SWAP1 PUSH2 0x3EDA JUMP JUMPDEST DUP1 PUSH1 0x1F ADD PUSH1 0x20 DUP1 SWAP2 DIV MUL PUSH1 0x20 ADD PUSH1 0x40 MLOAD SWAP1 DUP2 ADD PUSH1 0x40 MSTORE DUP1 SWAP3 SWAP2 SWAP1 DUP2 DUP2 MSTORE PUSH1 0x20 ADD DUP3 DUP1 SLOAD PUSH2 0xCB7 SWAP1 PUSH2 0x3EDA JUMP JUMPDEST DUP1 ISZERO PUSH2 0xD04 JUMPI DUP1 PUSH1 0x1F LT PUSH2 0xCD9 JUMPI PUSH2 0x100 DUP1 DUP4 SLOAD DIV MUL DUP4 MSTORE SWAP2 PUSH1 0x20 ADD SWAP2 PUSH2 0xD04 JUMP JUMPDEST DUP3 ADD SWAP2 SWAP1 PUSH1 0x0 MSTORE PUSH1 0x20 PUSH1 0x0 KECCAK256 SWAP1 JUMPDEST DUP2 SLOAD DUP2 MSTORE SWAP1 PUSH1 0x1 ADD SWAP1 PUSH1 0x20 ADD DUP1 DUP4 GT PUSH2 0xCE7 JUMPI DUP3 SWAP1 SUB PUSH1 0x1F AND DUP3 ADD SWAP2 JUMPDEST POP POP POP POP POP SWAP1 POP SWAP2 SWAP1 POP JUMP JUMPDEST PUSH1 0x0 DUP1 DUP6 DUP6 PUSH1 0x40 MLOAD PUSH1 0x20 ADD PUSH2 0xD26 SWAP3 SWAP2 SWAP1 PUSH2 0x3F74 JUMP JUMPDEST PUSH1 0x40 MLOAD PUSH1 0x20 DUP2 DUP4 SUB SUB DUP2 MSTORE SWAP1 PUSH1 0x40 MSTORE DUP1 MLOAD SWAP1 PUSH1 0x20 ADD KECCAK256 SWAP1 POP PUSH1 0x0 DUP2 SWAP1 POP PUSH1 0x0 JUMPDEST DUP6 DUP6 SWAP1 POP DUP2 LT ISZERO PUSH2 0xDE0 JUMPI PUSH1 0x0 DUP7 DUP7 DUP4 DUP2 DUP2 LT PUSH2 0xD66 JUMPI PUSH2 0xD65 PUSH2 0x3FA0 JUMP JUMPDEST JUMPDEST SWAP1 POP PUSH1 0x20 MUL ADD CALLDATALOAD SWAP1 POP DUP1 DUP4 GT PUSH2 0xDA6 JUMPI DUP3 DUP2 PUSH1 0x40 MLOAD PUSH1 0x20 ADD PUSH2 0xD89 SWAP3 SWAP2 SWAP1 PUSH2 0x3FF0 JUMP JUMPDEST PUSH1 0x40 MLOAD PUSH1 0x20 DUP2 DUP4 SUB SUB DUP2 MSTORE SWAP1 PUSH1 0x40 MSTORE DUP1 MLOAD SWAP1 PUSH1 0x20 ADD KECCAK256 SWAP3 POP PUSH2 0xDD2 JUMP JUMPDEST DUP1 DUP4 PUSH1 0x40 MLOAD PUSH1 0x20 ADD PUSH2 0xDB9 SWAP3 SWAP2 SWAP1 PUSH2 0x3FF0 JUMP JUMPDEST PUSH1 0x40 MLOAD PUSH1 0x20 DUP2 DUP4 SUB SUB DUP2 MSTORE SWAP1 PUSH1 0x40 MSTORE DUP1 MLOAD SWAP1 PUSH1 0x20 ADD KECCAK256 SWAP3 POP JUMPDEST POP DUP1 DUP1 PUSH1 0x1 ADD SWAP2 POP POP PUSH2 0xD46 JUMP JUMPDEST POP PUSH1 0x4 PUSH1 0x0 DUP10 DUP2 MSTORE PUSH1 0x20 ADD SWAP1 DUP2 MSTORE PUSH1 0x20 ADD PUSH1 0x0 KECCAK256 PUSH1 0x3 ADD SLOAD DUP2 EQ SWAP3 POP POP POP SWAP6 SWAP5 POP POP POP POP POP JUMP JUMPDEST PUSH2 0x3E8 DUP2 JUMP JUMPDEST DUP4 DUP4 SWAP1 POP DUP7 DUP7 SWAP1 POP EQ PUSH2 0xE55 JUMPI PUSH1 0x40 MLOAD PUSH32 0x8C379A000000000000000000000000000000000000000000000000000000000 DUP2 MSTORE PUSH1 0x4 ADD PUSH2 0xE4C SWAP1 PUSH2 0x4068 JUMP JUMPDEST PUSH1 0x40 MLOAD DUP1 SWAP2 SUB SWAP1 REVERT JUMPDEST DUP8 PUSH20 0xFFFFFFFFFFFFFFFFFFFFFFFFFFFFFFFFFFFFFFFF AND CALLER PUSH20 0xFFFFFFFFFFFFFFFFFFFFFFFFFFFFFFFFFFFFFFFF AND EQ DUP1 PUSH2 0xF15 JUMPI POP PUSH1 0x1 PUSH1 0x0 DUP10 PUSH20 0xFFFFFFFFFFFFFFFFFFFFFFFFFFFFFFFFFFFFFFFF AND PUSH20 0xFFFFFFFFFFFFFFFFFFFFFFFFFFFFFFFFFFFFFFFF AND DUP2 MSTORE PUSH1 0x20 ADD SWAP1 DUP2 MSTORE PUSH1 0x20 ADD PUSH1 0x0 KECCAK256 PUSH1 0x0 CALLER PUSH20 0xFFFFFFFFFFFFFFFFFFFFFFFFFFFFFFFFFFFFFFFF AND PUSH20 0xFFFFFFFFFFFFFFFFFFFFFFFFFFFFFFFFFFFFFFFF AND DUP2 MSTORE PUSH1 0x20 ADD SWAP1 DUP2 MSTORE PUSH1 0x20 ADD PUSH1 0x0 KECCAK256 PUSH1 0x0 SWAP1 SLOAD SWAP1 PUSH2 0x100 EXP SWAP1 DIV PUSH1 0xFF AND JUMPDEST PUSH2 0xF54 JUMPI PUSH1 0x40 MLOAD PUSH32 0x8C379A000000000000000000000000000000000000000000000000000000000 DUP2 MSTORE PUSH1 0x4 ADD PUSH2 0xF4B SWAP1 PUSH2 0x40D4 JUMP JUMPDEST PUSH1 0x40 MLOAD DUP1 SWAP2 SUB SWAP1 REVERT JUMPDEST PUSH1 0x0 DUP1 PUSH1 0x0 JUMPDEST DUP9 DUP9 SWAP1 POP DUP2 LT ISZERO PUSH2 0x1074 JUMPI DUP9 DUP9 DUP3 DUP2 DUP2 LT PUSH2 0xF78 JUMPI PUSH2 0xF77 PUSH2 0x3FA0 JUMP JUMPDEST JUMPDEST SWAP1 POP PUSH1 0x20 MUL ADD CALLDATALOAD SWAP3 POP DUP7 DUP7 DUP3 DUP2 DUP2 LT PUSH2 0xF94 JUMPI PUSH2 0xF93 PUSH2 0x3FA0 JUMP JUMPDEST JUMPDEST SWAP1 POP PUSH1 0x20 MUL ADD CALLDATALOAD SWAP2 POP DUP2 PUSH1 0x0 DUP1 DUP14 PUSH20 0xFFFFFFFFFFFFFFFFFFFFFFFFFFFFFFFFFFFFFFFF AND PUSH20 0xFFFFFFFFFFFFFFFFFFFFFFFFFFFFFFFFFFFFFFFF AND DUP2 MSTORE PUSH1 0x20 ADD SWAP1 DUP2 MSTORE PUSH1 0x20 ADD PUSH1 0x0 KECCAK256 PUSH1 0x0 DUP6 DUP2 MSTORE PUSH1 0x20 ADD SWAP1 DUP2 MSTORE PUSH1 0x20 ADD PUSH1 0x0 KECCAK256 PUSH1 0x0 DUP3 DUP3 SLOAD PUSH2 0xFFC SWAP2 SWAP1 PUSH2 0x4123 JUMP JUMPDEST SWAP3 POP POP DUP2 SWAP1 SSTORE POP DUP2 PUSH1 0x0 DUP1 DUP13 PUSH20 0xFFFFFFFFFFFFFFFFFFFFFFFFFFFFFFFFFFFFFFFF AND PUSH20 0xFFFFFFFFFFFFFFFFFFFFFFFFFFFFFFFFFFFFFFFF AND DUP2 MSTORE PUSH1 0x20 ADD SWAP1 DUP2 MSTORE PUSH1 0x20 ADD PUSH1 0x0 KECCAK256 PUSH1 0x0 DUP6 DUP2 MSTORE PUSH1 0x20 ADD SWAP1 DUP2 MSTORE PUSH1 0x20 ADD PUSH1 0x0 KECCAK256 PUSH1 0x0 DUP3 DUP3 SLOAD PUSH2 0x1062 SWAP2 SWAP1 PUSH2 0x4157 JUMP JUMPDEST SWAP3 POP POP DUP2 SWAP1 SSTORE POP DUP1 PUSH1 0x1 ADD SWAP1 POP PUSH2 0xF5A JUMP JUMPDEST POP DUP9 PUSH20 0xFFFFFFFFFFFFFFFFFFFFFFFFFFFFFFFFFFFFFFFF AND DUP11 PUSH20 0xFFFFFFFFFFFFFFFFFFFFFFFFFFFFFFFFFFFFFFFF AND CALLER PUSH20 0xFFFFFFFFFFFFFFFFFFFFFFFFFFFFFFFFFFFFFFFF AND PUSH32 0x4A39DC06D4C0DBC64B70AF90FD698A233A518AA5D07E595D983B8C0526C8F7FB DUP12 DUP12 DUP12 DUP12 PUSH1 0x40 MLOAD PUSH2 0x10EF SWAP5 SWAP4 SWAP3 SWAP2 SWAP1 PUSH2 0x41F5 JUMP JUMPDEST PUSH1 0x40 MLOAD DUP1 SWAP2 SUB SWAP1 LOG4 PUSH1 0x0 DUP10 PUSH20 0xFFFFFFFFFFFFFFFFFFFFFFFFFFFFFFFFFFFFFFFF AND EXTCODESIZE EQ PUSH2 0x11EC JUMPI PUSH4 0xBC197C81 PUSH1 0xE0 SHL PUSH28 0xFFFFFFFFFFFFFFFFFFFFFFFFFFFFFFFFFFFFFFFFFFFFFFFFFFFFFFFF NOT AND DUP10 PUSH20 0xFFFFFFFFFFFFFFFFFFFFFFFFFFFFFFFFFFFFFFFF AND PUSH4 0xBC197C81 CALLER DUP14 DUP13 DUP13 DUP13 DUP13 DUP13 DUP13 PUSH1 0x40 MLOAD DUP10 PUSH4 0xFFFFFFFF AND PUSH1 0xE0 SHL DUP2 MSTORE PUSH1 0x4 ADD PUSH2 0x1184 SWAP9 SWAP8 SWAP7 SWAP6 SWAP5 SWAP4 SWAP3 SWAP2 SWAP1 PUSH2 0x427D JUMP JUMPDEST PUSH1 0x20 PUSH1 0x40 MLOAD DUP1 DUP4 SUB DUP2 PUSH1 0x0 DUP8 GAS CALL ISZERO DUP1 ISZERO PUSH2 0x11A3 JUMPI RETURNDATASIZE PUSH1 0x0 DUP1 RETURNDATACOPY RETURNDATASIZE PUSH1 0x0 REVERT JUMPDEST POP POP POP POP PUSH1 0x40 MLOAD RETURNDATASIZE PUSH1 0x1F NOT PUSH1 0x1F DUP3 ADD AND DUP3 ADD DUP1 PUSH1 0x40 MSTORE POP DUP2 ADD SWAP1 PUSH2 0x11C7 SWAP2 SWAP1 PUSH2 0x4300 JUMP JUMPDEST PUSH28 0xFFFFFFFFFFFFFFFFFFFFFFFFFFFFFFFFFFFFFFFFFFFFFFFFFFFFFFFF NOT AND EQ PUSH2 0x121E JUMP JUMPDEST PUSH1 0x0 PUSH20 0xFFFFFFFFFFFFFFFFFFFFFFFFFFFFFFFFFFFFFFFF AND DUP10 PUSH20 0xFFFFFFFFFFFFFFFFFFFFFFFFFFFFFFFFFFFFFFFF AND EQ ISZERO JUMPDEST PUSH2 0x125D JUMPI PUSH1 0x40 MLOAD PUSH32 0x8C379A000000000000000000000000000000000000000000000000000000000 DUP2 MSTORE PUSH1 0x4 ADD PUSH2 0x1254 SWAP1 PUSH2 0x4379 JUMP JUMPDEST PUSH1 0x40 MLOAD DUP1 SWAP2 SUB SWAP1 REVERT JUMPDEST POP POP POP POP POP POP POP POP POP POP JUMP JUMPDEST PUSH1 0x0 CALLER PUSH20 0xFFFFFFFFFFFFFFFFFFFFFFFFFFFFFFFFFFFFFFFF AND PUSH4 0x62252880 DUP6 PUSH1 0x40 MLOAD DUP3 PUSH4 0xFFFFFFFF AND PUSH1 0xE0 SHL DUP2 MSTORE PUSH1 0x4 ADD PUSH2 0x12A4 SWAP2 SWAP1 PUSH2 0x3268 JUMP JUMPDEST PUSH1 0x0 PUSH1 0x40 MLOAD DUP1 DUP4 SUB DUP2 DUP7 GAS STATICCALL ISZERO DUP1 ISZERO PUSH2 0x12C1 JUMPI RETURNDATASIZE PUSH1 0x0 DUP1 RETURNDATACOPY RETURNDATASIZE PUSH1 0x0 REVERT JUMPDEST POP POP POP POP PUSH1 0x40 MLOAD RETURNDATASIZE PUSH1 0x0 DUP3 RETURNDATACOPY RETURNDATASIZE PUSH1 0x1F NOT PUSH1 0x1F DUP3 ADD AND DUP3 ADD DUP1 PUSH1 0x40 MSTORE POP DUP2 ADD SWAP1 PUSH2 0x12EA SWAP2 SWAP1 PUSH2 0x4737 JUMP JUMPDEST SWAP1 POP PUSH2 0x130D DUP2 PUSH2 0x120 ADD MLOAD DUP1 PUSH1 0x20 ADD SWAP1 MLOAD DUP2 ADD SWAP1 PUSH2 0x1308 SWAP2 SWAP1 PUSH2 0x4795 JUMP JUMPDEST PUSH2 0x2C5C JUMP JUMPDEST POP POP POP POP POP POP JUMP JUMPDEST PUSH1 0x40 MLOAD PUSH32 0x9BA6061B00000000000000000000000000000000000000000000000000000000 DUP2 MSTORE PUSH1 0x4 ADD PUSH1 0x40 MLOAD DUP1 SWAP2 SUB SWAP1 REVERT JUMPDEST PUSH2 0x3E7 DUP2 JUMP JUMPDEST PUSH1 0x60 PUSH1 0x5 PUSH1 0x0 DUP4 PUSH20 0xFFFFFFFFFFFFFFFFFFFFFFFFFFFFFFFFFFFFFFFF AND PUSH20 0xFFFFFFFFFFFFFFFFFFFFFFFFFFFFFFFFFFFFFFFF AND DUP2 MSTORE PUSH1 0x20 ADD SWAP1 DUP2 MSTORE PUSH1 0x20 ADD PUSH1 0x0 KECCAK256 DUP1 SLOAD DUP1 PUSH1 0x20 MUL PUSH1 0x20 ADD PUSH1 0x40 MLOAD SWAP1 DUP2 ADD PUSH1 0x40 MSTORE DUP1 SWAP3 SWAP2 SWAP1 DUP2 DUP2 MSTORE PUSH1 0x20 ADD DUP3 DUP1 SLOAD DUP1 ISZERO PUSH2 0x13D8 JUMPI PUSH1 0x20 MUL DUP3 ADD SWAP2 SWAP1 PUSH1 0x0 MSTORE PUSH1 0x20 PUSH1 0x0 KECCAK256 SWAP1 JUMPDEST DUP2 SLOAD DUP2 MSTORE PUSH1 0x20 ADD SWAP1 PUSH1 0x1 ADD SWAP1 DUP1 DUP4 GT PUSH2 0x13C4 JUMPI JUMPDEST POP POP POP POP POP SWAP1 POP SWAP2 SWAP1 POP JUMP JUMPDEST PUSH1 0x60 DUP3 DUP3 SWAP1 POP DUP6 DUP6 SWAP1 POP EQ PUSH2 0x142E JUMPI PUSH1 0x40 MLOAD PUSH32 0x8C379A000000000000000000000000000000000000000000000000000000000 DUP2 MSTORE PUSH1 0x4 ADD PUSH2 0x1425 SWAP1 PUSH2 0x4068 JUMP JUMPDEST PUSH1 0x40 MLOAD DUP1 SWAP2 SUB SWAP1 REVERT JUMPDEST DUP5 DUP5 SWAP1 POP PUSH8 0xFFFFFFFFFFFFFFFF DUP2 GT ISZERO PUSH2 0x144B JUMPI PUSH2 0x144A PUSH2 0x439E JUMP JUMPDEST JUMPDEST PUSH1 0x40 MLOAD SWAP1 DUP1 DUP3 MSTORE DUP1 PUSH1 0x20 MUL PUSH1 0x20 ADD DUP3 ADD PUSH1 0x40 MSTORE DUP1 ISZERO PUSH2 0x1479 JUMPI DUP2 PUSH1 0x20 ADD PUSH1 0x20 DUP3 MUL DUP1 CALLDATASIZE DUP4 CALLDATACOPY DUP1 DUP3 ADD SWAP2 POP POP SWAP1 POP JUMPDEST POP SWAP1 POP PUSH1 0x0 JUMPDEST DUP6 DUP6 SWAP1 POP DUP2 LT ISZERO PUSH2 0x1544 JUMPI PUSH1 0x0 DUP1 DUP8 DUP8 DUP5 DUP2 DUP2 LT PUSH2 0x14A0 JUMPI PUSH2 0x149F PUSH2 0x3FA0 JUMP JUMPDEST JUMPDEST SWAP1 POP PUSH1 0x20 MUL ADD PUSH1 0x20 DUP2 ADD SWAP1 PUSH2 0x14B5 SWAP2 SWAP1 PUSH2 0x37E9 JUMP JUMPDEST PUSH20 0xFFFFFFFFFFFFFFFFFFFFFFFFFFFFFFFFFFFFFFFF AND PUSH20 0xFFFFFFFFFFFFFFFFFFFFFFFFFFFFFFFFFFFFFFFF AND DUP2 MSTORE PUSH1 0x20 ADD SWAP1 DUP2 MSTORE PUSH1 0x20 ADD PUSH1 0x0 KECCAK256 PUSH1 0x0 DUP6 DUP6 DUP5 DUP2 DUP2 LT PUSH2 0x1504 JUMPI PUSH2 0x1503 PUSH2 0x3FA0 JUMP JUMPDEST JUMPDEST SWAP1 POP PUSH1 0x20 MUL ADD CALLDATALOAD DUP2 MSTORE PUSH1 0x20 ADD SWAP1 DUP2 MSTORE PUSH1 0x20 ADD PUSH1 0x0 KECCAK256 SLOAD DUP3 DUP3 DUP2 MLOAD DUP2 LT PUSH2 0x152D JUMPI PUSH2 0x152C PUSH2 0x3FA0 JUMP JUMPDEST JUMPDEST PUSH1 0x20 MUL PUSH1 0x20 ADD ADD DUP2 DUP2 MSTORE POP POP DUP1 PUSH1 0x1 ADD SWAP1 POP PUSH2 0x147F JUMP JUMPDEST POP SWAP5 SWAP4 POP POP POP POP JUMP JUMPDEST PUSH1 0x0 DUP1 PUSH1 0x1 PUSH8 0xFFFFFFFFFFFFFFFF DUP2 GT ISZERO PUSH2 0x156B JUMPI PUSH2 0x156A PUSH2 0x439E JUMP JUMPDEST JUMPDEST PUSH1 0x40 MLOAD SWAP1 DUP1 DUP3 MSTORE DUP1 PUSH1 0x20 MUL PUSH1 0x20 ADD DUP3 ADD PUSH1 0x40 MSTORE DUP1 ISZERO PUSH2 0x159E JUMPI DUP2 PUSH1 0x20 ADD JUMPDEST PUSH1 0x60 DUP2 MSTORE PUSH1 0x20 ADD SWAP1 PUSH1 0x1 SWAP1 SUB SWAP1 DUP2 PUSH2 0x1589 JUMPI SWAP1 POP JUMPDEST POP SWAP1 POP ADDRESS PUSH1 0x40 MLOAD PUSH1 0x20 ADD PUSH2 0x15B2 SWAP2 SWAP1 PUSH2 0x3AE0 JUMP JUMPDEST PUSH1 0x40 MLOAD PUSH1 0x20 DUP2 DUP4 SUB SUB DUP2 MSTORE SWAP1 PUSH1 0x40 MSTORE DUP2 PUSH1 0x0 DUP2 MLOAD DUP2 LT PUSH2 0x15D5 JUMPI PUSH2 0x15D4 PUSH2 0x3FA0 JUMP JUMPDEST JUMPDEST PUSH1 0x20 MUL PUSH1 0x20 ADD ADD DUP2 SWAP1 MSTORE POP PUSH1 0x0 PUSH1 0x40 MLOAD DUP1 PUSH2 0x140 ADD PUSH1 0x40 MSTORE DUP1 PUSH1 0x9 PUSH1 0x14 SWAP1 SLOAD SWAP1 PUSH2 0x100 EXP SWAP1 DIV PUSH8 0xFFFFFFFFFFFFFFFF AND PUSH8 0xFFFFFFFFFFFFFFFF AND DUP2 MSTORE PUSH1 0x20 ADD PUSH1 0x0 PUSH8 0xFFFFFFFFFFFFFFFF AND DUP2 MSTORE PUSH1 0x20 ADD PUSH1 0x0 PUSH8 0xFFFFFFFFFFFFFFFF AND DUP2 MSTORE PUSH1 0x20 ADD PUSH1 0x0 PUSH8 0xFFFFFFFFFFFFFFFF AND DUP2 MSTORE PUSH1 0x20 ADD ADDRESS PUSH20 0xFFFFFFFFFFFFFFFFFFFFFFFFFFFFFFFFFFFFFFFF AND DUP2 MSTORE PUSH1 0x20 ADD PUSH1 0x0 PUSH8 0xFFFFFFFFFFFFFFFF AND DUP2 MSTORE PUSH1 0x20 ADD PUSH1 0x0 PUSH1 0x3 DUP2 GT ISZERO PUSH2 0x1688 JUMPI PUSH2 0x1687 PUSH2 0x47C2 JUMP JUMPDEST JUMPDEST DUP2 MSTORE PUSH1 0x20 ADD PUSH1 0x0 ISZERO ISZERO DUP2 MSTORE PUSH1 0x20 ADD DUP4 DUP2 MSTORE PUSH1 0x20 ADD DUP7 PUSH1 0x40 MLOAD PUSH1 0x20 ADD PUSH2 0x16AD SWAP2 SWAP1 PUSH2 0x3116 JUMP JUMPDEST PUSH1 0x40 MLOAD PUSH1 0x20 DUP2 DUP4 SUB SUB DUP2 MSTORE SWAP1 PUSH1 0x40 MSTORE DUP2 MSTORE POP SWAP1 POP PUSH1 0x9 PUSH1 0x0 SWAP1 SLOAD SWAP1 PUSH2 0x100 EXP SWAP1 DIV PUSH20 0xFFFFFFFFFFFFFFFFFFFFFFFFFFFFFFFFFFFFFFFF AND PUSH20 0xFFFFFFFFFFFFFFFFFFFFFFFFFFFFFFFFFFFFFFFF AND PUSH4 0xB82916CB DUP3 PUSH1 0x40 MLOAD DUP3 PUSH4 0xFFFFFFFF AND PUSH1 0xE0 SHL DUP2 MSTORE PUSH1 0x4 ADD PUSH2 0x171C SWAP2 SWAP1 PUSH2 0x4AA7 JUMP JUMPDEST PUSH1 0x20 PUSH1 0x40 MLOAD DUP1 DUP4 SUB DUP2 PUSH1 0x0 DUP8 GAS CALL ISZERO DUP1 ISZERO PUSH2 0x173B JUMPI RETURNDATASIZE PUSH1 0x0 DUP1 RETURNDATACOPY RETURNDATASIZE PUSH1 0x0 REVERT JUMPDEST POP POP POP POP PUSH1 0x40 MLOAD RETURNDATASIZE PUSH1 0x1F NOT PUSH1 0x1F DUP3 ADD AND DUP3 ADD DUP1 PUSH1 0x40 MSTORE POP DUP2 ADD SWAP1 PUSH2 0x175F SWAP2 SWAP1 PUSH2 0x4B02 JUMP JUMPDEST SWAP3 POP POP POP SWAP5 SWAP4 POP POP POP POP JUMP JUMPDEST PUSH1 0x3 SLOAD DUP2 JUMP JUMPDEST PUSH1 0x0 PUSH2 0x177C DUP4 PUSH2 0x2CA2 JUMP JUMPDEST PUSH2 0x1790 DUP4 DUP6 PUSH2 0x178B SWAP2 SWAP1 PUSH2 0x4157 JUMP JUMPDEST PUSH2 0x2CA2 JUMP JUMPDEST PUSH2 0x179A SWAP2 SWAP1 PUSH2 0x4123 JUMP JUMPDEST SWAP1 POP SWAP3 SWAP2 POP POP JUMP JUMPDEST PUSH8 0xDE0B6B3A7640000 DUP2 JUMP JUMPDEST PUSH1 0x8 PUSH1 0x20 MSTORE DUP2 PUSH1 0x0 MSTORE PUSH1 0x40 PUSH1 0x0 KECCAK256 PUSH1 0x20 MSTORE DUP1 PUSH1 0x0 MSTORE PUSH1 0x40 PUSH1 0x0 KECCAK256 PUSH1 0x0 SWAP2 POP SWAP2 POP SWAP1 SLOAD SWAP1 PUSH2 0x100 EXP SWAP1 DIV PUSH1 0xFF AND DUP2 JUMP JUMPDEST PUSH1 0x2 PUSH1 0x0 SWAP1 SLOAD SWAP1 PUSH2 0x100 EXP SWAP1 DIV PUSH20 0xFFFFFFFFFFFFFFFFFFFFFFFFFFFFFFFFFFFFFFFF AND DUP2 JUMP JUMPDEST DUP1 PUSH1 0x9 PUSH1 0x0 PUSH2 0x100 EXP DUP2 SLOAD DUP2 PUSH20 0xFFFFFFFFFFFFFFFFFFFFFFFFFFFFFFFFFFFFFFFF MUL NOT AND SWAP1 DUP4 PUSH20 0xFFFFFFFFFFFFFFFFFFFFFFFFFFFFFFFFFFFFFFFF AND MUL OR SWAP1 SSTORE POP POP JUMP JUMPDEST PUSH1 0x5 PUSH1 0x20 MSTORE DUP2 PUSH1 0x0 MSTORE PUSH1 0x40 PUSH1 0x0 KECCAK256 DUP2 DUP2 SLOAD DUP2 LT PUSH2 0x1863 JUMPI PUSH1 0x0 DUP1 REVERT JUMPDEST SWAP1 PUSH1 0x0 MSTORE PUSH1 0x20 PUSH1 0x0 KECCAK256 ADD PUSH1 0x0 SWAP2 POP SWAP2 POP POP SLOAD DUP2 JUMP JUMPDEST PUSH1 0x0 PUSH2 0x18A2 DUP3 PUSH1 0x6 PUSH1 0x0 DUP7 DUP2 MSTORE PUSH1 0x20 ADD SWAP1 DUP2 MSTORE PUSH1 0x20 ADD PUSH1 0x0 KECCAK256 SLOAD PUSH2 0x189C SWAP2 SWAP1 PUSH2 0x4123 JUMP JUMPDEST DUP4 PUSH2 0x1771 JUMP JUMPDEST SWAP1 POP SWAP3 SWAP2 POP POP JUMP JUMPDEST DUP1 PUSH1 0x1 PUSH1 0x0 CALLER PUSH20 0xFFFFFFFFFFFFFFFFFFFFFFFFFFFFFFFFFFFFFFFF AND PUSH20 0xFFFFFFFFFFFFFFFFFFFFFFFFFFFFFFFFFFFFFFFF AND DUP2 MSTORE PUSH1 0x20 ADD SWAP1 DUP2 MSTORE PUSH1 0x20 ADD PUSH1 0x0 KECCAK256 PUSH1 0x0 DUP5 PUSH20 0xFFFFFFFFFFFFFFFFFFFFFFFFFFFFFFFFFFFFFFFF AND PUSH20 0xFFFFFFFFFFFFFFFFFFFFFFFFFFFFFFFFFFFFFFFF AND DUP2 MSTORE PUSH1 0x20 ADD SWAP1 DUP2 MSTORE PUSH1 0x20 ADD PUSH1 0x0 KECCAK256 PUSH1 0x0 PUSH2 0x100 EXP DUP2 SLOAD DUP2 PUSH1 0xFF MUL NOT AND SWAP1 DUP4 ISZERO ISZERO MUL OR SWAP1 SSTORE POP DUP2 PUSH20 0xFFFFFFFFFFFFFFFFFFFFFFFFFFFFFFFFFFFFFFFF AND CALLER PUSH20 0xFFFFFFFFFFFFFFFFFFFFFFFFFFFFFFFFFFFFFFFF AND PUSH32 0x17307EAB39AB6107E8899845AD3D59BD9653F200F220920489CA2B5937696C31 DUP4 PUSH1 0x40 MLOAD PUSH2 0x199B SWAP2 SWAP1 PUSH2 0x31D1 JUMP JUMPDEST PUSH1 0x40 MLOAD DUP1 SWAP2 SUB SWAP1 LOG3 POP POP JUMP JUMPDEST PUSH1 0x9 PUSH1 0x0 SWAP1 SLOAD SWAP1 PUSH2 0x100 EXP SWAP1 DIV PUSH20 0xFFFFFFFFFFFFFFFFFFFFFFFFFFFFFFFFFFFFFFFF AND DUP2 JUMP JUMPDEST PUSH1 0x3 SLOAD DUP5 LT PUSH2 0x1A11 JUMPI PUSH1 0x40 MLOAD PUSH32 0x8C379A000000000000000000000000000000000000000000000000000000000 DUP2 MSTORE PUSH1 0x4 ADD PUSH2 0x1A08 SWAP1 PUSH2 0x3E8B JUMP JUMPDEST PUSH1 0x40 MLOAD DUP1 SWAP2 SUB SWAP1 REVERT JUMPDEST PUSH1 0x4 PUSH1 0x0 DUP6 DUP2 MSTORE PUSH1 0x20 ADD SWAP1 DUP2 MSTORE PUSH1 0x20 ADD PUSH1 0x0 KECCAK256 PUSH1 0x2 ADD PUSH1 0x14 SWAP1 SLOAD SWAP1 PUSH2 0x100 EXP SWAP1 DIV PUSH1 0xFF AND PUSH2 0x1A74 JUMPI PUSH1 0x40 MLOAD PUSH32 0x8C379A000000000000000000000000000000000000000000000000000000000 DUP2 MSTORE PUSH1 0x4 ADD PUSH2 0x1A6B SWAP1 PUSH2 0x4B7B JUMP JUMPDEST PUSH1 0x40 MLOAD DUP1 SWAP2 SUB SWAP1 REVERT JUMPDEST PUSH1 0x8 PUSH1 0x0 DUP6 DUP2 MSTORE PUSH1 0x20 ADD SWAP1 DUP2 MSTORE PUSH1 0x20 ADD PUSH1 0x0 KECCAK256 PUSH1 0x0 CALLER PUSH20 0xFFFFFFFFFFFFFFFFFFFFFFFFFFFFFFFFFFFFFFFF AND PUSH20 0xFFFFFFFFFFFFFFFFFFFFFFFFFFFFFFFFFFFFFFFF AND DUP2 MSTORE PUSH1 0x20 ADD SWAP1 DUP2 MSTORE PUSH1 0x20 ADD PUSH1 0x0 KECCAK256 PUSH1 0x0 SWAP1 SLOAD SWAP1 PUSH2 0x100 EXP SWAP1 DIV PUSH1 0xFF AND ISZERO PUSH2 0x1B12 JUMPI PUSH1 0x40 MLOAD PUSH32 0x8C379A000000000000000000000000000000000000000000000000000000000 DUP2 MSTORE PUSH1 0x4 ADD PUSH2 0x1B09 SWAP1 PUSH2 0x4BE7 JUMP JUMPDEST PUSH1 0x40 MLOAD DUP1 SWAP2 SUB SWAP1 REVERT JUMPDEST PUSH2 0x1B1F DUP5 CALLER DUP6 DUP6 DUP6 PUSH2 0xD10 JUMP JUMPDEST PUSH2 0x1B5E JUMPI PUSH1 0x40 MLOAD PUSH32 0x8C379A000000000000000000000000000000000000000000000000000000000 DUP2 MSTORE PUSH1 0x4 ADD PUSH2 0x1B55 SWAP1 PUSH2 0x4C53 JUMP JUMPDEST PUSH1 0x40 MLOAD DUP1 SWAP2 SUB SWAP1 REVERT JUMPDEST PUSH1 0x0 PUSH2 0x3E8 PUSH2 0x3E7 DUP6 PUSH2 0x1B71 SWAP2 SWAP1 PUSH2 0x4C73 JUMP JUMPDEST PUSH2 0x1B7B SWAP2 SWAP1 PUSH2 0x4CE4 JUMP JUMPDEST SWAP1 POP PUSH1 0x1 PUSH1 0x8 PUSH1 0x0 DUP8 DUP2 MSTORE PUSH1 0x20 ADD SWAP1 DUP2 MSTORE PUSH1 0x20 ADD PUSH1 0x0 KECCAK256 PUSH1 0x0 CALLER PUSH20 0xFFFFFFFFFFFFFFFFFFFFFFFFFFFFFFFFFFFFFFFF AND PUSH20 0xFFFFFFFFFFFFFFFFFFFFFFFFFFFFFFFFFFFFFFFF AND DUP2 MSTORE PUSH1 0x20 ADD SWAP1 DUP2 MSTORE PUSH1 0x20 ADD PUSH1 0x0 KECCAK256 PUSH1 0x0 PUSH2 0x100 EXP DUP2 SLOAD DUP2 PUSH1 0xFF MUL NOT AND SWAP1 DUP4 ISZERO ISZERO MUL OR SWAP1 SSTORE POP PUSH1 0x0 CALLER PUSH20 0xFFFFFFFFFFFFFFFFFFFFFFFFFFFFFFFFFFFFFFFF AND DUP3 PUSH1 0x40 MLOAD PUSH2 0x1C0C SWAP1 PUSH2 0x4D43 JUMP JUMPDEST PUSH1 0x0 PUSH1 0x40 MLOAD DUP1 DUP4 SUB DUP2 DUP6 DUP8 GAS CALL SWAP3 POP POP POP RETURNDATASIZE DUP1 PUSH1 0x0 DUP2 EQ PUSH2 0x1C49 JUMPI PUSH1 0x40 MLOAD SWAP2 POP PUSH1 0x1F NOT PUSH1 0x3F RETURNDATASIZE ADD AND DUP3 ADD PUSH1 0x40 MSTORE RETURNDATASIZE DUP3 MSTORE RETURNDATASIZE PUSH1 0x0 PUSH1 0x20 DUP5 ADD RETURNDATACOPY PUSH2 0x1C4E JUMP JUMPDEST PUSH1 0x60 SWAP2 POP JUMPDEST POP POP SWAP1 POP DUP1 PUSH2 0x1C92 JUMPI PUSH1 0x40 MLOAD PUSH32 0x8C379A000000000000000000000000000000000000000000000000000000000 DUP2 MSTORE PUSH1 0x4 ADD PUSH2 0x1C89 SWAP1 PUSH2 0x4DA4 JUMP JUMPDEST PUSH1 0x40 MLOAD DUP1 SWAP2 SUB SWAP1 REVERT JUMPDEST CALLER PUSH20 0xFFFFFFFFFFFFFFFFFFFFFFFFFFFFFFFFFFFFFFFF AND DUP7 PUSH32 0x4EC90E965519D92681267467F775ADA5BD214AA92C0DC93D90A5E880CE9ED026 DUP5 PUSH1 0x40 MLOAD PUSH2 0x1CD9 SWAP2 SWAP1 PUSH2 0x3116 JUMP JUMPDEST PUSH1 0x40 MLOAD DUP1 SWAP2 SUB SWAP1 LOG3 POP POP POP POP POP POP JUMP JUMPDEST PUSH1 0x2 PUSH1 0x0 SWAP1 SLOAD SWAP1 PUSH2 0x100 EXP SWAP1 DIV PUSH20 0xFFFFFFFFFFFFFFFFFFFFFFFFFFFFFFFFFFFFFFFF AND PUSH20 0xFFFFFFFFFFFFFFFFFFFFFFFFFFFFFFFFFFFFFFFF AND CALLER PUSH20 0xFFFFFFFFFFFFFFFFFFFFFFFFFFFFFFFFFFFFFFFF AND EQ PUSH2 0x1D79 JUMPI PUSH1 0x40 MLOAD PUSH32 0x8C379A000000000000000000000000000000000000000000000000000000000 DUP2 MSTORE PUSH1 0x4 ADD PUSH2 0x1D70 SWAP1 PUSH2 0x4E10 JUMP JUMPDEST PUSH1 0x40 MLOAD DUP1 SWAP2 SUB SWAP1 REVERT JUMPDEST PUSH1 0x0 PUSH1 0x3 SLOAD SWAP1 POP PUSH1 0x40 MLOAD DUP1 PUSH1 0xA0 ADD PUSH1 0x40 MSTORE DUP1 DUP3 DUP2 MSTORE PUSH1 0x20 ADD DUP5 DUP5 DUP1 DUP1 PUSH1 0x1F ADD PUSH1 0x20 DUP1 SWAP2 DIV MUL PUSH1 0x20 ADD PUSH1 0x40 MLOAD SWAP1 DUP2 ADD PUSH1 0x40 MSTORE DUP1 SWAP4 SWAP3 SWAP2 SWAP1 DUP2 DUP2 MSTORE PUSH1 0x20 ADD DUP4 DUP4 DUP1 DUP3 DUP5 CALLDATACOPY PUSH1 0x0 DUP2 DUP5 ADD MSTORE PUSH1 0x1F NOT PUSH1 0x1F DUP3 ADD AND SWAP1 POP DUP1 DUP4 ADD SWAP3 POP POP POP POP POP POP POP DUP2 MSTORE PUSH1 0x20 ADD CALLER PUSH20 0xFFFFFFFFFFFFFFFFFFFFFFFFFFFFFFFFFFFFFFFF AND DUP2 MSTORE PUSH1 0x20 ADD PUSH1 0x0 ISZERO ISZERO DUP2 MSTORE PUSH1 0x20 ADD PUSH1 0x0 DUP1 SHL DUP2 MSTORE POP PUSH1 0x4 PUSH1 0x0 DUP4 DUP2 MSTORE PUSH1 0x20 ADD SWAP1 DUP2 MSTORE PUSH1 0x20 ADD PUSH1 0x0 KECCAK256 PUSH1 0x0 DUP3 ADD MLOAD DUP2 PUSH1 0x0 ADD SSTORE PUSH1 0x20 DUP3 ADD MLOAD DUP2 PUSH1 0x1 ADD SWAP1 DUP2 PUSH2 0x1E39 SWAP2 SWAP1 PUSH2 0x4FD2 JUMP JUMPDEST POP PUSH1 0x40 DUP3 ADD MLOAD DUP2 PUSH1 0x2 ADD PUSH1 0x0 PUSH2 0x100 EXP DUP2 SLOAD DUP2 PUSH20 0xFFFFFFFFFFFFFFFFFFFFFFFFFFFFFFFFFFFFFFFF MUL NOT AND SWAP1 DUP4 PUSH20 0xFFFFFFFFFFFFFFFFFFFFFFFFFFFFFFFFFFFFFFFF AND MUL OR SWAP1 SSTORE POP PUSH1 0x60 DUP3 ADD MLOAD DUP2 PUSH1 0x2 ADD PUSH1 0x14 PUSH2 0x100 EXP DUP2 SLOAD DUP2 PUSH1 0xFF MUL NOT AND SWAP1 DUP4 ISZERO ISZERO MUL OR SWAP1 SSTORE POP PUSH1 0x80 DUP3 ADD MLOAD DUP2 PUSH1 0x3 ADD SSTORE SWAP1 POP POP PUSH1 0x5 PUSH1 0x0 CALLER PUSH20 0xFFFFFFFFFFFFFFFFFFFFFFFFFFFFFFFFFFFFFFFF AND PUSH20 0xFFFFFFFFFFFFFFFFFFFFFFFFFFFFFFFFFFFFFFFF AND DUP2 MSTORE PUSH1 0x20 ADD SWAP1 DUP2 MSTORE PUSH1 0x20 ADD PUSH1 0x0 KECCAK256 DUP2 SWAP1 DUP1 PUSH1 0x1 DUP2 SLOAD ADD DUP1 DUP3 SSTORE DUP1 SWAP2 POP POP PUSH1 0x1 SWAP1 SUB SWAP1 PUSH1 0x0 MSTORE PUSH1 0x20 PUSH1 0x0 KECCAK256 ADD PUSH1 0x0 SWAP1 SWAP2 SWAP1 SWAP2 SWAP1 SWAP2 POP SSTORE PUSH8 0xDE0B6B3A7640000 PUSH1 0x6 PUSH1 0x0 DUP4 DUP2 MSTORE PUSH1 0x20 ADD SWAP1 DUP2 MSTORE PUSH1 0x20 ADD PUSH1 0x0 KECCAK256 PUSH1 0x0 DUP3 DUP3 SLOAD PUSH2 0x1F3F SWAP2 SWAP1 PUSH2 0x4157 JUMP JUMPDEST SWAP3 POP POP DUP2 SWAP1 SSTORE POP PUSH1 0x1 DUP2 PUSH2 0x1F53 SWAP2 SWAP1 PUSH2 0x4157 JUMP JUMPDEST PUSH1 0x3 DUP2 SWAP1 SSTORE POP PUSH2 0x1F7C CALLER DUP3 PUSH8 0xDE0B6B3A7640000 PUSH1 0x40 MLOAD DUP1 PUSH1 0x20 ADD PUSH1 0x40 MSTORE DUP1 PUSH1 0x0 DUP2 MSTORE POP PUSH2 0x2CE9 JUMP JUMPDEST CALLER PUSH20 0xFFFFFFFFFFFFFFFFFFFFFFFFFFFFFFFFFFFFFFFF AND DUP2 PUSH32 0xB683691564AB594B1F9E9DB91ABAF085736871256A4741BAA41BF30CB9D4F236 DUP6 DUP6 PUSH1 0x40 MLOAD PUSH2 0x1FC5 SWAP3 SWAP2 SWAP1 PUSH2 0x50D1 JUMP JUMPDEST PUSH1 0x40 MLOAD DUP1 SWAP2 SUB SWAP1 LOG3 CALLER PUSH20 0xFFFFFFFFFFFFFFFFFFFFFFFFFFFFFFFFFFFFFFFF AND DUP2 PUSH1 0x0 PUSH1 0x2 DUP2 GT ISZERO PUSH2 0x1FF9 JUMPI PUSH2 0x1FF8 PUSH2 0x47C2 JUMP JUMPDEST JUMPDEST PUSH32 0xEF9EFAA688E86A93D98A7F0102F8F58EA72875D8578CC452A9F1623481F0BFCC PUSH8 0xDE0B6B3A7640000 PUSH1 0x0 PUSH1 0x40 MLOAD PUSH2 0x2033 SWAP3 SWAP2 SWAP1 PUSH2 0x5130 JUMP JUMPDEST PUSH1 0x40 MLOAD DUP1 SWAP2 SUB SWAP1 LOG4 POP POP POP JUMP JUMPDEST PUSH1 0x6 PUSH1 0x20 MSTORE DUP1 PUSH1 0x0 MSTORE PUSH1 0x40 PUSH1 0x0 KECCAK256 PUSH1 0x0 SWAP2 POP SWAP1 POP SLOAD DUP2 JUMP JUMPDEST PUSH1 0x0 PUSH2 0x2077 PUSH1 0x6 PUSH1 0x0 DUP6 DUP2 MSTORE PUSH1 0x20 ADD SWAP1 DUP2 MSTORE PUSH1 0x20 ADD PUSH1 0x0 KECCAK256 SLOAD DUP4 PUSH2 0x1771 JUMP JUMPDEST SWAP1 POP SWAP3 SWAP2 POP POP JUMP JUMPDEST PUSH1 0x3 SLOAD DUP2 LT PUSH2 0x20C3 JUMPI PUSH1 0x40 MLOAD PUSH32 0x8C379A000000000000000000000000000000000000000000000000000000000 DUP2 MSTORE PUSH1 0x4 ADD PUSH2 0x20BA SWAP1 PUSH2 0x3E8B JUMP JUMPDEST PUSH1 0x40 MLOAD DUP1 SWAP2 SUB SWAP1 REVERT JUMPDEST PUSH1 0x0 PUSH1 0x4 PUSH1 0x0 DUP4 DUP2 MSTORE PUSH1 0x20 ADD SWAP1 DUP2 MSTORE PUSH1 0x20 ADD PUSH1 0x0 KECCAK256 SWAP1 POP DUP1 PUSH1 0x2 ADD PUSH1 0x14 SWAP1 SLOAD SWAP1 PUSH2 0x100 EXP SWAP1 DIV PUSH1 0xFF AND ISZERO DUP2 PUSH1 0x2 ADD PUSH1 0x14 PUSH2 0x100 EXP DUP2 SLOAD DUP2 PUSH1 0xFF MUL NOT AND SWAP1 DUP4 ISZERO ISZERO MUL OR SWAP1 SSTORE POP CALLER PUSH20 0xFFFFFFFFFFFFFFFFFFFFFFFFFFFFFFFFFFFFFFFF AND DUP3 PUSH32 0xD7F9F91585E13A431090CEE597FFF8E7E61FBF3C332F6E5FDF25B6CE7FA99B4C DUP4 PUSH1 0x2 ADD PUSH1 0x14 SWAP1 SLOAD SWAP1 PUSH2 0x100 EXP SWAP1 DIV PUSH1 0xFF AND PUSH1 0x40 MLOAD PUSH2 0x2160 SWAP2 SWAP1 PUSH2 0x31D1 JUMP JUMPDEST PUSH1 0x40 MLOAD DUP1 SWAP2 SUB SWAP1 LOG3 POP POP JUMP JUMPDEST PUSH1 0x9 PUSH1 0x1C SWAP1 SLOAD SWAP1 PUSH2 0x100 EXP SWAP1 DIV PUSH1 0xFF AND DUP2 JUMP JUMPDEST PUSH1 0x3 SLOAD DUP3 LT PUSH2 0x21C3 JUMPI PUSH1 0x40 MLOAD PUSH32 0x8C379A000000000000000000000000000000000000000000000000000000000 DUP2 MSTORE PUSH1 0x4 ADD PUSH2 0x21BA SWAP1 PUSH2 0x3E8B JUMP JUMPDEST PUSH1 0x40 MLOAD DUP1 SWAP2 SUB SWAP1 REVERT JUMPDEST PUSH1 0x4 PUSH1 0x0 DUP4 DUP2 MSTORE PUSH1 0x20 ADD SWAP1 DUP2 MSTORE PUSH1 0x20 ADD PUSH1 0x0 KECCAK256 PUSH1 0x2 ADD PUSH1 0x14 SWAP1 SLOAD SWAP1 PUSH2 0x100 EXP SWAP1 DIV PUSH1 0xFF AND ISZERO PUSH2 0x2227 JUMPI PUSH1 0x40 MLOAD PUSH32 0x8C379A000000000000000000000000000000000000000000000000000000000 DUP2 MSTORE PUSH1 0x4 ADD PUSH2 0x221E SWAP1 PUSH2 0x51A5 JUMP JUMPDEST PUSH1 0x40 MLOAD DUP1 SWAP2 SUB SWAP1 REVERT JUMPDEST PUSH1 0x0 PUSH2 0x2233 DUP4 DUP4 PUSH2 0x2058 JUMP JUMPDEST SWAP1 POP DUP1 CALLVALUE LT ISZERO PUSH2 0x2278 JUMPI PUSH1 0x40 MLOAD PUSH32 0x8C379A000000000000000000000000000000000000000000000000000000000 DUP2 MSTORE PUSH1 0x4 ADD PUSH2 0x226F SWAP1 PUSH2 0x5211 JUMP JUMPDEST PUSH1 0x40 MLOAD DUP1 SWAP2 SUB SWAP1 REVERT JUMPDEST DUP2 PUSH1 0x6 PUSH1 0x0 DUP6 DUP2 MSTORE PUSH1 0x20 ADD SWAP1 DUP2 MSTORE PUSH1 0x20 ADD PUSH1 0x0 KECCAK256 PUSH1 0x0 DUP3 DUP3 SLOAD PUSH2 0x229B SWAP2 SWAP1 PUSH2 0x4157 JUMP JUMPDEST SWAP3 POP POP DUP2 SWAP1 SSTORE POP DUP1 PUSH1 0x7 PUSH1 0x0 DUP6 DUP2 MSTORE PUSH1 0x20 ADD SWAP1 DUP2 MSTORE PUSH1 0x20 ADD PUSH1 0x0 KECCAK256 PUSH1 0x0 DUP3 DUP3 SLOAD PUSH2 0x22C5 SWAP2 SWAP1 PUSH2 0x4157 JUMP JUMPDEST SWAP3 POP POP DUP2 SWAP1 SSTORE POP PUSH2 0x22E7 CALLER DUP5 DUP5 PUSH1 0x40 MLOAD DUP1 PUSH1 0x20 ADD PUSH1 0x40 MSTORE DUP1 PUSH1 0x0 DUP2 MSTORE POP PUSH2 0x2CE9 JUMP JUMPDEST CALLER PUSH20 0xFFFFFFFFFFFFFFFFFFFFFFFFFFFFFFFFFFFFFFFF AND DUP4 PUSH1 0x1 PUSH1 0x2 DUP2 GT ISZERO PUSH2 0x2313 JUMPI PUSH2 0x2312 PUSH2 0x47C2 JUMP JUMPDEST JUMPDEST PUSH32 0xEF9EFAA688E86A93D98A7F0102F8F58EA72875D8578CC452A9F1623481F0BFCC DUP6 DUP6 PUSH1 0x40 MLOAD PUSH2 0x2344 SWAP3 SWAP2 SWAP1 PUSH2 0x5231 JUMP JUMPDEST PUSH1 0x40 MLOAD DUP1 SWAP2 SUB SWAP1 LOG4 POP POP POP JUMP JUMPDEST PUSH1 0x3 SLOAD DUP3 LT PUSH2 0x2395 JUMPI PUSH1 0x40 MLOAD PUSH32 0x8C379A000000000000000000000000000000000000000000000000000000000 DUP2 MSTORE PUSH1 0x4 ADD PUSH2 0x238C SWAP1 PUSH2 0x3E8B JUMP JUMPDEST PUSH1 0x40 MLOAD DUP1 SWAP2 SUB SWAP1 REVERT JUMPDEST PUSH1 0x4 PUSH1 0x0 DUP4 DUP2 MSTORE PUSH1 0x20 ADD SWAP1 DUP2 MSTORE PUSH1 0x20 ADD PUSH1 0x0 KECCAK256 PUSH1 0x2 ADD PUSH1 0x14 SWAP1 SLOAD SWAP1 PUSH2 0x100 EXP SWAP1 DIV PUSH1 0xFF AND ISZERO PUSH2 0x23F9 JUMPI PUSH1 0x40 MLOAD PUSH32 0x8C379A000000000000000000000000000000000000000000000000000000000 DUP2 MSTORE PUSH1 0x4 ADD PUSH2 0x23F0 SWAP1 PUSH2 0x51A5 JUMP JUMPDEST PUSH1 0x40 MLOAD DUP1 SWAP2 SUB SWAP1 REVERT JUMPDEST DUP1 PUSH1 0x0 DUP1 CALLER PUSH20 0xFFFFFFFFFFFFFFFFFFFFFFFFFFFFFFFFFFFFFFFF AND PUSH20 0xFFFFFFFFFFFFFFFFFFFFFFFFFFFFFFFFFFFFFFFF AND DUP2 MSTORE PUSH1 0x20 ADD SWAP1 DUP2 MSTORE PUSH1 0x20 ADD PUSH1 0x0 KECCAK256 PUSH1 0x0 DUP5 DUP2 MSTORE PUSH1 0x20 ADD SWAP1 DUP2 MSTORE PUSH1 0x20 ADD PUSH1 0x0 KECCAK256 SLOAD LT ISZERO PUSH2 0x248B JUMPI PUSH1 0x40 MLOAD PUSH32 0x8C379A000000000000000000000000000000000000000000000000000000000 DUP2 MSTORE PUSH1 0x4 ADD PUSH2 0x2482 SWAP1 PUSH2 0x52A6 JUMP JUMPDEST PUSH1 0x40 MLOAD DUP1 SWAP2 SUB SWAP1 REVERT JUMPDEST PUSH1 0x0 PUSH1 0x6 PUSH1 0x0 DUP5 DUP2 MSTORE PUSH1 0x20 ADD SWAP1 DUP2 MSTORE PUSH1 0x20 ADD PUSH1 0x0 KECCAK256 SLOAD SWAP1 POP PUSH8 0xDE0B6B3A7640000 DUP3 DUP3 PUSH2 0x24B8 SWAP2 SWAP1 PUSH2 0x4123 JUMP JUMPDEST LT ISZERO PUSH2 0x24F9 JUMPI PUSH1 0x40 MLOAD PUSH32 0x8C379A000000000000000000000000000000000000000000000000000000000 DUP2 MSTORE PUSH1 0x4 ADD PUSH2 0x24F0 SWAP1 PUSH2 0x5338 JUMP JUMPDEST PUSH1 0x40 MLOAD DUP1 SWAP2 SUB SWAP1 REVERT JUMPDEST PUSH1 0x0 PUSH2 0x2505 DUP5 DUP5 PUSH2 0x1878 JUMP JUMPDEST SWAP1 POP PUSH2 0x2512 CALLER DUP6 DUP6 PUSH2 0x2F35 JUMP JUMPDEST DUP3 DUP3 PUSH2 0x251E SWAP2 SWAP1 PUSH2 0x4123 JUMP JUMPDEST PUSH1 0x6 PUSH1 0x0 DUP7 DUP2 MSTORE PUSH1 0x20 ADD SWAP1 DUP2 MSTORE PUSH1 0x20 ADD PUSH1 0x0 KECCAK256 DUP2 SWAP1 SSTORE POP DUP1 PUSH1 0x7 PUSH1 0x0 DUP7 DUP2 MSTORE PUSH1 0x20 ADD SWAP1 DUP2 MSTORE PUSH1 0x20 ADD PUSH1 0x0 KECCAK256 PUSH1 0x0 DUP3 DUP3 SLOAD PUSH2 0x2558 SWAP2 SWAP1 PUSH2 0x4123 JUMP JUMPDEST SWAP3 POP POP DUP2 SWAP1 SSTORE POP CALLER PUSH20 0xFFFFFFFFFFFFFFFFFFFFFFFFFFFFFFFFFFFFFFFF AND DUP5 PUSH1 0x2 DUP1 DUP2 GT ISZERO PUSH2 0x258A JUMPI PUSH2 0x2589 PUSH2 0x47C2 JUMP JUMPDEST JUMPDEST PUSH32 0xEF9EFAA688E86A93D98A7F0102F8F58EA72875D8578CC452A9F1623481F0BFCC DUP7 DUP6 PUSH1 0x40 MLOAD PUSH2 0x25BB SWAP3 SWAP2 SWAP1 PUSH2 0x5231 JUMP JUMPDEST PUSH1 0x40 MLOAD DUP1 SWAP2 SUB SWAP1 LOG4 PUSH1 0x0 CALLER PUSH20 0xFFFFFFFFFFFFFFFFFFFFFFFFFFFFFFFFFFFFFFFF AND DUP3 PUSH1 0x40 MLOAD PUSH2 0x25E9 SWAP1 PUSH2 0x4D43 JUMP JUMPDEST PUSH1 0x0 PUSH1 0x40 MLOAD DUP1 DUP4 SUB DUP2 DUP6 DUP8 GAS CALL SWAP3 POP POP POP RETURNDATASIZE DUP1 PUSH1 0x0 DUP2 EQ PUSH2 0x2626 JUMPI PUSH1 0x40 MLOAD SWAP2 POP PUSH1 0x1F NOT PUSH1 0x3F RETURNDATASIZE ADD AND DUP3 ADD PUSH1 0x40 MSTORE RETURNDATASIZE DUP3 MSTORE RETURNDATASIZE PUSH1 0x0 PUSH1 0x20 DUP5 ADD RETURNDATACOPY PUSH2 0x262B JUMP JUMPDEST PUSH1 0x60 SWAP2 POP JUMPDEST POP POP SWAP1 POP DUP1 PUSH2 0x266F JUMPI PUSH1 0x40 MLOAD PUSH32 0x8C379A000000000000000000000000000000000000000000000000000000000 DUP2 MSTORE PUSH1 0x4 ADD PUSH2 0x2666 SWAP1 PUSH2 0x4DA4 JUMP JUMPDEST PUSH1 0x40 MLOAD DUP1 SWAP2 SUB SWAP1 REVERT JUMPDEST POP POP POP POP POP JUMP JUMPDEST PUSH1 0x40 MLOAD PUSH32 0x9BA6061B00000000000000000000000000000000000000000000000000000000 DUP2 MSTORE PUSH1 0x4 ADD PUSH1 0x40 MLOAD DUP1 SWAP2 SUB SWAP1 REVERT JUMPDEST PUSH1 0x40 MLOAD PUSH32 0x9BA6061B00000000000000000000000000000000000000000000000000000000 DUP2 MSTORE PUSH1 0x4 ADD PUSH1 0x40 MLOAD DUP1 SWAP2 SUB SWAP1 REVERT JUMPDEST PUSH1 0x1 PUSH1 0x20 MSTORE DUP2 PUSH1 0x0 MSTORE PUSH1 0x40 PUSH1 0x0 KECCAK256 PUSH1 0x20 MSTORE DUP1 PUSH1 0x0 MSTORE PUSH1 0x40 PUSH1 0x0 KECCAK256 PUSH1 0x0 SWAP2 POP SWAP2 POP SWAP1 SLOAD SWAP1 PUSH2 0x100 EXP SWAP1 DIV PUSH1 0xFF AND DUP2 JUMP JUMPDEST PUSH1 0x3 SLOAD DUP3 LT PUSH2 0x274D JUMPI PUSH1 0x40 MLOAD PUSH32 0x8C379A000000000000000000000000000000000000000000000000000000000 DUP2 MSTORE PUSH1 0x4 ADD PUSH2 0x2744 SWAP1 PUSH2 0x3E8B JUMP JUMPDEST PUSH1 0x40 MLOAD DUP1 SWAP2 SUB SWAP1 REVERT JUMPDEST DUP1 PUSH1 0x4 PUSH1 0x0 DUP5 DUP2 MSTORE PUSH1 0x20 ADD SWAP1 DUP2 MSTORE PUSH1 0x20 ADD PUSH1 0x0 KECCAK256 PUSH1 0x3 ADD DUP2 SWAP1 SSTORE POP PUSH1 0x9 PUSH1 0x1C SWAP1 SLOAD SWAP1 PUSH2 0x100 EXP SWAP1 DIV PUSH1 0xFF AND ISZERO PUSH2 0x2801 JUMPI ADDRESS PUSH20 0xFFFFFFFFFFFFFFFFFFFFFFFFFFFFFFFFFFFFFFFF AND PUSH4 0x4FCCFB67 DUP3 CALLER NUMBER DUP7 PUSH1 0x40 MLOAD DUP6 PUSH4 0xFFFFFFFF AND PUSH1 0xE0 SHL DUP2 MSTORE PUSH1 0x4 ADD PUSH2 0x27BC SWAP5 SWAP4 SWAP3 SWAP2 SWAP1 PUSH2 0x5358 JUMP JUMPDEST PUSH1 0x20 PUSH1 0x40 MLOAD DUP1 DUP4 SUB DUP2 PUSH1 0x0 DUP8 GAS CALL ISZERO DUP1 ISZERO PUSH2 0x27DB JUMPI RETURNDATASIZE PUSH1 0x0 DUP1 RETURNDATACOPY RETURNDATASIZE PUSH1 0x0 REVERT JUMPDEST POP POP POP POP PUSH1 0x40 MLOAD RETURNDATASIZE PUSH1 0x1F NOT PUSH1 0x1F DUP3 ADD AND DUP3 ADD DUP1 PUSH1 0x40 MSTORE POP DUP2 ADD SWAP1 PUSH2 0x27FF SWAP2 SWAP1 PUSH2 0x4B02 JUMP JUMPDEST POP JUMPDEST DUP2 PUSH32 0x9FF79792A92B66FEE090ACB66E07837A2EDB31EE6B9780FA551FD04B79DFFCD2 DUP3 PUSH1 0x40 MLOAD PUSH2 0x2831 SWAP2 SWAP1 PUSH2 0x32C9 JUMP JUMPDEST PUSH1 0x40 MLOAD DUP1 SWAP2 SUB SWAP1 LOG2 POP POP JUMP JUMPDEST DUP6 PUSH20 0xFFFFFFFFFFFFFFFFFFFFFFFFFFFFFFFFFFFFFFFF AND CALLER PUSH20 0xFFFFFFFFFFFFFFFFFFFFFFFFFFFFFFFFFFFFFFFF AND EQ DUP1 PUSH2 0x28FD JUMPI POP PUSH1 0x1 PUSH1 0x0 DUP8 PUSH20 0xFFFFFFFFFFFFFFFFFFFFFFFFFFFFFFFFFFFFFFFF AND PUSH20 0xFFFFFFFFFFFFFFFFFFFFFFFFFFFFFFFFFFFFFFFF AND DUP2 MSTORE PUSH1 0x20 ADD SWAP1 DUP2 MSTORE PUSH1 0x20 ADD PUSH1 0x0 KECCAK256 PUSH1 0x0 CALLER PUSH20 0xFFFFFFFFFFFFFFFFFFFFFFFFFFFFFFFFFFFFFFFF AND PUSH20 0xFFFFFFFFFFFFFFFFFFFFFFFFFFFFFFFFFFFFFFFF AND DUP2 MSTORE PUSH1 0x20 ADD SWAP1 DUP2 MSTORE PUSH1 0x20 ADD PUSH1 0x0 KECCAK256 PUSH1 0x0 SWAP1 SLOAD SWAP1 PUSH2 0x100 EXP SWAP1 DIV PUSH1 0xFF AND JUMPDEST PUSH2 0x293C JUMPI PUSH1 0x40 MLOAD PUSH32 0x8C379A000000000000000000000000000000000000000000000000000000000 DUP2 MSTORE PUSH1 0x4 ADD PUSH2 0x2933 SWAP1 PUSH2 0x40D4 JUMP JUMPDEST PUSH1 0x40 MLOAD DUP1 SWAP2 SUB SWAP1 REVERT JUMPDEST DUP3 PUSH1 0x0 DUP1 DUP9 PUSH20 0xFFFFFFFFFFFFFFFFFFFFFFFFFFFFFFFFFFFFFFFF AND PUSH20 0xFFFFFFFFFFFFFFFFFFFFFFFFFFFFFFFFFFFFFFFF AND DUP2 MSTORE PUSH1 0x20 ADD SWAP1 DUP2 MSTORE PUSH1 0x20 ADD PUSH1 0x0 KECCAK256 PUSH1 0x0 DUP7 DUP2 MSTORE PUSH1 0x20 ADD SWAP1 DUP2 MSTORE PUSH1 0x20 ADD PUSH1 0x0 KECCAK256 PUSH1 0x0 DUP3 DUP3 SLOAD PUSH2 0x299B SWAP2 SWAP1 PUSH2 0x4123 JUMP JUMPDEST SWAP3 POP POP DUP2 SWAP1 SSTORE POP DUP3 PUSH1 0x0 DUP1 DUP8 PUSH20 0xFFFFFFFFFFFFFFFFFFFFFFFFFFFFFFFFFFFFFFFF AND PUSH20 0xFFFFFFFFFFFFFFFFFFFFFFFFFFFFFFFFFFFFFFFF AND DUP2 MSTORE PUSH1 0x20 ADD SWAP1 DUP2 MSTORE PUSH1 0x20 ADD PUSH1 0x0 KECCAK256 PUSH1 0x0 DUP7 DUP2 MSTORE PUSH1 0x20 ADD SWAP1 DUP2 MSTORE PUSH1 0x20 ADD PUSH1 0x0 KECCAK256 PUSH1 0x0 DUP3 DUP3 SLOAD PUSH2 0x2A01 SWAP2 SWAP1 PUSH2 0x4157 JUMP JUMPDEST SWAP3 POP POP DUP2 SWAP1 SSTORE POP DUP5 PUSH20 0xFFFFFFFFFFFFFFFFFFFFFFFFFFFFFFFFFFFFFFFF AND DUP7 PUSH20 0xFFFFFFFFFFFFFFFFFFFFFFFFFFFFFFFFFFFFFFFF AND CALLER PUSH20 0xFFFFFFFFFFFFFFFFFFFFFFFFFFFFFFFFFFFFFFFF AND PUSH32 0xC3D58168C5AE7397731D063D5BBF3D657854427343F4C083240F7AACAA2D0F62 DUP8 DUP8 PUSH1 0x40 MLOAD PUSH2 0x2A7E SWAP3 SWAP2 SWAP1 PUSH2 0x5231 JUMP JUMPDEST PUSH1 0x40 MLOAD DUP1 SWAP2 SUB SWAP1 LOG4 PUSH1 0x0 DUP6 PUSH20 0xFFFFFFFFFFFFFFFFFFFFFFFFFFFFFFFFFFFFFFFF AND EXTCODESIZE EQ PUSH2 0x2B77 JUMPI PUSH4 0xF23A6E61 PUSH1 0xE0 SHL PUSH28 0xFFFFFFFFFFFFFFFFFFFFFFFFFFFFFFFFFFFFFFFFFFFFFFFFFFFFFFFF NOT AND DUP6 PUSH20 0xFFFFFFFFFFFFFFFFFFFFFFFFFFFFFFFFFFFFFFFF AND PUSH4 0xF23A6E61 CALLER DUP10 DUP9 DUP9 DUP9 DUP9 PUSH1 0x40 MLOAD DUP8 PUSH4 0xFFFFFFFF AND PUSH1 0xE0 SHL DUP2 MSTORE PUSH1 0x4 ADD PUSH2 0x2B0F SWAP7 SWAP6 SWAP5 SWAP4 SWAP3 SWAP2 SWAP1 PUSH2 0x539D JUMP JUMPDEST PUSH1 0x20 PUSH1 0x40 MLOAD DUP1 DUP4 SUB DUP2 PUSH1 0x0 DUP8 GAS CALL ISZERO DUP1 ISZERO PUSH2 0x2B2E JUMPI RETURNDATASIZE PUSH1 0x0 DUP1 RETURNDATACOPY RETURNDATASIZE PUSH1 0x0 REVERT JUMPDEST POP POP POP POP PUSH1 0x40 MLOAD RETURNDATASIZE PUSH1 0x1F NOT PUSH1 0x1F DUP3 ADD AND DUP3 ADD DUP1 PUSH1 0x40 MSTORE POP DUP2 ADD SWAP1 PUSH2 0x2B52 SWAP2 SWAP1 PUSH2 0x4300 JUMP JUMPDEST PUSH28 0xFFFFFFFFFFFFFFFFFFFFFFFFFFFFFFFFFFFFFFFFFFFFFFFFFFFFFFFF NOT AND EQ PUSH2 0x2BA9 JUMP JUMPDEST PUSH1 0x0 PUSH20 0xFFFFFFFFFFFFFFFFFFFFFFFFFFFFFFFFFFFFFFFF AND DUP6 PUSH20 0xFFFFFFFFFFFFFFFFFFFFFFFFFFFFFFFFFFFFFFFF AND EQ ISZERO JUMPDEST PUSH2 0x2BE8 JUMPI PUSH1 0x40 MLOAD PUSH32 0x8C379A000000000000000000000000000000000000000000000000000000000 DUP2 MSTORE PUSH1 0x4 ADD PUSH2 0x2BDF SWAP1 PUSH2 0x4379 JUMP JUMPDEST PUSH1 0x40 MLOAD DUP1 SWAP2 SUB SWAP1 REVERT JUMPDEST POP POP POP POP POP POP JUMP JUMPDEST PUSH1 0x7 PUSH1 0x20 MSTORE DUP1 PUSH1 0x0 MSTORE PUSH1 0x40 PUSH1 0x0 KECCAK256 PUSH1 0x0 SWAP2 POP SWAP1 POP SLOAD DUP2 JUMP JUMPDEST DUP1 PUSH1 0x9 PUSH1 0x1C PUSH2 0x100 EXP DUP2 SLOAD DUP2 PUSH1 0xFF MUL NOT AND SWAP1 DUP4 ISZERO ISZERO MUL OR SWAP1 SSTORE POP PUSH32 0x7C09DD8DD4787434DD8307C4C789C5CF2D9A9EE03D4BBBB574E32824281BE609 DUP2 PUSH1 0x40 MLOAD PUSH2 0x2C51 SWAP2 SWAP1 PUSH2 0x31D1 JUMP JUMPDEST PUSH1 0x40 MLOAD DUP1 SWAP2 SUB SWAP1 LOG1 POP JUMP JUMPDEST NUMBER DUP2 GT ISZERO PUSH2 0x2C9F JUMPI PUSH1 0x40 MLOAD PUSH32 0x8C379A000000000000000000000000000000000000000000000000000000000 DUP2 MSTORE PUSH1 0x4 ADD PUSH2 0x2C96 SWAP1 PUSH2 0x546B JUMP JUMPDEST PUSH1 0x40 MLOAD DUP1 SWAP2 SUB SWAP1 REVERT JUMPDEST POP JUMP JUMPDEST PUSH1 0x0 PUSH8 0xDE0B6B3A7640000 DUP3 GT ISZERO PUSH2 0x2CDF JUMPI PUSH7 0x38D7EA4C68000 PUSH8 0xDE0B6B3A7640000 DUP4 PUSH2 0x2CD0 SWAP2 SWAP1 PUSH2 0x4123 JUMP JUMPDEST PUSH2 0x2CDA SWAP2 SWAP1 PUSH2 0x4C73 JUMP JUMPDEST PUSH2 0x2CE2 JUMP JUMPDEST PUSH1 0x0 JUMPDEST SWAP1 POP SWAP2 SWAP1 POP JUMP JUMPDEST DUP2 PUSH1 0x0 DUP1 DUP7 PUSH20 0xFFFFFFFFFFFFFFFFFFFFFFFFFFFFFFFFFFFFFFFF AND PUSH20 0xFFFFFFFFFFFFFFFFFFFFFFFFFFFFFFFFFFFFFFFF AND DUP2 MSTORE PUSH1 0x20 ADD SWAP1 DUP2 MSTORE PUSH1 0x20 ADD PUSH1 0x0 KECCAK256 PUSH1 0x0 DUP6 DUP2 MSTORE PUSH1 0x20 ADD SWAP1 DUP2 MSTORE PUSH1 0x20 ADD PUSH1 0x0 KECCAK256 PUSH1 0x0 DUP3 DUP3 SLOAD PUSH2 0x2D48 SWAP2 SWAP1 PUSH2 0x4157 JUMP JUMPDEST SWAP3 POP POP DUP2 SWAP1 SSTORE POP DUP4 PUSH20 0xFFFFFFFFFFFFFFFFFFFFFFFFFFFFFFFFFFFFFFFF AND PUSH1 0x0 PUSH20 0xFFFFFFFFFFFFFFFFFFFFFFFFFFFFFFFFFFFFFFFF AND CALLER PUSH20 0xFFFFFFFFFFFFFFFFFFFFFFFFFFFFFFFFFFFFFFFF AND PUSH32 0xC3D58168C5AE7397731D063D5BBF3D657854427343F4C083240F7AACAA2D0F62 DUP7 DUP7 PUSH1 0x40 MLOAD PUSH2 0x2DC6 SWAP3 SWAP2 SWAP1 PUSH2 0x5231 JUMP JUMPDEST PUSH1 0x40 MLOAD DUP1 SWAP2 SUB SWAP1 LOG4 PUSH1 0x0 DUP5 PUSH20 0xFFFFFFFFFFFFFFFFFFFFFFFFFFFFFFFFFFFFFFFF AND EXTCODESIZE EQ PUSH2 0x2EBE JUMPI PUSH4 0xF23A6E61 PUSH1 0xE0 SHL PUSH28 0xFFFFFFFFFFFFFFFFFFFFFFFFFFFFFFFFFFFFFFFFFFFFFFFFFFFFFFFF NOT AND DUP5 PUSH20 0xFFFFFFFFFFFFFFFFFFFFFFFFFFFFFFFFFFFFFFFF AND PUSH4 0xF23A6E61 CALLER PUSH1 0x0 DUP8 DUP8 DUP8 PUSH1 0x40 MLOAD DUP7 PUSH4 0xFFFFFFFF AND PUSH1 0xE0 SHL DUP2 MSTORE PUSH1 0x4 ADD PUSH2 0x2E56 SWAP6 SWAP5 SWAP4 SWAP3 SWAP2 SWAP1 PUSH2 0x54C4 JUMP JUMPDEST PUSH1 0x20 PUSH1 0x40 MLOAD DUP1 DUP4 SUB DUP2 PUSH1 0x0 DUP8 GAS CALL ISZERO DUP1 ISZERO PUSH2 0x2E75 JUMPI RETURNDATASIZE PUSH1 0x0 DUP1 RETURNDATACOPY RETURNDATASIZE PUSH1 0x0 REVERT JUMPDEST POP POP POP POP PUSH1 0x40 MLOAD RETURNDATASIZE PUSH1 0x1F NOT PUSH1 0x1F DUP3 ADD AND DUP3 ADD DUP1 PUSH1 0x40 MSTORE POP DUP2 ADD SWAP1 PUSH2 0x2E99 SWAP2 SWAP1 PUSH2 0x4300 JUMP JUMPDEST PUSH28 0xFFFFFFFFFFFFFFFFFFFFFFFFFFFFFFFFFFFFFFFFFFFFFFFFFFFFFFFF NOT AND EQ PUSH2 0x2EF0 JUMP JUMPDEST PUSH1 0x0 PUSH20 0xFFFFFFFFFFFFFFFFFFFFFFFFFFFFFFFFFFFFFFFF AND DUP5 PUSH20 0xFFFFFFFFFFFFFFFFFFFFFFFFFFFFFFFFFFFFFFFF AND EQ ISZERO JUMPDEST PUSH2 0x2F2F JUMPI PUSH1 0x40 MLOAD PUSH32 0x8C379A000000000000000000000000000000000000000000000000000000000 DUP2 MSTORE PUSH1 0x4 ADD PUSH2 0x2F26 SWAP1 PUSH2 0x4379 JUMP JUMPDEST PUSH1 0x40 MLOAD DUP1 SWAP2 SUB SWAP1 REVERT JUMPDEST POP POP POP POP JUMP JUMPDEST DUP1 PUSH1 0x0 DUP1 DUP6 PUSH20 0xFFFFFFFFFFFFFFFFFFFFFFFFFFFFFFFFFFFFFFFF AND PUSH20 0xFFFFFFFFFFFFFFFFFFFFFFFFFFFFFFFFFFFFFFFF AND DUP2 MSTORE PUSH1 0x20 ADD SWAP1 DUP2 MSTORE PUSH1 0x20 ADD PUSH1 0x0 KECCAK256 PUSH1 0x0 DUP5 DUP2 MSTORE PUSH1 0x20 ADD SWAP1 DUP2 MSTORE PUSH1 0x20 ADD PUSH1 0x0 KECCAK256 PUSH1 0x0 DUP3 DUP3 SLOAD PUSH2 0x2F94 SWAP2 SWAP1 PUSH2 0x4123 JUMP JUMPDEST SWAP3 POP POP DUP2 SWAP1 SSTORE POP PUSH1 0x0 PUSH20 0xFFFFFFFFFFFFFFFFFFFFFFFFFFFFFFFFFFFFFFFF AND DUP4 PUSH20 0xFFFFFFFFFFFFFFFFFFFFFFFFFFFFFFFFFFFFFFFF AND CALLER PUSH20 0xFFFFFFFFFFFFFFFFFFFFFFFFFFFFFFFFFFFFFFFF AND PUSH32 0xC3D58168C5AE7397731D063D5BBF3D657854427343F4C083240F7AACAA2D0F62 DUP6 DUP6 PUSH1 0x40 MLOAD PUSH2 0x3012 SWAP3 SWAP2 SWAP1 PUSH2 0x5231 JUMP JUMPDEST PUSH1 0x40 MLOAD DUP1 SWAP2 SUB SWAP1 LOG4 POP POP POP JUMP JUMPDEST PUSH1 0x0 PUSH1 0x40 MLOAD SWAP1 POP SWAP1 JUMP JUMPDEST PUSH1 0x0 DUP1 REVERT JUMPDEST PUSH1 0x0 DUP1 REVERT JUMPDEST PUSH1 0x0 PUSH20 0xFFFFFFFFFFFFFFFFFFFFFFFFFFFFFFFFFFFFFFFF DUP3 AND SWAP1 POP SWAP2 SWAP1 POP JUMP JUMPDEST PUSH1 0x0 PUSH2 0x305E DUP3 PUSH2 0x3033 JUMP JUMPDEST SWAP1 POP SWAP2 SWAP1 POP JUMP JUMPDEST PUSH2 0x306E DUP2 PUSH2 0x3053 JUMP JUMPDEST DUP2 EQ PUSH2 0x3079 JUMPI PUSH1 0x0 DUP1 REVERT JUMPDEST POP JUMP JUMPDEST PUSH1 0x0 DUP2 CALLDATALOAD SWAP1 POP PUSH2 0x308B DUP2 PUSH2 0x3065 JUMP JUMPDEST SWAP3 SWAP2 POP POP JUMP JUMPDEST PUSH1 0x0 DUP2 SWAP1 POP SWAP2 SWAP1 POP JUMP JUMPDEST PUSH2 0x30A4 DUP2 PUSH2 0x3091 JUMP JUMPDEST DUP2 EQ PUSH2 0x30AF JUMPI PUSH1 0x0 DUP1 REVERT JUMPDEST POP JUMP JUMPDEST PUSH1 0x0 DUP2 CALLDATALOAD SWAP1 POP PUSH2 0x30C1 DUP2 PUSH2 0x309B JUMP JUMPDEST SWAP3 SWAP2 POP POP JUMP JUMPDEST PUSH1 0x0 DUP1 PUSH1 0x40 DUP4 DUP6 SUB SLT ISZERO PUSH2 0x30DE JUMPI PUSH2 0x30DD PUSH2 0x3029 JUMP JUMPDEST JUMPDEST PUSH1 0x0 PUSH2 0x30EC DUP6 DUP3 DUP7 ADD PUSH2 0x307C JUMP JUMPDEST SWAP3 POP POP PUSH1 0x20 PUSH2 0x30FD DUP6 DUP3 DUP7 ADD PUSH2 0x30B2 JUMP JUMPDEST SWAP2 POP POP SWAP3 POP SWAP3 SWAP1 POP JUMP JUMPDEST PUSH2 0x3110 DUP2 PUSH2 0x3091 JUMP JUMPDEST DUP3 MSTORE POP POP JUMP JUMPDEST PUSH1 0x0 PUSH1 0x20 DUP3 ADD SWAP1 POP PUSH2 0x312B PUSH1 0x0 DUP4 ADD DUP5 PUSH2 0x3107 JUMP JUMPDEST SWAP3 SWAP2 POP POP JUMP JUMPDEST PUSH1 0x0 PUSH32 0xFFFFFFFF00000000000000000000000000000000000000000000000000000000 DUP3 AND SWAP1 POP SWAP2 SWAP1 POP JUMP JUMPDEST PUSH2 0x3166 DUP2 PUSH2 0x3131 JUMP JUMPDEST DUP2 EQ PUSH2 0x3171 JUMPI PUSH1 0x0 DUP1 REVERT JUMPDEST POP JUMP JUMPDEST PUSH1 0x0 DUP2 CALLDATALOAD SWAP1 POP PUSH2 0x3183 DUP2 PUSH2 0x315D JUMP JUMPDEST SWAP3 SWAP2 POP POP JUMP JUMPDEST PUSH1 0x0 PUSH1 0x20 DUP3 DUP5 SUB SLT ISZERO PUSH2 0x319F JUMPI PUSH2 0x319E PUSH2 0x3029 JUMP JUMPDEST JUMPDEST PUSH1 0x0 PUSH2 0x31AD DUP5 DUP3 DUP6 ADD PUSH2 0x3174 JUMP JUMPDEST SWAP2 POP POP SWAP3 SWAP2 POP POP JUMP JUMPDEST PUSH1 0x0 DUP2 ISZERO ISZERO SWAP1 POP SWAP2 SWAP1 POP JUMP JUMPDEST PUSH2 0x31CB DUP2 PUSH2 0x31B6 JUMP JUMPDEST DUP3 MSTORE POP POP JUMP JUMPDEST PUSH1 0x0 PUSH1 0x20 DUP3 ADD SWAP1 POP PUSH2 0x31E6 PUSH1 0x0 DUP4 ADD DUP5 PUSH2 0x31C2 JUMP JUMPDEST SWAP3 SWAP2 POP POP JUMP JUMPDEST PUSH1 0x0 PUSH8 0xFFFFFFFFFFFFFFFF DUP3 AND SWAP1 POP SWAP2 SWAP1 POP JUMP JUMPDEST PUSH2 0x3209 DUP2 PUSH2 0x31EC JUMP JUMPDEST DUP2 EQ PUSH2 0x3214 JUMPI PUSH1 0x0 DUP1 REVERT JUMPDEST POP JUMP JUMPDEST PUSH1 0x0 DUP2 CALLDATALOAD SWAP1 POP PUSH2 0x3226 DUP2 PUSH2 0x3200 JUMP JUMPDEST SWAP3 SWAP2 POP POP JUMP JUMPDEST PUSH1 0x0 PUSH1 0x20 DUP3 DUP5 SUB SLT ISZERO PUSH2 0x3242 JUMPI PUSH2 0x3241 PUSH2 0x3029 JUMP JUMPDEST JUMPDEST PUSH1 0x0 PUSH2 0x3250 DUP5 DUP3 DUP6 ADD PUSH2 0x3217 JUMP JUMPDEST SWAP2 POP POP SWAP3 SWAP2 POP POP JUMP JUMPDEST PUSH2 0x3262 DUP2 PUSH2 0x31EC JUMP JUMPDEST DUP3 MSTORE POP POP JUMP JUMPDEST PUSH1 0x0 PUSH1 0x20 DUP3 ADD SWAP1 POP PUSH2 0x327D PUSH1 0x0 DUP4 ADD DUP5 PUSH2 0x3259 JUMP JUMPDEST SWAP3 SWAP2 POP POP JUMP JUMPDEST PUSH1 0x0 PUSH1 0x20 DUP3 DUP5 SUB SLT ISZERO PUSH2 0x3299 JUMPI PUSH2 0x3298 PUSH2 0x3029 JUMP JUMPDEST JUMPDEST PUSH1 0x0 PUSH2 0x32A7 DUP5 DUP3 DUP6 ADD PUSH2 0x30B2 JUMP JUMPDEST SWAP2 POP POP SWAP3 SWAP2 POP POP JUMP JUMPDEST PUSH1 0x0 DUP2 SWAP1 POP SWAP2 SWAP1 POP JUMP JUMPDEST PUSH2 0x32C3 DUP2 PUSH2 0x32B0 JUMP JUMPDEST DUP3 MSTORE POP POP JUMP JUMPDEST PUSH1 0x0 PUSH1 0x20 DUP3 ADD SWAP1 POP PUSH2 0x32DE PUSH1 0x0 DUP4 ADD DUP5 PUSH2 0x32BA JUMP JUMPDEST SWAP3 SWAP2 POP POP JUMP JUMPDEST PUSH1 0x0 DUP2 MLOAD SWAP1 POP SWAP2 SWAP1 POP JUMP JUMPDEST PUSH1 0x0 DUP3 DUP3 MSTORE PUSH1 0x20 DUP3 ADD SWAP1 POP SWAP3 SWAP2 POP POP JUMP JUMPDEST PUSH1 0x0 JUMPDEST DUP4 DUP2 LT ISZERO PUSH2 0x331E JUMPI DUP1 DUP3 ADD MLOAD DUP2 DUP5 ADD MSTORE PUSH1 0x20 DUP2 ADD SWAP1 POP PUSH2 0x3303 JUMP JUMPDEST PUSH1 0x0 DUP5 DUP5 ADD MSTORE POP POP POP POP JUMP JUMPDEST PUSH1 0x0 PUSH1 0x1F NOT PUSH1 0x1F DUP4 ADD AND SWAP1 POP SWAP2 SWAP1 POP JUMP JUMPDEST PUSH1 0x0 PUSH2 0x3346 DUP3 PUSH2 0x32E4 JUMP JUMPDEST PUSH2 0x3350 DUP2 DUP6 PUSH2 0x32EF JUMP JUMPDEST SWAP4 POP PUSH2 0x3360 DUP2 DUP6 PUSH1 0x20 DUP7 ADD PUSH2 0x3300 JUMP JUMPDEST PUSH2 0x3369 DUP2 PUSH2 0x332A JUMP JUMPDEST DUP5 ADD SWAP2 POP POP SWAP3 SWAP2 POP POP JUMP JUMPDEST PUSH2 0x337D DUP2 PUSH2 0x3053 JUMP JUMPDEST DUP3 MSTORE POP POP JUMP JUMPDEST PUSH1 0x0 PUSH1 0xA0 DUP3 ADD SWAP1 POP PUSH2 0x3398 PUSH1 0x0 DUP4 ADD DUP9 PUSH2 0x3107 JUMP JUMPDEST DUP2 DUP2 SUB PUSH1 0x20 DUP4 ADD MSTORE PUSH2 0x33AA DUP2 DUP8 PUSH2 0x333B JUMP JUMPDEST SWAP1 POP PUSH2 0x33B9 PUSH1 0x40 DUP4 ADD DUP7 PUSH2 0x3374 JUMP JUMPDEST PUSH2 0x33C6 PUSH1 0x60 DUP4 ADD DUP6 PUSH2 0x31C2 JUMP JUMPDEST PUSH2 0x33D3 PUSH1 0x80 DUP4 ADD DUP5 PUSH2 0x32BA JUMP JUMPDEST SWAP7 SWAP6 POP POP POP POP POP POP JUMP JUMPDEST PUSH1 0x0 PUSH1 0x20 DUP3 ADD SWAP1 POP DUP2 DUP2 SUB PUSH1 0x0 DUP4 ADD MSTORE PUSH2 0x33F7 DUP2 DUP5 PUSH2 0x333B JUMP JUMPDEST SWAP1 POP SWAP3 SWAP2 POP POP JUMP JUMPDEST PUSH1 0x0 DUP1 REVERT JUMPDEST PUSH1 0x0 DUP1 REVERT JUMPDEST PUSH1 0x0 DUP1 REVERT JUMPDEST PUSH1 0x0 DUP1 DUP4 PUSH1 0x1F DUP5 ADD SLT PUSH2 0x3424 JUMPI PUSH2 0x3423 PUSH2 0x33FF JUMP JUMPDEST JUMPDEST DUP3 CALLDATALOAD SWAP1 POP PUSH8 0xFFFFFFFFFFFFFFFF DUP2 GT ISZERO PUSH2 0x3441 JUMPI PUSH2 0x3440 PUSH2 0x3404 JUMP JUMPDEST JUMPDEST PUSH1 0x20 DUP4 ADD SWAP2 POP DUP4 PUSH1 0x20 DUP3 MUL DUP4 ADD GT ISZERO PUSH2 0x345D JUMPI PUSH2 0x345C PUSH2 0x3409 JUMP JUMPDEST JUMPDEST SWAP3 POP SWAP3 SWAP1 POP JUMP JUMPDEST PUSH1 0x0 DUP1 PUSH1 0x0 DUP1 PUSH1 0x0 PUSH1 0x80 DUP7 DUP9 SUB SLT ISZERO PUSH2 0x3480 JUMPI PUSH2 0x347F PUSH2 0x3029 JUMP JUMPDEST JUMPDEST PUSH1 0x0 PUSH2 0x348E DUP9 DUP3 DUP10 ADD PUSH2 0x30B2 JUMP JUMPDEST SWAP6 POP POP PUSH1 0x20 PUSH2 0x349F DUP9 DUP3 DUP10 ADD PUSH2 0x307C JUMP JUMPDEST SWAP5 POP POP PUSH1 0x40 PUSH2 0x34B0 DUP9 DUP3 DUP10 ADD PUSH2 0x30B2 JUMP JUMPDEST SWAP4 POP POP PUSH1 0x60 DUP7 ADD CALLDATALOAD PUSH8 0xFFFFFFFFFFFFFFFF DUP2 GT ISZERO PUSH2 0x34D1 JUMPI PUSH2 0x34D0 PUSH2 0x302E JUMP JUMPDEST JUMPDEST PUSH2 0x34DD DUP9 DUP3 DUP10 ADD PUSH2 0x340E JUMP JUMPDEST SWAP3 POP SWAP3 POP POP SWAP3 SWAP6 POP SWAP3 SWAP6 SWAP1 SWAP4 POP JUMP JUMPDEST PUSH1 0x0 DUP1 DUP4 PUSH1 0x1F DUP5 ADD SLT PUSH2 0x3502 JUMPI PUSH2 0x3501 PUSH2 0x33FF JUMP JUMPDEST JUMPDEST DUP3 CALLDATALOAD SWAP1 POP PUSH8 0xFFFFFFFFFFFFFFFF DUP2 GT ISZERO PUSH2 0x351F JUMPI PUSH2 0x351E PUSH2 0x3404 JUMP JUMPDEST JUMPDEST PUSH1 0x20 DUP4 ADD SWAP2 POP DUP4 PUSH1 0x20 DUP3 MUL DUP4 ADD GT ISZERO PUSH2 0x353B JUMPI PUSH2 0x353A PUSH2 0x3409 JUMP JUMPDEST JUMPDEST SWAP3 POP SWAP3 SWAP1 POP JUMP JUMPDEST PUSH1 0x0 DUP1 DUP4 PUSH1 0x1F DUP5 ADD SLT PUSH2 0x3558 JUMPI PUSH2 0x3557 PUSH2 0x33FF JUMP JUMPDEST JUMPDEST DUP3 CALLDATALOAD SWAP1 POP PUSH8 0xFFFFFFFFFFFFFFFF DUP2 GT ISZERO PUSH2 0x3575 JUMPI PUSH2 0x3574 PUSH2 0x3404 JUMP JUMPDEST JUMPDEST PUSH1 0x20 DUP4 ADD SWAP2 POP DUP4 PUSH1 0x1 DUP3 MUL DUP4 ADD GT ISZERO PUSH2 0x3591 JUMPI PUSH2 0x3590 PUSH2 0x3409 JUMP JUMPDEST JUMPDEST SWAP3 POP SWAP3 SWAP1 POP JUMP JUMPDEST PUSH1 0x0 DUP1 PUSH1 0x0 DUP1 PUSH1 0x0 DUP1 PUSH1 0x0 DUP1 PUSH1 0xA0 DUP10 DUP12 SUB SLT ISZERO PUSH2 0x35B8 JUMPI PUSH2 0x35B7 PUSH2 0x3029 JUMP JUMPDEST JUMPDEST PUSH1 0x0 PUSH2 0x35C6 DUP12 DUP3 DUP13 ADD PUSH2 0x307C JUMP JUMPDEST SWAP9 POP POP PUSH1 0x20 PUSH2 0x35D7 DUP12 DUP3 DUP13 ADD PUSH2 0x307C JUMP JUMPDEST SWAP8 POP POP PUSH1 0x40 DUP10 ADD CALLDATALOAD PUSH8 0xFFFFFFFFFFFFFFFF DUP2 GT ISZERO PUSH2 0x35F8 JUMPI PUSH2 0x35F7 PUSH2 0x302E JUMP JUMPDEST JUMPDEST PUSH2 0x3604 DUP12 DUP3 DUP13 ADD PUSH2 0x34EC JUMP JUMPDEST SWAP7 POP SWAP7 POP POP PUSH1 0x60 DUP10 ADD CALLDATALOAD PUSH8 0xFFFFFFFFFFFFFFFF DUP2 GT ISZERO PUSH2 0x3627 JUMPI PUSH2 0x3626 PUSH2 0x302E JUMP JUMPDEST JUMPDEST PUSH2 0x3633 DUP12 DUP3 DUP13 ADD PUSH2 0x34EC JUMP JUMPDEST SWAP5 POP SWAP5 POP POP PUSH1 0x80 DUP10 ADD CALLDATALOAD PUSH8 0xFFFFFFFFFFFFFFFF DUP2 GT ISZERO PUSH2 0x3656 JUMPI PUSH2 0x3655 PUSH2 0x302E JUMP JUMPDEST JUMPDEST PUSH2 0x3662 DUP12 DUP3 DUP13 ADD PUSH2 0x3542 JUMP JUMPDEST SWAP3 POP SWAP3 POP POP SWAP3 SWAP6 SWAP9 POP SWAP3 SWAP6 SWAP9 SWAP1 SWAP4 SWAP7 POP JUMP JUMPDEST PUSH1 0x0 DUP1 PUSH1 0x0 DUP1 PUSH1 0x0 PUSH1 0x80 DUP7 DUP9 SUB SLT ISZERO PUSH2 0x3690 JUMPI PUSH2 0x368F PUSH2 0x3029 JUMP JUMPDEST JUMPDEST PUSH1 0x0 PUSH2 0x369E DUP9 DUP3 DUP10 ADD PUSH2 0x307C JUMP JUMPDEST SWAP6 POP POP PUSH1 0x20 PUSH2 0x36AF DUP9 DUP3 DUP10 ADD PUSH2 0x3217 JUMP JUMPDEST SWAP5 POP POP PUSH1 0x40 PUSH2 0x36C0 DUP9 DUP3 DUP10 ADD PUSH2 0x3217 JUMP JUMPDEST SWAP4 POP POP PUSH1 0x60 DUP7 ADD CALLDATALOAD PUSH8 0xFFFFFFFFFFFFFFFF DUP2 GT ISZERO PUSH2 0x36E1 JUMPI PUSH2 0x36E0 PUSH2 0x302E JUMP JUMPDEST JUMPDEST PUSH2 0x36ED DUP9 DUP3 DUP10 ADD PUSH2 0x3542 JUMP JUMPDEST SWAP3 POP SWAP3 POP POP SWAP3 SWAP6 POP SWAP3 SWAP6 SWAP1 SWAP4 POP JUMP JUMPDEST PUSH1 0x0 PUSH2 0x3707 DUP3 PUSH2 0x3053 JUMP JUMPDEST SWAP1 POP SWAP2 SWAP1 POP JUMP JUMPDEST PUSH2 0x3717 DUP2 PUSH2 0x36FC JUMP JUMPDEST DUP2 EQ PUSH2 0x3722 JUMPI PUSH1 0x0 DUP1 REVERT JUMPDEST POP JUMP JUMPDEST PUSH1 0x0 DUP2 CALLDATALOAD SWAP1 POP PUSH2 0x3734 DUP2 PUSH2 0x370E JUMP JUMPDEST SWAP3 SWAP2 POP POP JUMP JUMPDEST PUSH1 0x0 DUP1 PUSH1 0x0 DUP1 PUSH1 0x0 DUP1 PUSH1 0x0 PUSH1 0xC0 DUP9 DUP11 SUB SLT ISZERO PUSH2 0x3759 JUMPI PUSH2 0x3758 PUSH2 0x3029 JUMP JUMPDEST JUMPDEST PUSH1 0x0 PUSH2 0x3767 DUP11 DUP3 DUP12 ADD PUSH2 0x307C JUMP JUMPDEST SWAP8 POP POP PUSH1 0x20 PUSH2 0x3778 DUP11 DUP3 DUP12 ADD PUSH2 0x3217 JUMP JUMPDEST SWAP7 POP POP PUSH1 0x40 PUSH2 0x3789 DUP11 DUP3 DUP12 ADD PUSH2 0x3217 JUMP JUMPDEST SWAP6 POP POP PUSH1 0x60 PUSH2 0x379A DUP11 DUP3 DUP12 ADD PUSH2 0x3725 JUMP JUMPDEST SWAP5 POP POP PUSH1 0x80 PUSH2 0x37AB DUP11 DUP3 DUP12 ADD PUSH2 0x30B2 JUMP JUMPDEST SWAP4 POP POP PUSH1 0xA0 DUP9 ADD CALLDATALOAD PUSH8 0xFFFFFFFFFFFFFFFF DUP2 GT ISZERO PUSH2 0x37CC JUMPI PUSH2 0x37CB PUSH2 0x302E JUMP JUMPDEST JUMPDEST PUSH2 0x37D8 DUP11 DUP3 DUP12 ADD PUSH2 0x3542 JUMP JUMPDEST SWAP3 POP SWAP3 POP POP SWAP3 SWAP6 SWAP9 SWAP2 SWAP5 SWAP8 POP SWAP3 SWAP6 POP JUMP JUMPDEST PUSH1 0x0 PUSH1 0x20 DUP3 DUP5 SUB SLT ISZERO PUSH2 0x37FF JUMPI PUSH2 0x37FE PUSH2 0x3029 JUMP JUMPDEST JUMPDEST PUSH1 0x0 PUSH2 0x380D DUP5 DUP3 DUP6 ADD PUSH2 0x307C JUMP JUMPDEST SWAP2 POP POP SWAP3 SWAP2 POP POP JUMP JUMPDEST PUSH1 0x0 DUP2 MLOAD SWAP1 POP SWAP2 SWAP1 POP JUMP JUMPDEST PUSH1 0x0 DUP3 DUP3 MSTORE PUSH1 0x20 DUP3 ADD SWAP1 POP SWAP3 SWAP2 POP POP JUMP JUMPDEST PUSH1 0x0 DUP2 SWAP1 POP PUSH1 0x20 DUP3 ADD SWAP1 POP SWAP2 SWAP1 POP JUMP JUMPDEST PUSH2 0x384B DUP2 PUSH2 0x3091 JUMP JUMPDEST DUP3 MSTORE POP POP JUMP JUMPDEST PUSH1 0x0 PUSH2 0x385D DUP4 DUP4 PUSH2 0x3842 JUMP JUMPDEST PUSH1 0x20 DUP4 ADD SWAP1 POP SWAP3 SWAP2 POP POP JUMP JUMPDEST PUSH1 0x0 PUSH1 0x20 DUP3 ADD SWAP1 POP SWAP2 SWAP1 POP JUMP JUMPDEST PUSH1 0x0 PUSH2 0x3881 DUP3 PUSH2 0x3816 JUMP JUMPDEST PUSH2 0x388B DUP2 DUP6 PUSH2 0x3821 JUMP JUMPDEST SWAP4 POP PUSH2 0x3896 DUP4 PUSH2 0x3832 JUMP JUMPDEST DUP1 PUSH1 0x0 JUMPDEST DUP4 DUP2 LT ISZERO PUSH2 0x38C7 JUMPI DUP2 MLOAD PUSH2 0x38AE DUP9 DUP3 PUSH2 0x3851 JUMP JUMPDEST SWAP8 POP PUSH2 0x38B9 DUP4 PUSH2 0x3869 JUMP JUMPDEST SWAP3 POP POP PUSH1 0x1 DUP2 ADD SWAP1 POP PUSH2 0x389A JUMP JUMPDEST POP DUP6 SWAP4 POP POP POP POP SWAP3 SWAP2 POP POP JUMP JUMPDEST PUSH1 0x0 PUSH1 0x20 DUP3 ADD SWAP1 POP DUP2 DUP2 SUB PUSH1 0x0 DUP4 ADD MSTORE PUSH2 0x38EE DUP2 DUP5 PUSH2 0x3876 JUMP JUMPDEST SWAP1 POP SWAP3 SWAP2 POP POP JUMP JUMPDEST PUSH1 0x0 DUP1 DUP4 PUSH1 0x1F DUP5 ADD SLT PUSH2 0x390C JUMPI PUSH2 0x390B PUSH2 0x33FF JUMP JUMPDEST JUMPDEST DUP3 CALLDATALOAD SWAP1 POP PUSH8 0xFFFFFFFFFFFFFFFF DUP2 GT ISZERO PUSH2 0x3929 JUMPI PUSH2 0x3928 PUSH2 0x3404 JUMP JUMPDEST JUMPDEST PUSH1 0x20 DUP4 ADD SWAP2 POP DUP4 PUSH1 0x20 DUP3 MUL DUP4 ADD GT ISZERO PUSH2 0x3945 JUMPI PUSH2 0x3944 PUSH2 0x3409 JUMP JUMPDEST JUMPDEST SWAP3 POP SWAP3 SWAP1 POP JUMP JUMPDEST PUSH1 0x0 DUP1 PUSH1 0x0 DUP1 PUSH1 0x40 DUP6 DUP8 SUB SLT ISZERO PUSH2 0x3966 JUMPI PUSH2 0x3965 PUSH2 0x3029 JUMP JUMPDEST JUMPDEST PUSH1 0x0 DUP6 ADD CALLDATALOAD PUSH8 0xFFFFFFFFFFFFFFFF DUP2 GT ISZERO PUSH2 0x3984 JUMPI PUSH2 0x3983 PUSH2 0x302E JUMP JUMPDEST JUMPDEST PUSH2 0x3990 DUP8 DUP3 DUP9 ADD PUSH2 0x38F6 JUMP JUMPDEST SWAP5 POP SWAP5 POP POP PUSH1 0x20 DUP6 ADD CALLDATALOAD PUSH8 0xFFFFFFFFFFFFFFFF DUP2 GT ISZERO PUSH2 0x39B3 JUMPI PUSH2 0x39B2 PUSH2 0x302E JUMP JUMPDEST JUMPDEST PUSH2 0x39BF DUP8 DUP3 DUP9 ADD PUSH2 0x34EC JUMP JUMPDEST SWAP3 POP SWAP3 POP POP SWAP3 SWAP6 SWAP2 SWAP5 POP SWAP3 POP JUMP JUMPDEST PUSH2 0x39D6 DUP2 PUSH2 0x32B0 JUMP JUMPDEST DUP2 EQ PUSH2 0x39E1 JUMPI PUSH1 0x0 DUP1 REVERT JUMPDEST POP JUMP JUMPDEST PUSH1 0x0 DUP2 CALLDATALOAD SWAP1 POP PUSH2 0x39F3 DUP2 PUSH2 0x39CD JUMP JUMPDEST SWAP3 SWAP2 POP POP JUMP JUMPDEST PUSH1 0x0 DUP1 PUSH1 0x0 DUP1 PUSH1 0x80 DUP6 DUP8 SUB SLT ISZERO PUSH2 0x3A13 JUMPI PUSH2 0x3A12 PUSH2 0x3029 JUMP JUMPDEST JUMPDEST PUSH1 0x0 PUSH2 0x3A21 DUP8 DUP3 DUP9 ADD PUSH2 0x39E4 JUMP JUMPDEST SWAP5 POP POP PUSH1 0x20 PUSH2 0x3A32 DUP8 DUP3 DUP9 ADD PUSH2 0x307C JUMP JUMPDEST SWAP4 POP POP PUSH1 0x40 PUSH2 0x3A43 DUP8 DUP3 DUP9 ADD PUSH2 0x30B2 JUMP JUMPDEST SWAP3 POP POP PUSH1 0x60 PUSH2 0x3A54 DUP8 DUP3 DUP9 ADD PUSH2 0x30B2 JUMP JUMPDEST SWAP2 POP POP SWAP3 SWAP6 SWAP2 SWAP5 POP SWAP3 POP JUMP JUMPDEST PUSH1 0x0 DUP1 PUSH1 0x40 DUP4 DUP6 SUB SLT ISZERO PUSH2 0x3A77 JUMPI PUSH2 0x3A76 PUSH2 0x3029 JUMP JUMPDEST JUMPDEST PUSH1 0x0 PUSH2 0x3A85 DUP6 DUP3 DUP7 ADD PUSH2 0x30B2 JUMP JUMPDEST SWAP3 POP POP PUSH1 0x20 PUSH2 0x3A96 DUP6 DUP3 DUP7 ADD PUSH2 0x30B2 JUMP JUMPDEST SWAP2 POP POP SWAP3 POP SWAP3 SWAP1 POP JUMP JUMPDEST PUSH1 0x0 DUP1 PUSH1 0x40 DUP4 DUP6 SUB SLT ISZERO PUSH2 0x3AB7 JUMPI PUSH2 0x3AB6 PUSH2 0x3029 JUMP JUMPDEST JUMPDEST PUSH1 0x0 PUSH2 0x3AC5 DUP6 DUP3 DUP7 ADD PUSH2 0x30B2 JUMP JUMPDEST SWAP3 POP POP PUSH1 0x20 PUSH2 0x3AD6 DUP6 DUP3 DUP7 ADD PUSH2 0x307C JUMP JUMPDEST SWAP2 POP POP SWAP3 POP SWAP3 SWAP1 POP JUMP JUMPDEST PUSH1 0x0 PUSH1 0x20 DUP3 ADD SWAP1 POP PUSH2 0x3AF5 PUSH1 0x0 DUP4 ADD DUP5 PUSH2 0x3374 JUMP JUMPDEST SWAP3 SWAP2 POP POP JUMP JUMPDEST PUSH2 0x3B04 DUP2 PUSH2 0x31B6 JUMP JUMPDEST DUP2 EQ PUSH2 0x3B0F JUMPI PUSH1 0x0 DUP1 REVERT JUMPDEST POP JUMP JUMPDEST PUSH1 0x0 DUP2 CALLDATALOAD SWAP1 POP PUSH2 0x3B21 DUP2 PUSH2 0x3AFB JUMP JUMPDEST SWAP3 SWAP2 POP POP JUMP JUMPDEST PUSH1 0x0 DUP1 PUSH1 0x40 DUP4 DUP6 SUB SLT ISZERO PUSH2 0x3B3E JUMPI PUSH2 0x3B3D PUSH2 0x3029 JUMP JUMPDEST JUMPDEST PUSH1 0x0 PUSH2 0x3B4C DUP6 DUP3 DUP7 ADD PUSH2 0x307C JUMP JUMPDEST SWAP3 POP POP PUSH1 0x20 PUSH2 0x3B5D DUP6 DUP3 DUP7 ADD PUSH2 0x3B12 JUMP JUMPDEST SWAP2 POP POP SWAP3 POP SWAP3 SWAP1 POP JUMP JUMPDEST PUSH1 0x0 DUP2 SWAP1 POP SWAP2 SWAP1 POP JUMP JUMPDEST PUSH1 0x0 PUSH2 0x3B8C PUSH2 0x3B87 PUSH2 0x3B82 DUP5 PUSH2 0x3033 JUMP JUMPDEST PUSH2 0x3B67 JUMP JUMPDEST PUSH2 0x3033 JUMP JUMPDEST SWAP1 POP SWAP2 SWAP1 POP JUMP JUMPDEST PUSH1 0x0 PUSH2 0x3B9E DUP3 PUSH2 0x3B71 JUMP JUMPDEST SWAP1 POP SWAP2 SWAP1 POP JUMP JUMPDEST PUSH1 0x0 PUSH2 0x3BB0 DUP3 PUSH2 0x3B93 JUMP JUMPDEST SWAP1 POP SWAP2 SWAP1 POP JUMP JUMPDEST PUSH2 0x3BC0 DUP2 PUSH2 0x3BA5 JUMP JUMPDEST DUP3 MSTORE POP POP JUMP JUMPDEST PUSH1 0x0 PUSH1 0x20 DUP3 ADD SWAP1 POP PUSH2 0x3BDB PUSH1 0x0 DUP4 ADD DUP5 PUSH2 0x3BB7 JUMP JUMPDEST SWAP3 SWAP2 POP POP JUMP JUMPDEST PUSH1 0x0 DUP1 PUSH1 0x0 DUP1 PUSH1 0x60 DUP6 DUP8 SUB SLT ISZERO PUSH2 0x3BFB JUMPI PUSH2 0x3BFA PUSH2 0x3029 JUMP JUMPDEST JUMPDEST PUSH1 0x0 PUSH2 0x3C09 DUP8 DUP3 DUP9 ADD PUSH2 0x30B2 JUMP JUMPDEST SWAP5 POP POP PUSH1 0x20 PUSH2 0x3C1A DUP8 DUP3 DUP9 ADD PUSH2 0x30B2 JUMP JUMPDEST SWAP4 POP POP PUSH1 0x40 DUP6 ADD CALLDATALOAD PUSH8 0xFFFFFFFFFFFFFFFF DUP2 GT ISZERO PUSH2 0x3C3B JUMPI PUSH2 0x3C3A PUSH2 0x302E JUMP JUMPDEST JUMPDEST PUSH2 0x3C47 DUP8 DUP3 DUP9 ADD PUSH2 0x340E JUMP JUMPDEST SWAP3 POP SWAP3 POP POP SWAP3 SWAP6 SWAP2 SWAP5 POP SWAP3 POP JUMP JUMPDEST PUSH1 0x0 DUP1 DUP4 PUSH1 0x1F DUP5 ADD SLT PUSH2 0x3C6B JUMPI PUSH2 0x3C6A PUSH2 0x33FF JUMP JUMPDEST JUMPDEST DUP3 CALLDATALOAD SWAP1 POP PUSH8 0xFFFFFFFFFFFFFFFF DUP2 GT ISZERO PUSH2 0x3C88 JUMPI PUSH2 0x3C87 PUSH2 0x3404 JUMP JUMPDEST JUMPDEST PUSH1 0x20 DUP4 ADD SWAP2 POP DUP4 PUSH1 0x1 DUP3 MUL DUP4 ADD GT ISZERO PUSH2 0x3CA4 JUMPI PUSH2 0x3CA3 PUSH2 0x3409 JUMP JUMPDEST JUMPDEST SWAP3 POP SWAP3 SWAP1 POP JUMP JUMPDEST PUSH1 0x0 DUP1 PUSH1 0x20 DUP4 DUP6 SUB SLT ISZERO PUSH2 0x3CC2 JUMPI PUSH2 0x3CC1 PUSH2 0x3029 JUMP JUMPDEST JUMPDEST PUSH1 0x0 DUP4 ADD CALLDATALOAD PUSH8 0xFFFFFFFFFFFFFFFF DUP2 GT ISZERO PUSH2 0x3CE0 JUMPI PUSH2 0x3CDF PUSH2 0x302E JUMP JUMPDEST JUMPDEST PUSH2 0x3CEC DUP6 DUP3 DUP7 ADD PUSH2 0x3C55 JUMP JUMPDEST SWAP3 POP SWAP3 POP POP SWAP3 POP SWAP3 SWAP1 POP JUMP JUMPDEST PUSH1 0x0 DUP1 PUSH1 0x40 DUP4 DUP6 SUB SLT ISZERO PUSH2 0x3D0F JUMPI PUSH2 0x3D0E PUSH2 0x3029 JUMP JUMPDEST JUMPDEST PUSH1 0x0 PUSH2 0x3D1D DUP6 DUP3 DUP7 ADD PUSH2 0x307C JUMP JUMPDEST SWAP3 POP POP PUSH1 0x20 PUSH2 0x3D2E DUP6 DUP3 DUP7 ADD PUSH2 0x307C JUMP JUMPDEST SWAP2 POP POP SWAP3 POP SWAP3 SWAP1 POP JUMP JUMPDEST PUSH1 0x0 DUP1 PUSH1 0x40 DUP4 DUP6 SUB SLT ISZERO PUSH2 0x3D4F JUMPI PUSH2 0x3D4E PUSH2 0x3029 JUMP JUMPDEST JUMPDEST PUSH1 0x0 PUSH2 0x3D5D DUP6 DUP3 DUP7 ADD PUSH2 0x30B2 JUMP JUMPDEST SWAP3 POP POP PUSH1 0x20 PUSH2 0x3D6E DUP6 DUP3 DUP7 ADD PUSH2 0x39E4 JUMP JUMPDEST SWAP2 POP POP SWAP3 POP SWAP3 SWAP1 POP JUMP JUMPDEST PUSH1 0x0 DUP1 PUSH1 0x0 DUP1 PUSH1 0x0 DUP1 PUSH1 0xA0 DUP8 DUP10 SUB SLT ISZERO PUSH2 0x3D95 JUMPI PUSH2 0x3D94 PUSH2 0x3029 JUMP JUMPDEST JUMPDEST PUSH1 0x0 PUSH2 0x3DA3 DUP10 DUP3 DUP11 ADD PUSH2 0x307C JUMP JUMPDEST SWAP7 POP POP PUSH1 0x20 PUSH2 0x3DB4 DUP10 DUP3 DUP11 ADD PUSH2 0x307C JUMP JUMPDEST SWAP6 POP POP PUSH1 0x40 PUSH2 0x3DC5 DUP10 DUP3 DUP11 ADD PUSH2 0x30B2 JUMP JUMPDEST SWAP5 POP POP PUSH1 0x60 PUSH2 0x3DD6 DUP10 DUP3 DUP11 ADD PUSH2 0x30B2 JUMP JUMPDEST SWAP4 POP POP PUSH1 0x80 DUP8 ADD CALLDATALOAD PUSH8 0xFFFFFFFFFFFFFFFF DUP2 GT ISZERO PUSH2 0x3DF7 JUMPI PUSH2 0x3DF6 PUSH2 0x302E JUMP JUMPDEST JUMPDEST PUSH2 0x3E03 DUP10 DUP3 DUP11 ADD PUSH2 0x3542 JUMP JUMPDEST SWAP3 POP SWAP3 POP POP SWAP3 SWAP6 POP SWAP3 SWAP6 POP SWAP3 SWAP6 JUMP JUMPDEST PUSH1 0x0 PUSH1 0x20 DUP3 DUP5 SUB SLT ISZERO PUSH2 0x3E28 JUMPI PUSH2 0x3E27 PUSH2 0x3029 JUMP JUMPDEST JUMPDEST PUSH1 0x0 PUSH2 0x3E36 DUP5 DUP3 DUP6 ADD PUSH2 0x3B12 JUMP JUMPDEST SWAP2 POP POP SWAP3 SWAP2 POP POP JUMP JUMPDEST PUSH32 0x4B657920646F6573206E6F742065786973740000000000000000000000000000 PUSH1 0x0 DUP3 ADD MSTORE POP JUMP JUMPDEST PUSH1 0x0 PUSH2 0x3E75 PUSH1 0x12 DUP4 PUSH2 0x32EF JUMP JUMPDEST SWAP2 POP PUSH2 0x3E80 DUP3 PUSH2 0x3E3F JUMP JUMPDEST PUSH1 0x20 DUP3 ADD SWAP1 POP SWAP2 SWAP1 POP JUMP JUMPDEST PUSH1 0x0 PUSH1 0x20 DUP3 ADD SWAP1 POP DUP2 DUP2 SUB PUSH1 0x0 DUP4 ADD MSTORE PUSH2 0x3EA4 DUP2 PUSH2 0x3E68 JUMP JUMPDEST SWAP1 POP SWAP2 SWAP1 POP JUMP JUMPDEST PUSH32 0x4E487B7100000000000000000000000000000000000000000000000000000000 PUSH1 0x0 MSTORE PUSH1 0x22 PUSH1 0x4 MSTORE PUSH1 0x24 PUSH1 0x0 REVERT JUMPDEST PUSH1 0x0 PUSH1 0x2 DUP3 DIV SWAP1 POP PUSH1 0x1 DUP3 AND DUP1 PUSH2 0x3EF2 JUMPI PUSH1 0x7F DUP3 AND SWAP2 POP JUMPDEST PUSH1 0x20 DUP3 LT DUP2 SUB PUSH2 0x3F05 JUMPI PUSH2 0x3F04 PUSH2 0x3EAB JUMP JUMPDEST JUMPDEST POP SWAP2 SWAP1 POP JUMP JUMPDEST PUSH1 0x0 DUP2 PUSH1 0x60 SHL SWAP1 POP SWAP2 SWAP1 POP JUMP JUMPDEST PUSH1 0x0 PUSH2 0x3F23 DUP3 PUSH2 0x3F0B JUMP JUMPDEST SWAP1 POP SWAP2 SWAP1 POP JUMP JUMPDEST PUSH1 0x0 PUSH2 0x3F35 DUP3 PUSH2 0x3F18 JUMP JUMPDEST SWAP1 POP SWAP2 SWAP1 POP JUMP JUMPDEST PUSH2 0x3F4D PUSH2 0x3F48 DUP3 PUSH2 0x3053 JUMP JUMPDEST PUSH2 0x3F2A JUMP JUMPDEST DUP3 MSTORE POP POP JUMP JUMPDEST PUSH1 0x0 DUP2 SWAP1 POP SWAP2 SWAP1 POP JUMP JUMPDEST PUSH2 0x3F6E PUSH2 0x3F69 DUP3 PUSH2 0x3091 JUMP JUMPDEST PUSH2 0x3F53 JUMP JUMPDEST DUP3 MSTORE POP POP JUMP JUMPDEST PUSH1 0x0 PUSH2 0x3F80 DUP3 DUP6 PUSH2 0x3F3C JUMP JUMPDEST PUSH1 0x14 DUP3 ADD SWAP2 POP PUSH2 0x3F90 DUP3 DUP5 PUSH2 0x3F5D JUMP JUMPDEST PUSH1 0x20 DUP3 ADD SWAP2 POP DUP2 SWAP1 POP SWAP4 SWAP3 POP POP POP JUMP JUMPDEST PUSH32 0x4E487B7100000000000000000000000000000000000000000000000000000000 PUSH1 0x0 MSTORE PUSH1 0x32 PUSH1 0x4 MSTORE PUSH1 0x24 PUSH1 0x0 REVERT JUMPDEST PUSH1 0x0 DUP2 SWAP1 POP SWAP2 SWAP1 POP JUMP JUMPDEST PUSH2 0x3FEA PUSH2 0x3FE5 DUP3 PUSH2 0x32B0 JUMP JUMPDEST PUSH2 0x3FCF JUMP JUMPDEST DUP3 MSTORE POP POP JUMP JUMPDEST PUSH1 0x0 PUSH2 0x3FFC DUP3 DUP6 PUSH2 0x3FD9 JUMP JUMPDEST PUSH1 0x20 DUP3 ADD SWAP2 POP PUSH2 0x400C DUP3 DUP5 PUSH2 0x3FD9 JUMP JUMPDEST PUSH1 0x20 DUP3 ADD SWAP2 POP DUP2 SWAP1 POP SWAP4 SWAP3 POP POP POP JUMP JUMPDEST PUSH32 0x4C454E4754485F4D49534D415443480000000000000000000000000000000000 PUSH1 0x0 DUP3 ADD MSTORE POP JUMP JUMPDEST PUSH1 0x0 PUSH2 0x4052 PUSH1 0xF DUP4 PUSH2 0x32EF JUMP JUMPDEST SWAP2 POP PUSH2 0x405D DUP3 PUSH2 0x401C JUMP JUMPDEST PUSH1 0x20 DUP3 ADD SWAP1 POP SWAP2 SWAP1 POP JUMP JUMPDEST PUSH1 0x0 PUSH1 0x20 DUP3 ADD SWAP1 POP DUP2 DUP2 SUB PUSH1 0x0 DUP4 ADD MSTORE PUSH2 0x4081 DUP2 PUSH2 0x4045 JUMP JUMPDEST SWAP1 POP SWAP2 SWAP1 POP JUMP JUMPDEST PUSH32 0x4E4F545F415554484F52495A4544000000000000000000000000000000000000 PUSH1 0x0 DUP3 ADD MSTORE POP JUMP JUMPDEST PUSH1 0x0 PUSH2 0x40BE PUSH1 0xE DUP4 PUSH2 0x32EF JUMP JUMPDEST SWAP2 POP PUSH2 0x40C9 DUP3 PUSH2 0x4088 JUMP JUMPDEST PUSH1 0x20 DUP3 ADD SWAP1 POP SWAP2 SWAP1 POP JUMP JUMPDEST PUSH1 0x0 PUSH1 0x20 DUP3 ADD SWAP1 POP DUP2 DUP2 SUB PUSH1 0x0 DUP4 ADD MSTORE PUSH2 0x40ED DUP2 PUSH2 0x40B1 JUMP JUMPDEST SWAP1 POP SWAP2 SWAP1 POP JUMP JUMPDEST PUSH32 0x4E487B7100000000000000000000000000000000000000000000000000000000 PUSH1 0x0 MSTORE PUSH1 0x11 PUSH1 0x4 MSTORE PUSH1 0x24 PUSH1 0x0 REVERT JUMPDEST PUSH1 0x0 PUSH2 0x412E DUP3 PUSH2 0x3091 JUMP JUMPDEST SWAP2 POP PUSH2 0x4139 DUP4 PUSH2 0x3091 JUMP JUMPDEST SWAP3 POP DUP3 DUP3 SUB SWAP1 POP DUP2 DUP2 GT ISZERO PUSH2 0x4151 JUMPI PUSH2 0x4150 PUSH2 0x40F4 JUMP JUMPDEST JUMPDEST SWAP3 SWAP2 POP POP JUMP JUMPDEST PUSH1 0x0 PUSH2 0x4162 DUP3 PUSH2 0x3091 JUMP JUMPDEST SWAP2 POP PUSH2 0x416D DUP4 PUSH2 0x3091 JUMP JUMPDEST SWAP3 POP DUP3 DUP3 ADD SWAP1 POP DUP1 DUP3 GT ISZERO PUSH2 0x4185 JUMPI PUSH2 0x4184 PUSH2 0x40F4 JUMP JUMPDEST JUMPDEST SWAP3 SWAP2 POP POP JUMP JUMPDEST PUSH1 0x0 DUP1 REVERT JUMPDEST DUP3 DUP2 DUP4 CALLDATACOPY POP POP POP JUMP JUMPDEST PUSH1 0x0 PUSH2 0x41A5 DUP4 DUP6 PUSH2 0x3821 JUMP JUMPDEST SWAP4 POP PUSH32 0x7FFFFFFFFFFFFFFFFFFFFFFFFFFFFFFFFFFFFFFFFFFFFFFFFFFFFFFFFFFFFFF DUP4 GT ISZERO PUSH2 0x41D8 JUMPI PUSH2 0x41D7 PUSH2 0x418B JUMP JUMPDEST JUMPDEST PUSH1 0x20 DUP4 MUL SWAP3 POP PUSH2 0x41E9 DUP4 DUP6 DUP5 PUSH2 0x4190 JUMP JUMPDEST DUP3 DUP5 ADD SWAP1 POP SWAP4 SWAP3 POP POP POP JUMP JUMPDEST PUSH1 0x0 PUSH1 0x40 DUP3 ADD SWAP1 POP DUP2 DUP2 SUB PUSH1 0x0 DUP4 ADD MSTORE PUSH2 0x4210 DUP2 DUP7 DUP9 PUSH2 0x4199 JUMP JUMPDEST SWAP1 POP DUP2 DUP2 SUB PUSH1 0x20 DUP4 ADD MSTORE PUSH2 0x4225 DUP2 DUP5 DUP7 PUSH2 0x4199 JUMP JUMPDEST SWAP1 POP SWAP6 SWAP5 POP POP POP POP POP JUMP JUMPDEST PUSH1 0x0 DUP3 DUP3 MSTORE PUSH1 0x20 DUP3 ADD SWAP1 POP SWAP3 SWAP2 POP POP JUMP JUMPDEST DUP3 DUP2 DUP4 CALLDATACOPY PUSH1 0x0 DUP4 DUP4 ADD MSTORE POP POP POP JUMP JUMPDEST PUSH1 0x0 PUSH2 0x425C DUP4 DUP6 PUSH2 0x4230 JUMP JUMPDEST SWAP4 POP PUSH2 0x4269 DUP4 DUP6 DUP5 PUSH2 0x4241 JUMP JUMPDEST PUSH2 0x4272 DUP4 PUSH2 0x332A JUMP JUMPDEST DUP5 ADD SWAP1 POP SWAP4 SWAP3 POP POP POP JUMP JUMPDEST PUSH1 0x0 PUSH1 0xA0 DUP3 ADD SWAP1 POP PUSH2 0x4292 PUSH1 0x0 DUP4 ADD DUP12 PUSH2 0x3374 JUMP JUMPDEST PUSH2 0x429F PUSH1 0x20 DUP4 ADD DUP11 PUSH2 0x3374 JUMP JUMPDEST DUP2 DUP2 SUB PUSH1 0x40 DUP4 ADD MSTORE PUSH2 0x42B2 DUP2 DUP9 DUP11 PUSH2 0x4199 JUMP JUMPDEST SWAP1 POP DUP2 DUP2 SUB PUSH1 0x60 DUP4 ADD MSTORE PUSH2 0x42C7 DUP2 DUP7 DUP9 PUSH2 0x4199 JUMP JUMPDEST SWAP1 POP DUP2 DUP2 SUB PUSH1 0x80 DUP4 ADD MSTORE PUSH2 0x42DC DUP2 DUP5 DUP7 PUSH2 0x4250 JUMP JUMPDEST SWAP1 POP SWAP10 SWAP9 POP POP POP POP POP POP POP POP POP JUMP JUMPDEST PUSH1 0x0 DUP2 MLOAD SWAP1 POP PUSH2 0x42FA DUP2 PUSH2 0x315D JUMP JUMPDEST SWAP3 SWAP2 POP POP JUMP JUMPDEST PUSH1 0x0 PUSH1 0x20 DUP3 DUP5 SUB SLT ISZERO PUSH2 0x4316 JUMPI PUSH2 0x4315 PUSH2 0x3029 JUMP JUMPDEST JUMPDEST PUSH1 0x0 PUSH2 0x4324 DUP5 DUP3 DUP6 ADD PUSH2 0x42EB JUMP JUMPDEST SWAP2 POP POP SWAP3 SWAP2 POP POP JUMP JUMPDEST PUSH32 0x554E534146455F524543495049454E5400000000000000000000000000000000 PUSH1 0x0 DUP3 ADD MSTORE POP JUMP JUMPDEST PUSH1 0x0 PUSH2 0x4363 PUSH1 0x10 DUP4 PUSH2 0x32EF JUMP JUMPDEST SWAP2 POP PUSH2 0x436E DUP3 PUSH2 0x432D JUMP JUMPDEST PUSH1 0x20 DUP3 ADD SWAP1 POP SWAP2 SWAP1 POP JUMP JUMPDEST PUSH1 0x0 PUSH1 0x20 DUP3 ADD SWAP1 POP DUP2 DUP2 SUB PUSH1 0x0 DUP4 ADD MSTORE PUSH2 0x4392 DUP2 PUSH2 0x4356 JUMP JUMPDEST SWAP1 POP SWAP2 SWAP1 POP JUMP JUMPDEST PUSH1 0x0 DUP1 REVERT JUMPDEST PUSH32 0x4E487B7100000000000000000000000000000000000000000000000000000000 PUSH1 0x0 MSTORE PUSH1 0x41 PUSH1 0x4 MSTORE PUSH1 0x24 PUSH1 0x0 REVERT JUMPDEST PUSH2 0x43D6 DUP3 PUSH2 0x332A JUMP JUMPDEST DUP2 ADD DUP2 DUP2 LT PUSH8 0xFFFFFFFFFFFFFFFF DUP3 GT OR ISZERO PUSH2 0x43F5 JUMPI PUSH2 0x43F4 PUSH2 0x439E JUMP JUMPDEST JUMPDEST DUP1 PUSH1 0x40 MSTORE POP POP POP JUMP JUMPDEST PUSH1 0x0 PUSH2 0x4408 PUSH2 0x301F JUMP JUMPDEST SWAP1 POP PUSH2 0x4414 DUP3 DUP3 PUSH2 0x43CD JUMP JUMPDEST SWAP2 SWAP1 POP JUMP JUMPDEST PUSH1 0x0 DUP1 REVERT JUMPDEST PUSH1 0x0 DUP2 MLOAD SWAP1 POP PUSH2 0x442D DUP2 PUSH2 0x3200 JUMP JUMPDEST SWAP3 SWAP2 POP POP JUMP JUMPDEST PUSH1 0x0 DUP2 MLOAD SWAP1 POP PUSH2 0x4442 DUP2 PUSH2 0x3065 JUMP JUMPDEST SWAP3 SWAP2 POP POP JUMP JUMPDEST PUSH1 0x4 DUP2 LT PUSH2 0x4455 JUMPI PUSH1 0x0 DUP1 REVERT JUMPDEST POP JUMP JUMPDEST PUSH1 0x0 DUP2 MLOAD SWAP1 POP PUSH2 0x4467 DUP2 PUSH2 0x4448 JUMP JUMPDEST SWAP3 SWAP2 POP POP JUMP JUMPDEST PUSH1 0x0 DUP2 MLOAD SWAP1 POP PUSH2 0x447C DUP2 PUSH2 0x3AFB JUMP JUMPDEST SWAP3 SWAP2 POP POP JUMP JUMPDEST PUSH1 0x0 PUSH8 0xFFFFFFFFFFFFFFFF DUP3 GT ISZERO PUSH2 0x449D JUMPI PUSH2 0x449C PUSH2 0x439E JUMP JUMPDEST JUMPDEST PUSH1 0x20 DUP3 MUL SWAP1 POP PUSH1 0x20 DUP2 ADD SWAP1 POP SWAP2 SWAP1 POP JUMP JUMPDEST PUSH1 0x0 DUP1 REVERT JUMPDEST PUSH1 0x0 PUSH8 0xFFFFFFFFFFFFFFFF DUP3 GT ISZERO PUSH2 0x44CE JUMPI PUSH2 0x44CD PUSH2 0x439E JUMP JUMPDEST JUMPDEST PUSH2 0x44D7 DUP3 PUSH2 0x332A JUMP JUMPDEST SWAP1 POP PUSH1 0x20 DUP2 ADD SWAP1 POP SWAP2 SWAP1 POP JUMP JUMPDEST PUSH1 0x0 PUSH2 0x44F7 PUSH2 0x44F2 DUP5 PUSH2 0x44B3 JUMP JUMPDEST PUSH2 0x43FE JUMP JUMPDEST SWAP1 POP DUP3 DUP2 MSTORE PUSH1 0x20 DUP2 ADD DUP5 DUP5 DUP5 ADD GT ISZERO PUSH2 0x4513 JUMPI PUSH2 0x4512 PUSH2 0x44AE JUMP JUMPDEST JUMPDEST PUSH2 0x451E DUP5 DUP3 DUP6 PUSH2 0x3300 JUMP JUMPDEST POP SWAP4 SWAP3 POP POP POP JUMP JUMPDEST PUSH1 0x0 DUP3 PUSH1 0x1F DUP4 ADD SLT PUSH2 0x453B JUMPI PUSH2 0x453A PUSH2 0x33FF JUMP JUMPDEST JUMPDEST DUP2 MLOAD PUSH2 0x454B DUP5 DUP3 PUSH1 0x20 DUP7 ADD PUSH2 0x44E4 JUMP JUMPDEST SWAP2 POP POP SWAP3 SWAP2 POP POP JUMP JUMPDEST PUSH1 0x0 PUSH2 0x4567 PUSH2 0x4562 DUP5 PUSH2 0x4482 JUMP JUMPDEST PUSH2 0x43FE JUMP JUMPDEST SWAP1 POP DUP1 DUP4 DUP3 MSTORE PUSH1 0x20 DUP3 ADD SWAP1 POP PUSH1 0x20 DUP5 MUL DUP4 ADD DUP6 DUP2 GT ISZERO PUSH2 0x458A JUMPI PUSH2 0x4589 PUSH2 0x3409 JUMP JUMPDEST JUMPDEST DUP4 JUMPDEST DUP2 DUP2 LT ISZERO PUSH2 0x45D1 JUMPI DUP1 MLOAD PUSH8 0xFFFFFFFFFFFFFFFF DUP2 GT ISZERO PUSH2 0x45AF JUMPI PUSH2 0x45AE PUSH2 0x33FF JUMP JUMPDEST JUMPDEST DUP1 DUP7 ADD PUSH2 0x45BC DUP10 DUP3 PUSH2 0x4526 JUMP JUMPDEST DUP6 MSTORE PUSH1 0x20 DUP6 ADD SWAP5 POP POP POP PUSH1 0x20 DUP2 ADD SWAP1 POP PUSH2 0x458C JUMP JUMPDEST POP POP POP SWAP4 SWAP3 POP POP POP JUMP JUMPDEST PUSH1 0x0 DUP3 PUSH1 0x1F DUP4 ADD SLT PUSH2 0x45F0 JUMPI PUSH2 0x45EF PUSH2 0x33FF JUMP JUMPDEST JUMPDEST DUP2 MLOAD PUSH2 0x4600 DUP5 DUP3 PUSH1 0x20 DUP7 ADD PUSH2 0x4554 JUMP JUMPDEST SWAP2 POP POP SWAP3 SWAP2 POP POP JUMP JUMPDEST PUSH1 0x0 PUSH2 0x140 DUP3 DUP5 SUB SLT ISZERO PUSH2 0x4620 JUMPI PUSH2 0x461F PUSH2 0x4399 JUMP JUMPDEST JUMPDEST PUSH2 0x462B PUSH2 0x140 PUSH2 0x43FE JUMP JUMPDEST SWAP1 POP PUSH1 0x0 PUSH2 0x463B DUP5 DUP3 DUP6 ADD PUSH2 0x441E JUMP JUMPDEST PUSH1 0x0 DUP4 ADD MSTORE POP PUSH1 0x20 PUSH2 0x464F DUP5 DUP3 DUP6 ADD PUSH2 0x441E JUMP JUMPDEST PUSH1 0x20 DUP4 ADD MSTORE POP PUSH1 0x40 PUSH2 0x4663 DUP5 DUP3 DUP6 ADD PUSH2 0x441E JUMP JUMPDEST PUSH1 0x40 DUP4 ADD MSTORE POP PUSH1 0x60 PUSH2 0x4677 DUP5 DUP3 DUP6 ADD PUSH2 0x441E JUMP JUMPDEST PUSH1 0x60 DUP4 ADD MSTORE POP PUSH1 0x80 PUSH2 0x468B DUP5 DUP3 DUP6 ADD PUSH2 0x4433 JUMP JUMPDEST PUSH1 0x80 DUP4 ADD MSTORE POP PUSH1 0xA0 PUSH2 0x469F DUP5 DUP3 DUP6 ADD PUSH2 0x441E JUMP JUMPDEST PUSH1 0xA0 DUP4 ADD MSTORE POP PUSH1 0xC0 PUSH2 0x46B3 DUP5 DUP3 DUP6 ADD PUSH2 0x4458 JUMP JUMPDEST PUSH1 0xC0 DUP4 ADD MSTORE POP PUSH1 0xE0 PUSH2 0x46C7 DUP5 DUP3 DUP6 ADD PUSH2 0x446D JUMP JUMPDEST PUSH1 0xE0 DUP4 ADD MSTORE POP PUSH2 0x100 DUP3 ADD MLOAD PUSH8 0xFFFFFFFFFFFFFFFF DUP2 GT ISZERO PUSH2 0x46EC JUMPI PUSH2 0x46EB PUSH2 0x4419 JUMP JUMPDEST JUMPDEST PUSH2 0x46F8 DUP5 DUP3 DUP6 ADD PUSH2 0x45DB JUMP JUMPDEST PUSH2 0x100 DUP4 ADD MSTORE POP PUSH2 0x120 DUP3 ADD MLOAD PUSH8 0xFFFFFFFFFFFFFFFF DUP2 GT ISZERO PUSH2 0x471E JUMPI PUSH2 0x471D PUSH2 0x4419 JUMP JUMPDEST JUMPDEST PUSH2 0x472A DUP5 DUP3 DUP6 ADD PUSH2 0x4526 JUMP JUMPDEST PUSH2 0x120 DUP4 ADD MSTORE POP SWAP3 SWAP2 POP POP JUMP JUMPDEST PUSH1 0x0 PUSH1 0x20 DUP3 DUP5 SUB SLT ISZERO PUSH2 0x474D JUMPI PUSH2 0x474C PUSH2 0x3029 JUMP JUMPDEST JUMPDEST PUSH1 0x0 DUP3 ADD MLOAD PUSH8 0xFFFFFFFFFFFFFFFF DUP2 GT ISZERO PUSH2 0x476B JUMPI PUSH2 0x476A PUSH2 0x302E JUMP JUMPDEST JUMPDEST PUSH2 0x4777 DUP5 DUP3 DUP6 ADD PUSH2 0x4609 JUMP JUMPDEST SWAP2 POP POP SWAP3 SWAP2 POP POP JUMP JUMPDEST PUSH1 0x0 DUP2 MLOAD SWAP1 POP PUSH2 0x478F DUP2 PUSH2 0x309B JUMP JUMPDEST SWAP3 SWAP2 POP POP JUMP JUMPDEST PUSH1 0x0 PUSH1 0x20 DUP3 DUP5 SUB SLT ISZERO PUSH2 0x47AB JUMPI PUSH2 0x47AA PUSH2 0x3029 JUMP JUMPDEST JUMPDEST PUSH1 0x0 PUSH2 0x47B9 DUP5 DUP3 DUP6 ADD PUSH2 0x4780 JUMP JUMPDEST SWAP2 POP POP SWAP3 SWAP2 POP POP JUMP JUMPDEST PUSH32 0x4E487B7100000000000000000000000000000000000000000000000000000000 PUSH1 0x0 MSTORE PUSH1 0x21 PUSH1 0x4 MSTORE PUSH1 0x24 PUSH1 0x0 REVERT JUMPDEST PUSH2 0x47FA DUP2 PUSH2 0x31EC JUMP JUMPDEST DUP3 MSTORE POP POP JUMP JUMPDEST PUSH2 0x4809 DUP2 PUSH2 0x3053 JUMP JUMPDEST DUP3 MSTORE POP POP JUMP JUMPDEST PUSH1 0x4 DUP2 LT PUSH2 0x4820 JUMPI PUSH2 0x481F PUSH2 0x47C2 JUMP JUMPDEST JUMPDEST POP JUMP JUMPDEST PUSH1 0x0 DUP2 SWAP1 POP PUSH2 0x4831 DUP3 PUSH2 0x480F JUMP JUMPDEST SWAP2 SWAP1 POP JUMP JUMPDEST PUSH1 0x0 PUSH2 0x4841 DUP3 PUSH2 0x4823 JUMP JUMPDEST SWAP1 POP SWAP2 SWAP1 POP JUMP JUMPDEST PUSH2 0x4851 DUP2 PUSH2 0x4836 JUMP JUMPDEST DUP3 MSTORE POP POP JUMP JUMPDEST PUSH2 0x4860 DUP2 PUSH2 0x31B6 JUMP JUMPDEST DUP3 MSTORE POP POP JUMP JUMPDEST PUSH1 0x0 DUP2 MLOAD SWAP1 POP SWAP2 SWAP1 POP JUMP JUMPDEST PUSH1 0x0 DUP3 DUP3 MSTORE PUSH1 0x20 DUP3 ADD SWAP1 POP SWAP3 SWAP2 POP POP JUMP JUMPDEST PUSH1 0x0 DUP2 SWAP1 POP PUSH1 0x20 DUP3 ADD SWAP1 POP SWAP2 SWAP1 POP JUMP JUMPDEST PUSH1 0x0 DUP2 MLOAD SWAP1 POP SWAP2 SWAP1 POP JUMP JUMPDEST PUSH1 0x0 DUP3 DUP3 MSTORE PUSH1 0x20 DUP3 ADD SWAP1 POP SWAP3 SWAP2 POP POP JUMP JUMPDEST PUSH1 0x0 PUSH2 0x48B9 DUP3 PUSH2 0x4892 JUMP JUMPDEST PUSH2 0x48C3 DUP2 DUP6 PUSH2 0x489D JUMP JUMPDEST SWAP4 POP PUSH2 0x48D3 DUP2 DUP6 PUSH1 0x20 DUP7 ADD PUSH2 0x3300 JUMP JUMPDEST PUSH2 0x48DC DUP2 PUSH2 0x332A JUMP JUMPDEST DUP5 ADD SWAP2 POP POP SWAP3 SWAP2 POP POP JUMP JUMPDEST PUSH1 0x0 PUSH2 0x48F3 DUP4 DUP4 PUSH2 0x48AE JUMP JUMPDEST SWAP1 POP SWAP3 SWAP2 POP POP JUMP JUMPDEST PUSH1 0x0 PUSH1 0x20 DUP3 ADD SWAP1 POP SWAP2 SWAP1 POP JUMP JUMPDEST PUSH1 0x0 PUSH2 0x4913 DUP3 PUSH2 0x4866 JUMP JUMPDEST PUSH2 0x491D DUP2 DUP6 PUSH2 0x4871 JUMP JUMPDEST SWAP4 POP DUP4 PUSH1 0x20 DUP3 MUL DUP6 ADD PUSH2 0x492F DUP6 PUSH2 0x4882 JUMP JUMPDEST DUP1 PUSH1 0x0 JUMPDEST DUP6 DUP2 LT ISZERO PUSH2 0x496B JUMPI DUP5 DUP5 SUB DUP10 MSTORE DUP2 MLOAD PUSH2 0x494C DUP6 DUP3 PUSH2 0x48E7 JUMP JUMPDEST SWAP5 POP PUSH2 0x4957 DUP4 PUSH2 0x48FB JUMP JUMPDEST SWAP3 POP PUSH1 0x20 DUP11 ADD SWAP10 POP POP PUSH1 0x1 DUP2 ADD SWAP1 POP PUSH2 0x4933 JUMP JUMPDEST POP DUP3 SWAP8 POP DUP8 SWAP6 POP POP POP POP POP POP SWAP3 SWAP2 POP POP JUMP JUMPDEST PUSH1 0x0 PUSH2 0x140 DUP4 ADD PUSH1 0x0 DUP4 ADD MLOAD PUSH2 0x4996 PUSH1 0x0 DUP7 ADD DUP3 PUSH2 0x47F1 JUMP JUMPDEST POP PUSH1 0x20 DUP4 ADD MLOAD PUSH2 0x49A9 PUSH1 0x20 DUP7 ADD DUP3 PUSH2 0x47F1 JUMP JUMPDEST POP PUSH1 0x40 DUP4 ADD MLOAD PUSH2 0x49BC PUSH1 0x40 DUP7 ADD DUP3 PUSH2 0x47F1 JUMP JUMPDEST POP PUSH1 0x60 DUP4 ADD MLOAD PUSH2 0x49CF PUSH1 0x60 DUP7 ADD DUP3 PUSH2 0x47F1 JUMP JUMPDEST POP PUSH1 0x80 DUP4 ADD MLOAD PUSH2 0x49E2 PUSH1 0x80 DUP7 ADD DUP3 PUSH2 0x4800 JUMP JUMPDEST POP PUSH1 0xA0 DUP4 ADD MLOAD PUSH2 0x49F5 PUSH1 0xA0 DUP7 ADD DUP3 PUSH2 0x47F1 JUMP JUMPDEST POP PUSH1 0xC0 DUP4 ADD MLOAD PUSH2 0x4A08 PUSH1 0xC0 DUP7 ADD DUP3 PUSH2 0x4848 JUMP JUMPDEST POP PUSH1 0xE0 DUP4 ADD MLOAD PUSH2 0x4A1B PUSH1 0xE0 DUP7 ADD DUP3 PUSH2 0x4857 JUMP JUMPDEST POP PUSH2 0x100 DUP4 ADD MLOAD DUP5 DUP3 SUB PUSH2 0x100 DUP7 ADD MSTORE PUSH2 0x4A35 DUP3 DUP3 PUSH2 0x4908 JUMP JUMPDEST SWAP2 POP POP PUSH2 0x120 DUP4 ADD MLOAD DUP5 DUP3 SUB PUSH2 0x120 DUP7 ADD MSTORE PUSH2 0x4A51 DUP3 DUP3 PUSH2 0x48AE JUMP JUMPDEST SWAP2 POP POP DUP1 SWAP2 POP POP SWAP3 SWAP2 POP POP JUMP JUMPDEST POP JUMP JUMPDEST PUSH1 0x0 PUSH2 0x4A6E PUSH1 0x0 DUP4 PUSH2 0x32EF JUMP JUMPDEST SWAP2 POP PUSH2 0x4A79 DUP3 PUSH2 0x4A5E JUMP JUMPDEST PUSH1 0x0 DUP3 ADD SWAP1 POP SWAP2 SWAP1 POP JUMP JUMPDEST PUSH1 0x0 PUSH2 0x4A91 PUSH1 0x0 DUP4 PUSH2 0x4230 JUMP JUMPDEST SWAP2 POP PUSH2 0x4A9C DUP3 PUSH2 0x4A5E JUMP JUMPDEST PUSH1 0x0 DUP3 ADD SWAP1 POP SWAP2 SWAP1 POP JUMP JUMPDEST PUSH1 0x0 PUSH1 0x80 DUP3 ADD SWAP1 POP DUP2 DUP2 SUB PUSH1 0x0 DUP4 ADD MSTORE PUSH2 0x4AC1 DUP2 DUP5 PUSH2 0x497D JUMP JUMPDEST SWAP1 POP DUP2 DUP2 SUB PUSH1 0x20 DUP4 ADD MSTORE PUSH2 0x4AD4 DUP2 PUSH2 0x4A61 JUMP JUMPDEST SWAP1 POP DUP2 DUP2 SUB PUSH1 0x40 DUP4 ADD MSTORE PUSH2 0x4AE7 DUP2 PUSH2 0x4A84 JUMP JUMPDEST SWAP1 POP DUP2 DUP2 SUB PUSH1 0x60 DUP4 ADD MSTORE PUSH2 0x4AFA DUP2 PUSH2 0x4A84 JUMP JUMPDEST SWAP1 POP SWAP3 SWAP2 POP POP JUMP JUMPDEST PUSH1 0x0 PUSH1 0x20 DUP3 DUP5 SUB SLT ISZERO PUSH2 0x4B18 JUMPI PUSH2 0x4B17 PUSH2 0x3029 JUMP JUMPDEST JUMPDEST PUSH1 0x0 PUSH2 0x4B26 DUP5 DUP3 DUP6 ADD PUSH2 0x441E JUMP JUMPDEST SWAP2 POP POP SWAP3 SWAP2 POP POP JUMP JUMPDEST PUSH32 0x4B657920706F6F6C206973206E6F74206C697175696461746564000000000000 PUSH1 0x0 DUP3 ADD MSTORE POP JUMP JUMPDEST PUSH1 0x0 PUSH2 0x4B65 PUSH1 0x1A DUP4 PUSH2 0x32EF JUMP JUMPDEST SWAP2 POP PUSH2 0x4B70 DUP3 PUSH2 0x4B2F JUMP JUMPDEST PUSH1 0x20 DUP3 ADD SWAP1 POP SWAP2 SWAP1 POP JUMP JUMPDEST PUSH1 0x0 PUSH1 0x20 DUP3 ADD SWAP1 POP DUP2 DUP2 SUB PUSH1 0x0 DUP4 ADD MSTORE PUSH2 0x4B94 DUP2 PUSH2 0x4B58 JUMP JUMPDEST SWAP1 POP SWAP2 SWAP1 POP JUMP JUMPDEST PUSH32 0x416C726561647920636C61696D65640000000000000000000000000000000000 PUSH1 0x0 DUP3 ADD MSTORE POP JUMP JUMPDEST PUSH1 0x0 PUSH2 0x4BD1 PUSH1 0xF DUP4 PUSH2 0x32EF JUMP JUMPDEST SWAP2 POP PUSH2 0x4BDC DUP3 PUSH2 0x4B9B JUMP JUMPDEST PUSH1 0x20 DUP3 ADD SWAP1 POP SWAP2 SWAP1 POP JUMP JUMPDEST PUSH1 0x0 PUSH1 0x20 DUP3 ADD SWAP1 POP DUP2 DUP2 SUB PUSH1 0x0 DUP4 ADD MSTORE PUSH2 0x4C00 DUP2 PUSH2 0x4BC4 JUMP JUMPDEST SWAP1 POP SWAP2 SWAP1 POP JUMP JUMPDEST PUSH32 0x496E76616C6964206D65726B6C652070726F6F66000000000000000000000000 PUSH1 0x0 DUP3 ADD MSTORE POP JUMP JUMPDEST PUSH1 0x0 PUSH2 0x4C3D PUSH1 0x14 DUP4 PUSH2 0x32EF JUMP JUMPDEST SWAP2 POP PUSH2 0x4C48 DUP3 PUSH2 0x4C07 JUMP JUMPDEST PUSH1 0x20 DUP3 ADD SWAP1 POP SWAP2 SWAP1 POP JUMP JUMPDEST PUSH1 0x0 PUSH1 0x20 DUP3 ADD SWAP1 POP DUP2 DUP2 SUB PUSH1 0x0 DUP4 ADD MSTORE PUSH2 0x4C6C DUP2 PUSH2 0x4C30 JUMP JUMPDEST SWAP1 POP SWAP2 SWAP1 POP JUMP JUMPDEST PUSH1 0x0 PUSH2 0x4C7E DUP3 PUSH2 0x3091 JUMP JUMPDEST SWAP2 POP PUSH2 0x4C89 DUP4 PUSH2 0x3091 JUMP JUMPDEST SWAP3 POP DUP3 DUP3 MUL PUSH2 0x4C97 DUP2 PUSH2 0x3091 JUMP JUMPDEST SWAP2 POP DUP3 DUP3 DIV DUP5 EQ DUP4 ISZERO OR PUSH2 0x4CAE JUMPI PUSH2 0x4CAD PUSH2 0x40F4 JUMP JUMPDEST JUMPDEST POP SWAP3 SWAP2 POP POP JUMP JUMPDEST PUSH32 0x4E487B7100000000000000000000000000000000000000000000000000000000 PUSH1 0x0 MSTORE PUSH1 0x12 PUSH1 0x4 MSTORE PUSH1 0x24 PUSH1 0x0 REVERT JUMPDEST PUSH1 0x0 PUSH2 0x4CEF DUP3 PUSH2 0x3091 JUMP JUMPDEST SWAP2 POP PUSH2 0x4CFA DUP4 PUSH2 0x3091 JUMP JUMPDEST SWAP3 POP DUP3 PUSH2 0x4D0A JUMPI PUSH2 0x4D09 PUSH2 0x4CB5 JUMP JUMPDEST JUMPDEST DUP3 DUP3 DIV SWAP1 POP SWAP3 SWAP2 POP POP JUMP JUMPDEST PUSH1 0x0 DUP2 SWAP1 POP SWAP3 SWAP2 POP POP JUMP JUMPDEST PUSH1 0x0 PUSH2 0x4D2D PUSH1 0x0 DUP4 PUSH2 0x4D15 JUMP JUMPDEST SWAP2 POP PUSH2 0x4D38 DUP3 PUSH2 0x4A5E JUMP JUMPDEST PUSH1 0x0 DUP3 ADD SWAP1 POP SWAP2 SWAP1 POP JUMP JUMPDEST PUSH1 0x0 PUSH2 0x4D4E DUP3 PUSH2 0x4D20 JUMP JUMPDEST SWAP2 POP DUP2 SWAP1 POP SWAP2 SWAP1 POP JUMP JUMPDEST PUSH32 0x4661696C656420746F2073656E64204574686572000000000000000000000000 PUSH1 0x0 DUP3 ADD MSTORE POP JUMP JUMPDEST PUSH1 0x0 PUSH2 0x4D8E PUSH1 0x14 DUP4 PUSH2 0x32EF JUMP JUMPDEST SWAP2 POP PUSH2 0x4D99 DUP3 PUSH2 0x4D58 JUMP JUMPDEST PUSH1 0x20 DUP3 ADD SWAP1 POP SWAP2 SWAP1 POP JUMP JUMPDEST PUSH1 0x0 PUSH1 0x20 DUP3 ADD SWAP1 POP DUP2 DUP2 SUB PUSH1 0x0 DUP4 ADD MSTORE PUSH2 0x4DBD DUP2 PUSH2 0x4D81 JUMP JUMPDEST SWAP1 POP SWAP2 SWAP1 POP JUMP JUMPDEST PUSH32 0x4E6F74206F776E65720000000000000000000000000000000000000000000000 PUSH1 0x0 DUP3 ADD MSTORE POP JUMP JUMPDEST PUSH1 0x0 PUSH2 0x4DFA PUSH1 0x9 DUP4 PUSH2 0x32EF JUMP JUMPDEST SWAP2 POP PUSH2 0x4E05 DUP3 PUSH2 0x4DC4 JUMP JUMPDEST PUSH1 0x20 DUP3 ADD SWAP1 POP SWAP2 SWAP1 POP JUMP JUMPDEST PUSH1 0x0 PUSH1 0x20 DUP3 ADD SWAP1 POP DUP2 DUP2 SUB PUSH1 0x0 DUP4 ADD MSTORE PUSH2 0x4E29 DUP2 PUSH2 0x4DED JUMP JUMPDEST SWAP1 POP SWAP2 SWAP1 POP JUMP JUMPDEST PUSH1 0x0 DUP2 SWAP1 POP DUP2 PUSH1 0x0 MSTORE PUSH1 0x20 PUSH1 0x0 KECCAK256 SWAP1 POP SWAP2 SWAP1 POP JUMP JUMPDEST PUSH1 0x0 PUSH1 0x20 PUSH1 0x1F DUP4 ADD DIV SWAP1 POP SWAP2 SWAP1 POP JUMP JUMPDEST PUSH1 0x0 DUP3 DUP3 SHL SWAP1 POP SWAP3 SWAP2 POP POP JUMP JUMPDEST PUSH1 0x0 PUSH1 0x8 DUP4 MUL PUSH2 0x4E92 PUSH32 0xFFFFFFFFFFFFFFFFFFFFFFFFFFFFFFFFFFFFFFFFFFFFFFFFFFFFFFFFFFFFFFFF DUP3 PUSH2 0x4E55 JUMP JUMPDEST PUSH2 0x4E9C DUP7 DUP4 PUSH2 0x4E55 JUMP JUMPDEST SWAP6 POP DUP1 NOT DUP5 AND SWAP4 POP DUP1 DUP7 AND DUP5 OR SWAP3 POP POP POP SWAP4 SWAP3 POP POP POP JUMP JUMPDEST PUSH1 0x0 PUSH2 0x4ECF PUSH2 0x4ECA PUSH2 0x4EC5 DUP5 PUSH2 0x3091 JUMP JUMPDEST PUSH2 0x3B67 JUMP JUMPDEST PUSH2 0x3091 JUMP JUMPDEST SWAP1 POP SWAP2 SWAP1 POP JUMP JUMPDEST PUSH1 0x0 DUP2 SWAP1 POP SWAP2 SWAP1 POP JUMP JUMPDEST PUSH2 0x4EE9 DUP4 PUSH2 0x4EB4 JUMP JUMPDEST PUSH2 0x4EFD PUSH2 0x4EF5 DUP3 PUSH2 0x4ED6 JUMP JUMPDEST DUP5 DUP5 SLOAD PUSH2 0x4E62 JUMP JUMPDEST DUP3 SSTORE POP POP POP POP JUMP JUMPDEST PUSH1 0x0 SWAP1 JUMP JUMPDEST PUSH2 0x4F12 PUSH2 0x4F05 JUMP JUMPDEST PUSH2 0x4F1D DUP2 DUP5 DUP5 PUSH2 0x4EE0 JUMP JUMPDEST POP POP POP JUMP JUMPDEST JUMPDEST DUP2 DUP2 LT ISZERO PUSH2 0x4F41 JUMPI PUSH2 0x4F36 PUSH1 0x0 DUP3 PUSH2 0x4F0A JUMP JUMPDEST PUSH1 0x1 DUP2 ADD SWAP1 POP PUSH2 0x4F23 JUMP JUMPDEST POP POP JUMP JUMPDEST PUSH1 0x1F DUP3 GT ISZERO PUSH2 0x4F86 JUMPI PUSH2 0x4F57 DUP2 PUSH2 0x4E30 JUMP JUMPDEST PUSH2 0x4F60 DUP5 PUSH2 0x4E45 JUMP JUMPDEST DUP2 ADD PUSH1 0x20 DUP6 LT ISZERO PUSH2 0x4F6F JUMPI DUP2 SWAP1 POP JUMPDEST PUSH2 0x4F83 PUSH2 0x4F7B DUP6 PUSH2 0x4E45 JUMP JUMPDEST DUP4 ADD DUP3 PUSH2 0x4F22 JUMP JUMPDEST POP POP JUMPDEST POP POP POP JUMP JUMPDEST PUSH1 0x0 DUP3 DUP3 SHR SWAP1 POP SWAP3 SWAP2 POP POP JUMP JUMPDEST PUSH1 0x0 PUSH2 0x4FA9 PUSH1 0x0 NOT DUP5 PUSH1 0x8 MUL PUSH2 0x4F8B JUMP JUMPDEST NOT DUP1 DUP4 AND SWAP2 POP POP SWAP3 SWAP2 POP POP JUMP JUMPDEST PUSH1 0x0 PUSH2 0x4FC2 DUP4 DUP4 PUSH2 0x4F98 JUMP JUMPDEST SWAP2 POP DUP3 PUSH1 0x2 MUL DUP3 OR SWAP1 POP SWAP3 SWAP2 POP POP JUMP JUMPDEST PUSH2 0x4FDB DUP3 PUSH2 0x32E4 JUMP JUMPDEST PUSH8 0xFFFFFFFFFFFFFFFF DUP2 GT ISZERO PUSH2 0x4FF4 JUMPI PUSH2 0x4FF3 PUSH2 0x439E JUMP JUMPDEST JUMPDEST PUSH2 0x4FFE DUP3 SLOAD PUSH2 0x3EDA JUMP JUMPDEST PUSH2 0x5009 DUP3 DUP3 DUP6 PUSH2 0x4F45 JUMP JUMPDEST PUSH1 0x0 PUSH1 0x20 SWAP1 POP PUSH1 0x1F DUP4 GT PUSH1 0x1 DUP2 EQ PUSH2 0x503C JUMPI PUSH1 0x0 DUP5 ISZERO PUSH2 0x502A JUMPI DUP3 DUP8 ADD MLOAD SWAP1 POP JUMPDEST PUSH2 0x5034 DUP6 DUP3 PUSH2 0x4FB6 JUMP JUMPDEST DUP7 SSTORE POP PUSH2 0x509C JUMP JUMPDEST PUSH1 0x1F NOT DUP5 AND PUSH2 0x504A DUP7 PUSH2 0x4E30 JUMP JUMPDEST PUSH1 0x0 JUMPDEST DUP3 DUP2 LT ISZERO PUSH2 0x5072 JUMPI DUP5 DUP10 ADD MLOAD DUP3 SSTORE PUSH1 0x1 DUP3 ADD SWAP2 POP PUSH1 0x20 DUP6 ADD SWAP5 POP PUSH1 0x20 DUP2 ADD SWAP1 POP PUSH2 0x504D JUMP JUMPDEST DUP7 DUP4 LT ISZERO PUSH2 0x508F JUMPI DUP5 DUP10 ADD MLOAD PUSH2 0x508B PUSH1 0x1F DUP10 AND DUP3 PUSH2 0x4F98 JUMP JUMPDEST DUP4 SSTORE POP JUMPDEST PUSH1 0x1 PUSH1 0x2 DUP9 MUL ADD DUP9 SSTORE POP POP POP JUMPDEST POP POP POP POP POP POP JUMP JUMPDEST PUSH1 0x0 PUSH2 0x50B0 DUP4 DUP6 PUSH2 0x32EF JUMP JUMPDEST SWAP4 POP PUSH2 0x50BD DUP4 DUP6 DUP5 PUSH2 0x4241 JUMP JUMPDEST PUSH2 0x50C6 DUP4 PUSH2 0x332A JUMP JUMPDEST DUP5 ADD SWAP1 POP SWAP4 SWAP3 POP POP POP JUMP JUMPDEST PUSH1 0x0 PUSH1 0x20 DUP3 ADD SWAP1 POP DUP2 DUP2 SUB PUSH1 0x0 DUP4 ADD MSTORE PUSH2 0x50EC DUP2 DUP5 DUP7 PUSH2 0x50A4 JUMP JUMPDEST SWAP1 POP SWAP4 SWAP3 POP POP POP JUMP JUMPDEST PUSH1 0x0 DUP2 SWAP1 POP SWAP2 SWAP1 POP JUMP JUMPDEST PUSH1 0x0 PUSH2 0x511A PUSH2 0x5115 PUSH2 0x5110 DUP5 PUSH2 0x50F5 JUMP JUMPDEST PUSH2 0x3B67 JUMP JUMPDEST PUSH2 0x3091 JUMP JUMPDEST SWAP1 POP SWAP2 SWAP1 POP JUMP JUMPDEST PUSH2 0x512A DUP2 PUSH2 0x50FF JUMP JUMPDEST DUP3 MSTORE POP POP JUMP JUMPDEST PUSH1 0x0 PUSH1 0x40 DUP3 ADD SWAP1 POP PUSH2 0x5145 PUSH1 0x0 DUP4 ADD DUP6 PUSH2 0x3107 JUMP JUMPDEST PUSH2 0x5152 PUSH1 0x20 DUP4 ADD DUP5 PUSH2 0x5121 JUMP JUMPDEST SWAP4 SWAP3 POP POP POP JUMP JUMPDEST PUSH32 0x4B657920706F6F6C206973206C69717569646174656400000000000000000000 PUSH1 0x0 DUP3 ADD MSTORE POP JUMP JUMPDEST PUSH1 0x0 PUSH2 0x518F PUSH1 0x16 DUP4 PUSH2 0x32EF JUMP JUMPDEST SWAP2 POP PUSH2 0x519A DUP3 PUSH2 0x5159 JUMP JUMPDEST PUSH1 0x20 DUP3 ADD SWAP1 POP SWAP2 SWAP1 POP JUMP JUMPDEST PUSH1 0x0 PUSH1 0x20 DUP3 ADD SWAP1 POP DUP2 DUP2 SUB PUSH1 0x0 DUP4 ADD MSTORE PUSH2 0x51BE DUP2 PUSH2 0x5182 JUMP JUMPDEST SWAP1 POP SWAP2 SWAP1 POP JUMP JUMPDEST PUSH32 0x496E73756666696369656E74207061796D656E74000000000000000000000000 PUSH1 0x0 DUP3 ADD MSTORE POP JUMP JUMPDEST PUSH1 0x0 PUSH2 0x51FB PUSH1 0x14 DUP4 PUSH2 0x32EF JUMP JUMPDEST SWAP2 POP PUSH2 0x5206 DUP3 PUSH2 0x51C5 JUMP JUMPDEST PUSH1 0x20 DUP3 ADD SWAP1 POP SWAP2 SWAP1 POP JUMP JUMPDEST PUSH1 0x0 PUSH1 0x20 DUP3 ADD SWAP1 POP DUP2 DUP2 SUB PUSH1 0x0 DUP4 ADD MSTORE PUSH2 0x522A DUP2 PUSH2 0x51EE JUMP JUMPDEST SWAP1 POP SWAP2 SWAP1 POP JUMP JUMPDEST PUSH1 0x0 PUSH1 0x40 DUP3 ADD SWAP1 POP PUSH2 0x5246 PUSH1 0x0 DUP4 ADD DUP6 PUSH2 0x3107 JUMP JUMPDEST PUSH2 0x5253 PUSH1 0x20 DUP4 ADD DUP5 PUSH2 0x3107 JUMP JUMPDEST SWAP4 SWAP3 POP POP POP JUMP JUMPDEST PUSH32 0x496E73756666696369656E742062616C616E6365000000000000000000000000 PUSH1 0x0 DUP3 ADD MSTORE POP JUMP JUMPDEST PUSH1 0x0 PUSH2 0x5290 PUSH1 0x14 DUP4 PUSH2 0x32EF JUMP JUMPDEST SWAP2 POP PUSH2 0x529B DUP3 PUSH2 0x525A JUMP JUMPDEST PUSH1 0x20 DUP3 ADD SWAP1 POP SWAP2 SWAP1 POP JUMP JUMPDEST PUSH1 0x0 PUSH1 0x20 DUP3 ADD SWAP1 POP DUP2 DUP2 SUB PUSH1 0x0 DUP4 ADD MSTORE PUSH2 0x52BF DUP2 PUSH2 0x5283 JUMP JUMPDEST SWAP1 POP SWAP2 SWAP1 POP JUMP JUMPDEST PUSH32 0x537570706C79206E6F7420616C6C6F7765642062656C6F77207072656D696E74 PUSH1 0x0 DUP3 ADD MSTORE PUSH32 0x20616D6F756E7400000000000000000000000000000000000000000000000000 PUSH1 0x20 DUP3 ADD MSTORE POP JUMP JUMPDEST PUSH1 0x0 PUSH2 0x5322 PUSH1 0x27 DUP4 PUSH2 0x32EF JUMP JUMPDEST SWAP2 POP PUSH2 0x532D DUP3 PUSH2 0x52C6 JUMP JUMPDEST PUSH1 0x40 DUP3 ADD SWAP1 POP SWAP2 SWAP1 POP JUMP JUMPDEST PUSH1 0x0 PUSH1 0x20 DUP3 ADD SWAP1 POP DUP2 DUP2 SUB PUSH1 0x0 DUP4 ADD MSTORE PUSH2 0x5351 DUP2 PUSH2 0x5315 JUMP JUMPDEST SWAP1 POP SWAP2 SWAP1 POP JUMP JUMPDEST PUSH1 0x0 PUSH1 0x80 DUP3 ADD SWAP1 POP PUSH2 0x536D PUSH1 0x0 DUP4 ADD DUP8 PUSH2 0x32BA JUMP JUMPDEST PUSH2 0x537A PUSH1 0x20 DUP4 ADD DUP7 PUSH2 0x3374 JUMP JUMPDEST PUSH2 0x5387 PUSH1 0x40 DUP4 ADD DUP6 PUSH2 0x3107 JUMP JUMPDEST PUSH2 0x5394 PUSH1 0x60 DUP4 ADD DUP5 PUSH2 0x3107 JUMP JUMPDEST SWAP6 SWAP5 POP POP POP POP POP JUMP JUMPDEST PUSH1 0x0 PUSH1 0xA0 DUP3 ADD SWAP1 POP PUSH2 0x53B2 PUSH1 0x0 DUP4 ADD DUP10 PUSH2 0x3374 JUMP JUMPDEST PUSH2 0x53BF PUSH1 0x20 DUP4 ADD DUP9 PUSH2 0x3374 JUMP JUMPDEST PUSH2 0x53CC PUSH1 0x40 DUP4 ADD DUP8 PUSH2 0x3107 JUMP JUMPDEST PUSH2 0x53D9 PUSH1 0x60 DUP4 ADD DUP7 PUSH2 0x3107 JUMP JUMPDEST DUP2 DUP2 SUB PUSH1 0x80 DUP4 ADD MSTORE PUSH2 0x53EC DUP2 DUP5 DUP7 PUSH2 0x4250 JUMP JUMPDEST SWAP1 POP SWAP8 SWAP7 POP POP POP POP POP POP POP JUMP JUMPDEST PUSH32 0x426C6F636B206E756D6265722063616E6E6F7420626520696E20746865206675 PUSH1 0x0 DUP3 ADD MSTORE PUSH32 0x7475726500000000000000000000000000000000000000000000000000000000 PUSH1 0x20 DUP3 ADD MSTORE POP JUMP JUMPDEST PUSH1 0x0 PUSH2 0x5455 PUSH1 0x24 DUP4 PUSH2 0x32EF JUMP JUMPDEST SWAP2 POP PUSH2 0x5460 DUP3 PUSH2 0x53F9 JUMP JUMPDEST PUSH1 0x40 DUP3 ADD SWAP1 POP SWAP2 SWAP1 POP JUMP JUMPDEST PUSH1 0x0 PUSH1 0x20 DUP3 ADD SWAP1 POP DUP2 DUP2 SUB PUSH1 0x0 DUP4 ADD MSTORE PUSH2 0x5484 DUP2 PUSH2 0x5448 JUMP JUMPDEST SWAP1 POP SWAP2 SWAP1 POP JUMP JUMPDEST PUSH1 0x0 PUSH2 0x5496 DUP3 PUSH2 0x4892 JUMP JUMPDEST PUSH2 0x54A0 DUP2 DUP6 PUSH2 0x4230 JUMP JUMPDEST SWAP4 POP PUSH2 0x54B0 DUP2 DUP6 PUSH1 0x20 DUP7 ADD PUSH2 0x3300 JUMP JUMPDEST PUSH2 0x54B9 DUP2 PUSH2 0x332A JUMP JUMPDEST DUP5 ADD SWAP2 POP POP SWAP3 SWAP2 POP POP JUMP JUMPDEST PUSH1 0x0 PUSH1 0xA0 DUP3 ADD SWAP1 POP PUSH2 0x54D9 PUSH1 0x0 DUP4 ADD DUP9 PUSH2 0x3374 JUMP JUMPDEST PUSH2 0x54E6 PUSH1 0x20 DUP4 ADD DUP8 PUSH2 0x3374 JUMP JUMPDEST PUSH2 0x54F3 PUSH1 0x40 DUP4 ADD DUP7 PUSH2 0x3107 JUMP JUMPDEST PUSH2 0x5500 PUSH1 0x60 DUP4 ADD DUP6 PUSH2 0x3107 JUMP JUMPDEST DUP2 DUP2 SUB PUSH1 0x80 DUP4 ADD MSTORE PUSH2 0x5512 DUP2 DUP5 PUSH2 0x548B JUMP JUMPDEST SWAP1 POP SWAP7 SWAP6 POP POP POP POP POP POP JUMP INVALID LOG2 PUSH5 0x6970667358 0x22 SLT KECCAK256 0xF9 SWAP12 0xE6 SLOAD 0xAC CALLER LOG2 DUP12 PUSH27 0x3BCA8CDA6EA94A22EAF7730CEE1D82C4CC34EE8A5DBBA664736F6C PUSH4 0x4300081B STOP CALLER "},"methodIdentifiers":{"CLAIM_DENOMINATOR()":"2741a8c5","CLAIM_PERCENT()":"4d7b31d7","CREATOR_PREMINT()":"7ffb25ac","_attest(bytes32,address,uint256,uint256)":"4fccfb67","balanceOf(address,uint256)":"00fdd58e","balanceOfBatch(address[],uint256[])":"4e1273f4","buy(uint256,uint256)":"d6febde8","claim(uint256,uint256,bytes32[])":"ae0b51df","create(string)":"b6a46b3b","didReceiveAttestation(address,uint64,uint64,address,uint256,bytes)":"4466507a","didReceiveAttestation(address,uint64,uint64,bytes)":"3398b4ed","didReceiveRevocation(address,uint64,uint64,address,uint256,bytes)":"e830b5c7","didReceiveRevocation(address,uint64,uint64,bytes)":"e33361f4","getBuyPrice(uint256,uint256)":"c157253d","getKeysByAddress(address)":"4d8cfcd4","getMerkleRoot(uint256)":"0aab8ba5","getPrice(uint256,uint256)":"5cf4ee91","getSellPrice(uint256,uint256)":"9477d85d","hasClaimed(uint256,address)":"873f6f9e","isApprovedForAll(address,address)":"e985e9c5","keyIndex()":"58074d8b","keys(uint256)":"0cb6aaf1","owner()":"8da5cb5b","pool(uint256)":"fe313112","safeBatchTransferFrom(address,address,uint256[],uint256[],bytes)":"2eb2c2d6","safeTransferFrom(address,address,uint256,uint256,bytes)":"f242432a","schemaId()":"075b1a09","sell(uint256,uint256)":"d79875eb","setApprovalForAll(address,bool)":"a22cb465","setSPInstance(address)":"8e9d660f","setSchemaID(uint64)":"05ca8ee3","setSignProtocolStatus(bool)":"fe6cb064","signProtocolEnabled()":"d6716938","spInstance()":"a8c5dc33","supportsInterface(bytes4)":"01ffc9a7","toggleLiquidation(uint256)":"c23c8b03","totalSupply(uint256)":"bd85b039","updateMerkleRoot(uint256,bytes32)":"f1e33115","uri(uint256)":"0e89341c","userKeys(address,uint256)":"93990f7a","verifyMerkle(uint256,address,uint256,bytes32[])":"1b7a1bbe"}}}}}